{
	"aave-v2/AaveV2ERC4626.sol": {
		"AaveV2ERC4626": {
			"abi": [
				{
					"inputs": [
						{
							"internalType": "contract ERC20",
							"name": "asset_",
							"type": "address"
						},
						{
							"internalType": "contract ERC20",
							"name": "aToken_",
							"type": "address"
						},
						{
							"internalType": "contract IAaveMining",
							"name": "aaveMining_",
							"type": "address"
						},
						{
							"internalType": "address",
							"name": "rewardRecipient_",
							"type": "address"
						},
						{
							"internalType": "contract ILendingPool",
							"name": "lendingPool_",
							"type": "address"
						}
					],
					"stateMutability": "nonpayable",
					"type": "constructor"
				},
				{
					"anonymous": false,
					"inputs": [
						{
							"indexed": true,
							"internalType": "address",
							"name": "owner",
							"type": "address"
						},
						{
							"indexed": true,
							"internalType": "address",
							"name": "spender",
							"type": "address"
						},
						{
							"indexed": false,
							"internalType": "uint256",
							"name": "amount",
							"type": "uint256"
						}
					],
					"name": "Approval",
					"type": "event"
				},
				{
					"anonymous": false,
					"inputs": [
						{
							"indexed": false,
							"internalType": "uint256",
							"name": "amount",
							"type": "uint256"
						}
					],
					"name": "ClaimRewards",
					"type": "event"
				},
				{
					"anonymous": false,
					"inputs": [
						{
							"indexed": true,
							"internalType": "address",
							"name": "caller",
							"type": "address"
						},
						{
							"indexed": true,
							"internalType": "address",
							"name": "owner",
							"type": "address"
						},
						{
							"indexed": false,
							"internalType": "uint256",
							"name": "assets",
							"type": "uint256"
						},
						{
							"indexed": false,
							"internalType": "uint256",
							"name": "shares",
							"type": "uint256"
						}
					],
					"name": "Deposit",
					"type": "event"
				},
				{
					"anonymous": false,
					"inputs": [
						{
							"indexed": true,
							"internalType": "address",
							"name": "from",
							"type": "address"
						},
						{
							"indexed": true,
							"internalType": "address",
							"name": "to",
							"type": "address"
						},
						{
							"indexed": false,
							"internalType": "uint256",
							"name": "amount",
							"type": "uint256"
						}
					],
					"name": "Transfer",
					"type": "event"
				},
				{
					"anonymous": false,
					"inputs": [
						{
							"indexed": true,
							"internalType": "address",
							"name": "caller",
							"type": "address"
						},
						{
							"indexed": true,
							"internalType": "address",
							"name": "receiver",
							"type": "address"
						},
						{
							"indexed": true,
							"internalType": "address",
							"name": "owner",
							"type": "address"
						},
						{
							"indexed": false,
							"internalType": "uint256",
							"name": "assets",
							"type": "uint256"
						},
						{
							"indexed": false,
							"internalType": "uint256",
							"name": "shares",
							"type": "uint256"
						}
					],
					"name": "Withdraw",
					"type": "event"
				},
				{
					"inputs": [],
					"name": "DOMAIN_SEPARATOR",
					"outputs": [
						{
							"internalType": "bytes32",
							"name": "",
							"type": "bytes32"
						}
					],
					"stateMutability": "view",
					"type": "function"
				},
				{
					"inputs": [],
					"name": "aToken",
					"outputs": [
						{
							"internalType": "contract ERC20",
							"name": "",
							"type": "address"
						}
					],
					"stateMutability": "view",
					"type": "function"
				},
				{
					"inputs": [],
					"name": "aaveMining",
					"outputs": [
						{
							"internalType": "contract IAaveMining",
							"name": "",
							"type": "address"
						}
					],
					"stateMutability": "view",
					"type": "function"
				},
				{
					"inputs": [
						{
							"internalType": "address",
							"name": "",
							"type": "address"
						},
						{
							"internalType": "address",
							"name": "",
							"type": "address"
						}
					],
					"name": "allowance",
					"outputs": [
						{
							"internalType": "uint256",
							"name": "",
							"type": "uint256"
						}
					],
					"stateMutability": "view",
					"type": "function"
				},
				{
					"inputs": [
						{
							"internalType": "address",
							"name": "spender",
							"type": "address"
						},
						{
							"internalType": "uint256",
							"name": "amount",
							"type": "uint256"
						}
					],
					"name": "approve",
					"outputs": [
						{
							"internalType": "bool",
							"name": "",
							"type": "bool"
						}
					],
					"stateMutability": "nonpayable",
					"type": "function"
				},
				{
					"inputs": [],
					"name": "asset",
					"outputs": [
						{
							"internalType": "contract ERC20",
							"name": "",
							"type": "address"
						}
					],
					"stateMutability": "view",
					"type": "function"
				},
				{
					"inputs": [
						{
							"internalType": "address",
							"name": "",
							"type": "address"
						}
					],
					"name": "balanceOf",
					"outputs": [
						{
							"internalType": "uint256",
							"name": "",
							"type": "uint256"
						}
					],
					"stateMutability": "view",
					"type": "function"
				},
				{
					"inputs": [],
					"name": "claimRewards",
					"outputs": [],
					"stateMutability": "nonpayable",
					"type": "function"
				},
				{
					"inputs": [
						{
							"internalType": "uint256",
							"name": "shares",
							"type": "uint256"
						}
					],
					"name": "convertToAssets",
					"outputs": [
						{
							"internalType": "uint256",
							"name": "",
							"type": "uint256"
						}
					],
					"stateMutability": "view",
					"type": "function"
				},
				{
					"inputs": [
						{
							"internalType": "uint256",
							"name": "assets",
							"type": "uint256"
						}
					],
					"name": "convertToShares",
					"outputs": [
						{
							"internalType": "uint256",
							"name": "",
							"type": "uint256"
						}
					],
					"stateMutability": "view",
					"type": "function"
				},
				{
					"inputs": [],
					"name": "decimals",
					"outputs": [
						{
							"internalType": "uint8",
							"name": "",
							"type": "uint8"
						}
					],
					"stateMutability": "view",
					"type": "function"
				},
				{
					"inputs": [
						{
							"internalType": "uint256",
							"name": "assets",
							"type": "uint256"
						},
						{
							"internalType": "address",
							"name": "receiver",
							"type": "address"
						}
					],
					"name": "deposit",
					"outputs": [
						{
							"internalType": "uint256",
							"name": "shares",
							"type": "uint256"
						}
					],
					"stateMutability": "nonpayable",
					"type": "function"
				},
				{
					"inputs": [],
					"name": "lendingPool",
					"outputs": [
						{
							"internalType": "contract ILendingPool",
							"name": "",
							"type": "address"
						}
					],
					"stateMutability": "view",
					"type": "function"
				},
				{
					"inputs": [
						{
							"internalType": "address",
							"name": "",
							"type": "address"
						}
					],
					"name": "maxDeposit",
					"outputs": [
						{
							"internalType": "uint256",
							"name": "",
							"type": "uint256"
						}
					],
					"stateMutability": "view",
					"type": "function"
				},
				{
					"inputs": [
						{
							"internalType": "address",
							"name": "",
							"type": "address"
						}
					],
					"name": "maxMint",
					"outputs": [
						{
							"internalType": "uint256",
							"name": "",
							"type": "uint256"
						}
					],
					"stateMutability": "view",
					"type": "function"
				},
				{
					"inputs": [
						{
							"internalType": "address",
							"name": "owner",
							"type": "address"
						}
					],
					"name": "maxRedeem",
					"outputs": [
						{
							"internalType": "uint256",
							"name": "",
							"type": "uint256"
						}
					],
					"stateMutability": "view",
					"type": "function"
				},
				{
					"inputs": [
						{
							"internalType": "address",
							"name": "owner",
							"type": "address"
						}
					],
					"name": "maxWithdraw",
					"outputs": [
						{
							"internalType": "uint256",
							"name": "",
							"type": "uint256"
						}
					],
					"stateMutability": "view",
					"type": "function"
				},
				{
					"inputs": [
						{
							"internalType": "uint256",
							"name": "shares",
							"type": "uint256"
						},
						{
							"internalType": "address",
							"name": "receiver",
							"type": "address"
						}
					],
					"name": "mint",
					"outputs": [
						{
							"internalType": "uint256",
							"name": "assets",
							"type": "uint256"
						}
					],
					"stateMutability": "nonpayable",
					"type": "function"
				},
				{
					"inputs": [],
					"name": "name",
					"outputs": [
						{
							"internalType": "string",
							"name": "",
							"type": "string"
						}
					],
					"stateMutability": "view",
					"type": "function"
				},
				{
					"inputs": [
						{
							"internalType": "address",
							"name": "",
							"type": "address"
						}
					],
					"name": "nonces",
					"outputs": [
						{
							"internalType": "uint256",
							"name": "",
							"type": "uint256"
						}
					],
					"stateMutability": "view",
					"type": "function"
				},
				{
					"inputs": [
						{
							"internalType": "address",
							"name": "owner",
							"type": "address"
						},
						{
							"internalType": "address",
							"name": "spender",
							"type": "address"
						},
						{
							"internalType": "uint256",
							"name": "value",
							"type": "uint256"
						},
						{
							"internalType": "uint256",
							"name": "deadline",
							"type": "uint256"
						},
						{
							"internalType": "uint8",
							"name": "v",
							"type": "uint8"
						},
						{
							"internalType": "bytes32",
							"name": "r",
							"type": "bytes32"
						},
						{
							"internalType": "bytes32",
							"name": "s",
							"type": "bytes32"
						}
					],
					"name": "permit",
					"outputs": [],
					"stateMutability": "nonpayable",
					"type": "function"
				},
				{
					"inputs": [
						{
							"internalType": "uint256",
							"name": "assets",
							"type": "uint256"
						}
					],
					"name": "previewDeposit",
					"outputs": [
						{
							"internalType": "uint256",
							"name": "",
							"type": "uint256"
						}
					],
					"stateMutability": "view",
					"type": "function"
				},
				{
					"inputs": [
						{
							"internalType": "uint256",
							"name": "shares",
							"type": "uint256"
						}
					],
					"name": "previewMint",
					"outputs": [
						{
							"internalType": "uint256",
							"name": "",
							"type": "uint256"
						}
					],
					"stateMutability": "view",
					"type": "function"
				},
				{
					"inputs": [
						{
							"internalType": "uint256",
							"name": "shares",
							"type": "uint256"
						}
					],
					"name": "previewRedeem",
					"outputs": [
						{
							"internalType": "uint256",
							"name": "",
							"type": "uint256"
						}
					],
					"stateMutability": "view",
					"type": "function"
				},
				{
					"inputs": [
						{
							"internalType": "uint256",
							"name": "assets",
							"type": "uint256"
						}
					],
					"name": "previewWithdraw",
					"outputs": [
						{
							"internalType": "uint256",
							"name": "",
							"type": "uint256"
						}
					],
					"stateMutability": "view",
					"type": "function"
				},
				{
					"inputs": [
						{
							"internalType": "uint256",
							"name": "shares",
							"type": "uint256"
						},
						{
							"internalType": "address",
							"name": "receiver",
							"type": "address"
						},
						{
							"internalType": "address",
							"name": "owner",
							"type": "address"
						}
					],
					"name": "redeem",
					"outputs": [
						{
							"internalType": "uint256",
							"name": "assets",
							"type": "uint256"
						}
					],
					"stateMutability": "nonpayable",
					"type": "function"
				},
				{
					"inputs": [],
					"name": "rewardRecipient",
					"outputs": [
						{
							"internalType": "address",
							"name": "",
							"type": "address"
						}
					],
					"stateMutability": "view",
					"type": "function"
				},
				{
					"inputs": [],
					"name": "symbol",
					"outputs": [
						{
							"internalType": "string",
							"name": "",
							"type": "string"
						}
					],
					"stateMutability": "view",
					"type": "function"
				},
				{
					"inputs": [],
					"name": "totalAssets",
					"outputs": [
						{
							"internalType": "uint256",
							"name": "",
							"type": "uint256"
						}
					],
					"stateMutability": "view",
					"type": "function"
				},
				{
					"inputs": [],
					"name": "totalSupply",
					"outputs": [
						{
							"internalType": "uint256",
							"name": "",
							"type": "uint256"
						}
					],
					"stateMutability": "view",
					"type": "function"
				},
				{
					"inputs": [
						{
							"internalType": "address",
							"name": "to",
							"type": "address"
						},
						{
							"internalType": "uint256",
							"name": "amount",
							"type": "uint256"
						}
					],
					"name": "transfer",
					"outputs": [
						{
							"internalType": "bool",
							"name": "",
							"type": "bool"
						}
					],
					"stateMutability": "nonpayable",
					"type": "function"
				},
				{
					"inputs": [
						{
							"internalType": "address",
							"name": "from",
							"type": "address"
						},
						{
							"internalType": "address",
							"name": "to",
							"type": "address"
						},
						{
							"internalType": "uint256",
							"name": "amount",
							"type": "uint256"
						}
					],
					"name": "transferFrom",
					"outputs": [
						{
							"internalType": "bool",
							"name": "",
							"type": "bool"
						}
					],
					"stateMutability": "nonpayable",
					"type": "function"
				},
				{
					"inputs": [
						{
							"internalType": "uint256",
							"name": "assets",
							"type": "uint256"
						},
						{
							"internalType": "address",
							"name": "receiver",
							"type": "address"
						},
						{
							"internalType": "address",
							"name": "owner",
							"type": "address"
						}
					],
					"name": "withdraw",
					"outputs": [
						{
							"internalType": "uint256",
							"name": "shares",
							"type": "uint256"
						}
					],
					"stateMutability": "nonpayable",
					"type": "function"
				}
			],
			"devdoc": {
				"author": "zefram.eth",
				"details": "Important security note: due to Aave using a rebasing model for aTokens, this contract cannot independently keep track of the deposited funds, so it is possible for an attacker to directly transfer aTokens to this contract, increase the vault share price atomically, and then exploit an external lending market that uses this contract as collateral.",
				"kind": "dev",
				"methods": {},
				"title": "AaveV2ERC4626",
				"version": 1
			},
			"evm": {
				"assembly": "    /* \"aave-v2/AaveV2ERC4626.sol\":809:8899  contract AaveV2ERC4626 is ERC4626 {... */\n  mstore(0x40, 0x0180)\n    /* \"aave-v2/AaveV2ERC4626.sol\":2341:2723  constructor(... */\n  callvalue\n  dup1\n  iszero\n  tag_1\n  jumpi\n  0x00\n  dup1\n  revert\ntag_1:\n  pop\n  mload(0x40)\n  sub(codesize, bytecodeSize)\n  dup1\n  bytecodeSize\n  dup4\n  codecopy\n  dup2\n  dup2\n  add\n  0x40\n  mstore\n  dup2\n  add\n  swap1\n  tag_2\n  swap2\n  swap1\n  tag_3\n  jump\t// in\ntag_2:\n    /* \"aave-v2/AaveV2ERC4626.sol\":2522:2528  asset_ */\n  dup5\n    /* \"aave-v2/AaveV2ERC4626.sol\":2530:2548  _vaultName(asset_) */\n  tag_5\n    /* \"aave-v2/AaveV2ERC4626.sol\":2541:2547  asset_ */\n  dup7\n    /* \"aave-v2/AaveV2ERC4626.sol\":2530:2540  _vaultName */\n  shl(0x20, tag_6)\n    /* \"aave-v2/AaveV2ERC4626.sol\":2530:2548  _vaultName(asset_) */\n  0x20\n  shr\n  jump\t// in\ntag_5:\n    /* \"aave-v2/AaveV2ERC4626.sol\":2550:2570  _vaultSymbol(asset_) */\n  tag_7\n    /* \"aave-v2/AaveV2ERC4626.sol\":2563:2569  asset_ */\n  dup8\n    /* \"aave-v2/AaveV2ERC4626.sol\":2550:2562  _vaultSymbol */\n  shl(0x20, tag_8)\n    /* \"aave-v2/AaveV2ERC4626.sol\":2550:2570  _vaultSymbol(asset_) */\n  0x20\n  shr\n  jump\t// in\ntag_7:\n    /* \"solmate/mixins/ERC4626.sol\":1290:1295  _name */\n  dup2\n    /* \"solmate/mixins/ERC4626.sol\":1297:1304  _symbol */\n  dup2\n    /* \"solmate/mixins/ERC4626.sol\":1306:1312  _asset */\n  dup5\n    /* \"solmate/mixins/ERC4626.sol\":1306:1321  _asset.decimals */\n  0xffffffffffffffffffffffffffffffffffffffff\n  and\n  0x313ce567\n    /* \"solmate/mixins/ERC4626.sol\":1306:1323  _asset.decimals() */\n  mload(0x40)\n  dup2\n  0xffffffff\n  and\n  0xe0\n  shl\n  dup2\n  mstore\n  0x04\n  add\n  0x20\n  mload(0x40)\n  dup1\n  dup4\n  sub\n  dup2\n  dup7\n  gas\n  staticcall\n  iszero\n  dup1\n  iszero\n  tag_11\n  jumpi\n  returndatasize\n  0x00\n  dup1\n  returndatacopy\n  revert(0x00, returndatasize)\ntag_11:\n  pop\n  pop\n  pop\n  pop\n  mload(0x40)\n  returndatasize\n  not(0x1f)\n  0x1f\n  dup3\n  add\n  and\n  dup3\n  add\n  dup1\n  0x40\n  mstore\n  pop\n  dup2\n  add\n  swap1\n  tag_12\n  swap2\n  swap1\n  tag_13\n  jump\t// in\ntag_12:\n    /* \"solmate/tokens/ERC20.sol\":2101:2106  _name */\n  dup3\n    /* \"solmate/tokens/ERC20.sol\":2094:2098  name */\n  0x00\n    /* \"solmate/tokens/ERC20.sol\":2094:2106  name = _name */\n  swap1\n  dup2\n  tag_16\n  swap2\n  swap1\n  tag_17\n  jump\t// in\ntag_16:\n  pop\n    /* \"solmate/tokens/ERC20.sol\":2125:2132  _symbol */\n  dup2\n    /* \"solmate/tokens/ERC20.sol\":2116:2122  symbol */\n  0x01\n    /* \"solmate/tokens/ERC20.sol\":2116:2132  symbol = _symbol */\n  swap1\n  dup2\n  tag_18\n  swap2\n  swap1\n  tag_17\n  jump\t// in\ntag_18:\n  pop\n    /* \"solmate/tokens/ERC20.sol\":2153:2162  _decimals */\n  dup1\n    /* \"solmate/tokens/ERC20.sol\":2142:2162  decimals = _decimals */\n  0xff\n  and\n  0x80\n  dup2\n  0xff\n  and\n  dup2\n  mstore\n  pop\n  pop\n    /* \"solmate/tokens/ERC20.sol\":2192:2205  block.chainid */\n  chainid\n    /* \"solmate/tokens/ERC20.sol\":2173:2205  INITIAL_CHAIN_ID = block.chainid */\n  0xa0\n  dup2\n  dup2\n  mstore\n  pop\n  pop\n    /* \"solmate/tokens/ERC20.sol\":2242:2266  computeDomainSeparator() */\n  tag_19\n    /* \"solmate/tokens/ERC20.sol\":2242:2264  computeDomainSeparator */\n  shl(0x20, tag_20)\n    /* \"solmate/tokens/ERC20.sol\":2242:2266  computeDomainSeparator() */\n  0x20\n  shr\n  jump\t// in\ntag_19:\n    /* \"solmate/tokens/ERC20.sol\":2215:2266  INITIAL_DOMAIN_SEPARATOR = computeDomainSeparator() */\n  0xc0\n  dup2\n  dup2\n  mstore\n  pop\n  pop\n    /* \"solmate/tokens/ERC20.sol\":1981:2273  constructor(... */\n  pop\n  pop\n  pop\n    /* \"solmate/mixins/ERC4626.sol\":1343:1349  _asset */\n  dup3\n    /* \"solmate/mixins/ERC4626.sol\":1335:1349  asset = _asset */\n  0xffffffffffffffffffffffffffffffffffffffff\n  and\n  0xe0\n  dup2\n  0xffffffffffffffffffffffffffffffffffffffff\n  and\n  dup2\n  mstore\n  pop\n  pop\n    /* \"solmate/mixins/ERC4626.sol\":1184:1356  constructor(... */\n  pop\n  pop\n  pop\n    /* \"aave-v2/AaveV2ERC4626.sol\":2595:2602  aToken_ */\n  dup4\n    /* \"aave-v2/AaveV2ERC4626.sol\":2586:2602  aToken = aToken_ */\n  0xffffffffffffffffffffffffffffffffffffffff\n  and\n  0x0100\n  dup2\n  0xffffffffffffffffffffffffffffffffffffffff\n  and\n  dup2\n  mstore\n  pop\n  pop\n    /* \"aave-v2/AaveV2ERC4626.sol\":2625:2636  aaveMining_ */\n  dup3\n    /* \"aave-v2/AaveV2ERC4626.sol\":2612:2636  aaveMining = aaveMining_ */\n  0xffffffffffffffffffffffffffffffffffffffff\n  and\n  0x0120\n  dup2\n  0xffffffffffffffffffffffffffffffffffffffff\n  and\n  dup2\n  mstore\n  pop\n  pop\n    /* \"aave-v2/AaveV2ERC4626.sol\":2660:2672  lendingPool_ */\n  dup1\n    /* \"aave-v2/AaveV2ERC4626.sol\":2646:2672  lendingPool = lendingPool_ */\n  0xffffffffffffffffffffffffffffffffffffffff\n  and\n  0x0160\n  dup2\n  0xffffffffffffffffffffffffffffffffffffffff\n  and\n  dup2\n  mstore\n  pop\n  pop\n    /* \"aave-v2/AaveV2ERC4626.sol\":2700:2716  rewardRecipient_ */\n  dup2\n    /* \"aave-v2/AaveV2ERC4626.sol\":2682:2716  rewardRecipient = rewardRecipient_ */\n  0xffffffffffffffffffffffffffffffffffffffff\n  and\n  0x0140\n  dup2\n  0xffffffffffffffffffffffffffffffffffffffff\n  and\n  dup2\n  mstore\n  pop\n  pop\n    /* \"aave-v2/AaveV2ERC4626.sol\":2341:2723  constructor(... */\n  pop\n  pop\n  pop\n  pop\n  pop\n    /* \"aave-v2/AaveV2ERC4626.sol\":809:8899  contract AaveV2ERC4626 is ERC4626 {... */\n  jump(tag_23)\n    /* \"aave-v2/AaveV2ERC4626.sol\":8104:8281  function _vaultName(ERC20 asset_) internal view virtual returns (string memory vaultName) {... */\ntag_6:\n    /* \"aave-v2/AaveV2ERC4626.sol\":8169:8192  string memory vaultName */\n  0x60\n    /* \"aave-v2/AaveV2ERC4626.sol\":8258:8264  asset_ */\n  dup2\n    /* \"aave-v2/AaveV2ERC4626.sol\":8258:8271  asset_.symbol */\n  0xffffffffffffffffffffffffffffffffffffffff\n  and\n  0x95d89b41\n    /* \"aave-v2/AaveV2ERC4626.sol\":8258:8273  asset_.symbol() */\n  mload(0x40)\n  dup2\n  0xffffffff\n  and\n  0xe0\n  shl\n  dup2\n  mstore\n  0x04\n  add\n  0x00\n  mload(0x40)\n  dup1\n  dup4\n  sub\n  dup2\n  dup7\n  gas\n  staticcall\n  iszero\n  dup1\n  iszero\n  tag_26\n  jumpi\n  returndatasize\n  0x00\n  dup1\n  returndatacopy\n  revert(0x00, returndatasize)\ntag_26:\n  pop\n  pop\n  pop\n  pop\n  mload(0x40)\n  returndatasize\n  0x00\n  dup3\n  returndatacopy\n  returndatasize\n  not(0x1f)\n  0x1f\n  dup3\n  add\n  and\n  dup3\n  add\n  dup1\n  0x40\n  mstore\n  pop\n  dup2\n  add\n  swap1\n  tag_27\n  swap2\n  swap1\n  tag_28\n  jump\t// in\ntag_27:\n    /* \"aave-v2/AaveV2ERC4626.sol\":8216:8274  string.concat(\"ERC4626-Wrapped Aave v2 \", asset_.symbol()) */\n  add(0x20, mload(0x40))\n  tag_29\n  swap2\n  swap1\n  tag_30\n  jump\t// in\ntag_29:\n  mload(0x40)\n  0x20\n  dup2\n  dup4\n  sub\n  sub\n  dup2\n  mstore\n  swap1\n  0x40\n  mstore\n    /* \"aave-v2/AaveV2ERC4626.sol\":8204:8274  vaultName = string.concat(\"ERC4626-Wrapped Aave v2 \", asset_.symbol()) */\n  swap1\n  pop\n    /* \"aave-v2/AaveV2ERC4626.sol\":8104:8281  function _vaultName(ERC20 asset_) internal view virtual returns (string memory vaultName) {... */\n  swap2\n  swap1\n  pop\n  jump\t// out\n    /* \"aave-v2/AaveV2ERC4626.sol\":8287:8449  function _vaultSymbol(ERC20 asset_) internal view virtual returns (string memory vaultSymbol) {... */\ntag_8:\n    /* \"aave-v2/AaveV2ERC4626.sol\":8354:8379  string memory vaultSymbol */\n  0x60\n    /* \"aave-v2/AaveV2ERC4626.sol\":8426:8432  asset_ */\n  dup2\n    /* \"aave-v2/AaveV2ERC4626.sol\":8426:8439  asset_.symbol */\n  0xffffffffffffffffffffffffffffffffffffffff\n  and\n  0x95d89b41\n    /* \"aave-v2/AaveV2ERC4626.sol\":8426:8441  asset_.symbol() */\n  mload(0x40)\n  dup2\n  0xffffffff\n  and\n  0xe0\n  shl\n  dup2\n  mstore\n  0x04\n  add\n  0x00\n  mload(0x40)\n  dup1\n  dup4\n  sub\n  dup2\n  dup7\n  gas\n  staticcall\n  iszero\n  dup1\n  iszero\n  tag_33\n  jumpi\n  returndatasize\n  0x00\n  dup1\n  returndatacopy\n  revert(0x00, returndatasize)\ntag_33:\n  pop\n  pop\n  pop\n  pop\n  mload(0x40)\n  returndatasize\n  0x00\n  dup3\n  returndatacopy\n  returndatasize\n  not(0x1f)\n  0x1f\n  dup3\n  add\n  and\n  dup3\n  add\n  dup1\n  0x40\n  mstore\n  pop\n  dup2\n  add\n  swap1\n  tag_34\n  swap2\n  swap1\n  tag_28\n  jump\t// in\ntag_34:\n    /* \"aave-v2/AaveV2ERC4626.sol\":8405:8442  string.concat(\"wa2\", asset_.symbol()) */\n  add(0x20, mload(0x40))\n  tag_35\n  swap2\n  swap1\n  tag_36\n  jump\t// in\ntag_35:\n  mload(0x40)\n  0x20\n  dup2\n  dup4\n  sub\n  sub\n  dup2\n  mstore\n  swap1\n  0x40\n  mstore\n    /* \"aave-v2/AaveV2ERC4626.sol\":8391:8442  vaultSymbol = string.concat(\"wa2\", asset_.symbol()) */\n  swap1\n  pop\n    /* \"aave-v2/AaveV2ERC4626.sol\":8287:8449  function _vaultSymbol(ERC20 asset_) internal view virtual returns (string memory vaultSymbol) {... */\n  swap2\n  swap1\n  pop\n  jump\t// out\n    /* \"solmate/tokens/ERC20.sol\":5510:5956  function computeDomainSeparator() internal view virtual returns (bytes32) {... */\ntag_20:\n    /* \"solmate/tokens/ERC20.sol\":5575:5582  bytes32 */\n  0x00\n    /* \"solmate/tokens/ERC20.sol\":5672:5767  keccak256(\"EIP712Domain(string name,string version,uint256 chainId,address verifyingContract)\") */\n  0x8b73c3c69bb8fe3d512ecc4cf759cc79239f7b179b0ffacaa9a75d522b39400f\n    /* \"solmate/tokens/ERC20.sol\":5805:5809  name */\n  0x00\n    /* \"solmate/tokens/ERC20.sol\":5789:5811  keccak256(bytes(name)) */\n  mload(0x40)\n  tag_38\n  swap2\n  swap1\n  tag_39\n  jump\t// in\ntag_38:\n  mload(0x40)\n  dup1\n  swap2\n  sub\n  swap1\n  keccak256\n    /* \"solmate/tokens/ERC20.sol\":5833:5847  keccak256(\"1\") */\n  0xc89efdaa54c0f20c7adf612882df0950f5a951637e0307cdcb4c672f298b8bc6\n    /* \"solmate/tokens/ERC20.sol\":5869:5882  block.chainid */\n  chainid\n    /* \"solmate/tokens/ERC20.sol\":5912:5916  this */\n  address\n    /* \"solmate/tokens/ERC20.sol\":5640:5935  abi.encode(... */\n  add(0x20, mload(0x40))\n  tag_40\n  swap6\n  swap5\n  swap4\n  swap3\n  swap2\n  swap1\n  tag_41\n  jump\t// in\ntag_40:\n  mload(0x40)\n  0x20\n  dup2\n  dup4\n  sub\n  sub\n  dup2\n  mstore\n  swap1\n  0x40\n  mstore\n    /* \"solmate/tokens/ERC20.sol\":5613:5949  keccak256(... */\n  dup1\n  mload\n  swap1\n  0x20\n  add\n  keccak256\n    /* \"solmate/tokens/ERC20.sol\":5594:5949  return... */\n  swap1\n  pop\n    /* \"solmate/tokens/ERC20.sol\":5510:5956  function computeDomainSeparator() internal view virtual returns (bytes32) {... */\n  swap1\n  jump\t// out\n    /* \"#utility.yul\":7:82   */\ntag_42:\n    /* \"#utility.yul\":40:46   */\n  0x00\n    /* \"#utility.yul\":73:75   */\n  0x40\n    /* \"#utility.yul\":67:76   */\n  mload\n    /* \"#utility.yul\":57:76   */\n  swap1\n  pop\n    /* \"#utility.yul\":7:82   */\n  swap1\n  jump\t// out\n    /* \"#utility.yul\":88:205   */\ntag_43:\n    /* \"#utility.yul\":197:198   */\n  0x00\n    /* \"#utility.yul\":194:195   */\n  dup1\n    /* \"#utility.yul\":187:199   */\n  revert\n    /* \"#utility.yul\":211:328   */\ntag_44:\n    /* \"#utility.yul\":320:321   */\n  0x00\n    /* \"#utility.yul\":317:318   */\n  dup1\n    /* \"#utility.yul\":310:322   */\n  revert\n    /* \"#utility.yul\":334:460   */\ntag_45:\n    /* \"#utility.yul\":371:378   */\n  0x00\n    /* \"#utility.yul\":411:453   */\n  0xffffffffffffffffffffffffffffffffffffffff\n    /* \"#utility.yul\":404:409   */\n  dup3\n    /* \"#utility.yul\":400:454   */\n  and\n    /* \"#utility.yul\":389:454   */\n  swap1\n  pop\n    /* \"#utility.yul\":334:460   */\n  swap2\n  swap1\n  pop\n  jump\t// out\n    /* \"#utility.yul\":466:562   */\ntag_46:\n    /* \"#utility.yul\":503:510   */\n  0x00\n    /* \"#utility.yul\":532:556   */\n  tag_107\n    /* \"#utility.yul\":550:555   */\n  dup3\n    /* \"#utility.yul\":532:556   */\n  tag_45\n  jump\t// in\ntag_107:\n    /* \"#utility.yul\":521:556   */\n  swap1\n  pop\n    /* \"#utility.yul\":466:562   */\n  swap2\n  swap1\n  pop\n  jump\t// out\n    /* \"#utility.yul\":568:678   */\ntag_47:\n    /* \"#utility.yul\":619:626   */\n  0x00\n    /* \"#utility.yul\":648:672   */\n  tag_109\n    /* \"#utility.yul\":666:671   */\n  dup3\n    /* \"#utility.yul\":648:672   */\n  tag_46\n  jump\t// in\ntag_109:\n    /* \"#utility.yul\":637:672   */\n  swap1\n  pop\n    /* \"#utility.yul\":568:678   */\n  swap2\n  swap1\n  pop\n  jump\t// out\n    /* \"#utility.yul\":684:834   */\ntag_48:\n    /* \"#utility.yul\":771:809   */\n  tag_111\n    /* \"#utility.yul\":803:808   */\n  dup2\n    /* \"#utility.yul\":771:809   */\n  tag_47\n  jump\t// in\ntag_111:\n    /* \"#utility.yul\":764:769   */\n  dup2\n    /* \"#utility.yul\":761:810   */\n  eq\n    /* \"#utility.yul\":751:828   */\n  tag_112\n  jumpi\n    /* \"#utility.yul\":824:825   */\n  0x00\n    /* \"#utility.yul\":821:822   */\n  dup1\n    /* \"#utility.yul\":814:826   */\n  revert\n    /* \"#utility.yul\":751:828   */\ntag_112:\n    /* \"#utility.yul\":684:834   */\n  pop\n  jump\t// out\n    /* \"#utility.yul\":840:1011   */\ntag_49:\n    /* \"#utility.yul\":911:916   */\n  0x00\n    /* \"#utility.yul\":942:948   */\n  dup2\n    /* \"#utility.yul\":936:949   */\n  mload\n    /* \"#utility.yul\":927:949   */\n  swap1\n  pop\n    /* \"#utility.yul\":958:1005   */\n  tag_114\n    /* \"#utility.yul\":999:1004   */\n  dup2\n    /* \"#utility.yul\":958:1005   */\n  tag_48\n  jump\t// in\ntag_114:\n    /* \"#utility.yul\":840:1011   */\n  swap3\n  swap2\n  pop\n  pop\n  jump\t// out\n    /* \"#utility.yul\":1017:1132   */\ntag_50:\n    /* \"#utility.yul\":1073:1080   */\n  0x00\n    /* \"#utility.yul\":1102:1126   */\n  tag_116\n    /* \"#utility.yul\":1120:1125   */\n  dup3\n    /* \"#utility.yul\":1102:1126   */\n  tag_46\n  jump\t// in\ntag_116:\n    /* \"#utility.yul\":1091:1126   */\n  swap1\n  pop\n    /* \"#utility.yul\":1017:1132   */\n  swap2\n  swap1\n  pop\n  jump\t// out\n    /* \"#utility.yul\":1138:1298   */\ntag_51:\n    /* \"#utility.yul\":1230:1273   */\n  tag_118\n    /* \"#utility.yul\":1267:1272   */\n  dup2\n    /* \"#utility.yul\":1230:1273   */\n  tag_50\n  jump\t// in\ntag_118:\n    /* \"#utility.yul\":1223:1228   */\n  dup2\n    /* \"#utility.yul\":1220:1274   */\n  eq\n    /* \"#utility.yul\":1210:1292   */\n  tag_119\n  jumpi\n    /* \"#utility.yul\":1288:1289   */\n  0x00\n    /* \"#utility.yul\":1285:1286   */\n  dup1\n    /* \"#utility.yul\":1278:1290   */\n  revert\n    /* \"#utility.yul\":1210:1292   */\ntag_119:\n    /* \"#utility.yul\":1138:1298   */\n  pop\n  jump\t// out\n    /* \"#utility.yul\":1304:1485   */\ntag_52:\n    /* \"#utility.yul\":1380:1385   */\n  0x00\n    /* \"#utility.yul\":1411:1417   */\n  dup2\n    /* \"#utility.yul\":1405:1418   */\n  mload\n    /* \"#utility.yul\":1396:1418   */\n  swap1\n  pop\n    /* \"#utility.yul\":1427:1479   */\n  tag_121\n    /* \"#utility.yul\":1473:1478   */\n  dup2\n    /* \"#utility.yul\":1427:1479   */\n  tag_51\n  jump\t// in\ntag_121:\n    /* \"#utility.yul\":1304:1485   */\n  swap3\n  swap2\n  pop\n  pop\n  jump\t// out\n    /* \"#utility.yul\":1491:1613   */\ntag_53:\n    /* \"#utility.yul\":1564:1588   */\n  tag_123\n    /* \"#utility.yul\":1582:1587   */\n  dup2\n    /* \"#utility.yul\":1564:1588   */\n  tag_46\n  jump\t// in\ntag_123:\n    /* \"#utility.yul\":1557:1562   */\n  dup2\n    /* \"#utility.yul\":1554:1589   */\n  eq\n    /* \"#utility.yul\":1544:1607   */\n  tag_124\n  jumpi\n    /* \"#utility.yul\":1603:1604   */\n  0x00\n    /* \"#utility.yul\":1600:1601   */\n  dup1\n    /* \"#utility.yul\":1593:1605   */\n  revert\n    /* \"#utility.yul\":1544:1607   */\ntag_124:\n    /* \"#utility.yul\":1491:1613   */\n  pop\n  jump\t// out\n    /* \"#utility.yul\":1619:1762   */\ntag_54:\n    /* \"#utility.yul\":1676:1681   */\n  0x00\n    /* \"#utility.yul\":1707:1713   */\n  dup2\n    /* \"#utility.yul\":1701:1714   */\n  mload\n    /* \"#utility.yul\":1692:1714   */\n  swap1\n  pop\n    /* \"#utility.yul\":1723:1756   */\n  tag_126\n    /* \"#utility.yul\":1750:1755   */\n  dup2\n    /* \"#utility.yul\":1723:1756   */\n  tag_53\n  jump\t// in\ntag_126:\n    /* \"#utility.yul\":1619:1762   */\n  swap3\n  swap2\n  pop\n  pop\n  jump\t// out\n    /* \"#utility.yul\":1768:1884   */\ntag_55:\n    /* \"#utility.yul\":1825:1832   */\n  0x00\n    /* \"#utility.yul\":1854:1878   */\n  tag_128\n    /* \"#utility.yul\":1872:1877   */\n  dup3\n    /* \"#utility.yul\":1854:1878   */\n  tag_46\n  jump\t// in\ntag_128:\n    /* \"#utility.yul\":1843:1878   */\n  swap1\n  pop\n    /* \"#utility.yul\":1768:1884   */\n  swap2\n  swap1\n  pop\n  jump\t// out\n    /* \"#utility.yul\":1890:2052   */\ntag_56:\n    /* \"#utility.yul\":1983:2027   */\n  tag_130\n    /* \"#utility.yul\":2021:2026   */\n  dup2\n    /* \"#utility.yul\":1983:2027   */\n  tag_55\n  jump\t// in\ntag_130:\n    /* \"#utility.yul\":1976:1981   */\n  dup2\n    /* \"#utility.yul\":1973:2028   */\n  eq\n    /* \"#utility.yul\":1963:2046   */\n  tag_131\n  jumpi\n    /* \"#utility.yul\":2042:2043   */\n  0x00\n    /* \"#utility.yul\":2039:2040   */\n  dup1\n    /* \"#utility.yul\":2032:2044   */\n  revert\n    /* \"#utility.yul\":1963:2046   */\ntag_131:\n    /* \"#utility.yul\":1890:2052   */\n  pop\n  jump\t// out\n    /* \"#utility.yul\":2058:2241   */\ntag_57:\n    /* \"#utility.yul\":2135:2140   */\n  0x00\n    /* \"#utility.yul\":2166:2172   */\n  dup2\n    /* \"#utility.yul\":2160:2173   */\n  mload\n    /* \"#utility.yul\":2151:2173   */\n  swap1\n  pop\n    /* \"#utility.yul\":2182:2235   */\n  tag_133\n    /* \"#utility.yul\":2229:2234   */\n  dup2\n    /* \"#utility.yul\":2182:2235   */\n  tag_56\n  jump\t// in\ntag_133:\n    /* \"#utility.yul\":2058:2241   */\n  swap3\n  swap2\n  pop\n  pop\n  jump\t// out\n    /* \"#utility.yul\":2247:3358   */\ntag_3:\n    /* \"#utility.yul\":2420:2426   */\n  0x00\n    /* \"#utility.yul\":2428:2434   */\n  dup1\n    /* \"#utility.yul\":2436:2442   */\n  0x00\n    /* \"#utility.yul\":2444:2450   */\n  dup1\n    /* \"#utility.yul\":2452:2458   */\n  0x00\n    /* \"#utility.yul\":2501:2504   */\n  0xa0\n    /* \"#utility.yul\":2489:2498   */\n  dup7\n    /* \"#utility.yul\":2480:2487   */\n  dup9\n    /* \"#utility.yul\":2476:2499   */\n  sub\n    /* \"#utility.yul\":2472:2505   */\n  slt\n    /* \"#utility.yul\":2469:2589   */\n  iszero\n  tag_135\n  jumpi\n    /* \"#utility.yul\":2508:2587   */\n  tag_136\n  tag_43\n  jump\t// in\ntag_136:\n    /* \"#utility.yul\":2469:2589   */\ntag_135:\n    /* \"#utility.yul\":2628:2629   */\n  0x00\n    /* \"#utility.yul\":2653:2731   */\n  tag_137\n    /* \"#utility.yul\":2723:2730   */\n  dup9\n    /* \"#utility.yul\":2714:2720   */\n  dup3\n    /* \"#utility.yul\":2703:2712   */\n  dup10\n    /* \"#utility.yul\":2699:2721   */\n  add\n    /* \"#utility.yul\":2653:2731   */\n  tag_49\n  jump\t// in\ntag_137:\n    /* \"#utility.yul\":2643:2731   */\n  swap6\n  pop\n    /* \"#utility.yul\":2599:2741   */\n  pop\n    /* \"#utility.yul\":2780:2782   */\n  0x20\n    /* \"#utility.yul\":2806:2884   */\n  tag_138\n    /* \"#utility.yul\":2876:2883   */\n  dup9\n    /* \"#utility.yul\":2867:2873   */\n  dup3\n    /* \"#utility.yul\":2856:2865   */\n  dup10\n    /* \"#utility.yul\":2852:2874   */\n  add\n    /* \"#utility.yul\":2806:2884   */\n  tag_49\n  jump\t// in\ntag_138:\n    /* \"#utility.yul\":2796:2884   */\n  swap5\n  pop\n    /* \"#utility.yul\":2751:2894   */\n  pop\n    /* \"#utility.yul\":2933:2935   */\n  0x40\n    /* \"#utility.yul\":2959:3042   */\n  tag_139\n    /* \"#utility.yul\":3034:3041   */\n  dup9\n    /* \"#utility.yul\":3025:3031   */\n  dup3\n    /* \"#utility.yul\":3014:3023   */\n  dup10\n    /* \"#utility.yul\":3010:3032   */\n  add\n    /* \"#utility.yul\":2959:3042   */\n  tag_52\n  jump\t// in\ntag_139:\n    /* \"#utility.yul\":2949:3042   */\n  swap4\n  pop\n    /* \"#utility.yul\":2904:3052   */\n  pop\n    /* \"#utility.yul\":3091:3093   */\n  0x60\n    /* \"#utility.yul\":3117:3181   */\n  tag_140\n    /* \"#utility.yul\":3173:3180   */\n  dup9\n    /* \"#utility.yul\":3164:3170   */\n  dup3\n    /* \"#utility.yul\":3153:3162   */\n  dup10\n    /* \"#utility.yul\":3149:3171   */\n  add\n    /* \"#utility.yul\":3117:3181   */\n  tag_54\n  jump\t// in\ntag_140:\n    /* \"#utility.yul\":3107:3181   */\n  swap3\n  pop\n    /* \"#utility.yul\":3062:3191   */\n  pop\n    /* \"#utility.yul\":3230:3233   */\n  0x80\n    /* \"#utility.yul\":3257:3341   */\n  tag_141\n    /* \"#utility.yul\":3333:3340   */\n  dup9\n    /* \"#utility.yul\":3324:3330   */\n  dup3\n    /* \"#utility.yul\":3313:3322   */\n  dup10\n    /* \"#utility.yul\":3309:3331   */\n  add\n    /* \"#utility.yul\":3257:3341   */\n  tag_57\n  jump\t// in\ntag_141:\n    /* \"#utility.yul\":3247:3341   */\n  swap2\n  pop\n    /* \"#utility.yul\":3201:3351   */\n  pop\n    /* \"#utility.yul\":2247:3358   */\n  swap3\n  swap6\n  pop\n  swap3\n  swap6\n  swap1\n  swap4\n  pop\n  jump\t// out\n    /* \"#utility.yul\":3364:3450   */\ntag_58:\n    /* \"#utility.yul\":3399:3406   */\n  0x00\n    /* \"#utility.yul\":3439:3443   */\n  0xff\n    /* \"#utility.yul\":3432:3437   */\n  dup3\n    /* \"#utility.yul\":3428:3444   */\n  and\n    /* \"#utility.yul\":3417:3444   */\n  swap1\n  pop\n    /* \"#utility.yul\":3364:3450   */\n  swap2\n  swap1\n  pop\n  jump\t// out\n    /* \"#utility.yul\":3456:3574   */\ntag_59:\n    /* \"#utility.yul\":3527:3549   */\n  tag_144\n    /* \"#utility.yul\":3543:3548   */\n  dup2\n    /* \"#utility.yul\":3527:3549   */\n  tag_58\n  jump\t// in\ntag_144:\n    /* \"#utility.yul\":3520:3525   */\n  dup2\n    /* \"#utility.yul\":3517:3550   */\n  eq\n    /* \"#utility.yul\":3507:3568   */\n  tag_145\n  jumpi\n    /* \"#utility.yul\":3564:3565   */\n  0x00\n    /* \"#utility.yul\":3561:3562   */\n  dup1\n    /* \"#utility.yul\":3554:3566   */\n  revert\n    /* \"#utility.yul\":3507:3568   */\ntag_145:\n    /* \"#utility.yul\":3456:3574   */\n  pop\n  jump\t// out\n    /* \"#utility.yul\":3580:3719   */\ntag_60:\n    /* \"#utility.yul\":3635:3640   */\n  0x00\n    /* \"#utility.yul\":3666:3672   */\n  dup2\n    /* \"#utility.yul\":3660:3673   */\n  mload\n    /* \"#utility.yul\":3651:3673   */\n  swap1\n  pop\n    /* \"#utility.yul\":3682:3713   */\n  tag_147\n    /* \"#utility.yul\":3707:3712   */\n  dup2\n    /* \"#utility.yul\":3682:3713   */\n  tag_59\n  jump\t// in\ntag_147:\n    /* \"#utility.yul\":3580:3719   */\n  swap3\n  swap2\n  pop\n  pop\n  jump\t// out\n    /* \"#utility.yul\":3725:4072   */\ntag_13:\n    /* \"#utility.yul\":3793:3799   */\n  0x00\n    /* \"#utility.yul\":3842:3844   */\n  0x20\n    /* \"#utility.yul\":3830:3839   */\n  dup3\n    /* \"#utility.yul\":3821:3828   */\n  dup5\n    /* \"#utility.yul\":3817:3840   */\n  sub\n    /* \"#utility.yul\":3813:3845   */\n  slt\n    /* \"#utility.yul\":3810:3929   */\n  iszero\n  tag_149\n  jumpi\n    /* \"#utility.yul\":3848:3927   */\n  tag_150\n  tag_43\n  jump\t// in\ntag_150:\n    /* \"#utility.yul\":3810:3929   */\ntag_149:\n    /* \"#utility.yul\":3968:3969   */\n  0x00\n    /* \"#utility.yul\":3993:4055   */\n  tag_151\n    /* \"#utility.yul\":4047:4054   */\n  dup5\n    /* \"#utility.yul\":4038:4044   */\n  dup3\n    /* \"#utility.yul\":4027:4036   */\n  dup6\n    /* \"#utility.yul\":4023:4045   */\n  add\n    /* \"#utility.yul\":3993:4055   */\n  tag_60\n  jump\t// in\ntag_151:\n    /* \"#utility.yul\":3983:4055   */\n  swap2\n  pop\n    /* \"#utility.yul\":3939:4065   */\n  pop\n    /* \"#utility.yul\":3725:4072   */\n  swap3\n  swap2\n  pop\n  pop\n  jump\t// out\n    /* \"#utility.yul\":4078:4177   */\ntag_61:\n    /* \"#utility.yul\":4130:4136   */\n  0x00\n    /* \"#utility.yul\":4164:4169   */\n  dup2\n    /* \"#utility.yul\":4158:4170   */\n  mload\n    /* \"#utility.yul\":4148:4170   */\n  swap1\n  pop\n    /* \"#utility.yul\":4078:4177   */\n  swap2\n  swap1\n  pop\n  jump\t// out\n    /* \"#utility.yul\":4183:4363   */\ntag_62:\n    /* \"#utility.yul\":4231:4308   */\n  0x4e487b7100000000000000000000000000000000000000000000000000000000\n    /* \"#utility.yul\":4228:4229   */\n  0x00\n    /* \"#utility.yul\":4221:4309   */\n  mstore\n    /* \"#utility.yul\":4328:4332   */\n  0x41\n    /* \"#utility.yul\":4325:4326   */\n  0x04\n    /* \"#utility.yul\":4318:4333   */\n  mstore\n    /* \"#utility.yul\":4352:4356   */\n  0x24\n    /* \"#utility.yul\":4349:4350   */\n  0x00\n    /* \"#utility.yul\":4342:4357   */\n  revert\n    /* \"#utility.yul\":4369:4549   */\ntag_63:\n    /* \"#utility.yul\":4417:4494   */\n  0x4e487b7100000000000000000000000000000000000000000000000000000000\n    /* \"#utility.yul\":4414:4415   */\n  0x00\n    /* \"#utility.yul\":4407:4495   */\n  mstore\n    /* \"#utility.yul\":4514:4518   */\n  0x22\n    /* \"#utility.yul\":4511:4512   */\n  0x04\n    /* \"#utility.yul\":4504:4519   */\n  mstore\n    /* \"#utility.yul\":4538:4542   */\n  0x24\n    /* \"#utility.yul\":4535:4536   */\n  0x00\n    /* \"#utility.yul\":4528:4543   */\n  revert\n    /* \"#utility.yul\":4555:4875   */\ntag_64:\n    /* \"#utility.yul\":4599:4605   */\n  0x00\n    /* \"#utility.yul\":4636:4637   */\n  0x02\n    /* \"#utility.yul\":4630:4634   */\n  dup3\n    /* \"#utility.yul\":4626:4638   */\n  div\n    /* \"#utility.yul\":4616:4638   */\n  swap1\n  pop\n    /* \"#utility.yul\":4683:4684   */\n  0x01\n    /* \"#utility.yul\":4677:4681   */\n  dup3\n    /* \"#utility.yul\":4673:4685   */\n  and\n    /* \"#utility.yul\":4704:4722   */\n  dup1\n    /* \"#utility.yul\":4694:4775   */\n  tag_156\n  jumpi\n    /* \"#utility.yul\":4760:4764   */\n  0x7f\n    /* \"#utility.yul\":4752:4758   */\n  dup3\n    /* \"#utility.yul\":4748:4765   */\n  and\n    /* \"#utility.yul\":4738:4765   */\n  swap2\n  pop\n    /* \"#utility.yul\":4694:4775   */\ntag_156:\n    /* \"#utility.yul\":4822:4824   */\n  0x20\n    /* \"#utility.yul\":4814:4820   */\n  dup3\n    /* \"#utility.yul\":4811:4825   */\n  lt\n    /* \"#utility.yul\":4791:4809   */\n  dup2\n    /* \"#utility.yul\":4788:4826   */\n  sub\n    /* \"#utility.yul\":4785:4869   */\n  tag_157\n  jumpi\n    /* \"#utility.yul\":4841:4859   */\n  tag_158\n  tag_63\n  jump\t// in\ntag_158:\n    /* \"#utility.yul\":4785:4869   */\ntag_157:\n    /* \"#utility.yul\":4606:4875   */\n  pop\n    /* \"#utility.yul\":4555:4875   */\n  swap2\n  swap1\n  pop\n  jump\t// out\n    /* \"#utility.yul\":4881:5022   */\ntag_65:\n    /* \"#utility.yul\":4930:4934   */\n  0x00\n    /* \"#utility.yul\":4953:4956   */\n  dup2\n    /* \"#utility.yul\":4945:4956   */\n  swap1\n  pop\n    /* \"#utility.yul\":4976:4979   */\n  dup2\n    /* \"#utility.yul\":4973:4974   */\n  0x00\n    /* \"#utility.yul\":4966:4980   */\n  mstore\n    /* \"#utility.yul\":5010:5014   */\n  0x20\n    /* \"#utility.yul\":5007:5008   */\n  0x00\n    /* \"#utility.yul\":4997:5015   */\n  keccak256\n    /* \"#utility.yul\":4989:5015   */\n  swap1\n  pop\n    /* \"#utility.yul\":4881:5022   */\n  swap2\n  swap1\n  pop\n  jump\t// out\n    /* \"#utility.yul\":5028:5121   */\ntag_66:\n    /* \"#utility.yul\":5065:5071   */\n  0x00\n    /* \"#utility.yul\":5112:5114   */\n  0x20\n    /* \"#utility.yul\":5107:5109   */\n  0x1f\n    /* \"#utility.yul\":5100:5105   */\n  dup4\n    /* \"#utility.yul\":5096:5110   */\n  add\n    /* \"#utility.yul\":5092:5115   */\n  div\n    /* \"#utility.yul\":5082:5115   */\n  swap1\n  pop\n    /* \"#utility.yul\":5028:5121   */\n  swap2\n  swap1\n  pop\n  jump\t// out\n    /* \"#utility.yul\":5127:5234   */\ntag_67:\n    /* \"#utility.yul\":5171:5179   */\n  0x00\n    /* \"#utility.yul\":5221:5226   */\n  dup3\n    /* \"#utility.yul\":5215:5219   */\n  dup3\n    /* \"#utility.yul\":5211:5227   */\n  shl\n    /* \"#utility.yul\":5190:5227   */\n  swap1\n  pop\n    /* \"#utility.yul\":5127:5234   */\n  swap3\n  swap2\n  pop\n  pop\n  jump\t// out\n    /* \"#utility.yul\":5240:5633   */\ntag_68:\n    /* \"#utility.yul\":5309:5315   */\n  0x00\n    /* \"#utility.yul\":5359:5360   */\n  0x08\n    /* \"#utility.yul\":5347:5357   */\n  dup4\n    /* \"#utility.yul\":5343:5361   */\n  mul\n    /* \"#utility.yul\":5382:5479   */\n  tag_163\n    /* \"#utility.yul\":5412:5478   */\n  0xffffffffffffffffffffffffffffffffffffffffffffffffffffffffffffffff\n    /* \"#utility.yul\":5401:5410   */\n  dup3\n    /* \"#utility.yul\":5382:5479   */\n  tag_67\n  jump\t// in\ntag_163:\n    /* \"#utility.yul\":5500:5539   */\n  tag_164\n    /* \"#utility.yul\":5530:5538   */\n  dup7\n    /* \"#utility.yul\":5519:5528   */\n  dup4\n    /* \"#utility.yul\":5500:5539   */\n  tag_67\n  jump\t// in\ntag_164:\n    /* \"#utility.yul\":5488:5539   */\n  swap6\n  pop\n    /* \"#utility.yul\":5572:5576   */\n  dup1\n    /* \"#utility.yul\":5568:5577   */\n  not\n    /* \"#utility.yul\":5561:5566   */\n  dup5\n    /* \"#utility.yul\":5557:5578   */\n  and\n    /* \"#utility.yul\":5548:5578   */\n  swap4\n  pop\n    /* \"#utility.yul\":5621:5625   */\n  dup1\n    /* \"#utility.yul\":5611:5619   */\n  dup7\n    /* \"#utility.yul\":5607:5626   */\n  and\n    /* \"#utility.yul\":5600:5605   */\n  dup5\n    /* \"#utility.yul\":5597:5627   */\n  or\n    /* \"#utility.yul\":5587:5627   */\n  swap3\n  pop\n    /* \"#utility.yul\":5316:5633   */\n  pop\n  pop\n    /* \"#utility.yul\":5240:5633   */\n  swap4\n  swap3\n  pop\n  pop\n  pop\n  jump\t// out\n    /* \"#utility.yul\":5639:5716   */\ntag_69:\n    /* \"#utility.yul\":5676:5683   */\n  0x00\n    /* \"#utility.yul\":5705:5710   */\n  dup2\n    /* \"#utility.yul\":5694:5710   */\n  swap1\n  pop\n    /* \"#utility.yul\":5639:5716   */\n  swap2\n  swap1\n  pop\n  jump\t// out\n    /* \"#utility.yul\":5722:5782   */\ntag_70:\n    /* \"#utility.yul\":5750:5753   */\n  0x00\n    /* \"#utility.yul\":5771:5776   */\n  dup2\n    /* \"#utility.yul\":5764:5776   */\n  swap1\n  pop\n    /* \"#utility.yul\":5722:5782   */\n  swap2\n  swap1\n  pop\n  jump\t// out\n    /* \"#utility.yul\":5788:5930   */\ntag_71:\n    /* \"#utility.yul\":5838:5847   */\n  0x00\n    /* \"#utility.yul\":5871:5924   */\n  tag_168\n    /* \"#utility.yul\":5889:5923   */\n  tag_169\n    /* \"#utility.yul\":5898:5922   */\n  tag_170\n    /* \"#utility.yul\":5916:5921   */\n  dup5\n    /* \"#utility.yul\":5898:5922   */\n  tag_69\n  jump\t// in\ntag_170:\n    /* \"#utility.yul\":5889:5923   */\n  tag_70\n  jump\t// in\ntag_169:\n    /* \"#utility.yul\":5871:5924   */\n  tag_69\n  jump\t// in\ntag_168:\n    /* \"#utility.yul\":5858:5924   */\n  swap1\n  pop\n    /* \"#utility.yul\":5788:5930   */\n  swap2\n  swap1\n  pop\n  jump\t// out\n    /* \"#utility.yul\":5936:6011   */\ntag_72:\n    /* \"#utility.yul\":5979:5982   */\n  0x00\n    /* \"#utility.yul\":6000:6005   */\n  dup2\n    /* \"#utility.yul\":5993:6005   */\n  swap1\n  pop\n    /* \"#utility.yul\":5936:6011   */\n  swap2\n  swap1\n  pop\n  jump\t// out\n    /* \"#utility.yul\":6017:6286   */\ntag_73:\n    /* \"#utility.yul\":6127:6166   */\n  tag_173\n    /* \"#utility.yul\":6158:6165   */\n  dup4\n    /* \"#utility.yul\":6127:6166   */\n  tag_71\n  jump\t// in\ntag_173:\n    /* \"#utility.yul\":6188:6279   */\n  tag_174\n    /* \"#utility.yul\":6237:6278   */\n  tag_175\n    /* \"#utility.yul\":6261:6277   */\n  dup3\n    /* \"#utility.yul\":6237:6278   */\n  tag_72\n  jump\t// in\ntag_175:\n    /* \"#utility.yul\":6229:6235   */\n  dup5\n    /* \"#utility.yul\":6222:6226   */\n  dup5\n    /* \"#utility.yul\":6216:6227   */\n  sload\n    /* \"#utility.yul\":6188:6279   */\n  tag_68\n  jump\t// in\ntag_174:\n    /* \"#utility.yul\":6182:6186   */\n  dup3\n    /* \"#utility.yul\":6175:6280   */\n  sstore\n    /* \"#utility.yul\":6093:6286   */\n  pop\n    /* \"#utility.yul\":6017:6286   */\n  pop\n  pop\n  pop\n  jump\t// out\n    /* \"#utility.yul\":6292:6365   */\ntag_74:\n    /* \"#utility.yul\":6337:6340   */\n  0x00\n    /* \"#utility.yul\":6292:6365   */\n  swap1\n  jump\t// out\n    /* \"#utility.yul\":6371:6560   */\ntag_75:\n    /* \"#utility.yul\":6448:6480   */\n  tag_178\n  tag_74\n  jump\t// in\ntag_178:\n    /* \"#utility.yul\":6489:6554   */\n  tag_179\n    /* \"#utility.yul\":6547:6553   */\n  dup2\n    /* \"#utility.yul\":6539:6545   */\n  dup5\n    /* \"#utility.yul\":6533:6537   */\n  dup5\n    /* \"#utility.yul\":6489:6554   */\n  tag_73\n  jump\t// in\ntag_179:\n    /* \"#utility.yul\":6424:6560   */\n  pop\n    /* \"#utility.yul\":6371:6560   */\n  pop\n  pop\n  jump\t// out\n    /* \"#utility.yul\":6566:6752   */\ntag_76:\n    /* \"#utility.yul\":6626:6746   */\ntag_181:\n    /* \"#utility.yul\":6643:6646   */\n  dup2\n    /* \"#utility.yul\":6636:6641   */\n  dup2\n    /* \"#utility.yul\":6633:6647   */\n  lt\n    /* \"#utility.yul\":6626:6746   */\n  iszero\n  tag_183\n  jumpi\n    /* \"#utility.yul\":6697:6736   */\n  tag_184\n    /* \"#utility.yul\":6734:6735   */\n  0x00\n    /* \"#utility.yul\":6727:6732   */\n  dup3\n    /* \"#utility.yul\":6697:6736   */\n  tag_75\n  jump\t// in\ntag_184:\n    /* \"#utility.yul\":6670:6671   */\n  0x01\n    /* \"#utility.yul\":6663:6668   */\n  dup2\n    /* \"#utility.yul\":6659:6672   */\n  add\n    /* \"#utility.yul\":6650:6672   */\n  swap1\n  pop\n    /* \"#utility.yul\":6626:6746   */\n  jump(tag_181)\ntag_183:\n    /* \"#utility.yul\":6566:6752   */\n  pop\n  pop\n  jump\t// out\n    /* \"#utility.yul\":6758:7301   */\ntag_77:\n    /* \"#utility.yul\":6859:6861   */\n  0x1f\n    /* \"#utility.yul\":6854:6857   */\n  dup3\n    /* \"#utility.yul\":6851:6862   */\n  gt\n    /* \"#utility.yul\":6848:7294   */\n  iszero\n  tag_186\n  jumpi\n    /* \"#utility.yul\":6893:6931   */\n  tag_187\n    /* \"#utility.yul\":6925:6930   */\n  dup2\n    /* \"#utility.yul\":6893:6931   */\n  tag_65\n  jump\t// in\ntag_187:\n    /* \"#utility.yul\":6977:7006   */\n  tag_188\n    /* \"#utility.yul\":6995:7005   */\n  dup5\n    /* \"#utility.yul\":6977:7006   */\n  tag_66\n  jump\t// in\ntag_188:\n    /* \"#utility.yul\":6967:6975   */\n  dup2\n    /* \"#utility.yul\":6963:7007   */\n  add\n    /* \"#utility.yul\":7160:7162   */\n  0x20\n    /* \"#utility.yul\":7148:7158   */\n  dup6\n    /* \"#utility.yul\":7145:7163   */\n  lt\n    /* \"#utility.yul\":7142:7191   */\n  iszero\n  tag_189\n  jumpi\n    /* \"#utility.yul\":7181:7189   */\n  dup2\n    /* \"#utility.yul\":7166:7189   */\n  swap1\n  pop\n    /* \"#utility.yul\":7142:7191   */\ntag_189:\n    /* \"#utility.yul\":7204:7284   */\n  tag_190\n    /* \"#utility.yul\":7260:7282   */\n  tag_191\n    /* \"#utility.yul\":7278:7281   */\n  dup6\n    /* \"#utility.yul\":7260:7282   */\n  tag_66\n  jump\t// in\ntag_191:\n    /* \"#utility.yul\":7250:7258   */\n  dup4\n    /* \"#utility.yul\":7246:7283   */\n  add\n    /* \"#utility.yul\":7233:7244   */\n  dup3\n    /* \"#utility.yul\":7204:7284   */\n  tag_76\n  jump\t// in\ntag_190:\n    /* \"#utility.yul\":6863:7294   */\n  pop\n  pop\n    /* \"#utility.yul\":6848:7294   */\ntag_186:\n    /* \"#utility.yul\":6758:7301   */\n  pop\n  pop\n  pop\n  jump\t// out\n    /* \"#utility.yul\":7307:7424   */\ntag_78:\n    /* \"#utility.yul\":7361:7369   */\n  0x00\n    /* \"#utility.yul\":7411:7416   */\n  dup3\n    /* \"#utility.yul\":7405:7409   */\n  dup3\n    /* \"#utility.yul\":7401:7417   */\n  shr\n    /* \"#utility.yul\":7380:7417   */\n  swap1\n  pop\n    /* \"#utility.yul\":7307:7424   */\n  swap3\n  swap2\n  pop\n  pop\n  jump\t// out\n    /* \"#utility.yul\":7430:7599   */\ntag_79:\n    /* \"#utility.yul\":7474:7480   */\n  0x00\n    /* \"#utility.yul\":7507:7558   */\n  tag_194\n    /* \"#utility.yul\":7555:7556   */\n  0x00\n    /* \"#utility.yul\":7551:7557   */\n  not\n    /* \"#utility.yul\":7543:7548   */\n  dup5\n    /* \"#utility.yul\":7540:7541   */\n  0x08\n    /* \"#utility.yul\":7536:7549   */\n  mul\n    /* \"#utility.yul\":7507:7558   */\n  tag_78\n  jump\t// in\ntag_194:\n    /* \"#utility.yul\":7503:7559   */\n  not\n    /* \"#utility.yul\":7588:7592   */\n  dup1\n    /* \"#utility.yul\":7582:7586   */\n  dup4\n    /* \"#utility.yul\":7578:7593   */\n  and\n    /* \"#utility.yul\":7568:7593   */\n  swap2\n  pop\n    /* \"#utility.yul\":7481:7599   */\n  pop\n    /* \"#utility.yul\":7430:7599   */\n  swap3\n  swap2\n  pop\n  pop\n  jump\t// out\n    /* \"#utility.yul\":7604:7899   */\ntag_80:\n    /* \"#utility.yul\":7680:7684   */\n  0x00\n    /* \"#utility.yul\":7826:7855   */\n  tag_196\n    /* \"#utility.yul\":7851:7854   */\n  dup4\n    /* \"#utility.yul\":7845:7849   */\n  dup4\n    /* \"#utility.yul\":7826:7855   */\n  tag_79\n  jump\t// in\ntag_196:\n    /* \"#utility.yul\":7818:7855   */\n  swap2\n  pop\n    /* \"#utility.yul\":7888:7891   */\n  dup3\n    /* \"#utility.yul\":7885:7886   */\n  0x02\n    /* \"#utility.yul\":7881:7892   */\n  mul\n    /* \"#utility.yul\":7875:7879   */\n  dup3\n    /* \"#utility.yul\":7872:7893   */\n  or\n    /* \"#utility.yul\":7864:7893   */\n  swap1\n  pop\n    /* \"#utility.yul\":7604:7899   */\n  swap3\n  swap2\n  pop\n  pop\n  jump\t// out\n    /* \"#utility.yul\":7904:9299   */\ntag_17:\n    /* \"#utility.yul\":8021:8058   */\n  tag_198\n    /* \"#utility.yul\":8054:8057   */\n  dup3\n    /* \"#utility.yul\":8021:8058   */\n  tag_61\n  jump\t// in\ntag_198:\n    /* \"#utility.yul\":8123:8141   */\n  0xffffffffffffffff\n    /* \"#utility.yul\":8115:8121   */\n  dup2\n    /* \"#utility.yul\":8112:8142   */\n  gt\n    /* \"#utility.yul\":8109:8165   */\n  iszero\n  tag_199\n  jumpi\n    /* \"#utility.yul\":8145:8163   */\n  tag_200\n  tag_62\n  jump\t// in\ntag_200:\n    /* \"#utility.yul\":8109:8165   */\ntag_199:\n    /* \"#utility.yul\":8189:8227   */\n  tag_201\n    /* \"#utility.yul\":8221:8225   */\n  dup3\n    /* \"#utility.yul\":8215:8226   */\n  sload\n    /* \"#utility.yul\":8189:8227   */\n  tag_64\n  jump\t// in\ntag_201:\n    /* \"#utility.yul\":8274:8341   */\n  tag_202\n    /* \"#utility.yul\":8334:8340   */\n  dup3\n    /* \"#utility.yul\":8326:8332   */\n  dup3\n    /* \"#utility.yul\":8320:8324   */\n  dup6\n    /* \"#utility.yul\":8274:8341   */\n  tag_77\n  jump\t// in\ntag_202:\n    /* \"#utility.yul\":8368:8369   */\n  0x00\n    /* \"#utility.yul\":8392:8396   */\n  0x20\n    /* \"#utility.yul\":8379:8396   */\n  swap1\n  pop\n    /* \"#utility.yul\":8424:8426   */\n  0x1f\n    /* \"#utility.yul\":8416:8422   */\n  dup4\n    /* \"#utility.yul\":8413:8427   */\n  gt\n    /* \"#utility.yul\":8441:8442   */\n  0x01\n    /* \"#utility.yul\":8436:9054   */\n  dup2\n  eq\n  tag_204\n  jumpi\n    /* \"#utility.yul\":9098:9099   */\n  0x00\n    /* \"#utility.yul\":9115:9121   */\n  dup5\n    /* \"#utility.yul\":9112:9189   */\n  iszero\n  tag_205\n  jumpi\n    /* \"#utility.yul\":9164:9173   */\n  dup3\n    /* \"#utility.yul\":9159:9162   */\n  dup8\n    /* \"#utility.yul\":9155:9174   */\n  add\n    /* \"#utility.yul\":9149:9175   */\n  mload\n    /* \"#utility.yul\":9140:9175   */\n  swap1\n  pop\n    /* \"#utility.yul\":9112:9189   */\ntag_205:\n    /* \"#utility.yul\":9215:9282   */\n  tag_206\n    /* \"#utility.yul\":9275:9281   */\n  dup6\n    /* \"#utility.yul\":9268:9273   */\n  dup3\n    /* \"#utility.yul\":9215:9282   */\n  tag_80\n  jump\t// in\ntag_206:\n    /* \"#utility.yul\":9209:9213   */\n  dup7\n    /* \"#utility.yul\":9202:9283   */\n  sstore\n    /* \"#utility.yul\":9071:9293   */\n  pop\n    /* \"#utility.yul\":8406:9293   */\n  jump(tag_203)\n    /* \"#utility.yul\":8436:9054   */\ntag_204:\n    /* \"#utility.yul\":8488:8492   */\n  0x1f\n    /* \"#utility.yul\":8484:8493   */\n  not\n    /* \"#utility.yul\":8476:8482   */\n  dup5\n    /* \"#utility.yul\":8472:8494   */\n  and\n    /* \"#utility.yul\":8522:8559   */\n  tag_207\n    /* \"#utility.yul\":8554:8558   */\n  dup7\n    /* \"#utility.yul\":8522:8559   */\n  tag_65\n  jump\t// in\ntag_207:\n    /* \"#utility.yul\":8581:8582   */\n  0x00\n    /* \"#utility.yul\":8595:8803   */\ntag_208:\n    /* \"#utility.yul\":8609:8616   */\n  dup3\n    /* \"#utility.yul\":8606:8607   */\n  dup2\n    /* \"#utility.yul\":8603:8617   */\n  lt\n    /* \"#utility.yul\":8595:8803   */\n  iszero\n  tag_210\n  jumpi\n    /* \"#utility.yul\":8688:8697   */\n  dup5\n    /* \"#utility.yul\":8683:8686   */\n  dup10\n    /* \"#utility.yul\":8679:8698   */\n  add\n    /* \"#utility.yul\":8673:8699   */\n  mload\n    /* \"#utility.yul\":8665:8671   */\n  dup3\n    /* \"#utility.yul\":8658:8700   */\n  sstore\n    /* \"#utility.yul\":8739:8740   */\n  0x01\n    /* \"#utility.yul\":8731:8737   */\n  dup3\n    /* \"#utility.yul\":8727:8741   */\n  add\n    /* \"#utility.yul\":8717:8741   */\n  swap2\n  pop\n    /* \"#utility.yul\":8786:8788   */\n  0x20\n    /* \"#utility.yul\":8775:8784   */\n  dup6\n    /* \"#utility.yul\":8771:8789   */\n  add\n    /* \"#utility.yul\":8758:8789   */\n  swap5\n  pop\n    /* \"#utility.yul\":8632:8636   */\n  0x20\n    /* \"#utility.yul\":8629:8630   */\n  dup2\n    /* \"#utility.yul\":8625:8637   */\n  add\n    /* \"#utility.yul\":8620:8637   */\n  swap1\n  pop\n    /* \"#utility.yul\":8595:8803   */\n  jump(tag_208)\ntag_210:\n    /* \"#utility.yul\":8831:8837   */\n  dup7\n    /* \"#utility.yul\":8822:8829   */\n  dup4\n    /* \"#utility.yul\":8819:8838   */\n  lt\n    /* \"#utility.yul\":8816:8995   */\n  iszero\n  tag_211\n  jumpi\n    /* \"#utility.yul\":8889:8898   */\n  dup5\n    /* \"#utility.yul\":8884:8887   */\n  dup10\n    /* \"#utility.yul\":8880:8899   */\n  add\n    /* \"#utility.yul\":8874:8900   */\n  mload\n    /* \"#utility.yul\":8932:8980   */\n  tag_212\n    /* \"#utility.yul\":8974:8978   */\n  0x1f\n    /* \"#utility.yul\":8966:8972   */\n  dup10\n    /* \"#utility.yul\":8962:8979   */\n  and\n    /* \"#utility.yul\":8951:8960   */\n  dup3\n    /* \"#utility.yul\":8932:8980   */\n  tag_79\n  jump\t// in\ntag_212:\n    /* \"#utility.yul\":8924:8930   */\n  dup4\n    /* \"#utility.yul\":8917:8981   */\n  sstore\n    /* \"#utility.yul\":8839:8995   */\n  pop\n    /* \"#utility.yul\":8816:8995   */\ntag_211:\n    /* \"#utility.yul\":9041:9042   */\n  0x01\n    /* \"#utility.yul\":9037:9038   */\n  0x02\n    /* \"#utility.yul\":9029:9035   */\n  dup9\n    /* \"#utility.yul\":9025:9039   */\n  mul\n    /* \"#utility.yul\":9021:9043   */\n  add\n    /* \"#utility.yul\":9015:9019   */\n  dup9\n    /* \"#utility.yul\":9008:9044   */\n  sstore\n    /* \"#utility.yul\":8443:9054   */\n  pop\n  pop\n  pop\n    /* \"#utility.yul\":8406:9293   */\ntag_203:\n  pop\n    /* \"#utility.yul\":7996:9299   */\n  pop\n  pop\n  pop\n    /* \"#utility.yul\":7904:9299   */\n  pop\n  pop\n  jump\t// out\n    /* \"#utility.yul\":9305:9422   */\ntag_81:\n    /* \"#utility.yul\":9414:9415   */\n  0x00\n    /* \"#utility.yul\":9411:9412   */\n  dup1\n    /* \"#utility.yul\":9404:9416   */\n  revert\n    /* \"#utility.yul\":9428:9545   */\ntag_82:\n    /* \"#utility.yul\":9537:9538   */\n  0x00\n    /* \"#utility.yul\":9534:9535   */\n  dup1\n    /* \"#utility.yul\":9527:9539   */\n  revert\n    /* \"#utility.yul\":9551:9653   */\ntag_83:\n    /* \"#utility.yul\":9592:9598   */\n  0x00\n    /* \"#utility.yul\":9643:9645   */\n  0x1f\n    /* \"#utility.yul\":9639:9646   */\n  not\n    /* \"#utility.yul\":9634:9636   */\n  0x1f\n    /* \"#utility.yul\":9627:9632   */\n  dup4\n    /* \"#utility.yul\":9623:9637   */\n  add\n    /* \"#utility.yul\":9619:9647   */\n  and\n    /* \"#utility.yul\":9609:9647   */\n  swap1\n  pop\n    /* \"#utility.yul\":9551:9653   */\n  swap2\n  swap1\n  pop\n  jump\t// out\n    /* \"#utility.yul\":9659:9940   */\ntag_84:\n    /* \"#utility.yul\":9742:9769   */\n  tag_217\n    /* \"#utility.yul\":9764:9768   */\n  dup3\n    /* \"#utility.yul\":9742:9769   */\n  tag_83\n  jump\t// in\ntag_217:\n    /* \"#utility.yul\":9734:9740   */\n  dup2\n    /* \"#utility.yul\":9730:9770   */\n  add\n    /* \"#utility.yul\":9872:9878   */\n  dup2\n    /* \"#utility.yul\":9860:9870   */\n  dup2\n    /* \"#utility.yul\":9857:9879   */\n  lt\n    /* \"#utility.yul\":9836:9854   */\n  0xffffffffffffffff\n    /* \"#utility.yul\":9824:9834   */\n  dup3\n    /* \"#utility.yul\":9821:9855   */\n  gt\n    /* \"#utility.yul\":9818:9880   */\n  or\n    /* \"#utility.yul\":9815:9903   */\n  iszero\n  tag_218\n  jumpi\n    /* \"#utility.yul\":9883:9901   */\n  tag_219\n  tag_62\n  jump\t// in\ntag_219:\n    /* \"#utility.yul\":9815:9903   */\ntag_218:\n    /* \"#utility.yul\":9923:9933   */\n  dup1\n    /* \"#utility.yul\":9919:9921   */\n  0x40\n    /* \"#utility.yul\":9912:9934   */\n  mstore\n    /* \"#utility.yul\":9702:9940   */\n  pop\n    /* \"#utility.yul\":9659:9940   */\n  pop\n  pop\n  jump\t// out\n    /* \"#utility.yul\":9946:10075   */\ntag_85:\n    /* \"#utility.yul\":9980:9986   */\n  0x00\n    /* \"#utility.yul\":10007:10027   */\n  tag_221\n  tag_42\n  jump\t// in\ntag_221:\n    /* \"#utility.yul\":9997:10027   */\n  swap1\n  pop\n    /* \"#utility.yul\":10036:10069   */\n  tag_222\n    /* \"#utility.yul\":10064:10068   */\n  dup3\n    /* \"#utility.yul\":10056:10062   */\n  dup3\n    /* \"#utility.yul\":10036:10069   */\n  tag_84\n  jump\t// in\ntag_222:\n    /* \"#utility.yul\":9946:10075   */\n  swap2\n  swap1\n  pop\n  jump\t// out\n    /* \"#utility.yul\":10081:10389   */\ntag_86:\n    /* \"#utility.yul\":10143:10147   */\n  0x00\n    /* \"#utility.yul\":10233:10251   */\n  0xffffffffffffffff\n    /* \"#utility.yul\":10225:10231   */\n  dup3\n    /* \"#utility.yul\":10222:10252   */\n  gt\n    /* \"#utility.yul\":10219:10275   */\n  iszero\n  tag_224\n  jumpi\n    /* \"#utility.yul\":10255:10273   */\n  tag_225\n  tag_62\n  jump\t// in\ntag_225:\n    /* \"#utility.yul\":10219:10275   */\ntag_224:\n    /* \"#utility.yul\":10293:10322   */\n  tag_226\n    /* \"#utility.yul\":10315:10321   */\n  dup3\n    /* \"#utility.yul\":10293:10322   */\n  tag_83\n  jump\t// in\ntag_226:\n    /* \"#utility.yul\":10285:10322   */\n  swap1\n  pop\n    /* \"#utility.yul\":10377:10381   */\n  0x20\n    /* \"#utility.yul\":10371:10375   */\n  dup2\n    /* \"#utility.yul\":10367:10382   */\n  add\n    /* \"#utility.yul\":10359:10382   */\n  swap1\n  pop\n    /* \"#utility.yul\":10081:10389   */\n  swap2\n  swap1\n  pop\n  jump\t// out\n    /* \"#utility.yul\":10395:10641   */\ntag_87:\n    /* \"#utility.yul\":10476:10477   */\n  0x00\n    /* \"#utility.yul\":10486:10599   */\ntag_228:\n    /* \"#utility.yul\":10500:10506   */\n  dup4\n    /* \"#utility.yul\":10497:10498   */\n  dup2\n    /* \"#utility.yul\":10494:10507   */\n  lt\n    /* \"#utility.yul\":10486:10599   */\n  iszero\n  tag_230\n  jumpi\n    /* \"#utility.yul\":10585:10586   */\n  dup1\n    /* \"#utility.yul\":10580:10583   */\n  dup3\n    /* \"#utility.yul\":10576:10587   */\n  add\n    /* \"#utility.yul\":10570:10588   */\n  mload\n    /* \"#utility.yul\":10566:10567   */\n  dup2\n    /* \"#utility.yul\":10561:10564   */\n  dup5\n    /* \"#utility.yul\":10557:10568   */\n  add\n    /* \"#utility.yul\":10550:10589   */\n  mstore\n    /* \"#utility.yul\":10522:10524   */\n  0x20\n    /* \"#utility.yul\":10519:10520   */\n  dup2\n    /* \"#utility.yul\":10515:10525   */\n  add\n    /* \"#utility.yul\":10510:10525   */\n  swap1\n  pop\n    /* \"#utility.yul\":10486:10599   */\n  jump(tag_228)\ntag_230:\n    /* \"#utility.yul\":10633:10634   */\n  0x00\n    /* \"#utility.yul\":10624:10630   */\n  dup5\n    /* \"#utility.yul\":10619:10622   */\n  dup5\n    /* \"#utility.yul\":10615:10631   */\n  add\n    /* \"#utility.yul\":10608:10635   */\n  mstore\n    /* \"#utility.yul\":10457:10641   */\n  pop\n    /* \"#utility.yul\":10395:10641   */\n  pop\n  pop\n  pop\n  jump\t// out\n    /* \"#utility.yul\":10647:11081   */\ntag_88:\n    /* \"#utility.yul\":10736:10741   */\n  0x00\n    /* \"#utility.yul\":10761:10827   */\n  tag_232\n    /* \"#utility.yul\":10777:10826   */\n  tag_233\n    /* \"#utility.yul\":10819:10825   */\n  dup5\n    /* \"#utility.yul\":10777:10826   */\n  tag_86\n  jump\t// in\ntag_233:\n    /* \"#utility.yul\":10761:10827   */\n  tag_85\n  jump\t// in\ntag_232:\n    /* \"#utility.yul\":10752:10827   */\n  swap1\n  pop\n    /* \"#utility.yul\":10850:10856   */\n  dup3\n    /* \"#utility.yul\":10843:10848   */\n  dup2\n    /* \"#utility.yul\":10836:10857   */\n  mstore\n    /* \"#utility.yul\":10888:10892   */\n  0x20\n    /* \"#utility.yul\":10881:10886   */\n  dup2\n    /* \"#utility.yul\":10877:10893   */\n  add\n    /* \"#utility.yul\":10926:10929   */\n  dup5\n    /* \"#utility.yul\":10917:10923   */\n  dup5\n    /* \"#utility.yul\":10912:10915   */\n  dup5\n    /* \"#utility.yul\":10908:10924   */\n  add\n    /* \"#utility.yul\":10905:10930   */\n  gt\n    /* \"#utility.yul\":10902:11014   */\n  iszero\n  tag_234\n  jumpi\n    /* \"#utility.yul\":10933:11012   */\n  tag_235\n  tag_82\n  jump\t// in\ntag_235:\n    /* \"#utility.yul\":10902:11014   */\ntag_234:\n    /* \"#utility.yul\":11023:11075   */\n  tag_236\n    /* \"#utility.yul\":11068:11074   */\n  dup5\n    /* \"#utility.yul\":11063:11066   */\n  dup3\n    /* \"#utility.yul\":11058:11061   */\n  dup6\n    /* \"#utility.yul\":11023:11075   */\n  tag_87\n  jump\t// in\ntag_236:\n    /* \"#utility.yul\":10742:11081   */\n  pop\n    /* \"#utility.yul\":10647:11081   */\n  swap4\n  swap3\n  pop\n  pop\n  pop\n  jump\t// out\n    /* \"#utility.yul\":11101:11456   */\ntag_89:\n    /* \"#utility.yul\":11168:11173   */\n  0x00\n    /* \"#utility.yul\":11217:11220   */\n  dup3\n    /* \"#utility.yul\":11210:11214   */\n  0x1f\n    /* \"#utility.yul\":11202:11208   */\n  dup4\n    /* \"#utility.yul\":11198:11215   */\n  add\n    /* \"#utility.yul\":11194:11221   */\n  slt\n    /* \"#utility.yul\":11184:11306   */\n  tag_238\n  jumpi\n    /* \"#utility.yul\":11225:11304   */\n  tag_239\n  tag_81\n  jump\t// in\ntag_239:\n    /* \"#utility.yul\":11184:11306   */\ntag_238:\n    /* \"#utility.yul\":11335:11341   */\n  dup2\n    /* \"#utility.yul\":11329:11342   */\n  mload\n    /* \"#utility.yul\":11360:11450   */\n  tag_240\n    /* \"#utility.yul\":11446:11449   */\n  dup5\n    /* \"#utility.yul\":11438:11444   */\n  dup3\n    /* \"#utility.yul\":11431:11435   */\n  0x20\n    /* \"#utility.yul\":11423:11429   */\n  dup7\n    /* \"#utility.yul\":11419:11436   */\n  add\n    /* \"#utility.yul\":11360:11450   */\n  tag_88\n  jump\t// in\ntag_240:\n    /* \"#utility.yul\":11351:11450   */\n  swap2\n  pop\n    /* \"#utility.yul\":11174:11456   */\n  pop\n    /* \"#utility.yul\":11101:11456   */\n  swap3\n  swap2\n  pop\n  pop\n  jump\t// out\n    /* \"#utility.yul\":11462:11986   */\ntag_28:\n    /* \"#utility.yul\":11542:11548   */\n  0x00\n    /* \"#utility.yul\":11591:11593   */\n  0x20\n    /* \"#utility.yul\":11579:11588   */\n  dup3\n    /* \"#utility.yul\":11570:11577   */\n  dup5\n    /* \"#utility.yul\":11566:11589   */\n  sub\n    /* \"#utility.yul\":11562:11594   */\n  slt\n    /* \"#utility.yul\":11559:11678   */\n  iszero\n  tag_242\n  jumpi\n    /* \"#utility.yul\":11597:11676   */\n  tag_243\n  tag_43\n  jump\t// in\ntag_243:\n    /* \"#utility.yul\":11559:11678   */\ntag_242:\n    /* \"#utility.yul\":11738:11739   */\n  0x00\n    /* \"#utility.yul\":11727:11736   */\n  dup3\n    /* \"#utility.yul\":11723:11740   */\n  add\n    /* \"#utility.yul\":11717:11741   */\n  mload\n    /* \"#utility.yul\":11768:11786   */\n  0xffffffffffffffff\n    /* \"#utility.yul\":11760:11766   */\n  dup2\n    /* \"#utility.yul\":11757:11787   */\n  gt\n    /* \"#utility.yul\":11754:11871   */\n  iszero\n  tag_244\n  jumpi\n    /* \"#utility.yul\":11790:11869   */\n  tag_245\n  tag_44\n  jump\t// in\ntag_245:\n    /* \"#utility.yul\":11754:11871   */\ntag_244:\n    /* \"#utility.yul\":11895:11969   */\n  tag_246\n    /* \"#utility.yul\":11961:11968   */\n  dup5\n    /* \"#utility.yul\":11952:11958   */\n  dup3\n    /* \"#utility.yul\":11941:11950   */\n  dup6\n    /* \"#utility.yul\":11937:11959   */\n  add\n    /* \"#utility.yul\":11895:11969   */\n  tag_89\n  jump\t// in\ntag_246:\n    /* \"#utility.yul\":11885:11969   */\n  swap2\n  pop\n    /* \"#utility.yul\":11688:11979   */\n  pop\n    /* \"#utility.yul\":11462:11986   */\n  swap3\n  swap2\n  pop\n  pop\n  jump\t// out\n    /* \"#utility.yul\":11992:12194   */\ntag_90:\n    /* \"#utility.yul\":12161:12187   */\n  0x455243343632362d577261707065642041617665207632200000000000000000\n    /* \"#utility.yul\":12156:12159   */\n  dup2\n    /* \"#utility.yul\":12149:12188   */\n  mstore\n    /* \"#utility.yul\":11992:12194   */\n  pop\n  jump\t// out\n    /* \"#utility.yul\":12200:12348   */\ntag_91:\n    /* \"#utility.yul\":12302:12313   */\n  0x00\n    /* \"#utility.yul\":12339:12342   */\n  dup2\n    /* \"#utility.yul\":12324:12342   */\n  swap1\n  pop\n    /* \"#utility.yul\":12200:12348   */\n  swap3\n  swap2\n  pop\n  pop\n  jump\t// out\n    /* \"#utility.yul\":12354:12744   */\ntag_92:\n    /* \"#utility.yul\":12460:12463   */\n  0x00\n    /* \"#utility.yul\":12488:12527   */\n  tag_250\n    /* \"#utility.yul\":12521:12526   */\n  dup3\n    /* \"#utility.yul\":12488:12527   */\n  tag_61\n  jump\t// in\ntag_250:\n    /* \"#utility.yul\":12543:12632   */\n  tag_251\n    /* \"#utility.yul\":12625:12631   */\n  dup2\n    /* \"#utility.yul\":12620:12623   */\n  dup6\n    /* \"#utility.yul\":12543:12632   */\n  tag_91\n  jump\t// in\ntag_251:\n    /* \"#utility.yul\":12536:12632   */\n  swap4\n  pop\n    /* \"#utility.yul\":12641:12706   */\n  tag_252\n    /* \"#utility.yul\":12699:12705   */\n  dup2\n    /* \"#utility.yul\":12694:12697   */\n  dup6\n    /* \"#utility.yul\":12687:12691   */\n  0x20\n    /* \"#utility.yul\":12680:12685   */\n  dup7\n    /* \"#utility.yul\":12676:12692   */\n  add\n    /* \"#utility.yul\":12641:12706   */\n  tag_87\n  jump\t// in\ntag_252:\n    /* \"#utility.yul\":12731:12737   */\n  dup1\n    /* \"#utility.yul\":12726:12729   */\n  dup5\n    /* \"#utility.yul\":12722:12738   */\n  add\n    /* \"#utility.yul\":12715:12738   */\n  swap2\n  pop\n    /* \"#utility.yul\":12464:12744   */\n  pop\n    /* \"#utility.yul\":12354:12744   */\n  swap3\n  swap2\n  pop\n  pop\n  jump\t// out\n    /* \"#utility.yul\":12750:13292   */\ntag_30:\n    /* \"#utility.yul\":12973:12976   */\n  0x00\n    /* \"#utility.yul\":12988:13126   */\n  tag_254\n    /* \"#utility.yul\":13122:13125   */\n  dup3\n    /* \"#utility.yul\":12988:13126   */\n  tag_90\n  jump\t// in\ntag_254:\n    /* \"#utility.yul\":13151:13153   */\n  0x18\n    /* \"#utility.yul\":13146:13149   */\n  dup3\n    /* \"#utility.yul\":13142:13154   */\n  add\n    /* \"#utility.yul\":13135:13154   */\n  swap2\n  pop\n    /* \"#utility.yul\":13171:13266   */\n  tag_255\n    /* \"#utility.yul\":13262:13265   */\n  dup3\n    /* \"#utility.yul\":13253:13259   */\n  dup5\n    /* \"#utility.yul\":13171:13266   */\n  tag_92\n  jump\t// in\ntag_255:\n    /* \"#utility.yul\":13164:13266   */\n  swap2\n  pop\n    /* \"#utility.yul\":13283:13286   */\n  dup2\n    /* \"#utility.yul\":13276:13286   */\n  swap1\n  pop\n    /* \"#utility.yul\":12750:13292   */\n  swap3\n  swap2\n  pop\n  pop\n  jump\t// out\n    /* \"#utility.yul\":13298:13478   */\ntag_93:\n    /* \"#utility.yul\":13466:13471   */\n  0x7761320000000000000000000000000000000000000000000000000000000000\n    /* \"#utility.yul\":13461:13464   */\n  dup2\n    /* \"#utility.yul\":13454:13472   */\n  mstore\n    /* \"#utility.yul\":13298:13478   */\n  pop\n  jump\t// out\n    /* \"#utility.yul\":13484:14023   */\ntag_36:\n    /* \"#utility.yul\":13706:13709   */\n  0x00\n    /* \"#utility.yul\":13721:13858   */\n  tag_258\n    /* \"#utility.yul\":13854:13857   */\n  dup3\n    /* \"#utility.yul\":13721:13858   */\n  tag_93\n  jump\t// in\ntag_258:\n    /* \"#utility.yul\":13883:13884   */\n  0x03\n    /* \"#utility.yul\":13878:13881   */\n  dup3\n    /* \"#utility.yul\":13874:13885   */\n  add\n    /* \"#utility.yul\":13867:13885   */\n  swap2\n  pop\n    /* \"#utility.yul\":13902:13997   */\n  tag_259\n    /* \"#utility.yul\":13993:13996   */\n  dup3\n    /* \"#utility.yul\":13984:13990   */\n  dup5\n    /* \"#utility.yul\":13902:13997   */\n  tag_92\n  jump\t// in\ntag_259:\n    /* \"#utility.yul\":13895:13997   */\n  swap2\n  pop\n    /* \"#utility.yul\":14014:14017   */\n  dup2\n    /* \"#utility.yul\":14007:14017   */\n  swap1\n  pop\n    /* \"#utility.yul\":13484:14023   */\n  swap3\n  swap2\n  pop\n  pop\n  jump\t// out\n    /* \"#utility.yul\":14029:14176   */\ntag_94:\n    /* \"#utility.yul\":14130:14141   */\n  0x00\n    /* \"#utility.yul\":14167:14170   */\n  dup2\n    /* \"#utility.yul\":14152:14170   */\n  swap1\n  pop\n    /* \"#utility.yul\":14029:14176   */\n  swap3\n  swap2\n  pop\n  pop\n  jump\t// out\n    /* \"#utility.yul\":14182:14326   */\ntag_95:\n    /* \"#utility.yul\":14234:14238   */\n  0x00\n    /* \"#utility.yul\":14257:14260   */\n  dup2\n    /* \"#utility.yul\":14249:14260   */\n  swap1\n  pop\n    /* \"#utility.yul\":14280:14283   */\n  dup2\n    /* \"#utility.yul\":14277:14278   */\n  0x00\n    /* \"#utility.yul\":14270:14284   */\n  mstore\n    /* \"#utility.yul\":14314:14318   */\n  0x20\n    /* \"#utility.yul\":14311:14312   */\n  0x00\n    /* \"#utility.yul\":14301:14319   */\n  keccak256\n    /* \"#utility.yul\":14293:14319   */\n  swap1\n  pop\n    /* \"#utility.yul\":14182:14326   */\n  swap2\n  swap1\n  pop\n  jump\t// out\n    /* \"#utility.yul\":14354:15232   */\ntag_96:\n    /* \"#utility.yul\":14459:14462   */\n  0x00\n    /* \"#utility.yul\":14496:14501   */\n  dup2\n    /* \"#utility.yul\":14490:14502   */\n  sload\n    /* \"#utility.yul\":14525:14561   */\n  tag_263\n    /* \"#utility.yul\":14551:14560   */\n  dup2\n    /* \"#utility.yul\":14525:14561   */\n  tag_64\n  jump\t// in\ntag_263:\n    /* \"#utility.yul\":14577:14665   */\n  tag_264\n    /* \"#utility.yul\":14658:14664   */\n  dup2\n    /* \"#utility.yul\":14653:14656   */\n  dup7\n    /* \"#utility.yul\":14577:14665   */\n  tag_94\n  jump\t// in\ntag_264:\n    /* \"#utility.yul\":14570:14665   */\n  swap5\n  pop\n    /* \"#utility.yul\":14696:14697   */\n  0x01\n    /* \"#utility.yul\":14685:14694   */\n  dup3\n    /* \"#utility.yul\":14681:14698   */\n  and\n    /* \"#utility.yul\":14712:14713   */\n  0x00\n    /* \"#utility.yul\":14707:14873   */\n  dup2\n  eq\n  tag_266\n  jumpi\n    /* \"#utility.yul\":14887:14888   */\n  0x01\n    /* \"#utility.yul\":14882:15226   */\n  dup2\n  eq\n  tag_267\n  jumpi\n    /* \"#utility.yul\":14674:15226   */\n  jump(tag_265)\n    /* \"#utility.yul\":14707:14873   */\ntag_266:\n    /* \"#utility.yul\":14791:14795   */\n  0xff\n    /* \"#utility.yul\":14787:14796   */\n  not\n    /* \"#utility.yul\":14776:14785   */\n  dup4\n    /* \"#utility.yul\":14772:14797   */\n  and\n    /* \"#utility.yul\":14767:14770   */\n  dup7\n    /* \"#utility.yul\":14760:14798   */\n  mstore\n    /* \"#utility.yul\":14853:14859   */\n  dup2\n    /* \"#utility.yul\":14846:14860   */\n  iszero\n    /* \"#utility.yul\":14839:14861   */\n  iszero\n    /* \"#utility.yul\":14831:14837   */\n  dup3\n    /* \"#utility.yul\":14827:14862   */\n  mul\n    /* \"#utility.yul\":14822:14825   */\n  dup7\n    /* \"#utility.yul\":14818:14863   */\n  add\n    /* \"#utility.yul\":14811:14863   */\n  swap4\n  pop\n    /* \"#utility.yul\":14707:14873   */\n  jump(tag_265)\n    /* \"#utility.yul\":14882:15226   */\ntag_267:\n    /* \"#utility.yul\":14949:14990   */\n  tag_268\n    /* \"#utility.yul\":14984:14989   */\n  dup6\n    /* \"#utility.yul\":14949:14990   */\n  tag_95\n  jump\t// in\ntag_268:\n    /* \"#utility.yul\":15012:15013   */\n  0x00\n    /* \"#utility.yul\":15026:15180   */\ntag_269:\n    /* \"#utility.yul\":15040:15046   */\n  dup4\n    /* \"#utility.yul\":15037:15038   */\n  dup2\n    /* \"#utility.yul\":15034:15047   */\n  lt\n    /* \"#utility.yul\":15026:15180   */\n  iszero\n  tag_271\n  jumpi\n    /* \"#utility.yul\":15114:15121   */\n  dup2\n    /* \"#utility.yul\":15108:15122   */\n  sload\n    /* \"#utility.yul\":15104:15105   */\n  dup2\n    /* \"#utility.yul\":15099:15102   */\n  dup10\n    /* \"#utility.yul\":15095:15106   */\n  add\n    /* \"#utility.yul\":15088:15123   */\n  mstore\n    /* \"#utility.yul\":15164:15165   */\n  0x01\n    /* \"#utility.yul\":15155:15162   */\n  dup3\n    /* \"#utility.yul\":15151:15166   */\n  add\n    /* \"#utility.yul\":15140:15166   */\n  swap2\n  pop\n    /* \"#utility.yul\":15062:15066   */\n  0x20\n    /* \"#utility.yul\":15059:15060   */\n  dup2\n    /* \"#utility.yul\":15055:15067   */\n  add\n    /* \"#utility.yul\":15050:15067   */\n  swap1\n  pop\n    /* \"#utility.yul\":15026:15180   */\n  jump(tag_269)\ntag_271:\n    /* \"#utility.yul\":15209:15215   */\n  dup4\n    /* \"#utility.yul\":15204:15207   */\n  dup9\n    /* \"#utility.yul\":15200:15216   */\n  add\n    /* \"#utility.yul\":15193:15216   */\n  swap6\n  pop\n    /* \"#utility.yul\":14889:15226   */\n  pop\n  pop\n    /* \"#utility.yul\":14674:15226   */\ntag_265:\n  pop\n    /* \"#utility.yul\":14463:15232   */\n  pop\n  pop\n    /* \"#utility.yul\":14354:15232   */\n  swap3\n  swap2\n  pop\n  pop\n  jump\t// out\n    /* \"#utility.yul\":15238:15511   */\ntag_39:\n    /* \"#utility.yul\":15369:15372   */\n  0x00\n    /* \"#utility.yul\":15391:15485   */\n  tag_273\n    /* \"#utility.yul\":15481:15484   */\n  dup3\n    /* \"#utility.yul\":15472:15478   */\n  dup5\n    /* \"#utility.yul\":15391:15485   */\n  tag_96\n  jump\t// in\ntag_273:\n    /* \"#utility.yul\":15384:15485   */\n  swap2\n  pop\n    /* \"#utility.yul\":15502:15505   */\n  dup2\n    /* \"#utility.yul\":15495:15505   */\n  swap1\n  pop\n    /* \"#utility.yul\":15238:15511   */\n  swap3\n  swap2\n  pop\n  pop\n  jump\t// out\n    /* \"#utility.yul\":15517:15594   */\ntag_97:\n    /* \"#utility.yul\":15554:15561   */\n  0x00\n    /* \"#utility.yul\":15583:15588   */\n  dup2\n    /* \"#utility.yul\":15572:15588   */\n  swap1\n  pop\n    /* \"#utility.yul\":15517:15594   */\n  swap2\n  swap1\n  pop\n  jump\t// out\n    /* \"#utility.yul\":15600:15718   */\ntag_98:\n    /* \"#utility.yul\":15687:15711   */\n  tag_276\n    /* \"#utility.yul\":15705:15710   */\n  dup2\n    /* \"#utility.yul\":15687:15711   */\n  tag_97\n  jump\t// in\ntag_276:\n    /* \"#utility.yul\":15682:15685   */\n  dup3\n    /* \"#utility.yul\":15675:15712   */\n  mstore\n    /* \"#utility.yul\":15600:15718   */\n  pop\n  pop\n  jump\t// out\n    /* \"#utility.yul\":15724:15842   */\ntag_99:\n    /* \"#utility.yul\":15811:15835   */\n  tag_278\n    /* \"#utility.yul\":15829:15834   */\n  dup2\n    /* \"#utility.yul\":15811:15835   */\n  tag_69\n  jump\t// in\ntag_278:\n    /* \"#utility.yul\":15806:15809   */\n  dup3\n    /* \"#utility.yul\":15799:15836   */\n  mstore\n    /* \"#utility.yul\":15724:15842   */\n  pop\n  pop\n  jump\t// out\n    /* \"#utility.yul\":15848:15966   */\ntag_100:\n    /* \"#utility.yul\":15935:15959   */\n  tag_280\n    /* \"#utility.yul\":15953:15958   */\n  dup2\n    /* \"#utility.yul\":15935:15959   */\n  tag_46\n  jump\t// in\ntag_280:\n    /* \"#utility.yul\":15930:15933   */\n  dup3\n    /* \"#utility.yul\":15923:15960   */\n  mstore\n    /* \"#utility.yul\":15848:15966   */\n  pop\n  pop\n  jump\t// out\n    /* \"#utility.yul\":15972:16636   */\ntag_41:\n    /* \"#utility.yul\":16177:16181   */\n  0x00\n    /* \"#utility.yul\":16215:16218   */\n  0xa0\n    /* \"#utility.yul\":16204:16213   */\n  dup3\n    /* \"#utility.yul\":16200:16219   */\n  add\n    /* \"#utility.yul\":16192:16219   */\n  swap1\n  pop\n    /* \"#utility.yul\":16229:16300   */\n  tag_282\n    /* \"#utility.yul\":16297:16298   */\n  0x00\n    /* \"#utility.yul\":16286:16295   */\n  dup4\n    /* \"#utility.yul\":16282:16299   */\n  add\n    /* \"#utility.yul\":16273:16279   */\n  dup9\n    /* \"#utility.yul\":16229:16300   */\n  tag_98\n  jump\t// in\ntag_282:\n    /* \"#utility.yul\":16310:16382   */\n  tag_283\n    /* \"#utility.yul\":16378:16380   */\n  0x20\n    /* \"#utility.yul\":16367:16376   */\n  dup4\n    /* \"#utility.yul\":16363:16381   */\n  add\n    /* \"#utility.yul\":16354:16360   */\n  dup8\n    /* \"#utility.yul\":16310:16382   */\n  tag_98\n  jump\t// in\ntag_283:\n    /* \"#utility.yul\":16392:16464   */\n  tag_284\n    /* \"#utility.yul\":16460:16462   */\n  0x40\n    /* \"#utility.yul\":16449:16458   */\n  dup4\n    /* \"#utility.yul\":16445:16463   */\n  add\n    /* \"#utility.yul\":16436:16442   */\n  dup7\n    /* \"#utility.yul\":16392:16464   */\n  tag_98\n  jump\t// in\ntag_284:\n    /* \"#utility.yul\":16474:16546   */\n  tag_285\n    /* \"#utility.yul\":16542:16544   */\n  0x60\n    /* \"#utility.yul\":16531:16540   */\n  dup4\n    /* \"#utility.yul\":16527:16545   */\n  add\n    /* \"#utility.yul\":16518:16524   */\n  dup6\n    /* \"#utility.yul\":16474:16546   */\n  tag_99\n  jump\t// in\ntag_285:\n    /* \"#utility.yul\":16556:16629   */\n  tag_286\n    /* \"#utility.yul\":16624:16627   */\n  0x80\n    /* \"#utility.yul\":16613:16622   */\n  dup4\n    /* \"#utility.yul\":16609:16628   */\n  add\n    /* \"#utility.yul\":16600:16606   */\n  dup5\n    /* \"#utility.yul\":16556:16629   */\n  tag_100\n  jump\t// in\ntag_286:\n    /* \"#utility.yul\":15972:16636   */\n  swap7\n  swap6\n  pop\n  pop\n  pop\n  pop\n  pop\n  pop\n  jump\t// out\n    /* \"aave-v2/AaveV2ERC4626.sol\":809:8899  contract AaveV2ERC4626 is ERC4626 {... */\ntag_23:\n  mload(0x80)\n  mload(0xa0)\n  mload(0xc0)\n  mload(0xe0)\n  mload(0x0100)\n  mload(0x0120)\n  mload(0x0140)\n  mload(0x0160)\n  codecopy(0x00, dataOffset(sub_0), dataSize(sub_0))\n  0x00\n  assignImmutable(\"0x59c0d2b7af0a8e6d3d8e710a078764bd67b7223777026c424cdb4f599824bb79\")\n  0x00\n  assignImmutable(\"0xcc1431a2586c1e11fb75c87e5ee58e4204126a9fdde07075c91770f50276cbb0\")\n  0x00\n  assignImmutable(\"0xccb1f717aa77602faf03a594761a36956b1c4cf44c6b336d1db57da799b331b8\")\n  0x00\n  assignImmutable(\"0xd67d834462ca31eaef1f30157e31659f60355143b7441e6fc7d9eae1fa79f3f8\")\n  0x00\n  assignImmutable(\"0x56727611acac576685e7cf941f4f1cbe100ee8111d8451aad4d429b252500f29\")\n  0x00\n  assignImmutable(\"0x3b5e79d464b62561753d4e193bbf44b670e74a211dfadb82af01f3cae1ba996a\")\n  0x00\n  assignImmutable(\"0x2fef5eb89edefb062d64ab45ae24f9fe5902e0db73f11ccb8552ae89ca2d4734\")\n  0x00\n  assignImmutable(\"0x2e415caec8d91e458e1b9987576611b087b1a3cc6a704a90bb9e06da9759f8e6\")\n  return(0x00, dataSize(sub_0))\nstop\n\nsub_0: assembly {\n        /* \"aave-v2/AaveV2ERC4626.sol\":809:8899  contract AaveV2ERC4626 is ERC4626 {... */\n      mstore(0x40, 0x80)\n      callvalue\n      dup1\n      iszero\n      tag_1\n      jumpi\n      0x00\n      dup1\n      revert\n    tag_1:\n      pop\n      jumpi(tag_2, lt(calldatasize, 0x04))\n      shr(0xe0, calldataload(0x00))\n      dup1\n      0x7ecebe00\n      gt\n      tag_36\n      jumpi\n      dup1\n      0xba087652\n      gt\n      tag_37\n      jumpi\n      dup1\n      0xd505accf\n      gt\n      tag_38\n      jumpi\n      dup1\n      0xd505accf\n      eq\n      tag_31\n      jumpi\n      dup1\n      0xd905777e\n      eq\n      tag_32\n      jumpi\n      dup1\n      0xdd62ed3e\n      eq\n      tag_33\n      jumpi\n      dup1\n      0xef8b30f7\n      eq\n      tag_34\n      jumpi\n      dup1\n      0xf71b865d\n      eq\n      tag_35\n      jumpi\n      jump(tag_2)\n    tag_38:\n      dup1\n      0xba087652\n      eq\n      tag_27\n      jumpi\n      dup1\n      0xc63d75b6\n      eq\n      tag_28\n      jumpi\n      dup1\n      0xc6e6f592\n      eq\n      tag_29\n      jumpi\n      dup1\n      0xce96cb77\n      eq\n      tag_30\n      jumpi\n      jump(tag_2)\n    tag_37:\n      dup1\n      0xa59a9973\n      gt\n      tag_39\n      jumpi\n      dup1\n      0xa59a9973\n      eq\n      tag_23\n      jumpi\n      dup1\n      0xa9059cbb\n      eq\n      tag_24\n      jumpi\n      dup1\n      0xb3d7f6b9\n      eq\n      tag_25\n      jumpi\n      dup1\n      0xb460af94\n      eq\n      tag_26\n      jumpi\n      jump(tag_2)\n    tag_39:\n      dup1\n      0x7ecebe00\n      eq\n      tag_19\n      jumpi\n      dup1\n      0x94bf804d\n      eq\n      tag_20\n      jumpi\n      dup1\n      0x95d89b41\n      eq\n      tag_21\n      jumpi\n      dup1\n      0xa0c1f15e\n      eq\n      tag_22\n      jumpi\n      jump(tag_2)\n    tag_36:\n      dup1\n      0x313ce567\n      gt\n      tag_40\n      jumpi\n      dup1\n      0x402d267d\n      gt\n      tag_41\n      jumpi\n      dup1\n      0x402d267d\n      eq\n      tag_15\n      jumpi\n      dup1\n      0x4cdad506\n      eq\n      tag_16\n      jumpi\n      dup1\n      0x6e553f65\n      eq\n      tag_17\n      jumpi\n      dup1\n      0x70a08231\n      eq\n      tag_18\n      jumpi\n      jump(tag_2)\n    tag_41:\n      dup1\n      0x313ce567\n      eq\n      tag_11\n      jumpi\n      dup1\n      0x3644e515\n      eq\n      tag_12\n      jumpi\n      dup1\n      0x372500ab\n      eq\n      tag_13\n      jumpi\n      dup1\n      0x38d52e0f\n      eq\n      tag_14\n      jumpi\n      jump(tag_2)\n    tag_40:\n      dup1\n      0x0a28a477\n      gt\n      tag_42\n      jumpi\n      dup1\n      0x0a28a477\n      eq\n      tag_7\n      jumpi\n      dup1\n      0x17f33340\n      eq\n      tag_8\n      jumpi\n      dup1\n      0x18160ddd\n      eq\n      tag_9\n      jumpi\n      dup1\n      0x23b872dd\n      eq\n      tag_10\n      jumpi\n      jump(tag_2)\n    tag_42:\n      dup1\n      0x01e1d114\n      eq\n      tag_3\n      jumpi\n      dup1\n      0x06fdde03\n      eq\n      tag_4\n      jumpi\n      dup1\n      0x07a2d13a\n      eq\n      tag_5\n      jumpi\n      dup1\n      0x095ea7b3\n      eq\n      tag_6\n      jumpi\n    tag_2:\n      0x00\n      dup1\n      revert\n        /* \"aave-v2/AaveV2ERC4626.sol\":5051:5275  function totalAssets() public view virtual override returns (uint256) {... */\n    tag_3:\n      tag_43\n      tag_44\n      jump\t// in\n    tag_43:\n      mload(0x40)\n      tag_45\n      swap2\n      swap1\n      tag_46\n      jump\t// in\n    tag_45:\n      mload(0x40)\n      dup1\n      swap2\n      sub\n      swap1\n      return\n        /* \"solmate/tokens/ERC20.sol\":1031:1049  string public name */\n    tag_4:\n      tag_47\n      tag_48\n      jump\t// in\n    tag_47:\n      mload(0x40)\n      tag_49\n      swap2\n      swap1\n      tag_50\n      jump\t// in\n    tag_49:\n      mload(0x40)\n      dup1\n      swap2\n      sub\n      swap1\n      return\n        /* \"solmate/mixins/ERC4626.sol\":4463:4720  function convertToAssets(uint256 shares) public view virtual returns (uint256) {... */\n    tag_5:\n      tag_51\n      0x04\n      dup1\n      calldatasize\n      sub\n      dup2\n      add\n      swap1\n      tag_52\n      swap2\n      swap1\n      tag_53\n      jump\t// in\n    tag_52:\n      tag_54\n      jump\t// in\n    tag_51:\n      mload(0x40)\n      tag_55\n      swap2\n      swap1\n      tag_46\n      jump\t// in\n    tag_55:\n      mload(0x40)\n      dup1\n      swap2\n      sub\n      swap1\n      return\n        /* \"solmate/tokens/ERC20.sol\":2461:2672  function approve(address spender, uint256 amount) public virtual returns (bool) {... */\n    tag_6:\n      tag_56\n      0x04\n      dup1\n      calldatasize\n      sub\n      dup2\n      add\n      swap1\n      tag_57\n      swap2\n      swap1\n      tag_58\n      jump\t// in\n    tag_57:\n      tag_59\n      jump\t// in\n    tag_56:\n      mload(0x40)\n      tag_60\n      swap2\n      swap1\n      tag_61\n      jump\t// in\n    tag_60:\n      mload(0x40)\n      dup1\n      swap2\n      sub\n      swap1\n      return\n        /* \"solmate/mixins/ERC4626.sol\":5114:5369  function previewWithdraw(uint256 assets) public view virtual returns (uint256) {... */\n    tag_7:\n      tag_62\n      0x04\n      dup1\n      calldatasize\n      sub\n      dup2\n      add\n      swap1\n      tag_63\n      swap2\n      swap1\n      tag_53\n      jump\t// in\n    tag_63:\n      tag_64\n      jump\t// in\n    tag_62:\n      mload(0x40)\n      tag_65\n      swap2\n      swap1\n      tag_46\n      jump\t// in\n    tag_65:\n      mload(0x40)\n      dup1\n      swap2\n      sub\n      swap1\n      return\n        /* \"aave-v2/AaveV2ERC4626.sol\":2019:2059  address public immutable rewardRecipient */\n    tag_8:\n      tag_66\n      tag_67\n      jump\t// in\n    tag_66:\n      mload(0x40)\n      tag_68\n      swap2\n      swap1\n      tag_69\n      jump\t// in\n    tag_68:\n      mload(0x40)\n      dup1\n      swap2\n      sub\n      swap1\n      return\n        /* \"solmate/tokens/ERC20.sol\":1304:1330  uint256 public totalSupply */\n    tag_9:\n      tag_70\n      tag_71\n      jump\t// in\n    tag_70:\n      mload(0x40)\n      tag_72\n      swap2\n      swap1\n      tag_46\n      jump\t// in\n    tag_72:\n      mload(0x40)\n      dup1\n      swap2\n      sub\n      swap1\n      return\n        /* \"solmate/tokens/ERC20.sol\":3057:3649  function transferFrom(... */\n    tag_10:\n      tag_73\n      0x04\n      dup1\n      calldatasize\n      sub\n      dup2\n      add\n      swap1\n      tag_74\n      swap2\n      swap1\n      tag_75\n      jump\t// in\n    tag_74:\n      tag_76\n      jump\t// in\n    tag_73:\n      mload(0x40)\n      tag_77\n      swap2\n      swap1\n      tag_61\n      jump\t// in\n    tag_77:\n      mload(0x40)\n      dup1\n      swap2\n      sub\n      swap1\n      return\n        /* \"solmate/tokens/ERC20.sol\":1083:1114  uint8 public immutable decimals */\n    tag_11:\n      tag_78\n      tag_79\n      jump\t// in\n    tag_78:\n      mload(0x40)\n      tag_80\n      swap2\n      swap1\n      tag_81\n      jump\t// in\n    tag_80:\n      mload(0x40)\n      dup1\n      swap2\n      sub\n      swap1\n      return\n        /* \"solmate/tokens/ERC20.sol\":5327:5504  function DOMAIN_SEPARATOR() public view virtual returns (bytes32) {... */\n    tag_12:\n      tag_82\n      tag_83\n      jump\t// in\n    tag_82:\n      mload(0x40)\n      tag_84\n      swap2\n      swap1\n      tag_85\n      jump\t// in\n    tag_84:\n      mload(0x40)\n      dup1\n      swap2\n      sub\n      swap1\n      return\n        /* \"aave-v2/AaveV2ERC4626.sol\":3010:3268  function claimRewards() external {... */\n    tag_13:\n      tag_86\n      tag_87\n      jump\t// in\n    tag_86:\n      stop\n        /* \"solmate/mixins/ERC4626.sol\":1149:1177  ERC20 public immutable asset */\n    tag_14:\n      tag_88\n      tag_89\n      jump\t// in\n    tag_88:\n      mload(0x40)\n      tag_90\n      swap2\n      swap1\n      tag_91\n      jump\t// in\n    tag_90:\n      mload(0x40)\n      dup1\n      swap2\n      sub\n      swap1\n      return\n        /* \"aave-v2/AaveV2ERC4626.sol\":5784:6234  function maxDeposit(address) public view virtual override returns (uint256) {... */\n    tag_15:\n      tag_92\n      0x04\n      dup1\n      calldatasize\n      sub\n      dup2\n      add\n      swap1\n      tag_93\n      swap2\n      swap1\n      tag_94\n      jump\t// in\n    tag_93:\n      tag_95\n      jump\t// in\n    tag_92:\n      mload(0x40)\n      tag_96\n      swap2\n      swap1\n      tag_46\n      jump\t// in\n    tag_96:\n      mload(0x40)\n      dup1\n      swap2\n      sub\n      swap1\n      return\n        /* \"solmate/mixins/ERC4626.sol\":5375:5499  function previewRedeem(uint256 shares) public view virtual returns (uint256) {... */\n    tag_16:\n      tag_97\n      0x04\n      dup1\n      calldatasize\n      sub\n      dup2\n      add\n      swap1\n      tag_98\n      swap2\n      swap1\n      tag_53\n      jump\t// in\n    tag_98:\n      tag_99\n      jump\t// in\n    tag_97:\n      mload(0x40)\n      tag_100\n      swap2\n      swap1\n      tag_46\n      jump\t// in\n    tag_100:\n      mload(0x40)\n      dup1\n      swap2\n      sub\n      swap1\n      return\n        /* \"solmate/mixins/ERC4626.sol\":1550:2066  function deposit(uint256 assets, address receiver) public virtual returns (uint256 shares) {... */\n    tag_17:\n      tag_101\n      0x04\n      dup1\n      calldatasize\n      sub\n      dup2\n      add\n      swap1\n      tag_102\n      swap2\n      swap1\n      tag_103\n      jump\t// in\n    tag_102:\n      tag_104\n      jump\t// in\n    tag_101:\n      mload(0x40)\n      tag_105\n      swap2\n      swap1\n      tag_46\n      jump\t// in\n    tag_105:\n      mload(0x40)\n      dup1\n      swap2\n      sub\n      swap1\n      return\n        /* \"solmate/tokens/ERC20.sol\":1337:1381  mapping(address => uint256) public balanceOf */\n    tag_18:\n      tag_106\n      0x04\n      dup1\n      calldatasize\n      sub\n      dup2\n      add\n      swap1\n      tag_107\n      swap2\n      swap1\n      tag_94\n      jump\t// in\n    tag_107:\n      tag_108\n      jump\t// in\n    tag_106:\n      mload(0x40)\n      tag_109\n      swap2\n      swap1\n      tag_46\n      jump\t// in\n    tag_109:\n      mload(0x40)\n      dup1\n      swap2\n      sub\n      swap1\n      return\n        /* \"solmate/tokens/ERC20.sol\":1751:1792  mapping(address => uint256) public nonces */\n    tag_19:\n      tag_110\n      0x04\n      dup1\n      calldatasize\n      sub\n      dup2\n      add\n      swap1\n      tag_111\n      swap2\n      swap1\n      tag_94\n      jump\t// in\n    tag_111:\n      tag_112\n      jump\t// in\n    tag_110:\n      mload(0x40)\n      tag_113\n      swap2\n      swap1\n      tag_46\n      jump\t// in\n    tag_113:\n      mload(0x40)\n      dup1\n      swap2\n      sub\n      swap1\n      return\n        /* \"solmate/mixins/ERC4626.sol\":2072:2539  function mint(uint256 shares, address receiver) public virtual returns (uint256 assets) {... */\n    tag_20:\n      tag_114\n      0x04\n      dup1\n      calldatasize\n      sub\n      dup2\n      add\n      swap1\n      tag_115\n      swap2\n      swap1\n      tag_103\n      jump\t// in\n    tag_115:\n      tag_116\n      jump\t// in\n    tag_114:\n      mload(0x40)\n      tag_117\n      swap2\n      swap1\n      tag_46\n      jump\t// in\n    tag_117:\n      mload(0x40)\n      dup1\n      swap2\n      sub\n      swap1\n      return\n        /* \"solmate/tokens/ERC20.sol\":1056:1076  string public symbol */\n    tag_21:\n      tag_118\n      tag_119\n      jump\t// in\n    tag_118:\n      mload(0x40)\n      tag_120\n      swap2\n      swap1\n      tag_50\n      jump\t// in\n    tag_120:\n      mload(0x40)\n      dup1\n      swap2\n      sub\n      swap1\n      return\n        /* \"aave-v2/AaveV2ERC4626.sol\":1802:1831  ERC20 public immutable aToken */\n    tag_22:\n      tag_121\n      tag_122\n      jump\t// in\n    tag_121:\n      mload(0x40)\n      tag_123\n      swap2\n      swap1\n      tag_91\n      jump\t// in\n    tag_123:\n      mload(0x40)\n      dup1\n      swap2\n      sub\n      swap1\n      return\n        /* \"aave-v2/AaveV2ERC4626.sol\":2112:2153  ILendingPool public immutable lendingPool */\n    tag_23:\n      tag_124\n      tag_125\n      jump\t// in\n    tag_124:\n      mload(0x40)\n      tag_126\n      swap2\n      swap1\n      tag_127\n      jump\t// in\n    tag_126:\n      mload(0x40)\n      dup1\n      swap2\n      sub\n      swap1\n      return\n        /* \"solmate/tokens/ERC20.sol\":2678:3051  function transfer(address to, uint256 amount) public virtual returns (bool) {... */\n    tag_24:\n      tag_128\n      0x04\n      dup1\n      calldatasize\n      sub\n      dup2\n      add\n      swap1\n      tag_129\n      swap2\n      swap1\n      tag_58\n      jump\t// in\n    tag_129:\n      tag_130\n      jump\t// in\n    tag_128:\n      mload(0x40)\n      tag_131\n      swap2\n      swap1\n      tag_61\n      jump\t// in\n    tag_131:\n      mload(0x40)\n      dup1\n      swap2\n      sub\n      swap1\n      return\n        /* \"solmate/mixins/ERC4626.sol\":4857:5108  function previewMint(uint256 shares) public view virtual returns (uint256) {... */\n    tag_25:\n      tag_132\n      0x04\n      dup1\n      calldatasize\n      sub\n      dup2\n      add\n      swap1\n      tag_133\n      swap2\n      swap1\n      tag_53\n      jump\t// in\n    tag_133:\n      tag_134\n      jump\t// in\n    tag_132:\n      mload(0x40)\n      tag_135\n      swap2\n      swap1\n      tag_46\n      jump\t// in\n    tag_135:\n      mload(0x40)\n      dup1\n      swap2\n      sub\n      swap1\n      return\n        /* \"aave-v2/AaveV2ERC4626.sol\":3461:4251  function withdraw(uint256 assets, address receiver, address owner)... */\n    tag_26:\n      tag_136\n      0x04\n      dup1\n      calldatasize\n      sub\n      dup2\n      add\n      swap1\n      tag_137\n      swap2\n      swap1\n      tag_138\n      jump\t// in\n    tag_137:\n      tag_139\n      jump\t// in\n    tag_136:\n      mload(0x40)\n      tag_140\n      swap2\n      swap1\n      tag_46\n      jump\t// in\n    tag_140:\n      mload(0x40)\n      dup1\n      swap2\n      sub\n      swap1\n      return\n        /* \"aave-v2/AaveV2ERC4626.sol\":4257:5045  function redeem(uint256 shares, address receiver, address owner) public virtual override returns (uint256 assets) {... */\n    tag_27:\n      tag_141\n      0x04\n      dup1\n      calldatasize\n      sub\n      dup2\n      add\n      swap1\n      tag_142\n      swap2\n      swap1\n      tag_138\n      jump\t// in\n    tag_142:\n      tag_143\n      jump\t// in\n    tag_141:\n      mload(0x40)\n      tag_144\n      swap2\n      swap1\n      tag_46\n      jump\t// in\n    tag_144:\n      mload(0x40)\n      dup1\n      swap2\n      sub\n      swap1\n      return\n        /* \"aave-v2/AaveV2ERC4626.sol\":6240:6687  function maxMint(address) public view virtual override returns (uint256) {... */\n    tag_28:\n      tag_145\n      0x04\n      dup1\n      calldatasize\n      sub\n      dup2\n      add\n      swap1\n      tag_146\n      swap2\n      swap1\n      tag_94\n      jump\t// in\n    tag_146:\n      tag_147\n      jump\t// in\n    tag_145:\n      mload(0x40)\n      tag_148\n      swap2\n      swap1\n      tag_46\n      jump\t// in\n    tag_148:\n      mload(0x40)\n      dup1\n      swap2\n      sub\n      swap1\n      return\n        /* \"solmate/mixins/ERC4626.sol\":4200:4457  function convertToShares(uint256 assets) public view virtual returns (uint256) {... */\n    tag_29:\n      tag_149\n      0x04\n      dup1\n      calldatasize\n      sub\n      dup2\n      add\n      swap1\n      tag_150\n      swap2\n      swap1\n      tag_53\n      jump\t// in\n    tag_150:\n      tag_151\n      jump\t// in\n    tag_149:\n      mload(0x40)\n      tag_152\n      swap2\n      swap1\n      tag_46\n      jump\t// in\n    tag_152:\n      mload(0x40)\n      dup1\n      swap2\n      sub\n      swap1\n      return\n        /* \"aave-v2/AaveV2ERC4626.sol\":6693:7271  function maxWithdraw(address owner) public view virtual override returns (uint256) {... */\n    tag_30:\n      tag_153\n      0x04\n      dup1\n      calldatasize\n      sub\n      dup2\n      add\n      swap1\n      tag_154\n      swap2\n      swap1\n      tag_94\n      jump\t// in\n    tag_154:\n      tag_155\n      jump\t// in\n    tag_153:\n      mload(0x40)\n      tag_156\n      swap2\n      swap1\n      tag_46\n      jump\t// in\n    tag_156:\n      mload(0x40)\n      dup1\n      swap2\n      sub\n      swap1\n      return\n        /* \"solmate/tokens/ERC20.sol\":3838:5321  function permit(... */\n    tag_31:\n      tag_157\n      0x04\n      dup1\n      calldatasize\n      sub\n      dup2\n      add\n      swap1\n      tag_158\n      swap2\n      swap1\n      tag_159\n      jump\t// in\n    tag_158:\n      tag_160\n      jump\t// in\n    tag_157:\n      stop\n        /* \"aave-v2/AaveV2ERC4626.sol\":7277:7903  function maxRedeem(address owner) public view virtual override returns (uint256) {... */\n    tag_32:\n      tag_161\n      0x04\n      dup1\n      calldatasize\n      sub\n      dup2\n      add\n      swap1\n      tag_162\n      swap2\n      swap1\n      tag_94\n      jump\t// in\n    tag_162:\n      tag_163\n      jump\t// in\n    tag_161:\n      mload(0x40)\n      tag_164\n      swap2\n      swap1\n      tag_46\n      jump\t// in\n    tag_164:\n      mload(0x40)\n      dup1\n      swap2\n      sub\n      swap1\n      return\n        /* \"solmate/tokens/ERC20.sol\":1388:1452  mapping(address => mapping(address => uint256)) public allowance */\n    tag_33:\n      tag_165\n      0x04\n      dup1\n      calldatasize\n      sub\n      dup2\n      add\n      swap1\n      tag_166\n      swap2\n      swap1\n      tag_167\n      jump\t// in\n    tag_166:\n      tag_168\n      jump\t// in\n    tag_165:\n      mload(0x40)\n      tag_169\n      swap2\n      swap1\n      tag_46\n      jump\t// in\n    tag_169:\n      mload(0x40)\n      dup1\n      swap2\n      sub\n      swap1\n      return\n        /* \"solmate/mixins/ERC4626.sol\":4726:4851  function previewDeposit(uint256 assets) public view virtual returns (uint256) {... */\n    tag_34:\n      tag_170\n      0x04\n      dup1\n      calldatasize\n      sub\n      dup2\n      add\n      swap1\n      tag_171\n      swap2\n      swap1\n      tag_53\n      jump\t// in\n    tag_171:\n      tag_172\n      jump\t// in\n    tag_170:\n      mload(0x40)\n      tag_173\n      swap2\n      swap1\n      tag_46\n      jump\t// in\n    tag_173:\n      mload(0x40)\n      dup1\n      swap2\n      sub\n      swap1\n      return\n        /* \"aave-v2/AaveV2ERC4626.sol\":1889:1928  IAaveMining public immutable aaveMining */\n    tag_35:\n      tag_174\n      tag_175\n      jump\t// in\n    tag_174:\n      mload(0x40)\n      tag_176\n      swap2\n      swap1\n      tag_177\n      jump\t// in\n    tag_176:\n      mload(0x40)\n      dup1\n      swap2\n      sub\n      swap1\n      return\n        /* \"aave-v2/AaveV2ERC4626.sol\":5051:5275  function totalAssets() public view virtual override returns (uint256) {... */\n    tag_44:\n        /* \"aave-v2/AaveV2ERC4626.sol\":5112:5119  uint256 */\n      0x00\n        /* \"aave-v2/AaveV2ERC4626.sol\":5237:5243  aToken */\n      immutable(\"0xd67d834462ca31eaef1f30157e31659f60355143b7441e6fc7d9eae1fa79f3f8\")\n        /* \"aave-v2/AaveV2ERC4626.sol\":5237:5253  aToken.balanceOf */\n      0xffffffffffffffffffffffffffffffffffffffff\n      and\n      0x70a08231\n        /* \"aave-v2/AaveV2ERC4626.sol\":5262:5266  this */\n      address\n        /* \"aave-v2/AaveV2ERC4626.sol\":5237:5268  aToken.balanceOf(address(this)) */\n      mload(0x40)\n      dup3\n      0xffffffff\n      and\n      0xe0\n      shl\n      dup2\n      mstore\n      0x04\n      add\n      tag_179\n      swap2\n      swap1\n      tag_69\n      jump\t// in\n    tag_179:\n      0x20\n      mload(0x40)\n      dup1\n      dup4\n      sub\n      dup2\n      dup7\n      gas\n      staticcall\n      iszero\n      dup1\n      iszero\n      tag_181\n      jumpi\n      returndatasize\n      0x00\n      dup1\n      returndatacopy\n      revert(0x00, returndatasize)\n    tag_181:\n      pop\n      pop\n      pop\n      pop\n      mload(0x40)\n      returndatasize\n      not(0x1f)\n      0x1f\n      dup3\n      add\n      and\n      dup3\n      add\n      dup1\n      0x40\n      mstore\n      pop\n      dup2\n      add\n      swap1\n      tag_182\n      swap2\n      swap1\n      tag_183\n      jump\t// in\n    tag_182:\n        /* \"aave-v2/AaveV2ERC4626.sol\":5230:5268  return aToken.balanceOf(address(this)) */\n      swap1\n      pop\n        /* \"aave-v2/AaveV2ERC4626.sol\":5051:5275  function totalAssets() public view virtual override returns (uint256) {... */\n      swap1\n      jump\t// out\n        /* \"solmate/tokens/ERC20.sol\":1031:1049  string public name */\n    tag_48:\n      0x00\n      dup1\n      sload\n      tag_184\n      swap1\n      tag_185\n      jump\t// in\n    tag_184:\n      dup1\n      0x1f\n      add\n      0x20\n      dup1\n      swap2\n      div\n      mul\n      0x20\n      add\n      mload(0x40)\n      swap1\n      dup2\n      add\n      0x40\n      mstore\n      dup1\n      swap3\n      swap2\n      swap1\n      dup2\n      dup2\n      mstore\n      0x20\n      add\n      dup3\n      dup1\n      sload\n      tag_186\n      swap1\n      tag_185\n      jump\t// in\n    tag_186:\n      dup1\n      iszero\n      tag_187\n      jumpi\n      dup1\n      0x1f\n      lt\n      tag_188\n      jumpi\n      0x0100\n      dup1\n      dup4\n      sload\n      div\n      mul\n      dup4\n      mstore\n      swap2\n      0x20\n      add\n      swap2\n      jump(tag_187)\n    tag_188:\n      dup3\n      add\n      swap2\n      swap1\n      0x00\n      mstore\n      keccak256(0x00, 0x20)\n      swap1\n    tag_189:\n      dup2\n      sload\n      dup2\n      mstore\n      swap1\n      0x01\n      add\n      swap1\n      0x20\n      add\n      dup1\n      dup4\n      gt\n      tag_189\n      jumpi\n      dup3\n      swap1\n      sub\n      0x1f\n      and\n      dup3\n      add\n      swap2\n    tag_187:\n      pop\n      pop\n      pop\n      pop\n      pop\n      dup2\n      jump\t// out\n        /* \"solmate/mixins/ERC4626.sol\":4463:4720  function convertToAssets(uint256 shares) public view virtual returns (uint256) {... */\n    tag_54:\n        /* \"solmate/mixins/ERC4626.sol\":4533:4540  uint256 */\n      0x00\n        /* \"solmate/mixins/ERC4626.sol\":4552:4566  uint256 supply */\n      dup1\n        /* \"solmate/mixins/ERC4626.sol\":4569:4580  totalSupply */\n      sload(0x02)\n        /* \"solmate/mixins/ERC4626.sol\":4552:4580  uint256 supply = totalSupply */\n      swap1\n      pop\n        /* \"solmate/mixins/ERC4626.sol\":4660:4661  0 */\n      0x00\n        /* \"solmate/mixins/ERC4626.sol\":4650:4656  supply */\n      dup2\n        /* \"solmate/mixins/ERC4626.sol\":4650:4661  supply == 0 */\n      eq\n        /* \"solmate/mixins/ERC4626.sol\":4650:4713  supply == 0 ? shares : shares.mulDivDown(totalAssets(), supply) */\n      tag_191\n      jumpi\n        /* \"solmate/mixins/ERC4626.sol\":4673:4713  shares.mulDivDown(totalAssets(), supply) */\n      tag_192\n        /* \"solmate/mixins/ERC4626.sol\":4691:4704  totalAssets() */\n      tag_193\n        /* \"solmate/mixins/ERC4626.sol\":4691:4702  totalAssets */\n      tag_44\n        /* \"solmate/mixins/ERC4626.sol\":4691:4704  totalAssets() */\n      jump\t// in\n    tag_193:\n        /* \"solmate/mixins/ERC4626.sol\":4706:4712  supply */\n      dup3\n        /* \"solmate/mixins/ERC4626.sol\":4673:4679  shares */\n      dup6\n        /* \"solmate/mixins/ERC4626.sol\":4673:4690  shares.mulDivDown */\n      tag_194\n      swap1\n        /* \"solmate/mixins/ERC4626.sol\":4673:4713  shares.mulDivDown(totalAssets(), supply) */\n      swap3\n      swap2\n      swap1\n      0xffffffff\n      and\n      jump\t// in\n    tag_192:\n        /* \"solmate/mixins/ERC4626.sol\":4650:4713  supply == 0 ? shares : shares.mulDivDown(totalAssets(), supply) */\n      jump(tag_195)\n    tag_191:\n        /* \"solmate/mixins/ERC4626.sol\":4664:4670  shares */\n      dup3\n        /* \"solmate/mixins/ERC4626.sol\":4650:4713  supply == 0 ? shares : shares.mulDivDown(totalAssets(), supply) */\n    tag_195:\n        /* \"solmate/mixins/ERC4626.sol\":4643:4713  return supply == 0 ? shares : shares.mulDivDown(totalAssets(), supply) */\n      swap2\n      pop\n      pop\n        /* \"solmate/mixins/ERC4626.sol\":4463:4720  function convertToAssets(uint256 shares) public view virtual returns (uint256) {... */\n      swap2\n      swap1\n      pop\n      jump\t// out\n        /* \"solmate/tokens/ERC20.sol\":2461:2672  function approve(address spender, uint256 amount) public virtual returns (bool) {... */\n    tag_59:\n        /* \"solmate/tokens/ERC20.sol\":2535:2539  bool */\n      0x00\n        /* \"solmate/tokens/ERC20.sol\":2584:2590  amount */\n      dup2\n        /* \"solmate/tokens/ERC20.sol\":2551:2560  allowance */\n      0x04\n        /* \"solmate/tokens/ERC20.sol\":2551:2572  allowance[msg.sender] */\n      0x00\n        /* \"solmate/tokens/ERC20.sol\":2561:2571  msg.sender */\n      caller\n        /* \"solmate/tokens/ERC20.sol\":2551:2572  allowance[msg.sender] */\n      0xffffffffffffffffffffffffffffffffffffffff\n      and\n      0xffffffffffffffffffffffffffffffffffffffff\n      and\n      dup2\n      mstore\n      0x20\n      add\n      swap1\n      dup2\n      mstore\n      0x20\n      add\n      0x00\n      keccak256\n        /* \"solmate/tokens/ERC20.sol\":2551:2581  allowance[msg.sender][spender] */\n      0x00\n        /* \"solmate/tokens/ERC20.sol\":2573:2580  spender */\n      dup6\n        /* \"solmate/tokens/ERC20.sol\":2551:2581  allowance[msg.sender][spender] */\n      0xffffffffffffffffffffffffffffffffffffffff\n      and\n      0xffffffffffffffffffffffffffffffffffffffff\n      and\n      dup2\n      mstore\n      0x20\n      add\n      swap1\n      dup2\n      mstore\n      0x20\n      add\n      0x00\n      keccak256\n        /* \"solmate/tokens/ERC20.sol\":2551:2590  allowance[msg.sender][spender] = amount */\n      dup2\n      swap1\n      sstore\n      pop\n        /* \"solmate/tokens/ERC20.sol\":2627:2634  spender */\n      dup3\n        /* \"solmate/tokens/ERC20.sol\":2606:2643  Approval(msg.sender, spender, amount) */\n      0xffffffffffffffffffffffffffffffffffffffff\n      and\n        /* \"solmate/tokens/ERC20.sol\":2615:2625  msg.sender */\n      caller\n        /* \"solmate/tokens/ERC20.sol\":2606:2643  Approval(msg.sender, spender, amount) */\n      0xffffffffffffffffffffffffffffffffffffffff\n      and\n      0x8c5be1e5ebec7d5bd14f71427d1e84f3dd0314c0f7b2291e5b200ac8c7c3b925\n        /* \"solmate/tokens/ERC20.sol\":2636:2642  amount */\n      dup5\n        /* \"solmate/tokens/ERC20.sol\":2606:2643  Approval(msg.sender, spender, amount) */\n      mload(0x40)\n      tag_197\n      swap2\n      swap1\n      tag_46\n      jump\t// in\n    tag_197:\n      mload(0x40)\n      dup1\n      swap2\n      sub\n      swap1\n      log3\n        /* \"solmate/tokens/ERC20.sol\":2661:2665  true */\n      0x01\n        /* \"solmate/tokens/ERC20.sol\":2654:2665  return true */\n      swap1\n      pop\n        /* \"solmate/tokens/ERC20.sol\":2461:2672  function approve(address spender, uint256 amount) public virtual returns (bool) {... */\n      swap3\n      swap2\n      pop\n      pop\n      jump\t// out\n        /* \"solmate/mixins/ERC4626.sol\":5114:5369  function previewWithdraw(uint256 assets) public view virtual returns (uint256) {... */\n    tag_64:\n        /* \"solmate/mixins/ERC4626.sol\":5184:5191  uint256 */\n      0x00\n        /* \"solmate/mixins/ERC4626.sol\":5203:5217  uint256 supply */\n      dup1\n        /* \"solmate/mixins/ERC4626.sol\":5220:5231  totalSupply */\n      sload(0x02)\n        /* \"solmate/mixins/ERC4626.sol\":5203:5231  uint256 supply = totalSupply */\n      swap1\n      pop\n        /* \"solmate/mixins/ERC4626.sol\":5311:5312  0 */\n      0x00\n        /* \"solmate/mixins/ERC4626.sol\":5301:5307  supply */\n      dup2\n        /* \"solmate/mixins/ERC4626.sol\":5301:5312  supply == 0 */\n      eq\n        /* \"solmate/mixins/ERC4626.sol\":5301:5362  supply == 0 ? assets : assets.mulDivUp(supply, totalAssets()) */\n      tag_199\n      jumpi\n        /* \"solmate/mixins/ERC4626.sol\":5324:5362  assets.mulDivUp(supply, totalAssets()) */\n      tag_200\n        /* \"solmate/mixins/ERC4626.sol\":5340:5346  supply */\n      dup2\n        /* \"solmate/mixins/ERC4626.sol\":5348:5361  totalAssets() */\n      tag_201\n        /* \"solmate/mixins/ERC4626.sol\":5348:5359  totalAssets */\n      tag_44\n        /* \"solmate/mixins/ERC4626.sol\":5348:5361  totalAssets() */\n      jump\t// in\n    tag_201:\n        /* \"solmate/mixins/ERC4626.sol\":5324:5330  assets */\n      dup6\n        /* \"solmate/mixins/ERC4626.sol\":5324:5339  assets.mulDivUp */\n      tag_202\n      swap1\n        /* \"solmate/mixins/ERC4626.sol\":5324:5362  assets.mulDivUp(supply, totalAssets()) */\n      swap3\n      swap2\n      swap1\n      0xffffffff\n      and\n      jump\t// in\n    tag_200:\n        /* \"solmate/mixins/ERC4626.sol\":5301:5362  supply == 0 ? assets : assets.mulDivUp(supply, totalAssets()) */\n      jump(tag_203)\n    tag_199:\n        /* \"solmate/mixins/ERC4626.sol\":5315:5321  assets */\n      dup3\n        /* \"solmate/mixins/ERC4626.sol\":5301:5362  supply == 0 ? assets : assets.mulDivUp(supply, totalAssets()) */\n    tag_203:\n        /* \"solmate/mixins/ERC4626.sol\":5294:5362  return supply == 0 ? assets : assets.mulDivUp(supply, totalAssets()) */\n      swap2\n      pop\n      pop\n        /* \"solmate/mixins/ERC4626.sol\":5114:5369  function previewWithdraw(uint256 assets) public view virtual returns (uint256) {... */\n      swap2\n      swap1\n      pop\n      jump\t// out\n        /* \"aave-v2/AaveV2ERC4626.sol\":2019:2059  address public immutable rewardRecipient */\n    tag_67:\n      immutable(\"0xcc1431a2586c1e11fb75c87e5ee58e4204126a9fdde07075c91770f50276cbb0\")\n      dup2\n      jump\t// out\n        /* \"solmate/tokens/ERC20.sol\":1304:1330  uint256 public totalSupply */\n    tag_71:\n      sload(0x02)\n      dup2\n      jump\t// out\n        /* \"solmate/tokens/ERC20.sol\":3057:3649  function transferFrom(... */\n    tag_76:\n        /* \"solmate/tokens/ERC20.sol\":3175:3179  bool */\n      0x00\n        /* \"solmate/tokens/ERC20.sol\":3191:3206  uint256 allowed */\n      dup1\n        /* \"solmate/tokens/ERC20.sol\":3209:3218  allowance */\n      0x04\n        /* \"solmate/tokens/ERC20.sol\":3209:3224  allowance[from] */\n      0x00\n        /* \"solmate/tokens/ERC20.sol\":3219:3223  from */\n      dup7\n        /* \"solmate/tokens/ERC20.sol\":3209:3224  allowance[from] */\n      0xffffffffffffffffffffffffffffffffffffffff\n      and\n      0xffffffffffffffffffffffffffffffffffffffff\n      and\n      dup2\n      mstore\n      0x20\n      add\n      swap1\n      dup2\n      mstore\n      0x20\n      add\n      0x00\n      keccak256\n        /* \"solmate/tokens/ERC20.sol\":3209:3236  allowance[from][msg.sender] */\n      0x00\n        /* \"solmate/tokens/ERC20.sol\":3225:3235  msg.sender */\n      caller\n        /* \"solmate/tokens/ERC20.sol\":3209:3236  allowance[from][msg.sender] */\n      0xffffffffffffffffffffffffffffffffffffffff\n      and\n      0xffffffffffffffffffffffffffffffffffffffff\n      and\n      dup2\n      mstore\n      0x20\n      add\n      swap1\n      dup2\n      mstore\n      0x20\n      add\n      0x00\n      keccak256\n      sload\n        /* \"solmate/tokens/ERC20.sol\":3191:3236  uint256 allowed = allowance[from][msg.sender] */\n      swap1\n      pop\n        /* \"solmate/tokens/ERC20.sol\":3298:3315  type(uint256).max */\n      0xffffffffffffffffffffffffffffffffffffffffffffffffffffffffffffffff\n        /* \"solmate/tokens/ERC20.sol\":3287:3294  allowed */\n      dup2\n        /* \"solmate/tokens/ERC20.sol\":3287:3315  allowed != type(uint256).max */\n      eq\n        /* \"solmate/tokens/ERC20.sol\":3283:3363  if (allowed != type(uint256).max) allowance[from][msg.sender] = allowed - amount */\n      tag_205\n      jumpi\n        /* \"solmate/tokens/ERC20.sol\":3357:3363  amount */\n      dup3\n        /* \"solmate/tokens/ERC20.sol\":3347:3354  allowed */\n      dup2\n        /* \"solmate/tokens/ERC20.sol\":3347:3363  allowed - amount */\n      tag_206\n      swap2\n      swap1\n      tag_207\n      jump\t// in\n    tag_206:\n        /* \"solmate/tokens/ERC20.sol\":3317:3326  allowance */\n      0x04\n        /* \"solmate/tokens/ERC20.sol\":3317:3332  allowance[from] */\n      0x00\n        /* \"solmate/tokens/ERC20.sol\":3327:3331  from */\n      dup8\n        /* \"solmate/tokens/ERC20.sol\":3317:3332  allowance[from] */\n      0xffffffffffffffffffffffffffffffffffffffff\n      and\n      0xffffffffffffffffffffffffffffffffffffffff\n      and\n      dup2\n      mstore\n      0x20\n      add\n      swap1\n      dup2\n      mstore\n      0x20\n      add\n      0x00\n      keccak256\n        /* \"solmate/tokens/ERC20.sol\":3317:3344  allowance[from][msg.sender] */\n      0x00\n        /* \"solmate/tokens/ERC20.sol\":3333:3343  msg.sender */\n      caller\n        /* \"solmate/tokens/ERC20.sol\":3317:3344  allowance[from][msg.sender] */\n      0xffffffffffffffffffffffffffffffffffffffff\n      and\n      0xffffffffffffffffffffffffffffffffffffffff\n      and\n      dup2\n      mstore\n      0x20\n      add\n      swap1\n      dup2\n      mstore\n      0x20\n      add\n      0x00\n      keccak256\n        /* \"solmate/tokens/ERC20.sol\":3317:3363  allowance[from][msg.sender] = allowed - amount */\n      dup2\n      swap1\n      sstore\n      pop\n        /* \"solmate/tokens/ERC20.sol\":3283:3363  if (allowed != type(uint256).max) allowance[from][msg.sender] = allowed - amount */\n    tag_205:\n        /* \"solmate/tokens/ERC20.sol\":3393:3399  amount */\n      dup3\n        /* \"solmate/tokens/ERC20.sol\":3374:3383  balanceOf */\n      0x03\n        /* \"solmate/tokens/ERC20.sol\":3374:3389  balanceOf[from] */\n      0x00\n        /* \"solmate/tokens/ERC20.sol\":3384:3388  from */\n      dup8\n        /* \"solmate/tokens/ERC20.sol\":3374:3389  balanceOf[from] */\n      0xffffffffffffffffffffffffffffffffffffffff\n      and\n      0xffffffffffffffffffffffffffffffffffffffff\n      and\n      dup2\n      mstore\n      0x20\n      add\n      swap1\n      dup2\n      mstore\n      0x20\n      add\n      0x00\n      keccak256\n      0x00\n        /* \"solmate/tokens/ERC20.sol\":3374:3399  balanceOf[from] -= amount */\n      dup3\n      dup3\n      sload\n      tag_208\n      swap2\n      swap1\n      tag_207\n      jump\t// in\n    tag_208:\n      swap3\n      pop\n      pop\n      dup2\n      swap1\n      sstore\n      pop\n        /* \"solmate/tokens/ERC20.sol\":3562:3568  amount */\n      dup3\n        /* \"solmate/tokens/ERC20.sol\":3545:3554  balanceOf */\n      0x03\n        /* \"solmate/tokens/ERC20.sol\":3545:3558  balanceOf[to] */\n      0x00\n        /* \"solmate/tokens/ERC20.sol\":3555:3557  to */\n      dup7\n        /* \"solmate/tokens/ERC20.sol\":3545:3558  balanceOf[to] */\n      0xffffffffffffffffffffffffffffffffffffffff\n      and\n      0xffffffffffffffffffffffffffffffffffffffff\n      and\n      dup2\n      mstore\n      0x20\n      add\n      swap1\n      dup2\n      mstore\n      0x20\n      add\n      0x00\n      keccak256\n      0x00\n        /* \"solmate/tokens/ERC20.sol\":3545:3568  balanceOf[to] += amount */\n      dup3\n      dup3\n      sload\n      add\n      swap3\n      pop\n      pop\n      dup2\n      swap1\n      sstore\n      pop\n        /* \"solmate/tokens/ERC20.sol\":3609:3611  to */\n      dup4\n        /* \"solmate/tokens/ERC20.sol\":3594:3620  Transfer(from, to, amount) */\n      0xffffffffffffffffffffffffffffffffffffffff\n      and\n        /* \"solmate/tokens/ERC20.sol\":3603:3607  from */\n      dup6\n        /* \"solmate/tokens/ERC20.sol\":3594:3620  Transfer(from, to, amount) */\n      0xffffffffffffffffffffffffffffffffffffffff\n      and\n      0xddf252ad1be2c89b69c2b068fc378daa952ba7f163c4a11628f55a4df523b3ef\n        /* \"solmate/tokens/ERC20.sol\":3613:3619  amount */\n      dup6\n        /* \"solmate/tokens/ERC20.sol\":3594:3620  Transfer(from, to, amount) */\n      mload(0x40)\n      tag_209\n      swap2\n      swap1\n      tag_46\n      jump\t// in\n    tag_209:\n      mload(0x40)\n      dup1\n      swap2\n      sub\n      swap1\n      log3\n        /* \"solmate/tokens/ERC20.sol\":3638:3642  true */\n      0x01\n        /* \"solmate/tokens/ERC20.sol\":3631:3642  return true */\n      swap2\n      pop\n      pop\n        /* \"solmate/tokens/ERC20.sol\":3057:3649  function transferFrom(... */\n      swap4\n      swap3\n      pop\n      pop\n      pop\n      jump\t// out\n        /* \"solmate/tokens/ERC20.sol\":1083:1114  uint8 public immutable decimals */\n    tag_79:\n      immutable(\"0x2e415caec8d91e458e1b9987576611b087b1a3cc6a704a90bb9e06da9759f8e6\")\n      dup2\n      jump\t// out\n        /* \"solmate/tokens/ERC20.sol\":5327:5504  function DOMAIN_SEPARATOR() public view virtual returns (bytes32) {... */\n    tag_83:\n        /* \"solmate/tokens/ERC20.sol\":5384:5391  bytes32 */\n      0x00\n        /* \"solmate/tokens/ERC20.sol\":5427:5443  INITIAL_CHAIN_ID */\n      immutable(\"0x2fef5eb89edefb062d64ab45ae24f9fe5902e0db73f11ccb8552ae89ca2d4734\")\n        /* \"solmate/tokens/ERC20.sol\":5410:5423  block.chainid */\n      chainid\n        /* \"solmate/tokens/ERC20.sol\":5410:5443  block.chainid == INITIAL_CHAIN_ID */\n      eq\n        /* \"solmate/tokens/ERC20.sol\":5410:5497  block.chainid == INITIAL_CHAIN_ID ? INITIAL_DOMAIN_SEPARATOR : computeDomainSeparator() */\n      tag_211\n      jumpi\n        /* \"solmate/tokens/ERC20.sol\":5473:5497  computeDomainSeparator() */\n      tag_212\n        /* \"solmate/tokens/ERC20.sol\":5473:5495  computeDomainSeparator */\n      tag_213\n        /* \"solmate/tokens/ERC20.sol\":5473:5497  computeDomainSeparator() */\n      jump\t// in\n    tag_212:\n        /* \"solmate/tokens/ERC20.sol\":5410:5497  block.chainid == INITIAL_CHAIN_ID ? INITIAL_DOMAIN_SEPARATOR : computeDomainSeparator() */\n      jump(tag_214)\n    tag_211:\n        /* \"solmate/tokens/ERC20.sol\":5446:5470  INITIAL_DOMAIN_SEPARATOR */\n      immutable(\"0x3b5e79d464b62561753d4e193bbf44b670e74a211dfadb82af01f3cae1ba996a\")\n        /* \"solmate/tokens/ERC20.sol\":5410:5497  block.chainid == INITIAL_CHAIN_ID ? INITIAL_DOMAIN_SEPARATOR : computeDomainSeparator() */\n    tag_214:\n        /* \"solmate/tokens/ERC20.sol\":5403:5497  return block.chainid == INITIAL_CHAIN_ID ? INITIAL_DOMAIN_SEPARATOR : computeDomainSeparator() */\n      swap1\n      pop\n        /* \"solmate/tokens/ERC20.sol\":5327:5504  function DOMAIN_SEPARATOR() public view virtual returns (bytes32) {... */\n      swap1\n      jump\t// out\n        /* \"aave-v2/AaveV2ERC4626.sol\":3010:3268  function claimRewards() external {... */\n    tag_87:\n        /* \"aave-v2/AaveV2ERC4626.sol\":3053:3076  address[] memory assets */\n      0x00\n        /* \"aave-v2/AaveV2ERC4626.sol\":3093:3094  1 */\n      0x01\n        /* \"aave-v2/AaveV2ERC4626.sol\":3079:3095  new address[](1) */\n      0xffffffffffffffff\n      dup2\n      gt\n      iszero\n      tag_216\n      jumpi\n      tag_217\n      tag_218\n      jump\t// in\n    tag_217:\n    tag_216:\n      mload(0x40)\n      swap1\n      dup1\n      dup3\n      mstore\n      dup1\n      0x20\n      mul\n      0x20\n      add\n      dup3\n      add\n      0x40\n      mstore\n      dup1\n      iszero\n      tag_219\n      jumpi\n      dup2\n      0x20\n      add\n      0x20\n      dup3\n      mul\n      dup1\n      calldatasize\n      dup4\n      calldatacopy\n      dup1\n      dup3\n      add\n      swap2\n      pop\n      pop\n      swap1\n      pop\n    tag_219:\n      pop\n        /* \"aave-v2/AaveV2ERC4626.sol\":3053:3095  address[] memory assets = new address[](1) */\n      swap1\n      pop\n        /* \"aave-v2/AaveV2ERC4626.sol\":3125:3131  aToken */\n      immutable(\"0xd67d834462ca31eaef1f30157e31659f60355143b7441e6fc7d9eae1fa79f3f8\")\n        /* \"aave-v2/AaveV2ERC4626.sol\":3105:3111  assets */\n      dup2\n        /* \"aave-v2/AaveV2ERC4626.sol\":3112:3113  0 */\n      0x00\n        /* \"aave-v2/AaveV2ERC4626.sol\":3105:3114  assets[0] */\n      dup2\n      mload\n      dup2\n      lt\n      tag_220\n      jumpi\n      tag_221\n      tag_222\n      jump\t// in\n    tag_221:\n    tag_220:\n      0x20\n      mul\n      0x20\n      add\n      add\n        /* \"aave-v2/AaveV2ERC4626.sol\":3105:3132  assets[0] = address(aToken) */\n      swap1\n      0xffffffffffffffffffffffffffffffffffffffff\n      and\n      swap1\n      dup2\n      0xffffffffffffffffffffffffffffffffffffffff\n      and\n      dup2\n      mstore\n      pop\n      pop\n        /* \"aave-v2/AaveV2ERC4626.sol\":3142:3156  uint256 amount */\n      0x00\n        /* \"aave-v2/AaveV2ERC4626.sol\":3159:3169  aaveMining */\n      immutable(\"0xccb1f717aa77602faf03a594761a36956b1c4cf44c6b336d1db57da799b331b8\")\n        /* \"aave-v2/AaveV2ERC4626.sol\":3159:3182  aaveMining.claimRewards */\n      0xffffffffffffffffffffffffffffffffffffffff\n      and\n      0x3111e7b3\n        /* \"aave-v2/AaveV2ERC4626.sol\":3183:3189  assets */\n      dup4\n        /* \"aave-v2/AaveV2ERC4626.sol\":3191:3208  type(uint256).max */\n      0xffffffffffffffffffffffffffffffffffffffffffffffffffffffffffffffff\n        /* \"aave-v2/AaveV2ERC4626.sol\":3210:3225  rewardRecipient */\n      immutable(\"0xcc1431a2586c1e11fb75c87e5ee58e4204126a9fdde07075c91770f50276cbb0\")\n        /* \"aave-v2/AaveV2ERC4626.sol\":3159:3226  aaveMining.claimRewards(assets, type(uint256).max, rewardRecipient) */\n      mload(0x40)\n      dup5\n      0xffffffff\n      and\n      0xe0\n      shl\n      dup2\n      mstore\n      0x04\n      add\n      tag_223\n      swap4\n      swap3\n      swap2\n      swap1\n      tag_224\n      jump\t// in\n    tag_223:\n      0x20\n      mload(0x40)\n      dup1\n      dup4\n      sub\n      dup2\n      0x00\n      dup8\n      gas\n      call\n      iszero\n      dup1\n      iszero\n      tag_226\n      jumpi\n      returndatasize\n      0x00\n      dup1\n      returndatacopy\n      revert(0x00, returndatasize)\n    tag_226:\n      pop\n      pop\n      pop\n      pop\n      mload(0x40)\n      returndatasize\n      not(0x1f)\n      0x1f\n      dup3\n      add\n      and\n      dup3\n      add\n      dup1\n      0x40\n      mstore\n      pop\n      dup2\n      add\n      swap1\n      tag_227\n      swap2\n      swap1\n      tag_183\n      jump\t// in\n    tag_227:\n        /* \"aave-v2/AaveV2ERC4626.sol\":3142:3226  uint256 amount = aaveMining.claimRewards(assets, type(uint256).max, rewardRecipient) */\n      swap1\n      pop\n        /* \"aave-v2/AaveV2ERC4626.sol\":3241:3261  ClaimRewards(amount) */\n      0xbacfa9662d479c707dae707c358323f0c7711ef382007957dc9935e629da36b2\n        /* \"aave-v2/AaveV2ERC4626.sol\":3254:3260  amount */\n      dup2\n        /* \"aave-v2/AaveV2ERC4626.sol\":3241:3261  ClaimRewards(amount) */\n      mload(0x40)\n      tag_228\n      swap2\n      swap1\n      tag_46\n      jump\t// in\n    tag_228:\n      mload(0x40)\n      dup1\n      swap2\n      sub\n      swap1\n      log1\n        /* \"aave-v2/AaveV2ERC4626.sol\":3043:3268  {... */\n      pop\n      pop\n        /* \"aave-v2/AaveV2ERC4626.sol\":3010:3268  function claimRewards() external {... */\n      jump\t// out\n        /* \"solmate/mixins/ERC4626.sol\":1149:1177  ERC20 public immutable asset */\n    tag_89:\n      immutable(\"0x56727611acac576685e7cf941f4f1cbe100ee8111d8451aad4d429b252500f29\")\n      dup2\n      jump\t// out\n        /* \"aave-v2/AaveV2ERC4626.sol\":5784:6234  function maxDeposit(address) public view virtual override returns (uint256) {... */\n    tag_95:\n        /* \"aave-v2/AaveV2ERC4626.sol\":5851:5858  uint256 */\n      0x00\n        /* \"aave-v2/AaveV2ERC4626.sol\":5909:5920  lendingPool */\n      immutable(\"0x59c0d2b7af0a8e6d3d8e710a078764bd67b7223777026c424cdb4f599824bb79\")\n        /* \"aave-v2/AaveV2ERC4626.sol\":5909:5927  lendingPool.paused */\n      0xffffffffffffffffffffffffffffffffffffffff\n      and\n      0x5c975abb\n        /* \"aave-v2/AaveV2ERC4626.sol\":5909:5929  lendingPool.paused() */\n      mload(0x40)\n      dup2\n      0xffffffff\n      and\n      0xe0\n      shl\n      dup2\n      mstore\n      0x04\n      add\n      0x20\n      mload(0x40)\n      dup1\n      dup4\n      sub\n      dup2\n      dup7\n      gas\n      staticcall\n      iszero\n      dup1\n      iszero\n      tag_231\n      jumpi\n      returndatasize\n      0x00\n      dup1\n      returndatacopy\n      revert(0x00, returndatasize)\n    tag_231:\n      pop\n      pop\n      pop\n      pop\n      mload(0x40)\n      returndatasize\n      not(0x1f)\n      0x1f\n      dup3\n      add\n      and\n      dup3\n      add\n      dup1\n      0x40\n      mstore\n      pop\n      dup2\n      add\n      swap1\n      tag_232\n      swap2\n      swap1\n      tag_233\n      jump\t// in\n    tag_232:\n        /* \"aave-v2/AaveV2ERC4626.sol\":5905:5964  if (lendingPool.paused()) {... */\n      iszero\n      tag_234\n      jumpi\n        /* \"aave-v2/AaveV2ERC4626.sol\":5952:5953  0 */\n      0x00\n        /* \"aave-v2/AaveV2ERC4626.sol\":5945:5953  return 0 */\n      swap1\n      pop\n      jump(tag_229)\n        /* \"aave-v2/AaveV2ERC4626.sol\":5905:5964  if (lendingPool.paused()) {... */\n    tag_234:\n        /* \"aave-v2/AaveV2ERC4626.sol\":6010:6028  uint256 configData */\n      0x00\n        /* \"aave-v2/AaveV2ERC4626.sol\":6031:6042  lendingPool */\n      immutable(\"0x59c0d2b7af0a8e6d3d8e710a078764bd67b7223777026c424cdb4f599824bb79\")\n        /* \"aave-v2/AaveV2ERC4626.sol\":6031:6057  lendingPool.getReserveData */\n      0xffffffffffffffffffffffffffffffffffffffff\n      and\n      0x35ea6a75\n        /* \"aave-v2/AaveV2ERC4626.sol\":6066:6071  asset */\n      immutable(\"0x56727611acac576685e7cf941f4f1cbe100ee8111d8451aad4d429b252500f29\")\n        /* \"aave-v2/AaveV2ERC4626.sol\":6031:6073  lendingPool.getReserveData(address(asset)) */\n      mload(0x40)\n      dup3\n      0xffffffff\n      and\n      0xe0\n      shl\n      dup2\n      mstore\n      0x04\n      add\n      tag_235\n      swap2\n      swap1\n      tag_69\n      jump\t// in\n    tag_235:\n      0x0180\n      mload(0x40)\n      dup1\n      dup4\n      sub\n      dup2\n      dup7\n      gas\n      staticcall\n      iszero\n      dup1\n      iszero\n      tag_237\n      jumpi\n      returndatasize\n      0x00\n      dup1\n      returndatacopy\n      revert(0x00, returndatasize)\n    tag_237:\n      pop\n      pop\n      pop\n      pop\n      mload(0x40)\n      returndatasize\n      not(0x1f)\n      0x1f\n      dup3\n      add\n      and\n      dup3\n      add\n      dup1\n      0x40\n      mstore\n      pop\n      dup2\n      add\n      swap1\n      tag_238\n      swap2\n      swap1\n      tag_239\n      jump\t// in\n    tag_238:\n        /* \"aave-v2/AaveV2ERC4626.sol\":6031:6087  lendingPool.getReserveData(address(asset)).configuration */\n      0x00\n      add\n      mload\n        /* \"aave-v2/AaveV2ERC4626.sol\":6031:6092  lendingPool.getReserveData(address(asset)).configuration.data */\n      0x00\n      add\n      mload\n        /* \"aave-v2/AaveV2ERC4626.sol\":6010:6092  uint256 configData = lendingPool.getReserveData(address(asset)).configuration.data */\n      swap1\n      pop\n        /* \"aave-v2/AaveV2ERC4626.sol\":6108:6130  _getActive(configData) */\n      tag_240\n        /* \"aave-v2/AaveV2ERC4626.sol\":6119:6129  configData */\n      dup2\n        /* \"aave-v2/AaveV2ERC4626.sol\":6108:6118  _getActive */\n      tag_241\n        /* \"aave-v2/AaveV2ERC4626.sol\":6108:6130  _getActive(configData) */\n      jump\t// in\n    tag_240:\n        /* \"aave-v2/AaveV2ERC4626.sol\":6108:6157  _getActive(configData) && !_getFrozen(configData) */\n      dup1\n      iszero\n      tag_242\n      jumpi\n      pop\n        /* \"aave-v2/AaveV2ERC4626.sol\":6135:6157  _getFrozen(configData) */\n      tag_243\n        /* \"aave-v2/AaveV2ERC4626.sol\":6146:6156  configData */\n      dup2\n        /* \"aave-v2/AaveV2ERC4626.sol\":6135:6145  _getFrozen */\n      tag_244\n        /* \"aave-v2/AaveV2ERC4626.sol\":6135:6157  _getFrozen(configData) */\n      jump\t// in\n    tag_243:\n        /* \"aave-v2/AaveV2ERC4626.sol\":6134:6157  !_getFrozen(configData) */\n      iszero\n        /* \"aave-v2/AaveV2ERC4626.sol\":6108:6157  _getActive(configData) && !_getFrozen(configData) */\n    tag_242:\n        /* \"aave-v2/AaveV2ERC4626.sol\":6102:6193  if (!(_getActive(configData) && !_getFrozen(configData))) {... */\n      tag_245\n      jumpi\n        /* \"aave-v2/AaveV2ERC4626.sol\":6181:6182  0 */\n      0x00\n        /* \"aave-v2/AaveV2ERC4626.sol\":6174:6182  return 0 */\n      swap2\n      pop\n      pop\n      jump(tag_229)\n        /* \"aave-v2/AaveV2ERC4626.sol\":6102:6193  if (!(_getActive(configData) && !_getFrozen(configData))) {... */\n    tag_245:\n        /* \"aave-v2/AaveV2ERC4626.sol\":6210:6227  type(uint256).max */\n      0xffffffffffffffffffffffffffffffffffffffffffffffffffffffffffffffff\n        /* \"aave-v2/AaveV2ERC4626.sol\":6203:6227  return type(uint256).max */\n      swap2\n      pop\n      pop\n        /* \"aave-v2/AaveV2ERC4626.sol\":5784:6234  function maxDeposit(address) public view virtual override returns (uint256) {... */\n    tag_229:\n      swap2\n      swap1\n      pop\n      jump\t// out\n        /* \"solmate/mixins/ERC4626.sol\":5375:5499  function previewRedeem(uint256 shares) public view virtual returns (uint256) {... */\n    tag_99:\n        /* \"solmate/mixins/ERC4626.sol\":5443:5450  uint256 */\n      0x00\n        /* \"solmate/mixins/ERC4626.sol\":5469:5492  convertToAssets(shares) */\n      tag_247\n        /* \"solmate/mixins/ERC4626.sol\":5485:5491  shares */\n      dup3\n        /* \"solmate/mixins/ERC4626.sol\":5469:5484  convertToAssets */\n      tag_54\n        /* \"solmate/mixins/ERC4626.sol\":5469:5492  convertToAssets(shares) */\n      jump\t// in\n    tag_247:\n        /* \"solmate/mixins/ERC4626.sol\":5462:5492  return convertToAssets(shares) */\n      swap1\n      pop\n        /* \"solmate/mixins/ERC4626.sol\":5375:5499  function previewRedeem(uint256 shares) public view virtual returns (uint256) {... */\n      swap2\n      swap1\n      pop\n      jump\t// out\n        /* \"solmate/mixins/ERC4626.sol\":1550:2066  function deposit(uint256 assets, address receiver) public virtual returns (uint256 shares) {... */\n    tag_104:\n        /* \"solmate/mixins/ERC4626.sol\":1625:1639  uint256 shares */\n      0x00\n        /* \"solmate/mixins/ERC4626.sol\":1771:1772  0 */\n      dup1\n        /* \"solmate/mixins/ERC4626.sol\":1744:1766  previewDeposit(assets) */\n      tag_249\n        /* \"solmate/mixins/ERC4626.sol\":1759:1765  assets */\n      dup5\n        /* \"solmate/mixins/ERC4626.sol\":1744:1758  previewDeposit */\n      tag_172\n        /* \"solmate/mixins/ERC4626.sol\":1744:1766  previewDeposit(assets) */\n      jump\t// in\n    tag_249:\n        /* \"solmate/mixins/ERC4626.sol\":1735:1766  shares = previewDeposit(assets) */\n      swap2\n      pop\n      dup2\n        /* \"solmate/mixins/ERC4626.sol\":1734:1772  (shares = previewDeposit(assets)) != 0 */\n      sub\n        /* \"solmate/mixins/ERC4626.sol\":1726:1788  require((shares = previewDeposit(assets)) != 0, \"ZERO_SHARES\") */\n      tag_250\n      jumpi\n      mload(0x40)\n      0x08c379a000000000000000000000000000000000000000000000000000000000\n      dup2\n      mstore\n      0x04\n      add\n      tag_251\n      swap1\n      tag_252\n      jump\t// in\n    tag_251:\n      mload(0x40)\n      dup1\n      swap2\n      sub\n      swap1\n      revert\n    tag_250:\n        /* \"solmate/mixins/ERC4626.sol\":1868:1925  asset.safeTransferFrom(msg.sender, address(this), assets) */\n      tag_253\n        /* \"solmate/mixins/ERC4626.sol\":1891:1901  msg.sender */\n      caller\n        /* \"solmate/mixins/ERC4626.sol\":1911:1915  this */\n      address\n        /* \"solmate/mixins/ERC4626.sol\":1918:1924  assets */\n      dup6\n        /* \"solmate/mixins/ERC4626.sol\":1868:1873  asset */\n      immutable(\"0x56727611acac576685e7cf941f4f1cbe100ee8111d8451aad4d429b252500f29\")\n        /* \"solmate/mixins/ERC4626.sol\":1868:1890  asset.safeTransferFrom */\n      0xffffffffffffffffffffffffffffffffffffffff\n      and\n      tag_254\n      swap1\n        /* \"solmate/mixins/ERC4626.sol\":1868:1925  asset.safeTransferFrom(msg.sender, address(this), assets) */\n      swap4\n      swap3\n      swap2\n      swap1\n      0xffffffff\n      and\n      jump\t// in\n    tag_253:\n        /* \"solmate/mixins/ERC4626.sol\":1936:1959  _mint(receiver, shares) */\n      tag_255\n        /* \"solmate/mixins/ERC4626.sol\":1942:1950  receiver */\n      dup3\n        /* \"solmate/mixins/ERC4626.sol\":1952:1958  shares */\n      dup3\n        /* \"solmate/mixins/ERC4626.sol\":1936:1941  _mint */\n      tag_256\n        /* \"solmate/mixins/ERC4626.sol\":1936:1959  _mint(receiver, shares) */\n      jump\t// in\n    tag_255:\n        /* \"solmate/mixins/ERC4626.sol\":1995:2003  receiver */\n      dup2\n        /* \"solmate/mixins/ERC4626.sol\":1975:2020  Deposit(msg.sender, receiver, assets, shares) */\n      0xffffffffffffffffffffffffffffffffffffffff\n      and\n        /* \"solmate/mixins/ERC4626.sol\":1983:1993  msg.sender */\n      caller\n        /* \"solmate/mixins/ERC4626.sol\":1975:2020  Deposit(msg.sender, receiver, assets, shares) */\n      0xffffffffffffffffffffffffffffffffffffffff\n      and\n      0xdcbc1c05240f31ff3ad067ef1ee35ce4997762752e3a095284754544f4c709d7\n        /* \"solmate/mixins/ERC4626.sol\":2005:2011  assets */\n      dup6\n        /* \"solmate/mixins/ERC4626.sol\":2013:2019  shares */\n      dup5\n        /* \"solmate/mixins/ERC4626.sol\":1975:2020  Deposit(msg.sender, receiver, assets, shares) */\n      mload(0x40)\n      tag_257\n      swap3\n      swap2\n      swap1\n      tag_258\n      jump\t// in\n    tag_257:\n      mload(0x40)\n      dup1\n      swap2\n      sub\n      swap1\n      log3\n        /* \"solmate/mixins/ERC4626.sol\":2031:2059  afterDeposit(assets, shares) */\n      tag_259\n        /* \"solmate/mixins/ERC4626.sol\":2044:2050  assets */\n      dup4\n        /* \"solmate/mixins/ERC4626.sol\":2052:2058  shares */\n      dup3\n        /* \"solmate/mixins/ERC4626.sol\":2031:2043  afterDeposit */\n      tag_260\n        /* \"solmate/mixins/ERC4626.sol\":2031:2059  afterDeposit(assets, shares) */\n      jump\t// in\n    tag_259:\n        /* \"solmate/mixins/ERC4626.sol\":1550:2066  function deposit(uint256 assets, address receiver) public virtual returns (uint256 shares) {... */\n      swap3\n      swap2\n      pop\n      pop\n      jump\t// out\n        /* \"solmate/tokens/ERC20.sol\":1337:1381  mapping(address => uint256) public balanceOf */\n    tag_108:\n      mstore(0x20, 0x03)\n      dup1\n      0x00\n      mstore\n      keccak256(0x00, 0x40)\n      0x00\n      swap2\n      pop\n      swap1\n      pop\n      sload\n      dup2\n      jump\t// out\n        /* \"solmate/tokens/ERC20.sol\":1751:1792  mapping(address => uint256) public nonces */\n    tag_112:\n      mstore(0x20, 0x05)\n      dup1\n      0x00\n      mstore\n      keccak256(0x00, 0x40)\n      0x00\n      swap2\n      pop\n      swap1\n      pop\n      sload\n      dup2\n      jump\t// out\n        /* \"solmate/mixins/ERC4626.sol\":2072:2539  function mint(uint256 shares, address receiver) public virtual returns (uint256 assets) {... */\n    tag_116:\n        /* \"solmate/mixins/ERC4626.sol\":2144:2158  uint256 assets */\n      0x00\n        /* \"solmate/mixins/ERC4626.sol\":2179:2198  previewMint(shares) */\n      tag_262\n        /* \"solmate/mixins/ERC4626.sol\":2191:2197  shares */\n      dup4\n        /* \"solmate/mixins/ERC4626.sol\":2179:2190  previewMint */\n      tag_134\n        /* \"solmate/mixins/ERC4626.sol\":2179:2198  previewMint(shares) */\n      jump\t// in\n    tag_262:\n        /* \"solmate/mixins/ERC4626.sol\":2170:2198  assets = previewMint(shares) */\n      swap1\n      pop\n        /* \"solmate/mixins/ERC4626.sol\":2341:2398  asset.safeTransferFrom(msg.sender, address(this), assets) */\n      tag_263\n        /* \"solmate/mixins/ERC4626.sol\":2364:2374  msg.sender */\n      caller\n        /* \"solmate/mixins/ERC4626.sol\":2384:2388  this */\n      address\n        /* \"solmate/mixins/ERC4626.sol\":2391:2397  assets */\n      dup4\n        /* \"solmate/mixins/ERC4626.sol\":2341:2346  asset */\n      immutable(\"0x56727611acac576685e7cf941f4f1cbe100ee8111d8451aad4d429b252500f29\")\n        /* \"solmate/mixins/ERC4626.sol\":2341:2363  asset.safeTransferFrom */\n      0xffffffffffffffffffffffffffffffffffffffff\n      and\n      tag_254\n      swap1\n        /* \"solmate/mixins/ERC4626.sol\":2341:2398  asset.safeTransferFrom(msg.sender, address(this), assets) */\n      swap4\n      swap3\n      swap2\n      swap1\n      0xffffffff\n      and\n      jump\t// in\n    tag_263:\n        /* \"solmate/mixins/ERC4626.sol\":2409:2432  _mint(receiver, shares) */\n      tag_264\n        /* \"solmate/mixins/ERC4626.sol\":2415:2423  receiver */\n      dup3\n        /* \"solmate/mixins/ERC4626.sol\":2425:2431  shares */\n      dup5\n        /* \"solmate/mixins/ERC4626.sol\":2409:2414  _mint */\n      tag_256\n        /* \"solmate/mixins/ERC4626.sol\":2409:2432  _mint(receiver, shares) */\n      jump\t// in\n    tag_264:\n        /* \"solmate/mixins/ERC4626.sol\":2468:2476  receiver */\n      dup2\n        /* \"solmate/mixins/ERC4626.sol\":2448:2493  Deposit(msg.sender, receiver, assets, shares) */\n      0xffffffffffffffffffffffffffffffffffffffff\n      and\n        /* \"solmate/mixins/ERC4626.sol\":2456:2466  msg.sender */\n      caller\n        /* \"solmate/mixins/ERC4626.sol\":2448:2493  Deposit(msg.sender, receiver, assets, shares) */\n      0xffffffffffffffffffffffffffffffffffffffff\n      and\n      0xdcbc1c05240f31ff3ad067ef1ee35ce4997762752e3a095284754544f4c709d7\n        /* \"solmate/mixins/ERC4626.sol\":2478:2484  assets */\n      dup4\n        /* \"solmate/mixins/ERC4626.sol\":2486:2492  shares */\n      dup7\n        /* \"solmate/mixins/ERC4626.sol\":2448:2493  Deposit(msg.sender, receiver, assets, shares) */\n      mload(0x40)\n      tag_265\n      swap3\n      swap2\n      swap1\n      tag_258\n      jump\t// in\n    tag_265:\n      mload(0x40)\n      dup1\n      swap2\n      sub\n      swap1\n      log3\n        /* \"solmate/mixins/ERC4626.sol\":2504:2532  afterDeposit(assets, shares) */\n      tag_266\n        /* \"solmate/mixins/ERC4626.sol\":2517:2523  assets */\n      dup2\n        /* \"solmate/mixins/ERC4626.sol\":2525:2531  shares */\n      dup5\n        /* \"solmate/mixins/ERC4626.sol\":2504:2516  afterDeposit */\n      tag_260\n        /* \"solmate/mixins/ERC4626.sol\":2504:2532  afterDeposit(assets, shares) */\n      jump\t// in\n    tag_266:\n        /* \"solmate/mixins/ERC4626.sol\":2072:2539  function mint(uint256 shares, address receiver) public virtual returns (uint256 assets) {... */\n      swap3\n      swap2\n      pop\n      pop\n      jump\t// out\n        /* \"solmate/tokens/ERC20.sol\":1056:1076  string public symbol */\n    tag_119:\n      0x01\n      dup1\n      sload\n      tag_267\n      swap1\n      tag_185\n      jump\t// in\n    tag_267:\n      dup1\n      0x1f\n      add\n      0x20\n      dup1\n      swap2\n      div\n      mul\n      0x20\n      add\n      mload(0x40)\n      swap1\n      dup2\n      add\n      0x40\n      mstore\n      dup1\n      swap3\n      swap2\n      swap1\n      dup2\n      dup2\n      mstore\n      0x20\n      add\n      dup3\n      dup1\n      sload\n      tag_268\n      swap1\n      tag_185\n      jump\t// in\n    tag_268:\n      dup1\n      iszero\n      tag_269\n      jumpi\n      dup1\n      0x1f\n      lt\n      tag_270\n      jumpi\n      0x0100\n      dup1\n      dup4\n      sload\n      div\n      mul\n      dup4\n      mstore\n      swap2\n      0x20\n      add\n      swap2\n      jump(tag_269)\n    tag_270:\n      dup3\n      add\n      swap2\n      swap1\n      0x00\n      mstore\n      keccak256(0x00, 0x20)\n      swap1\n    tag_271:\n      dup2\n      sload\n      dup2\n      mstore\n      swap1\n      0x01\n      add\n      swap1\n      0x20\n      add\n      dup1\n      dup4\n      gt\n      tag_271\n      jumpi\n      dup3\n      swap1\n      sub\n      0x1f\n      and\n      dup3\n      add\n      swap2\n    tag_269:\n      pop\n      pop\n      pop\n      pop\n      pop\n      dup2\n      jump\t// out\n        /* \"aave-v2/AaveV2ERC4626.sol\":1802:1831  ERC20 public immutable aToken */\n    tag_122:\n      immutable(\"0xd67d834462ca31eaef1f30157e31659f60355143b7441e6fc7d9eae1fa79f3f8\")\n      dup2\n      jump\t// out\n        /* \"aave-v2/AaveV2ERC4626.sol\":2112:2153  ILendingPool public immutable lendingPool */\n    tag_125:\n      immutable(\"0x59c0d2b7af0a8e6d3d8e710a078764bd67b7223777026c424cdb4f599824bb79\")\n      dup2\n      jump\t// out\n        /* \"solmate/tokens/ERC20.sol\":2678:3051  function transfer(address to, uint256 amount) public virtual returns (bool) {... */\n    tag_130:\n        /* \"solmate/tokens/ERC20.sol\":2748:2752  bool */\n      0x00\n        /* \"solmate/tokens/ERC20.sol\":2789:2795  amount */\n      dup2\n        /* \"solmate/tokens/ERC20.sol\":2764:2773  balanceOf */\n      0x03\n        /* \"solmate/tokens/ERC20.sol\":2764:2785  balanceOf[msg.sender] */\n      0x00\n        /* \"solmate/tokens/ERC20.sol\":2774:2784  msg.sender */\n      caller\n        /* \"solmate/tokens/ERC20.sol\":2764:2785  balanceOf[msg.sender] */\n      0xffffffffffffffffffffffffffffffffffffffff\n      and\n      0xffffffffffffffffffffffffffffffffffffffff\n      and\n      dup2\n      mstore\n      0x20\n      add\n      swap1\n      dup2\n      mstore\n      0x20\n      add\n      0x00\n      keccak256\n      0x00\n        /* \"solmate/tokens/ERC20.sol\":2764:2795  balanceOf[msg.sender] -= amount */\n      dup3\n      dup3\n      sload\n      tag_273\n      swap2\n      swap1\n      tag_207\n      jump\t// in\n    tag_273:\n      swap3\n      pop\n      pop\n      dup2\n      swap1\n      sstore\n      pop\n        /* \"solmate/tokens/ERC20.sol\":2958:2964  amount */\n      dup2\n        /* \"solmate/tokens/ERC20.sol\":2941:2950  balanceOf */\n      0x03\n        /* \"solmate/tokens/ERC20.sol\":2941:2954  balanceOf[to] */\n      0x00\n        /* \"solmate/tokens/ERC20.sol\":2951:2953  to */\n      dup6\n        /* \"solmate/tokens/ERC20.sol\":2941:2954  balanceOf[to] */\n      0xffffffffffffffffffffffffffffffffffffffff\n      and\n      0xffffffffffffffffffffffffffffffffffffffff\n      and\n      dup2\n      mstore\n      0x20\n      add\n      swap1\n      dup2\n      mstore\n      0x20\n      add\n      0x00\n      keccak256\n      0x00\n        /* \"solmate/tokens/ERC20.sol\":2941:2964  balanceOf[to] += amount */\n      dup3\n      dup3\n      sload\n      add\n      swap3\n      pop\n      pop\n      dup2\n      swap1\n      sstore\n      pop\n        /* \"solmate/tokens/ERC20.sol\":3011:3013  to */\n      dup3\n        /* \"solmate/tokens/ERC20.sol\":2990:3022  Transfer(msg.sender, to, amount) */\n      0xffffffffffffffffffffffffffffffffffffffff\n      and\n        /* \"solmate/tokens/ERC20.sol\":2999:3009  msg.sender */\n      caller\n        /* \"solmate/tokens/ERC20.sol\":2990:3022  Transfer(msg.sender, to, amount) */\n      0xffffffffffffffffffffffffffffffffffffffff\n      and\n      0xddf252ad1be2c89b69c2b068fc378daa952ba7f163c4a11628f55a4df523b3ef\n        /* \"solmate/tokens/ERC20.sol\":3015:3021  amount */\n      dup5\n        /* \"solmate/tokens/ERC20.sol\":2990:3022  Transfer(msg.sender, to, amount) */\n      mload(0x40)\n      tag_274\n      swap2\n      swap1\n      tag_46\n      jump\t// in\n    tag_274:\n      mload(0x40)\n      dup1\n      swap2\n      sub\n      swap1\n      log3\n        /* \"solmate/tokens/ERC20.sol\":3040:3044  true */\n      0x01\n        /* \"solmate/tokens/ERC20.sol\":3033:3044  return true */\n      swap1\n      pop\n        /* \"solmate/tokens/ERC20.sol\":2678:3051  function transfer(address to, uint256 amount) public virtual returns (bool) {... */\n      swap3\n      swap2\n      pop\n      pop\n      jump\t// out\n        /* \"solmate/mixins/ERC4626.sol\":4857:5108  function previewMint(uint256 shares) public view virtual returns (uint256) {... */\n    tag_134:\n        /* \"solmate/mixins/ERC4626.sol\":4923:4930  uint256 */\n      0x00\n        /* \"solmate/mixins/ERC4626.sol\":4942:4956  uint256 supply */\n      dup1\n        /* \"solmate/mixins/ERC4626.sol\":4959:4970  totalSupply */\n      sload(0x02)\n        /* \"solmate/mixins/ERC4626.sol\":4942:4970  uint256 supply = totalSupply */\n      swap1\n      pop\n        /* \"solmate/mixins/ERC4626.sol\":5050:5051  0 */\n      0x00\n        /* \"solmate/mixins/ERC4626.sol\":5040:5046  supply */\n      dup2\n        /* \"solmate/mixins/ERC4626.sol\":5040:5051  supply == 0 */\n      eq\n        /* \"solmate/mixins/ERC4626.sol\":5040:5101  supply == 0 ? shares : shares.mulDivUp(totalAssets(), supply) */\n      tag_276\n      jumpi\n        /* \"solmate/mixins/ERC4626.sol\":5063:5101  shares.mulDivUp(totalAssets(), supply) */\n      tag_277\n        /* \"solmate/mixins/ERC4626.sol\":5079:5092  totalAssets() */\n      tag_278\n        /* \"solmate/mixins/ERC4626.sol\":5079:5090  totalAssets */\n      tag_44\n        /* \"solmate/mixins/ERC4626.sol\":5079:5092  totalAssets() */\n      jump\t// in\n    tag_278:\n        /* \"solmate/mixins/ERC4626.sol\":5094:5100  supply */\n      dup3\n        /* \"solmate/mixins/ERC4626.sol\":5063:5069  shares */\n      dup6\n        /* \"solmate/mixins/ERC4626.sol\":5063:5078  shares.mulDivUp */\n      tag_202\n      swap1\n        /* \"solmate/mixins/ERC4626.sol\":5063:5101  shares.mulDivUp(totalAssets(), supply) */\n      swap3\n      swap2\n      swap1\n      0xffffffff\n      and\n      jump\t// in\n    tag_277:\n        /* \"solmate/mixins/ERC4626.sol\":5040:5101  supply == 0 ? shares : shares.mulDivUp(totalAssets(), supply) */\n      jump(tag_279)\n    tag_276:\n        /* \"solmate/mixins/ERC4626.sol\":5054:5060  shares */\n      dup3\n        /* \"solmate/mixins/ERC4626.sol\":5040:5101  supply == 0 ? shares : shares.mulDivUp(totalAssets(), supply) */\n    tag_279:\n        /* \"solmate/mixins/ERC4626.sol\":5033:5101  return supply == 0 ? shares : shares.mulDivUp(totalAssets(), supply) */\n      swap2\n      pop\n      pop\n        /* \"solmate/mixins/ERC4626.sol\":4857:5108  function previewMint(uint256 shares) public view virtual returns (uint256) {... */\n      swap2\n      swap1\n      pop\n      jump\t// out\n        /* \"aave-v2/AaveV2ERC4626.sol\":3461:4251  function withdraw(uint256 assets, address receiver, address owner)... */\n    tag_139:\n        /* \"aave-v2/AaveV2ERC4626.sol\":3593:3607  uint256 shares */\n      0x00\n        /* \"aave-v2/AaveV2ERC4626.sol\":3632:3655  previewWithdraw(assets) */\n      tag_281\n        /* \"aave-v2/AaveV2ERC4626.sol\":3648:3654  assets */\n      dup5\n        /* \"aave-v2/AaveV2ERC4626.sol\":3632:3647  previewWithdraw */\n      tag_64\n        /* \"aave-v2/AaveV2ERC4626.sol\":3632:3655  previewWithdraw(assets) */\n      jump\t// in\n    tag_281:\n        /* \"aave-v2/AaveV2ERC4626.sol\":3623:3655  shares = previewWithdraw(assets) */\n      swap1\n      pop\n        /* \"aave-v2/AaveV2ERC4626.sol\":3751:3756  owner */\n      dup2\n        /* \"aave-v2/AaveV2ERC4626.sol\":3737:3756  msg.sender != owner */\n      0xffffffffffffffffffffffffffffffffffffffff\n      and\n        /* \"aave-v2/AaveV2ERC4626.sol\":3737:3747  msg.sender */\n      caller\n        /* \"aave-v2/AaveV2ERC4626.sol\":3737:3756  msg.sender != owner */\n      0xffffffffffffffffffffffffffffffffffffffff\n      and\n      eq\n        /* \"aave-v2/AaveV2ERC4626.sol\":3733:3993  if (msg.sender != owner) {... */\n      tag_282\n      jumpi\n        /* \"aave-v2/AaveV2ERC4626.sol\":3772:3787  uint256 allowed */\n      0x00\n        /* \"aave-v2/AaveV2ERC4626.sol\":3790:3799  allowance */\n      0x04\n        /* \"aave-v2/AaveV2ERC4626.sol\":3790:3806  allowance[owner] */\n      0x00\n        /* \"aave-v2/AaveV2ERC4626.sol\":3800:3805  owner */\n      dup5\n        /* \"aave-v2/AaveV2ERC4626.sol\":3790:3806  allowance[owner] */\n      0xffffffffffffffffffffffffffffffffffffffff\n      and\n      0xffffffffffffffffffffffffffffffffffffffff\n      and\n      dup2\n      mstore\n      0x20\n      add\n      swap1\n      dup2\n      mstore\n      0x20\n      add\n      0x00\n      keccak256\n        /* \"aave-v2/AaveV2ERC4626.sol\":3790:3818  allowance[owner][msg.sender] */\n      0x00\n        /* \"aave-v2/AaveV2ERC4626.sol\":3807:3817  msg.sender */\n      caller\n        /* \"aave-v2/AaveV2ERC4626.sol\":3790:3818  allowance[owner][msg.sender] */\n      0xffffffffffffffffffffffffffffffffffffffff\n      and\n      0xffffffffffffffffffffffffffffffffffffffff\n      and\n      dup2\n      mstore\n      0x20\n      add\n      swap1\n      dup2\n      mstore\n      0x20\n      add\n      0x00\n      keccak256\n      sload\n        /* \"aave-v2/AaveV2ERC4626.sol\":3772:3818  uint256 allowed = allowance[owner][msg.sender] */\n      swap1\n      pop\n        /* \"aave-v2/AaveV2ERC4626.sol\":3884:3901  type(uint256).max */\n      0xffffffffffffffffffffffffffffffffffffffffffffffffffffffffffffffff\n        /* \"aave-v2/AaveV2ERC4626.sol\":3873:3880  allowed */\n      dup2\n        /* \"aave-v2/AaveV2ERC4626.sol\":3873:3901  allowed != type(uint256).max */\n      eq\n        /* \"aave-v2/AaveV2ERC4626.sol\":3869:3983  if (allowed != type(uint256).max) {... */\n      tag_283\n      jumpi\n        /* \"aave-v2/AaveV2ERC4626.sol\":3962:3968  shares */\n      dup2\n        /* \"aave-v2/AaveV2ERC4626.sol\":3952:3959  allowed */\n      dup2\n        /* \"aave-v2/AaveV2ERC4626.sol\":3952:3968  allowed - shares */\n      tag_284\n      swap2\n      swap1\n      tag_207\n      jump\t// in\n    tag_284:\n        /* \"aave-v2/AaveV2ERC4626.sol\":3921:3930  allowance */\n      0x04\n        /* \"aave-v2/AaveV2ERC4626.sol\":3921:3937  allowance[owner] */\n      0x00\n        /* \"aave-v2/AaveV2ERC4626.sol\":3931:3936  owner */\n      dup6\n        /* \"aave-v2/AaveV2ERC4626.sol\":3921:3937  allowance[owner] */\n      0xffffffffffffffffffffffffffffffffffffffff\n      and\n      0xffffffffffffffffffffffffffffffffffffffff\n      and\n      dup2\n      mstore\n      0x20\n      add\n      swap1\n      dup2\n      mstore\n      0x20\n      add\n      0x00\n      keccak256\n        /* \"aave-v2/AaveV2ERC4626.sol\":3921:3949  allowance[owner][msg.sender] */\n      0x00\n        /* \"aave-v2/AaveV2ERC4626.sol\":3938:3948  msg.sender */\n      caller\n        /* \"aave-v2/AaveV2ERC4626.sol\":3921:3949  allowance[owner][msg.sender] */\n      0xffffffffffffffffffffffffffffffffffffffff\n      and\n      0xffffffffffffffffffffffffffffffffffffffff\n      and\n      dup2\n      mstore\n      0x20\n      add\n      swap1\n      dup2\n      mstore\n      0x20\n      add\n      0x00\n      keccak256\n        /* \"aave-v2/AaveV2ERC4626.sol\":3921:3968  allowance[owner][msg.sender] = allowed - shares */\n      dup2\n      swap1\n      sstore\n      pop\n        /* \"aave-v2/AaveV2ERC4626.sol\":3869:3983  if (allowed != type(uint256).max) {... */\n    tag_283:\n        /* \"aave-v2/AaveV2ERC4626.sol\":3758:3993  {... */\n      pop\n        /* \"aave-v2/AaveV2ERC4626.sol\":3733:3993  if (msg.sender != owner) {... */\n    tag_282:\n        /* \"aave-v2/AaveV2ERC4626.sol\":4003:4033  beforeWithdraw(assets, shares) */\n      tag_285\n        /* \"aave-v2/AaveV2ERC4626.sol\":4018:4024  assets */\n      dup5\n        /* \"aave-v2/AaveV2ERC4626.sol\":4026:4032  shares */\n      dup3\n        /* \"aave-v2/AaveV2ERC4626.sol\":4003:4017  beforeWithdraw */\n      tag_286\n        /* \"aave-v2/AaveV2ERC4626.sol\":4003:4033  beforeWithdraw(assets, shares) */\n      jump\t// in\n    tag_285:\n        /* \"aave-v2/AaveV2ERC4626.sol\":4044:4064  _burn(owner, shares) */\n      tag_287\n        /* \"aave-v2/AaveV2ERC4626.sol\":4050:4055  owner */\n      dup3\n        /* \"aave-v2/AaveV2ERC4626.sol\":4057:4063  shares */\n      dup3\n        /* \"aave-v2/AaveV2ERC4626.sol\":4044:4049  _burn */\n      tag_288\n        /* \"aave-v2/AaveV2ERC4626.sol\":4044:4064  _burn(owner, shares) */\n      jump\t// in\n    tag_287:\n        /* \"aave-v2/AaveV2ERC4626.sol\":4111:4116  owner */\n      dup2\n        /* \"aave-v2/AaveV2ERC4626.sol\":4080:4133  Withdraw(msg.sender, receiver, owner, assets, shares) */\n      0xffffffffffffffffffffffffffffffffffffffff\n      and\n        /* \"aave-v2/AaveV2ERC4626.sol\":4101:4109  receiver */\n      dup4\n        /* \"aave-v2/AaveV2ERC4626.sol\":4080:4133  Withdraw(msg.sender, receiver, owner, assets, shares) */\n      0xffffffffffffffffffffffffffffffffffffffff\n      and\n        /* \"aave-v2/AaveV2ERC4626.sol\":4089:4099  msg.sender */\n      caller\n        /* \"aave-v2/AaveV2ERC4626.sol\":4080:4133  Withdraw(msg.sender, receiver, owner, assets, shares) */\n      0xffffffffffffffffffffffffffffffffffffffff\n      and\n      0xfbde797d201c681b91056529119e0b02407c7bb96a4a2c75c01fc9667232c8db\n        /* \"aave-v2/AaveV2ERC4626.sol\":4118:4124  assets */\n      dup8\n        /* \"aave-v2/AaveV2ERC4626.sol\":4126:4132  shares */\n      dup6\n        /* \"aave-v2/AaveV2ERC4626.sol\":4080:4133  Withdraw(msg.sender, receiver, owner, assets, shares) */\n      mload(0x40)\n      tag_289\n      swap3\n      swap2\n      swap1\n      tag_258\n      jump\t// in\n    tag_289:\n      mload(0x40)\n      dup1\n      swap2\n      sub\n      swap1\n      log4\n        /* \"aave-v2/AaveV2ERC4626.sol\":4190:4201  lendingPool */\n      immutable(\"0x59c0d2b7af0a8e6d3d8e710a078764bd67b7223777026c424cdb4f599824bb79\")\n        /* \"aave-v2/AaveV2ERC4626.sol\":4190:4210  lendingPool.withdraw */\n      0xffffffffffffffffffffffffffffffffffffffff\n      and\n      0x69328dec\n        /* \"aave-v2/AaveV2ERC4626.sol\":4219:4224  asset */\n      immutable(\"0x56727611acac576685e7cf941f4f1cbe100ee8111d8451aad4d429b252500f29\")\n        /* \"aave-v2/AaveV2ERC4626.sol\":4227:4233  assets */\n      dup7\n        /* \"aave-v2/AaveV2ERC4626.sol\":4235:4243  receiver */\n      dup7\n        /* \"aave-v2/AaveV2ERC4626.sol\":4190:4244  lendingPool.withdraw(address(asset), assets, receiver) */\n      mload(0x40)\n      dup5\n      0xffffffff\n      and\n      0xe0\n      shl\n      dup2\n      mstore\n      0x04\n      add\n      tag_290\n      swap4\n      swap3\n      swap2\n      swap1\n      tag_291\n      jump\t// in\n    tag_290:\n      0x20\n      mload(0x40)\n      dup1\n      dup4\n      sub\n      dup2\n      0x00\n      dup8\n      gas\n      call\n      iszero\n      dup1\n      iszero\n      tag_293\n      jumpi\n      returndatasize\n      0x00\n      dup1\n      returndatacopy\n      revert(0x00, returndatasize)\n    tag_293:\n      pop\n      pop\n      pop\n      pop\n      mload(0x40)\n      returndatasize\n      not(0x1f)\n      0x1f\n      dup3\n      add\n      and\n      dup3\n      add\n      dup1\n      0x40\n      mstore\n      pop\n      dup2\n      add\n      swap1\n      tag_294\n      swap2\n      swap1\n      tag_183\n      jump\t// in\n    tag_294:\n      pop\n        /* \"aave-v2/AaveV2ERC4626.sol\":3461:4251  function withdraw(uint256 assets, address receiver, address owner)... */\n      swap4\n      swap3\n      pop\n      pop\n      pop\n      jump\t// out\n        /* \"aave-v2/AaveV2ERC4626.sol\":4257:5045  function redeem(uint256 shares, address receiver, address owner) public virtual override returns (uint256 assets) {... */\n    tag_143:\n        /* \"aave-v2/AaveV2ERC4626.sol\":4355:4369  uint256 assets */\n      0x00\n        /* \"aave-v2/AaveV2ERC4626.sol\":4399:4404  owner */\n      dup2\n        /* \"aave-v2/AaveV2ERC4626.sol\":4385:4404  msg.sender != owner */\n      0xffffffffffffffffffffffffffffffffffffffff\n      and\n        /* \"aave-v2/AaveV2ERC4626.sol\":4385:4395  msg.sender */\n      caller\n        /* \"aave-v2/AaveV2ERC4626.sol\":4385:4404  msg.sender != owner */\n      0xffffffffffffffffffffffffffffffffffffffff\n      and\n      eq\n        /* \"aave-v2/AaveV2ERC4626.sol\":4381:4641  if (msg.sender != owner) {... */\n      tag_296\n      jumpi\n        /* \"aave-v2/AaveV2ERC4626.sol\":4420:4435  uint256 allowed */\n      0x00\n        /* \"aave-v2/AaveV2ERC4626.sol\":4438:4447  allowance */\n      0x04\n        /* \"aave-v2/AaveV2ERC4626.sol\":4438:4454  allowance[owner] */\n      0x00\n        /* \"aave-v2/AaveV2ERC4626.sol\":4448:4453  owner */\n      dup5\n        /* \"aave-v2/AaveV2ERC4626.sol\":4438:4454  allowance[owner] */\n      0xffffffffffffffffffffffffffffffffffffffff\n      and\n      0xffffffffffffffffffffffffffffffffffffffff\n      and\n      dup2\n      mstore\n      0x20\n      add\n      swap1\n      dup2\n      mstore\n      0x20\n      add\n      0x00\n      keccak256\n        /* \"aave-v2/AaveV2ERC4626.sol\":4438:4466  allowance[owner][msg.sender] */\n      0x00\n        /* \"aave-v2/AaveV2ERC4626.sol\":4455:4465  msg.sender */\n      caller\n        /* \"aave-v2/AaveV2ERC4626.sol\":4438:4466  allowance[owner][msg.sender] */\n      0xffffffffffffffffffffffffffffffffffffffff\n      and\n      0xffffffffffffffffffffffffffffffffffffffff\n      and\n      dup2\n      mstore\n      0x20\n      add\n      swap1\n      dup2\n      mstore\n      0x20\n      add\n      0x00\n      keccak256\n      sload\n        /* \"aave-v2/AaveV2ERC4626.sol\":4420:4466  uint256 allowed = allowance[owner][msg.sender] */\n      swap1\n      pop\n        /* \"aave-v2/AaveV2ERC4626.sol\":4532:4549  type(uint256).max */\n      0xffffffffffffffffffffffffffffffffffffffffffffffffffffffffffffffff\n        /* \"aave-v2/AaveV2ERC4626.sol\":4521:4528  allowed */\n      dup2\n        /* \"aave-v2/AaveV2ERC4626.sol\":4521:4549  allowed != type(uint256).max */\n      eq\n        /* \"aave-v2/AaveV2ERC4626.sol\":4517:4631  if (allowed != type(uint256).max) {... */\n      tag_297\n      jumpi\n        /* \"aave-v2/AaveV2ERC4626.sol\":4610:4616  shares */\n      dup5\n        /* \"aave-v2/AaveV2ERC4626.sol\":4600:4607  allowed */\n      dup2\n        /* \"aave-v2/AaveV2ERC4626.sol\":4600:4616  allowed - shares */\n      tag_298\n      swap2\n      swap1\n      tag_207\n      jump\t// in\n    tag_298:\n        /* \"aave-v2/AaveV2ERC4626.sol\":4569:4578  allowance */\n      0x04\n        /* \"aave-v2/AaveV2ERC4626.sol\":4569:4585  allowance[owner] */\n      0x00\n        /* \"aave-v2/AaveV2ERC4626.sol\":4579:4584  owner */\n      dup6\n        /* \"aave-v2/AaveV2ERC4626.sol\":4569:4585  allowance[owner] */\n      0xffffffffffffffffffffffffffffffffffffffff\n      and\n      0xffffffffffffffffffffffffffffffffffffffff\n      and\n      dup2\n      mstore\n      0x20\n      add\n      swap1\n      dup2\n      mstore\n      0x20\n      add\n      0x00\n      keccak256\n        /* \"aave-v2/AaveV2ERC4626.sol\":4569:4597  allowance[owner][msg.sender] */\n      0x00\n        /* \"aave-v2/AaveV2ERC4626.sol\":4586:4596  msg.sender */\n      caller\n        /* \"aave-v2/AaveV2ERC4626.sol\":4569:4597  allowance[owner][msg.sender] */\n      0xffffffffffffffffffffffffffffffffffffffff\n      and\n      0xffffffffffffffffffffffffffffffffffffffff\n      and\n      dup2\n      mstore\n      0x20\n      add\n      swap1\n      dup2\n      mstore\n      0x20\n      add\n      0x00\n      keccak256\n        /* \"aave-v2/AaveV2ERC4626.sol\":4569:4616  allowance[owner][msg.sender] = allowed - shares */\n      dup2\n      swap1\n      sstore\n      pop\n        /* \"aave-v2/AaveV2ERC4626.sol\":4517:4631  if (allowed != type(uint256).max) {... */\n    tag_297:\n        /* \"aave-v2/AaveV2ERC4626.sol\":4406:4641  {... */\n      pop\n        /* \"aave-v2/AaveV2ERC4626.sol\":4381:4641  if (msg.sender != owner) {... */\n    tag_296:\n        /* \"aave-v2/AaveV2ERC4626.sol\":4769:4770  0 */\n      0x00\n        /* \"aave-v2/AaveV2ERC4626.sol\":4743:4764  previewRedeem(shares) */\n      tag_299\n        /* \"aave-v2/AaveV2ERC4626.sol\":4757:4763  shares */\n      dup6\n        /* \"aave-v2/AaveV2ERC4626.sol\":4743:4756  previewRedeem */\n      tag_99\n        /* \"aave-v2/AaveV2ERC4626.sol\":4743:4764  previewRedeem(shares) */\n      jump\t// in\n    tag_299:\n        /* \"aave-v2/AaveV2ERC4626.sol\":4734:4764  assets = previewRedeem(shares) */\n      swap2\n      pop\n      dup2\n        /* \"aave-v2/AaveV2ERC4626.sol\":4733:4770  (assets = previewRedeem(shares)) != 0 */\n      sub\n        /* \"aave-v2/AaveV2ERC4626.sol\":4725:4786  require((assets = previewRedeem(shares)) != 0, \"ZERO_ASSETS\") */\n      tag_300\n      jumpi\n      mload(0x40)\n      0x08c379a000000000000000000000000000000000000000000000000000000000\n      dup2\n      mstore\n      0x04\n      add\n      tag_301\n      swap1\n      tag_302\n      jump\t// in\n    tag_301:\n      mload(0x40)\n      dup1\n      swap2\n      sub\n      swap1\n      revert\n    tag_300:\n        /* \"aave-v2/AaveV2ERC4626.sol\":4797:4827  beforeWithdraw(assets, shares) */\n      tag_303\n        /* \"aave-v2/AaveV2ERC4626.sol\":4812:4818  assets */\n      dup2\n        /* \"aave-v2/AaveV2ERC4626.sol\":4820:4826  shares */\n      dup6\n        /* \"aave-v2/AaveV2ERC4626.sol\":4797:4811  beforeWithdraw */\n      tag_286\n        /* \"aave-v2/AaveV2ERC4626.sol\":4797:4827  beforeWithdraw(assets, shares) */\n      jump\t// in\n    tag_303:\n        /* \"aave-v2/AaveV2ERC4626.sol\":4838:4858  _burn(owner, shares) */\n      tag_304\n        /* \"aave-v2/AaveV2ERC4626.sol\":4844:4849  owner */\n      dup3\n        /* \"aave-v2/AaveV2ERC4626.sol\":4851:4857  shares */\n      dup6\n        /* \"aave-v2/AaveV2ERC4626.sol\":4838:4843  _burn */\n      tag_288\n        /* \"aave-v2/AaveV2ERC4626.sol\":4838:4858  _burn(owner, shares) */\n      jump\t// in\n    tag_304:\n        /* \"aave-v2/AaveV2ERC4626.sol\":4905:4910  owner */\n      dup2\n        /* \"aave-v2/AaveV2ERC4626.sol\":4874:4927  Withdraw(msg.sender, receiver, owner, assets, shares) */\n      0xffffffffffffffffffffffffffffffffffffffff\n      and\n        /* \"aave-v2/AaveV2ERC4626.sol\":4895:4903  receiver */\n      dup4\n        /* \"aave-v2/AaveV2ERC4626.sol\":4874:4927  Withdraw(msg.sender, receiver, owner, assets, shares) */\n      0xffffffffffffffffffffffffffffffffffffffff\n      and\n        /* \"aave-v2/AaveV2ERC4626.sol\":4883:4893  msg.sender */\n      caller\n        /* \"aave-v2/AaveV2ERC4626.sol\":4874:4927  Withdraw(msg.sender, receiver, owner, assets, shares) */\n      0xffffffffffffffffffffffffffffffffffffffff\n      and\n      0xfbde797d201c681b91056529119e0b02407c7bb96a4a2c75c01fc9667232c8db\n        /* \"aave-v2/AaveV2ERC4626.sol\":4912:4918  assets */\n      dup5\n        /* \"aave-v2/AaveV2ERC4626.sol\":4920:4926  shares */\n      dup9\n        /* \"aave-v2/AaveV2ERC4626.sol\":4874:4927  Withdraw(msg.sender, receiver, owner, assets, shares) */\n      mload(0x40)\n      tag_305\n      swap3\n      swap2\n      swap1\n      tag_258\n      jump\t// in\n    tag_305:\n      mload(0x40)\n      dup1\n      swap2\n      sub\n      swap1\n      log4\n        /* \"aave-v2/AaveV2ERC4626.sol\":4984:4995  lendingPool */\n      immutable(\"0x59c0d2b7af0a8e6d3d8e710a078764bd67b7223777026c424cdb4f599824bb79\")\n        /* \"aave-v2/AaveV2ERC4626.sol\":4984:5004  lendingPool.withdraw */\n      0xffffffffffffffffffffffffffffffffffffffff\n      and\n      0x69328dec\n        /* \"aave-v2/AaveV2ERC4626.sol\":5013:5018  asset */\n      immutable(\"0x56727611acac576685e7cf941f4f1cbe100ee8111d8451aad4d429b252500f29\")\n        /* \"aave-v2/AaveV2ERC4626.sol\":5021:5027  assets */\n      dup4\n        /* \"aave-v2/AaveV2ERC4626.sol\":5029:5037  receiver */\n      dup7\n        /* \"aave-v2/AaveV2ERC4626.sol\":4984:5038  lendingPool.withdraw(address(asset), assets, receiver) */\n      mload(0x40)\n      dup5\n      0xffffffff\n      and\n      0xe0\n      shl\n      dup2\n      mstore\n      0x04\n      add\n      tag_306\n      swap4\n      swap3\n      swap2\n      swap1\n      tag_291\n      jump\t// in\n    tag_306:\n      0x20\n      mload(0x40)\n      dup1\n      dup4\n      sub\n      dup2\n      0x00\n      dup8\n      gas\n      call\n      iszero\n      dup1\n      iszero\n      tag_308\n      jumpi\n      returndatasize\n      0x00\n      dup1\n      returndatacopy\n      revert(0x00, returndatasize)\n    tag_308:\n      pop\n      pop\n      pop\n      pop\n      mload(0x40)\n      returndatasize\n      not(0x1f)\n      0x1f\n      dup3\n      add\n      and\n      dup3\n      add\n      dup1\n      0x40\n      mstore\n      pop\n      dup2\n      add\n      swap1\n      tag_309\n      swap2\n      swap1\n      tag_183\n      jump\t// in\n    tag_309:\n      pop\n        /* \"aave-v2/AaveV2ERC4626.sol\":4257:5045  function redeem(uint256 shares, address receiver, address owner) public virtual override returns (uint256 assets) {... */\n      swap4\n      swap3\n      pop\n      pop\n      pop\n      jump\t// out\n        /* \"aave-v2/AaveV2ERC4626.sol\":6240:6687  function maxMint(address) public view virtual override returns (uint256) {... */\n    tag_147:\n        /* \"aave-v2/AaveV2ERC4626.sol\":6304:6311  uint256 */\n      0x00\n        /* \"aave-v2/AaveV2ERC4626.sol\":6362:6373  lendingPool */\n      immutable(\"0x59c0d2b7af0a8e6d3d8e710a078764bd67b7223777026c424cdb4f599824bb79\")\n        /* \"aave-v2/AaveV2ERC4626.sol\":6362:6380  lendingPool.paused */\n      0xffffffffffffffffffffffffffffffffffffffff\n      and\n      0x5c975abb\n        /* \"aave-v2/AaveV2ERC4626.sol\":6362:6382  lendingPool.paused() */\n      mload(0x40)\n      dup2\n      0xffffffff\n      and\n      0xe0\n      shl\n      dup2\n      mstore\n      0x04\n      add\n      0x20\n      mload(0x40)\n      dup1\n      dup4\n      sub\n      dup2\n      dup7\n      gas\n      staticcall\n      iszero\n      dup1\n      iszero\n      tag_312\n      jumpi\n      returndatasize\n      0x00\n      dup1\n      returndatacopy\n      revert(0x00, returndatasize)\n    tag_312:\n      pop\n      pop\n      pop\n      pop\n      mload(0x40)\n      returndatasize\n      not(0x1f)\n      0x1f\n      dup3\n      add\n      and\n      dup3\n      add\n      dup1\n      0x40\n      mstore\n      pop\n      dup2\n      add\n      swap1\n      tag_313\n      swap2\n      swap1\n      tag_233\n      jump\t// in\n    tag_313:\n        /* \"aave-v2/AaveV2ERC4626.sol\":6358:6417  if (lendingPool.paused()) {... */\n      iszero\n      tag_314\n      jumpi\n        /* \"aave-v2/AaveV2ERC4626.sol\":6405:6406  0 */\n      0x00\n        /* \"aave-v2/AaveV2ERC4626.sol\":6398:6406  return 0 */\n      swap1\n      pop\n      jump(tag_310)\n        /* \"aave-v2/AaveV2ERC4626.sol\":6358:6417  if (lendingPool.paused()) {... */\n    tag_314:\n        /* \"aave-v2/AaveV2ERC4626.sol\":6463:6481  uint256 configData */\n      0x00\n        /* \"aave-v2/AaveV2ERC4626.sol\":6484:6495  lendingPool */\n      immutable(\"0x59c0d2b7af0a8e6d3d8e710a078764bd67b7223777026c424cdb4f599824bb79\")\n        /* \"aave-v2/AaveV2ERC4626.sol\":6484:6510  lendingPool.getReserveData */\n      0xffffffffffffffffffffffffffffffffffffffff\n      and\n      0x35ea6a75\n        /* \"aave-v2/AaveV2ERC4626.sol\":6519:6524  asset */\n      immutable(\"0x56727611acac576685e7cf941f4f1cbe100ee8111d8451aad4d429b252500f29\")\n        /* \"aave-v2/AaveV2ERC4626.sol\":6484:6526  lendingPool.getReserveData(address(asset)) */\n      mload(0x40)\n      dup3\n      0xffffffff\n      and\n      0xe0\n      shl\n      dup2\n      mstore\n      0x04\n      add\n      tag_315\n      swap2\n      swap1\n      tag_69\n      jump\t// in\n    tag_315:\n      0x0180\n      mload(0x40)\n      dup1\n      dup4\n      sub\n      dup2\n      dup7\n      gas\n      staticcall\n      iszero\n      dup1\n      iszero\n      tag_317\n      jumpi\n      returndatasize\n      0x00\n      dup1\n      returndatacopy\n      revert(0x00, returndatasize)\n    tag_317:\n      pop\n      pop\n      pop\n      pop\n      mload(0x40)\n      returndatasize\n      not(0x1f)\n      0x1f\n      dup3\n      add\n      and\n      dup3\n      add\n      dup1\n      0x40\n      mstore\n      pop\n      dup2\n      add\n      swap1\n      tag_318\n      swap2\n      swap1\n      tag_239\n      jump\t// in\n    tag_318:\n        /* \"aave-v2/AaveV2ERC4626.sol\":6484:6540  lendingPool.getReserveData(address(asset)).configuration */\n      0x00\n      add\n      mload\n        /* \"aave-v2/AaveV2ERC4626.sol\":6484:6545  lendingPool.getReserveData(address(asset)).configuration.data */\n      0x00\n      add\n      mload\n        /* \"aave-v2/AaveV2ERC4626.sol\":6463:6545  uint256 configData = lendingPool.getReserveData(address(asset)).configuration.data */\n      swap1\n      pop\n        /* \"aave-v2/AaveV2ERC4626.sol\":6561:6583  _getActive(configData) */\n      tag_319\n        /* \"aave-v2/AaveV2ERC4626.sol\":6572:6582  configData */\n      dup2\n        /* \"aave-v2/AaveV2ERC4626.sol\":6561:6571  _getActive */\n      tag_241\n        /* \"aave-v2/AaveV2ERC4626.sol\":6561:6583  _getActive(configData) */\n      jump\t// in\n    tag_319:\n        /* \"aave-v2/AaveV2ERC4626.sol\":6561:6610  _getActive(configData) && !_getFrozen(configData) */\n      dup1\n      iszero\n      tag_320\n      jumpi\n      pop\n        /* \"aave-v2/AaveV2ERC4626.sol\":6588:6610  _getFrozen(configData) */\n      tag_321\n        /* \"aave-v2/AaveV2ERC4626.sol\":6599:6609  configData */\n      dup2\n        /* \"aave-v2/AaveV2ERC4626.sol\":6588:6598  _getFrozen */\n      tag_244\n        /* \"aave-v2/AaveV2ERC4626.sol\":6588:6610  _getFrozen(configData) */\n      jump\t// in\n    tag_321:\n        /* \"aave-v2/AaveV2ERC4626.sol\":6587:6610  !_getFrozen(configData) */\n      iszero\n        /* \"aave-v2/AaveV2ERC4626.sol\":6561:6610  _getActive(configData) && !_getFrozen(configData) */\n    tag_320:\n        /* \"aave-v2/AaveV2ERC4626.sol\":6555:6646  if (!(_getActive(configData) && !_getFrozen(configData))) {... */\n      tag_322\n      jumpi\n        /* \"aave-v2/AaveV2ERC4626.sol\":6634:6635  0 */\n      0x00\n        /* \"aave-v2/AaveV2ERC4626.sol\":6627:6635  return 0 */\n      swap2\n      pop\n      pop\n      jump(tag_310)\n        /* \"aave-v2/AaveV2ERC4626.sol\":6555:6646  if (!(_getActive(configData) && !_getFrozen(configData))) {... */\n    tag_322:\n        /* \"aave-v2/AaveV2ERC4626.sol\":6663:6680  type(uint256).max */\n      0xffffffffffffffffffffffffffffffffffffffffffffffffffffffffffffffff\n        /* \"aave-v2/AaveV2ERC4626.sol\":6656:6680  return type(uint256).max */\n      swap2\n      pop\n      pop\n        /* \"aave-v2/AaveV2ERC4626.sol\":6240:6687  function maxMint(address) public view virtual override returns (uint256) {... */\n    tag_310:\n      swap2\n      swap1\n      pop\n      jump\t// out\n        /* \"solmate/mixins/ERC4626.sol\":4200:4457  function convertToShares(uint256 assets) public view virtual returns (uint256) {... */\n    tag_151:\n        /* \"solmate/mixins/ERC4626.sol\":4270:4277  uint256 */\n      0x00\n        /* \"solmate/mixins/ERC4626.sol\":4289:4303  uint256 supply */\n      dup1\n        /* \"solmate/mixins/ERC4626.sol\":4306:4317  totalSupply */\n      sload(0x02)\n        /* \"solmate/mixins/ERC4626.sol\":4289:4317  uint256 supply = totalSupply */\n      swap1\n      pop\n        /* \"solmate/mixins/ERC4626.sol\":4397:4398  0 */\n      0x00\n        /* \"solmate/mixins/ERC4626.sol\":4387:4393  supply */\n      dup2\n        /* \"solmate/mixins/ERC4626.sol\":4387:4398  supply == 0 */\n      eq\n        /* \"solmate/mixins/ERC4626.sol\":4387:4450  supply == 0 ? assets : assets.mulDivDown(supply, totalAssets()) */\n      tag_324\n      jumpi\n        /* \"solmate/mixins/ERC4626.sol\":4410:4450  assets.mulDivDown(supply, totalAssets()) */\n      tag_325\n        /* \"solmate/mixins/ERC4626.sol\":4428:4434  supply */\n      dup2\n        /* \"solmate/mixins/ERC4626.sol\":4436:4449  totalAssets() */\n      tag_326\n        /* \"solmate/mixins/ERC4626.sol\":4436:4447  totalAssets */\n      tag_44\n        /* \"solmate/mixins/ERC4626.sol\":4436:4449  totalAssets() */\n      jump\t// in\n    tag_326:\n        /* \"solmate/mixins/ERC4626.sol\":4410:4416  assets */\n      dup6\n        /* \"solmate/mixins/ERC4626.sol\":4410:4427  assets.mulDivDown */\n      tag_194\n      swap1\n        /* \"solmate/mixins/ERC4626.sol\":4410:4450  assets.mulDivDown(supply, totalAssets()) */\n      swap3\n      swap2\n      swap1\n      0xffffffff\n      and\n      jump\t// in\n    tag_325:\n        /* \"solmate/mixins/ERC4626.sol\":4387:4450  supply == 0 ? assets : assets.mulDivDown(supply, totalAssets()) */\n      jump(tag_327)\n    tag_324:\n        /* \"solmate/mixins/ERC4626.sol\":4401:4407  assets */\n      dup3\n        /* \"solmate/mixins/ERC4626.sol\":4387:4450  supply == 0 ? assets : assets.mulDivDown(supply, totalAssets()) */\n    tag_327:\n        /* \"solmate/mixins/ERC4626.sol\":4380:4450  return supply == 0 ? assets : assets.mulDivDown(supply, totalAssets()) */\n      swap2\n      pop\n      pop\n        /* \"solmate/mixins/ERC4626.sol\":4200:4457  function convertToShares(uint256 assets) public view virtual returns (uint256) {... */\n      swap2\n      swap1\n      pop\n      jump\t// out\n        /* \"aave-v2/AaveV2ERC4626.sol\":6693:7271  function maxWithdraw(address owner) public view virtual override returns (uint256) {... */\n    tag_155:\n        /* \"aave-v2/AaveV2ERC4626.sol\":6767:6774  uint256 */\n      0x00\n        /* \"aave-v2/AaveV2ERC4626.sol\":6825:6836  lendingPool */\n      immutable(\"0x59c0d2b7af0a8e6d3d8e710a078764bd67b7223777026c424cdb4f599824bb79\")\n        /* \"aave-v2/AaveV2ERC4626.sol\":6825:6843  lendingPool.paused */\n      0xffffffffffffffffffffffffffffffffffffffff\n      and\n      0x5c975abb\n        /* \"aave-v2/AaveV2ERC4626.sol\":6825:6845  lendingPool.paused() */\n      mload(0x40)\n      dup2\n      0xffffffff\n      and\n      0xe0\n      shl\n      dup2\n      mstore\n      0x04\n      add\n      0x20\n      mload(0x40)\n      dup1\n      dup4\n      sub\n      dup2\n      dup7\n      gas\n      staticcall\n      iszero\n      dup1\n      iszero\n      tag_330\n      jumpi\n      returndatasize\n      0x00\n      dup1\n      returndatacopy\n      revert(0x00, returndatasize)\n    tag_330:\n      pop\n      pop\n      pop\n      pop\n      mload(0x40)\n      returndatasize\n      not(0x1f)\n      0x1f\n      dup3\n      add\n      and\n      dup3\n      add\n      dup1\n      0x40\n      mstore\n      pop\n      dup2\n      add\n      swap1\n      tag_331\n      swap2\n      swap1\n      tag_233\n      jump\t// in\n    tag_331:\n        /* \"aave-v2/AaveV2ERC4626.sol\":6821:6880  if (lendingPool.paused()) {... */\n      iszero\n      tag_332\n      jumpi\n        /* \"aave-v2/AaveV2ERC4626.sol\":6868:6869  0 */\n      0x00\n        /* \"aave-v2/AaveV2ERC4626.sol\":6861:6869  return 0 */\n      swap1\n      pop\n      jump(tag_328)\n        /* \"aave-v2/AaveV2ERC4626.sol\":6821:6880  if (lendingPool.paused()) {... */\n    tag_332:\n        /* \"aave-v2/AaveV2ERC4626.sol\":6926:6944  uint256 configData */\n      0x00\n        /* \"aave-v2/AaveV2ERC4626.sol\":6947:6958  lendingPool */\n      immutable(\"0x59c0d2b7af0a8e6d3d8e710a078764bd67b7223777026c424cdb4f599824bb79\")\n        /* \"aave-v2/AaveV2ERC4626.sol\":6947:6973  lendingPool.getReserveData */\n      0xffffffffffffffffffffffffffffffffffffffff\n      and\n      0x35ea6a75\n        /* \"aave-v2/AaveV2ERC4626.sol\":6982:6987  asset */\n      immutable(\"0x56727611acac576685e7cf941f4f1cbe100ee8111d8451aad4d429b252500f29\")\n        /* \"aave-v2/AaveV2ERC4626.sol\":6947:6989  lendingPool.getReserveData(address(asset)) */\n      mload(0x40)\n      dup3\n      0xffffffff\n      and\n      0xe0\n      shl\n      dup2\n      mstore\n      0x04\n      add\n      tag_333\n      swap2\n      swap1\n      tag_69\n      jump\t// in\n    tag_333:\n      0x0180\n      mload(0x40)\n      dup1\n      dup4\n      sub\n      dup2\n      dup7\n      gas\n      staticcall\n      iszero\n      dup1\n      iszero\n      tag_335\n      jumpi\n      returndatasize\n      0x00\n      dup1\n      returndatacopy\n      revert(0x00, returndatasize)\n    tag_335:\n      pop\n      pop\n      pop\n      pop\n      mload(0x40)\n      returndatasize\n      not(0x1f)\n      0x1f\n      dup3\n      add\n      and\n      dup3\n      add\n      dup1\n      0x40\n      mstore\n      pop\n      dup2\n      add\n      swap1\n      tag_336\n      swap2\n      swap1\n      tag_239\n      jump\t// in\n    tag_336:\n        /* \"aave-v2/AaveV2ERC4626.sol\":6947:7003  lendingPool.getReserveData(address(asset)).configuration */\n      0x00\n      add\n      mload\n        /* \"aave-v2/AaveV2ERC4626.sol\":6947:7008  lendingPool.getReserveData(address(asset)).configuration.data */\n      0x00\n      add\n      mload\n        /* \"aave-v2/AaveV2ERC4626.sol\":6926:7008  uint256 configData = lendingPool.getReserveData(address(asset)).configuration.data */\n      swap1\n      pop\n        /* \"aave-v2/AaveV2ERC4626.sol\":7023:7045  _getActive(configData) */\n      tag_337\n        /* \"aave-v2/AaveV2ERC4626.sol\":7034:7044  configData */\n      dup2\n        /* \"aave-v2/AaveV2ERC4626.sol\":7023:7033  _getActive */\n      tag_241\n        /* \"aave-v2/AaveV2ERC4626.sol\":7023:7045  _getActive(configData) */\n      jump\t// in\n    tag_337:\n        /* \"aave-v2/AaveV2ERC4626.sol\":7018:7080  if (!_getActive(configData)) {... */\n      tag_338\n      jumpi\n        /* \"aave-v2/AaveV2ERC4626.sol\":7068:7069  0 */\n      0x00\n        /* \"aave-v2/AaveV2ERC4626.sol\":7061:7069  return 0 */\n      swap2\n      pop\n      pop\n      jump(tag_328)\n        /* \"aave-v2/AaveV2ERC4626.sol\":7018:7080  if (!_getActive(configData)) {... */\n    tag_338:\n        /* \"aave-v2/AaveV2ERC4626.sol\":7090:7102  uint256 cash */\n      0x00\n        /* \"aave-v2/AaveV2ERC4626.sol\":7105:7110  asset */\n      immutable(\"0x56727611acac576685e7cf941f4f1cbe100ee8111d8451aad4d429b252500f29\")\n        /* \"aave-v2/AaveV2ERC4626.sol\":7105:7120  asset.balanceOf */\n      0xffffffffffffffffffffffffffffffffffffffff\n      and\n      0x70a08231\n        /* \"aave-v2/AaveV2ERC4626.sol\":7129:7135  aToken */\n      immutable(\"0xd67d834462ca31eaef1f30157e31659f60355143b7441e6fc7d9eae1fa79f3f8\")\n        /* \"aave-v2/AaveV2ERC4626.sol\":7105:7137  asset.balanceOf(address(aToken)) */\n      mload(0x40)\n      dup3\n      0xffffffff\n      and\n      0xe0\n      shl\n      dup2\n      mstore\n      0x04\n      add\n      tag_339\n      swap2\n      swap1\n      tag_69\n      jump\t// in\n    tag_339:\n      0x20\n      mload(0x40)\n      dup1\n      dup4\n      sub\n      dup2\n      dup7\n      gas\n      staticcall\n      iszero\n      dup1\n      iszero\n      tag_341\n      jumpi\n      returndatasize\n      0x00\n      dup1\n      returndatacopy\n      revert(0x00, returndatasize)\n    tag_341:\n      pop\n      pop\n      pop\n      pop\n      mload(0x40)\n      returndatasize\n      not(0x1f)\n      0x1f\n      dup3\n      add\n      and\n      dup3\n      add\n      dup1\n      0x40\n      mstore\n      pop\n      dup2\n      add\n      swap1\n      tag_342\n      swap2\n      swap1\n      tag_183\n      jump\t// in\n    tag_342:\n        /* \"aave-v2/AaveV2ERC4626.sol\":7090:7137  uint256 cash = asset.balanceOf(address(aToken)) */\n      swap1\n      pop\n        /* \"aave-v2/AaveV2ERC4626.sol\":7147:7168  uint256 assetsBalance */\n      0x00\n        /* \"aave-v2/AaveV2ERC4626.sol\":7171:7204  convertToAssets(balanceOf[owner]) */\n      tag_343\n        /* \"aave-v2/AaveV2ERC4626.sol\":7187:7196  balanceOf */\n      0x03\n        /* \"aave-v2/AaveV2ERC4626.sol\":7187:7203  balanceOf[owner] */\n      0x00\n        /* \"aave-v2/AaveV2ERC4626.sol\":7197:7202  owner */\n      dup8\n        /* \"aave-v2/AaveV2ERC4626.sol\":7187:7203  balanceOf[owner] */\n      0xffffffffffffffffffffffffffffffffffffffff\n      and\n      0xffffffffffffffffffffffffffffffffffffffff\n      and\n      dup2\n      mstore\n      0x20\n      add\n      swap1\n      dup2\n      mstore\n      0x20\n      add\n      0x00\n      keccak256\n      sload\n        /* \"aave-v2/AaveV2ERC4626.sol\":7171:7186  convertToAssets */\n      tag_54\n        /* \"aave-v2/AaveV2ERC4626.sol\":7171:7204  convertToAssets(balanceOf[owner]) */\n      jump\t// in\n    tag_343:\n        /* \"aave-v2/AaveV2ERC4626.sol\":7147:7204  uint256 assetsBalance = convertToAssets(balanceOf[owner]) */\n      swap1\n      pop\n        /* \"aave-v2/AaveV2ERC4626.sol\":7228:7241  assetsBalance */\n      dup1\n        /* \"aave-v2/AaveV2ERC4626.sol\":7221:7225  cash */\n      dup3\n        /* \"aave-v2/AaveV2ERC4626.sol\":7221:7241  cash < assetsBalance */\n      lt\n        /* \"aave-v2/AaveV2ERC4626.sol\":7221:7264  cash < assetsBalance ? cash : assetsBalance */\n      tag_344\n      jumpi\n        /* \"aave-v2/AaveV2ERC4626.sol\":7251:7264  assetsBalance */\n      dup1\n        /* \"aave-v2/AaveV2ERC4626.sol\":7221:7264  cash < assetsBalance ? cash : assetsBalance */\n      jump(tag_345)\n    tag_344:\n        /* \"aave-v2/AaveV2ERC4626.sol\":7244:7248  cash */\n      dup2\n        /* \"aave-v2/AaveV2ERC4626.sol\":7221:7264  cash < assetsBalance ? cash : assetsBalance */\n    tag_345:\n        /* \"aave-v2/AaveV2ERC4626.sol\":7214:7264  return cash < assetsBalance ? cash : assetsBalance */\n      swap4\n      pop\n      pop\n      pop\n      pop\n        /* \"aave-v2/AaveV2ERC4626.sol\":6693:7271  function maxWithdraw(address owner) public view virtual override returns (uint256) {... */\n    tag_328:\n      swap2\n      swap1\n      pop\n      jump\t// out\n        /* \"solmate/tokens/ERC20.sol\":3838:5321  function permit(... */\n    tag_160:\n        /* \"solmate/tokens/ERC20.sol\":4057:4072  block.timestamp */\n      timestamp\n        /* \"solmate/tokens/ERC20.sol\":4045:4053  deadline */\n      dup5\n        /* \"solmate/tokens/ERC20.sol\":4045:4072  deadline >= block.timestamp */\n      lt\n      iszero\n        /* \"solmate/tokens/ERC20.sol\":4037:4100  require(deadline >= block.timestamp, \"PERMIT_DEADLINE_EXPIRED\") */\n      tag_347\n      jumpi\n      mload(0x40)\n      0x08c379a000000000000000000000000000000000000000000000000000000000\n      dup2\n      mstore\n      0x04\n      add\n      tag_348\n      swap1\n      tag_349\n      jump\t// in\n    tag_348:\n      mload(0x40)\n      dup1\n      swap2\n      sub\n      swap1\n      revert\n    tag_347:\n        /* \"solmate/tokens/ERC20.sol\":4265:4289  address recoveredAddress */\n      0x00\n        /* \"solmate/tokens/ERC20.sol\":4292:5097  ecrecover(... */\n      0x01\n        /* \"solmate/tokens/ERC20.sol\":4428:4446  DOMAIN_SEPARATOR() */\n      tag_350\n        /* \"solmate/tokens/ERC20.sol\":4428:4444  DOMAIN_SEPARATOR */\n      tag_83\n        /* \"solmate/tokens/ERC20.sol\":4428:4446  DOMAIN_SEPARATOR() */\n      jump\t// in\n    tag_350:\n        /* \"solmate/tokens/ERC20.sol\":4555:4720  keccak256(... */\n      0x6e71edae12b1b97f4d1f60370fef10105fa2faae0126114a169c64845d6126c9\n        /* \"solmate/tokens/ERC20.sol\":4754:4759  owner */\n      dup11\n        /* \"solmate/tokens/ERC20.sol\":4793:4800  spender */\n      dup11\n        /* \"solmate/tokens/ERC20.sol\":4834:4839  value */\n      dup11\n        /* \"solmate/tokens/ERC20.sol\":4873:4879  nonces */\n      0x05\n        /* \"solmate/tokens/ERC20.sol\":4873:4886  nonces[owner] */\n      0x00\n        /* \"solmate/tokens/ERC20.sol\":4880:4885  owner */\n      dup16\n        /* \"solmate/tokens/ERC20.sol\":4873:4886  nonces[owner] */\n      0xffffffffffffffffffffffffffffffffffffffff\n      and\n      0xffffffffffffffffffffffffffffffffffffffff\n      and\n      dup2\n      mstore\n      0x20\n      add\n      swap1\n      dup2\n      mstore\n      0x20\n      add\n      0x00\n      keccak256\n      0x00\n        /* \"solmate/tokens/ERC20.sol\":4873:4888  nonces[owner]++ */\n      dup2\n      sload\n      dup1\n      swap3\n      swap2\n      swap1\n      0x01\n      add\n      swap2\n      swap1\n      pop\n      sstore\n        /* \"solmate/tokens/ERC20.sol\":4922:4930  deadline */\n      dup12\n        /* \"solmate/tokens/ERC20.sol\":4511:4960  abi.encode(... */\n      add(0x20, mload(0x40))\n      tag_351\n      swap7\n      swap6\n      swap5\n      swap4\n      swap3\n      swap2\n      swap1\n      tag_352\n      jump\t// in\n    tag_351:\n      mload(0x40)\n      0x20\n      dup2\n      dup4\n      sub\n      sub\n      dup2\n      mstore\n      swap1\n      0x40\n      mstore\n        /* \"solmate/tokens/ERC20.sol\":4472:4986  keccak256(... */\n      dup1\n      mload\n      swap1\n      0x20\n      add\n      keccak256\n        /* \"solmate/tokens/ERC20.sol\":4350:5008  abi.encodePacked(... */\n      add(0x20, mload(0x40))\n      tag_353\n      swap3\n      swap2\n      swap1\n      tag_354\n      jump\t// in\n    tag_353:\n      mload(0x40)\n      0x20\n      dup2\n      dup4\n      sub\n      sub\n      dup2\n      mstore\n      swap1\n      0x40\n      mstore\n        /* \"solmate/tokens/ERC20.sol\":4319:5026  keccak256(... */\n      dup1\n      mload\n      swap1\n      0x20\n      add\n      keccak256\n        /* \"solmate/tokens/ERC20.sol\":5044:5045  v */\n      dup6\n        /* \"solmate/tokens/ERC20.sol\":5063:5064  r */\n      dup6\n        /* \"solmate/tokens/ERC20.sol\":5082:5083  s */\n      dup6\n        /* \"solmate/tokens/ERC20.sol\":4292:5097  ecrecover(... */\n      mload(0x40)\n      0x00\n      dup2\n      mstore\n      0x20\n      add\n      0x40\n      mstore\n      mload(0x40)\n      tag_355\n      swap5\n      swap4\n      swap3\n      swap2\n      swap1\n      tag_356\n      jump\t// in\n    tag_355:\n      0x20\n      mload(0x40)\n      0x20\n      dup2\n      sub\n      swap1\n      dup1\n      dup5\n      sub\n      swap1\n      dup6\n      gas\n      staticcall\n      iszero\n      dup1\n      iszero\n      tag_358\n      jumpi\n      returndatasize\n      0x00\n      dup1\n      returndatacopy\n      revert(0x00, returndatasize)\n    tag_358:\n      pop\n      pop\n      pop\n      mload(sub(mload(0x40), 0x20))\n        /* \"solmate/tokens/ERC20.sol\":4265:5097  address recoveredAddress = ecrecover(... */\n      swap1\n      pop\n        /* \"solmate/tokens/ERC20.sol\":5148:5149  0 */\n      0x00\n        /* \"solmate/tokens/ERC20.sol\":5120:5150  recoveredAddress != address(0) */\n      0xffffffffffffffffffffffffffffffffffffffff\n      and\n        /* \"solmate/tokens/ERC20.sol\":5120:5136  recoveredAddress */\n      dup2\n        /* \"solmate/tokens/ERC20.sol\":5120:5150  recoveredAddress != address(0) */\n      0xffffffffffffffffffffffffffffffffffffffff\n      and\n      eq\n      iszero\n        /* \"solmate/tokens/ERC20.sol\":5120:5179  recoveredAddress != address(0) && recoveredAddress == owner */\n      dup1\n      iszero\n      tag_359\n      jumpi\n      pop\n        /* \"solmate/tokens/ERC20.sol\":5174:5179  owner */\n      dup8\n        /* \"solmate/tokens/ERC20.sol\":5154:5179  recoveredAddress == owner */\n      0xffffffffffffffffffffffffffffffffffffffff\n      and\n        /* \"solmate/tokens/ERC20.sol\":5154:5170  recoveredAddress */\n      dup2\n        /* \"solmate/tokens/ERC20.sol\":5154:5179  recoveredAddress == owner */\n      0xffffffffffffffffffffffffffffffffffffffff\n      and\n      eq\n        /* \"solmate/tokens/ERC20.sol\":5120:5179  recoveredAddress != address(0) && recoveredAddress == owner */\n    tag_359:\n        /* \"solmate/tokens/ERC20.sol\":5112:5198  require(recoveredAddress != address(0) && recoveredAddress == owner, \"INVALID_SIGNER\") */\n      tag_360\n      jumpi\n      mload(0x40)\n      0x08c379a000000000000000000000000000000000000000000000000000000000\n      dup2\n      mstore\n      0x04\n      add\n      tag_361\n      swap1\n      tag_362\n      jump\t// in\n    tag_361:\n      mload(0x40)\n      dup1\n      swap2\n      sub\n      swap1\n      revert\n    tag_360:\n        /* \"solmate/tokens/ERC20.sol\":5252:5257  value */\n      dup6\n        /* \"solmate/tokens/ERC20.sol\":5213:5222  allowance */\n      0x04\n        /* \"solmate/tokens/ERC20.sol\":5213:5240  allowance[recoveredAddress] */\n      0x00\n        /* \"solmate/tokens/ERC20.sol\":5223:5239  recoveredAddress */\n      dup4\n        /* \"solmate/tokens/ERC20.sol\":5213:5240  allowance[recoveredAddress] */\n      0xffffffffffffffffffffffffffffffffffffffff\n      and\n      0xffffffffffffffffffffffffffffffffffffffff\n      and\n      dup2\n      mstore\n      0x20\n      add\n      swap1\n      dup2\n      mstore\n      0x20\n      add\n      0x00\n      keccak256\n        /* \"solmate/tokens/ERC20.sol\":5213:5249  allowance[recoveredAddress][spender] */\n      0x00\n        /* \"solmate/tokens/ERC20.sol\":5241:5248  spender */\n      dup10\n        /* \"solmate/tokens/ERC20.sol\":5213:5249  allowance[recoveredAddress][spender] */\n      0xffffffffffffffffffffffffffffffffffffffff\n      and\n      0xffffffffffffffffffffffffffffffffffffffff\n      and\n      dup2\n      mstore\n      0x20\n      add\n      swap1\n      dup2\n      mstore\n      0x20\n      add\n      0x00\n      keccak256\n        /* \"solmate/tokens/ERC20.sol\":5213:5257  allowance[recoveredAddress][spender] = value */\n      dup2\n      swap1\n      sstore\n      pop\n        /* \"solmate/tokens/ERC20.sol\":4241:5268  unchecked {... */\n      pop\n        /* \"solmate/tokens/ERC20.sol\":5299:5306  spender */\n      dup6\n        /* \"solmate/tokens/ERC20.sol\":5283:5314  Approval(owner, spender, value) */\n      0xffffffffffffffffffffffffffffffffffffffff\n      and\n        /* \"solmate/tokens/ERC20.sol\":5292:5297  owner */\n      dup8\n        /* \"solmate/tokens/ERC20.sol\":5283:5314  Approval(owner, spender, value) */\n      0xffffffffffffffffffffffffffffffffffffffff\n      and\n      0x8c5be1e5ebec7d5bd14f71427d1e84f3dd0314c0f7b2291e5b200ac8c7c3b925\n        /* \"solmate/tokens/ERC20.sol\":5308:5313  value */\n      dup8\n        /* \"solmate/tokens/ERC20.sol\":5283:5314  Approval(owner, spender, value) */\n      mload(0x40)\n      tag_363\n      swap2\n      swap1\n      tag_46\n      jump\t// in\n    tag_363:\n      mload(0x40)\n      dup1\n      swap2\n      sub\n      swap1\n      log3\n        /* \"solmate/tokens/ERC20.sol\":3838:5321  function permit(... */\n      pop\n      pop\n      pop\n      pop\n      pop\n      pop\n      pop\n      jump\t// out\n        /* \"aave-v2/AaveV2ERC4626.sol\":7277:7903  function maxRedeem(address owner) public view virtual override returns (uint256) {... */\n    tag_163:\n        /* \"aave-v2/AaveV2ERC4626.sol\":7349:7356  uint256 */\n      0x00\n        /* \"aave-v2/AaveV2ERC4626.sol\":7407:7418  lendingPool */\n      immutable(\"0x59c0d2b7af0a8e6d3d8e710a078764bd67b7223777026c424cdb4f599824bb79\")\n        /* \"aave-v2/AaveV2ERC4626.sol\":7407:7425  lendingPool.paused */\n      0xffffffffffffffffffffffffffffffffffffffff\n      and\n      0x5c975abb\n        /* \"aave-v2/AaveV2ERC4626.sol\":7407:7427  lendingPool.paused() */\n      mload(0x40)\n      dup2\n      0xffffffff\n      and\n      0xe0\n      shl\n      dup2\n      mstore\n      0x04\n      add\n      0x20\n      mload(0x40)\n      dup1\n      dup4\n      sub\n      dup2\n      dup7\n      gas\n      staticcall\n      iszero\n      dup1\n      iszero\n      tag_366\n      jumpi\n      returndatasize\n      0x00\n      dup1\n      returndatacopy\n      revert(0x00, returndatasize)\n    tag_366:\n      pop\n      pop\n      pop\n      pop\n      mload(0x40)\n      returndatasize\n      not(0x1f)\n      0x1f\n      dup3\n      add\n      and\n      dup3\n      add\n      dup1\n      0x40\n      mstore\n      pop\n      dup2\n      add\n      swap1\n      tag_367\n      swap2\n      swap1\n      tag_233\n      jump\t// in\n    tag_367:\n        /* \"aave-v2/AaveV2ERC4626.sol\":7403:7462  if (lendingPool.paused()) {... */\n      iszero\n      tag_368\n      jumpi\n        /* \"aave-v2/AaveV2ERC4626.sol\":7450:7451  0 */\n      0x00\n        /* \"aave-v2/AaveV2ERC4626.sol\":7443:7451  return 0 */\n      swap1\n      pop\n      jump(tag_364)\n        /* \"aave-v2/AaveV2ERC4626.sol\":7403:7462  if (lendingPool.paused()) {... */\n    tag_368:\n        /* \"aave-v2/AaveV2ERC4626.sol\":7508:7526  uint256 configData */\n      0x00\n        /* \"aave-v2/AaveV2ERC4626.sol\":7529:7540  lendingPool */\n      immutable(\"0x59c0d2b7af0a8e6d3d8e710a078764bd67b7223777026c424cdb4f599824bb79\")\n        /* \"aave-v2/AaveV2ERC4626.sol\":7529:7555  lendingPool.getReserveData */\n      0xffffffffffffffffffffffffffffffffffffffff\n      and\n      0x35ea6a75\n        /* \"aave-v2/AaveV2ERC4626.sol\":7564:7569  asset */\n      immutable(\"0x56727611acac576685e7cf941f4f1cbe100ee8111d8451aad4d429b252500f29\")\n        /* \"aave-v2/AaveV2ERC4626.sol\":7529:7571  lendingPool.getReserveData(address(asset)) */\n      mload(0x40)\n      dup3\n      0xffffffff\n      and\n      0xe0\n      shl\n      dup2\n      mstore\n      0x04\n      add\n      tag_369\n      swap2\n      swap1\n      tag_69\n      jump\t// in\n    tag_369:\n      0x0180\n      mload(0x40)\n      dup1\n      dup4\n      sub\n      dup2\n      dup7\n      gas\n      staticcall\n      iszero\n      dup1\n      iszero\n      tag_371\n      jumpi\n      returndatasize\n      0x00\n      dup1\n      returndatacopy\n      revert(0x00, returndatasize)\n    tag_371:\n      pop\n      pop\n      pop\n      pop\n      mload(0x40)\n      returndatasize\n      not(0x1f)\n      0x1f\n      dup3\n      add\n      and\n      dup3\n      add\n      dup1\n      0x40\n      mstore\n      pop\n      dup2\n      add\n      swap1\n      tag_372\n      swap2\n      swap1\n      tag_239\n      jump\t// in\n    tag_372:\n        /* \"aave-v2/AaveV2ERC4626.sol\":7529:7585  lendingPool.getReserveData(address(asset)).configuration */\n      0x00\n      add\n      mload\n        /* \"aave-v2/AaveV2ERC4626.sol\":7529:7590  lendingPool.getReserveData(address(asset)).configuration.data */\n      0x00\n      add\n      mload\n        /* \"aave-v2/AaveV2ERC4626.sol\":7508:7590  uint256 configData = lendingPool.getReserveData(address(asset)).configuration.data */\n      swap1\n      pop\n        /* \"aave-v2/AaveV2ERC4626.sol\":7605:7627  _getActive(configData) */\n      tag_373\n        /* \"aave-v2/AaveV2ERC4626.sol\":7616:7626  configData */\n      dup2\n        /* \"aave-v2/AaveV2ERC4626.sol\":7605:7615  _getActive */\n      tag_241\n        /* \"aave-v2/AaveV2ERC4626.sol\":7605:7627  _getActive(configData) */\n      jump\t// in\n    tag_373:\n        /* \"aave-v2/AaveV2ERC4626.sol\":7600:7662  if (!_getActive(configData)) {... */\n      tag_374\n      jumpi\n        /* \"aave-v2/AaveV2ERC4626.sol\":7650:7651  0 */\n      0x00\n        /* \"aave-v2/AaveV2ERC4626.sol\":7643:7651  return 0 */\n      swap2\n      pop\n      pop\n      jump(tag_364)\n        /* \"aave-v2/AaveV2ERC4626.sol\":7600:7662  if (!_getActive(configData)) {... */\n    tag_374:\n        /* \"aave-v2/AaveV2ERC4626.sol\":7672:7684  uint256 cash */\n      0x00\n        /* \"aave-v2/AaveV2ERC4626.sol\":7687:7692  asset */\n      immutable(\"0x56727611acac576685e7cf941f4f1cbe100ee8111d8451aad4d429b252500f29\")\n        /* \"aave-v2/AaveV2ERC4626.sol\":7687:7702  asset.balanceOf */\n      0xffffffffffffffffffffffffffffffffffffffff\n      and\n      0x70a08231\n        /* \"aave-v2/AaveV2ERC4626.sol\":7711:7717  aToken */\n      immutable(\"0xd67d834462ca31eaef1f30157e31659f60355143b7441e6fc7d9eae1fa79f3f8\")\n        /* \"aave-v2/AaveV2ERC4626.sol\":7687:7719  asset.balanceOf(address(aToken)) */\n      mload(0x40)\n      dup3\n      0xffffffff\n      and\n      0xe0\n      shl\n      dup2\n      mstore\n      0x04\n      add\n      tag_375\n      swap2\n      swap1\n      tag_69\n      jump\t// in\n    tag_375:\n      0x20\n      mload(0x40)\n      dup1\n      dup4\n      sub\n      dup2\n      dup7\n      gas\n      staticcall\n      iszero\n      dup1\n      iszero\n      tag_377\n      jumpi\n      returndatasize\n      0x00\n      dup1\n      returndatacopy\n      revert(0x00, returndatasize)\n    tag_377:\n      pop\n      pop\n      pop\n      pop\n      mload(0x40)\n      returndatasize\n      not(0x1f)\n      0x1f\n      dup3\n      add\n      and\n      dup3\n      add\n      dup1\n      0x40\n      mstore\n      pop\n      dup2\n      add\n      swap1\n      tag_378\n      swap2\n      swap1\n      tag_183\n      jump\t// in\n    tag_378:\n        /* \"aave-v2/AaveV2ERC4626.sol\":7672:7719  uint256 cash = asset.balanceOf(address(aToken)) */\n      swap1\n      pop\n        /* \"aave-v2/AaveV2ERC4626.sol\":7729:7749  uint256 cashInShares */\n      0x00\n        /* \"aave-v2/AaveV2ERC4626.sol\":7752:7773  convertToShares(cash) */\n      tag_379\n        /* \"aave-v2/AaveV2ERC4626.sol\":7768:7772  cash */\n      dup3\n        /* \"aave-v2/AaveV2ERC4626.sol\":7752:7767  convertToShares */\n      tag_151\n        /* \"aave-v2/AaveV2ERC4626.sol\":7752:7773  convertToShares(cash) */\n      jump\t// in\n    tag_379:\n        /* \"aave-v2/AaveV2ERC4626.sol\":7729:7773  uint256 cashInShares = convertToShares(cash) */\n      swap1\n      pop\n        /* \"aave-v2/AaveV2ERC4626.sol\":7783:7803  uint256 shareBalance */\n      0x00\n        /* \"aave-v2/AaveV2ERC4626.sol\":7806:7815  balanceOf */\n      0x03\n        /* \"aave-v2/AaveV2ERC4626.sol\":7806:7822  balanceOf[owner] */\n      0x00\n        /* \"aave-v2/AaveV2ERC4626.sol\":7816:7821  owner */\n      dup8\n        /* \"aave-v2/AaveV2ERC4626.sol\":7806:7822  balanceOf[owner] */\n      0xffffffffffffffffffffffffffffffffffffffff\n      and\n      0xffffffffffffffffffffffffffffffffffffffff\n      and\n      dup2\n      mstore\n      0x20\n      add\n      swap1\n      dup2\n      mstore\n      0x20\n      add\n      0x00\n      keccak256\n      sload\n        /* \"aave-v2/AaveV2ERC4626.sol\":7783:7822  uint256 shareBalance = balanceOf[owner] */\n      swap1\n      pop\n        /* \"aave-v2/AaveV2ERC4626.sol\":7854:7866  shareBalance */\n      dup1\n        /* \"aave-v2/AaveV2ERC4626.sol\":7839:7851  cashInShares */\n      dup3\n        /* \"aave-v2/AaveV2ERC4626.sol\":7839:7866  cashInShares < shareBalance */\n      lt\n        /* \"aave-v2/AaveV2ERC4626.sol\":7839:7896  cashInShares < shareBalance ? cashInShares : shareBalance */\n      tag_380\n      jumpi\n        /* \"aave-v2/AaveV2ERC4626.sol\":7884:7896  shareBalance */\n      dup1\n        /* \"aave-v2/AaveV2ERC4626.sol\":7839:7896  cashInShares < shareBalance ? cashInShares : shareBalance */\n      jump(tag_381)\n    tag_380:\n        /* \"aave-v2/AaveV2ERC4626.sol\":7869:7881  cashInShares */\n      dup2\n        /* \"aave-v2/AaveV2ERC4626.sol\":7839:7896  cashInShares < shareBalance ? cashInShares : shareBalance */\n    tag_381:\n        /* \"aave-v2/AaveV2ERC4626.sol\":7832:7896  return cashInShares < shareBalance ? cashInShares : shareBalance */\n      swap5\n      pop\n      pop\n      pop\n      pop\n      pop\n        /* \"aave-v2/AaveV2ERC4626.sol\":7277:7903  function maxRedeem(address owner) public view virtual override returns (uint256) {... */\n    tag_364:\n      swap2\n      swap1\n      pop\n      jump\t// out\n        /* \"solmate/tokens/ERC20.sol\":1388:1452  mapping(address => mapping(address => uint256)) public allowance */\n    tag_168:\n      mstore(0x20, 0x04)\n      dup2\n      0x00\n      mstore\n      mstore(0x20, keccak256(0x00, 0x40))\n      dup1\n      0x00\n      mstore\n      keccak256(0x00, 0x40)\n      0x00\n      swap2\n      pop\n      swap2\n      pop\n      pop\n      sload\n      dup2\n      jump\t// out\n        /* \"solmate/mixins/ERC4626.sol\":4726:4851  function previewDeposit(uint256 assets) public view virtual returns (uint256) {... */\n    tag_172:\n        /* \"solmate/mixins/ERC4626.sol\":4795:4802  uint256 */\n      0x00\n        /* \"solmate/mixins/ERC4626.sol\":4821:4844  convertToShares(assets) */\n      tag_383\n        /* \"solmate/mixins/ERC4626.sol\":4837:4843  assets */\n      dup3\n        /* \"solmate/mixins/ERC4626.sol\":4821:4836  convertToShares */\n      tag_151\n        /* \"solmate/mixins/ERC4626.sol\":4821:4844  convertToShares(assets) */\n      jump\t// in\n    tag_383:\n        /* \"solmate/mixins/ERC4626.sol\":4814:4844  return convertToShares(assets) */\n      swap1\n      pop\n        /* \"solmate/mixins/ERC4626.sol\":4726:4851  function previewDeposit(uint256 assets) public view virtual returns (uint256) {... */\n      swap2\n      swap1\n      pop\n      jump\t// out\n        /* \"aave-v2/AaveV2ERC4626.sol\":1889:1928  IAaveMining public immutable aaveMining */\n    tag_175:\n      immutable(\"0xccb1f717aa77602faf03a594761a36956b1c4cf44c6b336d1db57da799b331b8\")\n      dup2\n      jump\t// out\n        /* \"solmate/utils/FixedPointMathLib.sol\":1507:2042  function mulDivDown(... */\n    tag_194:\n        /* \"solmate/utils/FixedPointMathLib.sol\":1623:1632  uint256 z */\n      0x00\n        /* \"solmate/utils/FixedPointMathLib.sol\":1720:1721  y */\n      dup3\n        /* \"solmate/utils/FixedPointMathLib.sol\":1717:1718  x */\n      dup5\n        /* \"solmate/utils/FixedPointMathLib.sol\":1713:1722  mul(x, y) */\n      mul\n        /* \"solmate/utils/FixedPointMathLib.sol\":1708:1722  z := mul(x, y) */\n      swap1\n      pop\n        /* \"solmate/utils/FixedPointMathLib.sol\":1894:1895  y */\n      dup3\n        /* \"solmate/utils/FixedPointMathLib.sol\":1890:1891  x */\n      dup5\n        /* \"solmate/utils/FixedPointMathLib.sol\":1887:1888  z */\n      dup3\n        /* \"solmate/utils/FixedPointMathLib.sol\":1883:1892  div(z, x) */\n      div\n        /* \"solmate/utils/FixedPointMathLib.sol\":1880:1896  eq(div(z, x), y) */\n      eq\n        /* \"solmate/utils/FixedPointMathLib.sol\":1876:1877  x */\n      dup5\n        /* \"solmate/utils/FixedPointMathLib.sol\":1869:1878  iszero(x) */\n      iszero\n        /* \"solmate/utils/FixedPointMathLib.sol\":1866:1897  or(iszero(x), eq(div(z, x), y)) */\n      or\n        /* \"solmate/utils/FixedPointMathLib.sol\":1851:1862  denominator */\n      dup3\n        /* \"solmate/utils/FixedPointMathLib.sol\":1844:1863  iszero(denominator) */\n      iszero\n        /* \"solmate/utils/FixedPointMathLib.sol\":1837:1864  iszero(iszero(denominator)) */\n      iszero\n        /* \"solmate/utils/FixedPointMathLib.sol\":1833:1898  and(iszero(iszero(denominator)), or(iszero(x), eq(div(z, x), y))) */\n      and\n        /* \"solmate/utils/FixedPointMathLib.sol\":1823:1944  if iszero(and(iszero(iszero(denominator)), or(iszero(x), eq(div(z, x), y)))) {... */\n      tag_385\n      jumpi\n        /* \"solmate/utils/FixedPointMathLib.sol\":1928:1929  0 */\n      0x00\n        /* \"solmate/utils/FixedPointMathLib.sol\":1925:1926  0 */\n      dup1\n        /* \"solmate/utils/FixedPointMathLib.sol\":1918:1930  revert(0, 0) */\n      revert\n        /* \"solmate/utils/FixedPointMathLib.sol\":1823:1944  if iszero(and(iszero(iszero(denominator)), or(iszero(x), eq(div(z, x), y)))) {... */\n    tag_385:\n        /* \"solmate/utils/FixedPointMathLib.sol\":2014:2025  denominator */\n      dup2\n        /* \"solmate/utils/FixedPointMathLib.sol\":2011:2012  z */\n      dup2\n        /* \"solmate/utils/FixedPointMathLib.sol\":2007:2026  div(z, denominator) */\n      div\n        /* \"solmate/utils/FixedPointMathLib.sol\":2002:2026  z := div(z, denominator) */\n      swap1\n      pop\n        /* \"solmate/utils/FixedPointMathLib.sol\":1507:2042  function mulDivDown(... */\n      swap4\n      swap3\n      pop\n      pop\n      pop\n      jump\t// out\n        /* \"solmate/utils/FixedPointMathLib.sol\":2048:2800  function mulDivUp(... */\n    tag_202:\n        /* \"solmate/utils/FixedPointMathLib.sol\":2162:2171  uint256 z */\n      0x00\n        /* \"solmate/utils/FixedPointMathLib.sol\":2259:2260  y */\n      dup3\n        /* \"solmate/utils/FixedPointMathLib.sol\":2256:2257  x */\n      dup5\n        /* \"solmate/utils/FixedPointMathLib.sol\":2252:2261  mul(x, y) */\n      mul\n        /* \"solmate/utils/FixedPointMathLib.sol\":2247:2261  z := mul(x, y) */\n      swap1\n      pop\n        /* \"solmate/utils/FixedPointMathLib.sol\":2433:2434  y */\n      dup3\n        /* \"solmate/utils/FixedPointMathLib.sol\":2429:2430  x */\n      dup5\n        /* \"solmate/utils/FixedPointMathLib.sol\":2426:2427  z */\n      dup3\n        /* \"solmate/utils/FixedPointMathLib.sol\":2422:2431  div(z, x) */\n      div\n        /* \"solmate/utils/FixedPointMathLib.sol\":2419:2435  eq(div(z, x), y) */\n      eq\n        /* \"solmate/utils/FixedPointMathLib.sol\":2415:2416  x */\n      dup5\n        /* \"solmate/utils/FixedPointMathLib.sol\":2408:2417  iszero(x) */\n      iszero\n        /* \"solmate/utils/FixedPointMathLib.sol\":2405:2436  or(iszero(x), eq(div(z, x), y)) */\n      or\n        /* \"solmate/utils/FixedPointMathLib.sol\":2390:2401  denominator */\n      dup3\n        /* \"solmate/utils/FixedPointMathLib.sol\":2383:2402  iszero(denominator) */\n      iszero\n        /* \"solmate/utils/FixedPointMathLib.sol\":2376:2403  iszero(iszero(denominator)) */\n      iszero\n        /* \"solmate/utils/FixedPointMathLib.sol\":2372:2437  and(iszero(iszero(denominator)), or(iszero(x), eq(div(z, x), y))) */\n      and\n        /* \"solmate/utils/FixedPointMathLib.sol\":2362:2483  if iszero(and(iszero(iszero(denominator)), or(iszero(x), eq(div(z, x), y)))) {... */\n      tag_387\n      jumpi\n        /* \"solmate/utils/FixedPointMathLib.sol\":2467:2468  0 */\n      0x00\n        /* \"solmate/utils/FixedPointMathLib.sol\":2464:2465  0 */\n      dup1\n        /* \"solmate/utils/FixedPointMathLib.sol\":2457:2469  revert(0, 0) */\n      revert\n        /* \"solmate/utils/FixedPointMathLib.sol\":2362:2483  if iszero(and(iszero(iszero(denominator)), or(iszero(x), eq(div(z, x), y)))) {... */\n    tag_387:\n        /* \"solmate/utils/FixedPointMathLib.sol\":2781:2782  1 */\n      0x01\n        /* \"solmate/utils/FixedPointMathLib.sol\":2767:2778  denominator */\n      dup3\n        /* \"solmate/utils/FixedPointMathLib.sol\":2763:2764  1 */\n      0x01\n        /* \"solmate/utils/FixedPointMathLib.sol\":2760:2761  z */\n      dup4\n        /* \"solmate/utils/FixedPointMathLib.sol\":2756:2765  sub(z, 1) */\n      sub\n        /* \"solmate/utils/FixedPointMathLib.sol\":2752:2779  div(sub(z, 1), denominator) */\n      div\n        /* \"solmate/utils/FixedPointMathLib.sol\":2748:2783  add(div(sub(z, 1), denominator), 1) */\n      add\n        /* \"solmate/utils/FixedPointMathLib.sol\":2743:2744  z */\n      dup2\n        /* \"solmate/utils/FixedPointMathLib.sol\":2736:2745  iszero(z) */\n      iszero\n        /* \"solmate/utils/FixedPointMathLib.sol\":2729:2746  iszero(iszero(z)) */\n      iszero\n        /* \"solmate/utils/FixedPointMathLib.sol\":2725:2784  mul(iszero(iszero(z)), add(div(sub(z, 1), denominator), 1)) */\n      mul\n        /* \"solmate/utils/FixedPointMathLib.sol\":2720:2784  z := mul(iszero(iszero(z)), add(div(sub(z, 1), denominator), 1)) */\n      swap1\n      pop\n        /* \"solmate/utils/FixedPointMathLib.sol\":2048:2800  function mulDivUp(... */\n      swap4\n      swap3\n      pop\n      pop\n      pop\n      jump\t// out\n        /* \"solmate/tokens/ERC20.sol\":5510:5956  function computeDomainSeparator() internal view virtual returns (bytes32) {... */\n    tag_213:\n        /* \"solmate/tokens/ERC20.sol\":5575:5582  bytes32 */\n      0x00\n        /* \"solmate/tokens/ERC20.sol\":5672:5767  keccak256(\"EIP712Domain(string name,string version,uint256 chainId,address verifyingContract)\") */\n      0x8b73c3c69bb8fe3d512ecc4cf759cc79239f7b179b0ffacaa9a75d522b39400f\n        /* \"solmate/tokens/ERC20.sol\":5805:5809  name */\n      0x00\n        /* \"solmate/tokens/ERC20.sol\":5789:5811  keccak256(bytes(name)) */\n      mload(0x40)\n      tag_389\n      swap2\n      swap1\n      tag_390\n      jump\t// in\n    tag_389:\n      mload(0x40)\n      dup1\n      swap2\n      sub\n      swap1\n      keccak256\n        /* \"solmate/tokens/ERC20.sol\":5833:5847  keccak256(\"1\") */\n      0xc89efdaa54c0f20c7adf612882df0950f5a951637e0307cdcb4c672f298b8bc6\n        /* \"solmate/tokens/ERC20.sol\":5869:5882  block.chainid */\n      chainid\n        /* \"solmate/tokens/ERC20.sol\":5912:5916  this */\n      address\n        /* \"solmate/tokens/ERC20.sol\":5640:5935  abi.encode(... */\n      add(0x20, mload(0x40))\n      tag_391\n      swap6\n      swap5\n      swap4\n      swap3\n      swap2\n      swap1\n      tag_392\n      jump\t// in\n    tag_391:\n      mload(0x40)\n      0x20\n      dup2\n      dup4\n      sub\n      sub\n      dup2\n      mstore\n      swap1\n      0x40\n      mstore\n        /* \"solmate/tokens/ERC20.sol\":5613:5949  keccak256(... */\n      dup1\n      mload\n      swap1\n      0x20\n      add\n      keccak256\n        /* \"solmate/tokens/ERC20.sol\":5594:5949  return... */\n      swap1\n      pop\n        /* \"solmate/tokens/ERC20.sol\":5510:5956  function computeDomainSeparator() internal view virtual returns (bytes32) {... */\n      swap1\n      jump\t// out\n        /* \"aave-v2/AaveV2ERC4626.sol\":8643:8767  function _getActive(uint256 configData) internal pure returns (bool) {... */\n    tag_241:\n        /* \"aave-v2/AaveV2ERC4626.sol\":8706:8710  bool */\n      0x00\n        /* \"aave-v2/AaveV2ERC4626.sol\":8759:8760  0 */\n      dup1\n        /* \"aave-v2/AaveV2ERC4626.sol\":1508:1515  1 << 56 */\n      0x0100000000000000\n        /* \"aave-v2/AaveV2ERC4626.sol\":8730:8740  configData */\n      dup4\n        /* \"aave-v2/AaveV2ERC4626.sol\":8730:8754  configData & ACTIVE_MASK */\n      and\n        /* \"aave-v2/AaveV2ERC4626.sol\":8729:8760  (configData & ACTIVE_MASK) != 0 */\n      eq\n      iszero\n        /* \"aave-v2/AaveV2ERC4626.sol\":8722:8760  return (configData & ACTIVE_MASK) != 0 */\n      swap1\n      pop\n        /* \"aave-v2/AaveV2ERC4626.sol\":8643:8767  function _getActive(uint256 configData) internal pure returns (bool) {... */\n      swap2\n      swap1\n      pop\n      jump\t// out\n        /* \"aave-v2/AaveV2ERC4626.sol\":8773:8897  function _getFrozen(uint256 configData) internal pure returns (bool) {... */\n    tag_244:\n        /* \"aave-v2/AaveV2ERC4626.sol\":8836:8840  bool */\n      0x00\n        /* \"aave-v2/AaveV2ERC4626.sol\":8889:8890  0 */\n      dup1\n        /* \"aave-v2/AaveV2ERC4626.sol\":1561:1568  1 << 57 */\n      0x0200000000000000\n        /* \"aave-v2/AaveV2ERC4626.sol\":8860:8870  configData */\n      dup4\n        /* \"aave-v2/AaveV2ERC4626.sol\":8860:8884  configData & FROZEN_MASK */\n      and\n        /* \"aave-v2/AaveV2ERC4626.sol\":8859:8890  (configData & FROZEN_MASK) != 0 */\n      eq\n      iszero\n        /* \"aave-v2/AaveV2ERC4626.sol\":8852:8890  return (configData & FROZEN_MASK) != 0 */\n      swap1\n      pop\n        /* \"aave-v2/AaveV2ERC4626.sol\":8773:8897  function _getFrozen(uint256 configData) internal pure returns (bool) {... */\n      swap2\n      swap1\n      pop\n      jump\t// out\n        /* \"solmate/utils/SafeTransferLib.sol\":1285:2858  function safeTransferFrom(... */\n    tag_254:\n        /* \"solmate/utils/SafeTransferLib.sol\":1423:1435  bool success */\n      0x00\n        /* \"solmate/utils/SafeTransferLib.sol\":1550:1554  0x40 */\n      0x40\n        /* \"solmate/utils/SafeTransferLib.sol\":1544:1555  mload(0x40) */\n      mload\n        /* \"solmate/utils/SafeTransferLib.sol\":1692:1758  0x23b872dd00000000000000000000000000000000000000000000000000000000 */\n      0x23b872dd00000000000000000000000000000000000000000000000000000000\n        /* \"solmate/utils/SafeTransferLib.sol\":1673:1690  freeMemoryPointer */\n      dup2\n        /* \"solmate/utils/SafeTransferLib.sol\":1666:1759  mstore(freeMemoryPointer, 0x23b872dd00000000000000000000000000000000000000000000000000000000) */\n      mstore\n        /* \"solmate/utils/SafeTransferLib.sol\":1806:1810  from */\n      dup5\n        /* \"solmate/utils/SafeTransferLib.sol\":1802:1803  4 */\n      0x04\n        /* \"solmate/utils/SafeTransferLib.sol\":1783:1800  freeMemoryPointer */\n      dup3\n        /* \"solmate/utils/SafeTransferLib.sol\":1779:1804  add(freeMemoryPointer, 4) */\n      add\n        /* \"solmate/utils/SafeTransferLib.sol\":1772:1811  mstore(add(freeMemoryPointer, 4), from) */\n      mstore\n        /* \"solmate/utils/SafeTransferLib.sol\":1890:1892  to */\n      dup4\n        /* \"solmate/utils/SafeTransferLib.sol\":1885:1887  36 */\n      0x24\n        /* \"solmate/utils/SafeTransferLib.sol\":1866:1883  freeMemoryPointer */\n      dup3\n        /* \"solmate/utils/SafeTransferLib.sol\":1862:1888  add(freeMemoryPointer, 36) */\n      add\n        /* \"solmate/utils/SafeTransferLib.sol\":1855:1893  mstore(add(freeMemoryPointer, 36), to) */\n      mstore\n        /* \"solmate/utils/SafeTransferLib.sol\":1970:1976  amount */\n      dup3\n        /* \"solmate/utils/SafeTransferLib.sol\":1965:1967  68 */\n      0x44\n        /* \"solmate/utils/SafeTransferLib.sol\":1946:1963  freeMemoryPointer */\n      dup3\n        /* \"solmate/utils/SafeTransferLib.sol\":1942:1968  add(freeMemoryPointer, 68) */\n      add\n        /* \"solmate/utils/SafeTransferLib.sol\":1935:1977  mstore(add(freeMemoryPointer, 68), amount) */\n      mstore\n        /* \"solmate/utils/SafeTransferLib.sol\":2774:2776  32 */\n      0x20\n        /* \"solmate/utils/SafeTransferLib.sol\":2771:2772  0 */\n      0x00\n        /* \"solmate/utils/SafeTransferLib.sol\":2766:2769  100 */\n      0x64\n        /* \"solmate/utils/SafeTransferLib.sol\":2747:2764  freeMemoryPointer */\n      dup4\n        /* \"solmate/utils/SafeTransferLib.sol\":2744:2745  0 */\n      0x00\n        /* \"solmate/utils/SafeTransferLib.sol\":2737:2742  token */\n      dup11\n        /* \"solmate/utils/SafeTransferLib.sol\":2730:2735  gas() */\n      gas\n        /* \"solmate/utils/SafeTransferLib.sol\":2725:2777  call(gas(), token, 0, freeMemoryPointer, 100, 0, 32) */\n      call\n        /* \"solmate/utils/SafeTransferLib.sol\":2293:2309  returndatasize() */\n      returndatasize\n        /* \"solmate/utils/SafeTransferLib.sol\":2286:2310  iszero(returndatasize()) */\n      iszero\n        /* \"solmate/utils/SafeTransferLib.sol\":2280:2282  31 */\n      0x1f\n        /* \"solmate/utils/SafeTransferLib.sol\":2262:2278  returndatasize() */\n      returndatasize\n        /* \"solmate/utils/SafeTransferLib.sol\":2259:2283  gt(returndatasize(), 31) */\n      gt\n        /* \"solmate/utils/SafeTransferLib.sol\":2255:2256  1 */\n      0x01\n        /* \"solmate/utils/SafeTransferLib.sol\":2251:2252  0 */\n      0x00\n        /* \"solmate/utils/SafeTransferLib.sol\":2245:2253  mload(0) */\n      mload\n        /* \"solmate/utils/SafeTransferLib.sol\":2242:2257  eq(mload(0), 1) */\n      eq\n        /* \"solmate/utils/SafeTransferLib.sol\":2238:2284  and(eq(mload(0), 1), gt(returndatasize(), 31)) */\n      and\n        /* \"solmate/utils/SafeTransferLib.sol\":2235:2311  or(and(eq(mload(0), 1), gt(returndatasize(), 31)), iszero(returndatasize())) */\n      or\n        /* \"solmate/utils/SafeTransferLib.sol\":2035:2791  and(... */\n      and\n        /* \"solmate/utils/SafeTransferLib.sol\":2024:2791  success := and(... */\n      swap2\n      pop\n        /* \"solmate/utils/SafeTransferLib.sol\":1455:2801  {... */\n      pop\n        /* \"solmate/utils/SafeTransferLib.sol\":2819:2826  success */\n      dup1\n        /* \"solmate/utils/SafeTransferLib.sol\":2811:2851  require(success, \"TRANSFER_FROM_FAILED\") */\n      tag_396\n      jumpi\n      mload(0x40)\n      0x08c379a000000000000000000000000000000000000000000000000000000000\n      dup2\n      mstore\n      0x04\n      add\n      tag_397\n      swap1\n      tag_398\n      jump\t// in\n    tag_397:\n      mload(0x40)\n      dup1\n      swap2\n      sub\n      swap1\n      revert\n    tag_396:\n        /* \"solmate/utils/SafeTransferLib.sol\":1413:2858  {... */\n      pop\n        /* \"solmate/utils/SafeTransferLib.sol\":1285:2858  function safeTransferFrom(... */\n      pop\n      pop\n      pop\n      pop\n      jump\t// out\n        /* \"solmate/tokens/ERC20.sol\":6150:6475  function _mint(address to, uint256 amount) internal virtual {... */\n    tag_256:\n        /* \"solmate/tokens/ERC20.sol\":6235:6241  amount */\n      dup1\n        /* \"solmate/tokens/ERC20.sol\":6220:6231  totalSupply */\n      0x02\n      0x00\n        /* \"solmate/tokens/ERC20.sol\":6220:6241  totalSupply += amount */\n      dup3\n      dup3\n      sload\n      tag_400\n      swap2\n      swap1\n      tag_401\n      jump\t// in\n    tag_400:\n      swap3\n      pop\n      pop\n      dup2\n      swap1\n      sstore\n      pop\n        /* \"solmate/tokens/ERC20.sol\":6404:6410  amount */\n      dup1\n        /* \"solmate/tokens/ERC20.sol\":6387:6396  balanceOf */\n      0x03\n        /* \"solmate/tokens/ERC20.sol\":6387:6400  balanceOf[to] */\n      0x00\n        /* \"solmate/tokens/ERC20.sol\":6397:6399  to */\n      dup5\n        /* \"solmate/tokens/ERC20.sol\":6387:6400  balanceOf[to] */\n      0xffffffffffffffffffffffffffffffffffffffff\n      and\n      0xffffffffffffffffffffffffffffffffffffffff\n      and\n      dup2\n      mstore\n      0x20\n      add\n      swap1\n      dup2\n      mstore\n      0x20\n      add\n      0x00\n      keccak256\n      0x00\n        /* \"solmate/tokens/ERC20.sol\":6387:6410  balanceOf[to] += amount */\n      dup3\n      dup3\n      sload\n      add\n      swap3\n      pop\n      pop\n      dup2\n      swap1\n      sstore\n      pop\n        /* \"solmate/tokens/ERC20.sol\":6457:6459  to */\n      dup2\n        /* \"solmate/tokens/ERC20.sol\":6436:6468  Transfer(address(0), to, amount) */\n      0xffffffffffffffffffffffffffffffffffffffff\n      and\n        /* \"solmate/tokens/ERC20.sol\":6453:6454  0 */\n      0x00\n        /* \"solmate/tokens/ERC20.sol\":6436:6468  Transfer(address(0), to, amount) */\n      0xffffffffffffffffffffffffffffffffffffffff\n      and\n      0xddf252ad1be2c89b69c2b068fc378daa952ba7f163c4a11628f55a4df523b3ef\n        /* \"solmate/tokens/ERC20.sol\":6461:6467  amount */\n      dup4\n        /* \"solmate/tokens/ERC20.sol\":6436:6468  Transfer(address(0), to, amount) */\n      mload(0x40)\n      tag_402\n      swap2\n      swap1\n      tag_46\n      jump\t// in\n    tag_402:\n      mload(0x40)\n      dup1\n      swap2\n      sub\n      swap1\n      log3\n        /* \"solmate/tokens/ERC20.sol\":6150:6475  function _mint(address to, uint256 amount) internal virtual {... */\n      pop\n      pop\n      jump\t// out\n        /* \"aave-v2/AaveV2ERC4626.sol\":5281:5778  function afterDeposit(uint256 assets, uint256 /*shares*/ ) internal virtual override {... */\n    tag_260:\n        /* \"aave-v2/AaveV2ERC4626.sol\":5616:5663  asset.safeApprove(address(lendingPool), assets) */\n      tag_404\n        /* \"aave-v2/AaveV2ERC4626.sol\":5642:5653  lendingPool */\n      immutable(\"0x59c0d2b7af0a8e6d3d8e710a078764bd67b7223777026c424cdb4f599824bb79\")\n        /* \"aave-v2/AaveV2ERC4626.sol\":5656:5662  assets */\n      dup4\n        /* \"aave-v2/AaveV2ERC4626.sol\":5616:5621  asset */\n      immutable(\"0x56727611acac576685e7cf941f4f1cbe100ee8111d8451aad4d429b252500f29\")\n        /* \"aave-v2/AaveV2ERC4626.sol\":5616:5633  asset.safeApprove */\n      0xffffffffffffffffffffffffffffffffffffffff\n      and\n      tag_405\n      swap1\n        /* \"aave-v2/AaveV2ERC4626.sol\":5616:5663  asset.safeApprove(address(lendingPool), assets) */\n      swap3\n      swap2\n      swap1\n      0xffffffff\n      and\n      jump\t// in\n    tag_404:\n        /* \"aave-v2/AaveV2ERC4626.sol\":5710:5721  lendingPool */\n      immutable(\"0x59c0d2b7af0a8e6d3d8e710a078764bd67b7223777026c424cdb4f599824bb79\")\n        /* \"aave-v2/AaveV2ERC4626.sol\":5710:5729  lendingPool.deposit */\n      0xffffffffffffffffffffffffffffffffffffffff\n      and\n      0xe8eda9df\n        /* \"aave-v2/AaveV2ERC4626.sol\":5738:5743  asset */\n      immutable(\"0x56727611acac576685e7cf941f4f1cbe100ee8111d8451aad4d429b252500f29\")\n        /* \"aave-v2/AaveV2ERC4626.sol\":5746:5752  assets */\n      dup5\n        /* \"aave-v2/AaveV2ERC4626.sol\":5762:5766  this */\n      address\n        /* \"aave-v2/AaveV2ERC4626.sol\":5769:5770  0 */\n      0x00\n        /* \"aave-v2/AaveV2ERC4626.sol\":5710:5771  lendingPool.deposit(address(asset), assets, address(this), 0) */\n      mload(0x40)\n      dup6\n      0xffffffff\n      and\n      0xe0\n      shl\n      dup2\n      mstore\n      0x04\n      add\n      tag_406\n      swap5\n      swap4\n      swap3\n      swap2\n      swap1\n      tag_407\n      jump\t// in\n    tag_406:\n      0x00\n      mload(0x40)\n      dup1\n      dup4\n      sub\n      dup2\n      0x00\n      dup8\n      dup1\n      extcodesize\n      iszero\n      dup1\n      iszero\n      tag_408\n      jumpi\n      0x00\n      dup1\n      revert\n    tag_408:\n      pop\n      gas\n      call\n      iszero\n      dup1\n      iszero\n      tag_410\n      jumpi\n      returndatasize\n      0x00\n      dup1\n      returndatacopy\n      revert(0x00, returndatasize)\n    tag_410:\n      pop\n      pop\n      pop\n      pop\n        /* \"aave-v2/AaveV2ERC4626.sol\":5281:5778  function afterDeposit(uint256 assets, uint256 /*shares*/ ) internal virtual override {... */\n      pop\n      pop\n      jump\t// out\n        /* \"solmate/mixins/ERC4626.sol\":6362:6437  function beforeWithdraw(uint256 assets, uint256 shares) internal virtual {} */\n    tag_286:\n      pop\n      pop\n      jump\t// out\n        /* \"solmate/tokens/ERC20.sol\":6481:6809  function _burn(address from, uint256 amount) internal virtual {... */\n    tag_288:\n        /* \"solmate/tokens/ERC20.sol\":6572:6578  amount */\n      dup1\n        /* \"solmate/tokens/ERC20.sol\":6553:6562  balanceOf */\n      0x03\n        /* \"solmate/tokens/ERC20.sol\":6553:6568  balanceOf[from] */\n      0x00\n        /* \"solmate/tokens/ERC20.sol\":6563:6567  from */\n      dup5\n        /* \"solmate/tokens/ERC20.sol\":6553:6568  balanceOf[from] */\n      0xffffffffffffffffffffffffffffffffffffffff\n      and\n      0xffffffffffffffffffffffffffffffffffffffff\n      and\n      dup2\n      mstore\n      0x20\n      add\n      swap1\n      dup2\n      mstore\n      0x20\n      add\n      0x00\n      keccak256\n      0x00\n        /* \"solmate/tokens/ERC20.sol\":6553:6578  balanceOf[from] -= amount */\n      dup3\n      dup3\n      sload\n      tag_413\n      swap2\n      swap1\n      tag_207\n      jump\t// in\n    tag_413:\n      swap3\n      pop\n      pop\n      dup2\n      swap1\n      sstore\n      pop\n        /* \"solmate/tokens/ERC20.sol\":6736:6742  amount */\n      dup1\n        /* \"solmate/tokens/ERC20.sol\":6721:6732  totalSupply */\n      0x02\n      0x00\n        /* \"solmate/tokens/ERC20.sol\":6721:6742  totalSupply -= amount */\n      dup3\n      dup3\n      sload\n      sub\n      swap3\n      pop\n      pop\n      dup2\n      swap1\n      sstore\n      pop\n        /* \"solmate/tokens/ERC20.sol\":6791:6792  0 */\n      0x00\n        /* \"solmate/tokens/ERC20.sol\":6768:6802  Transfer(from, address(0), amount) */\n      0xffffffffffffffffffffffffffffffffffffffff\n      and\n        /* \"solmate/tokens/ERC20.sol\":6777:6781  from */\n      dup3\n        /* \"solmate/tokens/ERC20.sol\":6768:6802  Transfer(from, address(0), amount) */\n      0xffffffffffffffffffffffffffffffffffffffff\n      and\n      0xddf252ad1be2c89b69c2b068fc378daa952ba7f163c4a11628f55a4df523b3ef\n        /* \"solmate/tokens/ERC20.sol\":6795:6801  amount */\n      dup4\n        /* \"solmate/tokens/ERC20.sol\":6768:6802  Transfer(from, address(0), amount) */\n      mload(0x40)\n      tag_414\n      swap2\n      swap1\n      tag_46\n      jump\t// in\n    tag_414:\n      mload(0x40)\n      dup1\n      swap2\n      sub\n      swap1\n      log3\n        /* \"solmate/tokens/ERC20.sol\":6481:6809  function _burn(address from, uint256 amount) internal virtual {... */\n      pop\n      pop\n      jump\t// out\n        /* \"solmate/utils/SafeTransferLib.sol\":4326:5780  function safeApprove(... */\n    tag_405:\n        /* \"solmate/utils/SafeTransferLib.sol\":4437:4449  bool success */\n      0x00\n        /* \"solmate/utils/SafeTransferLib.sol\":4564:4568  0x40 */\n      0x40\n        /* \"solmate/utils/SafeTransferLib.sol\":4558:4569  mload(0x40) */\n      mload\n        /* \"solmate/utils/SafeTransferLib.sol\":4706:4772  0x095ea7b300000000000000000000000000000000000000000000000000000000 */\n      0x095ea7b300000000000000000000000000000000000000000000000000000000\n        /* \"solmate/utils/SafeTransferLib.sol\":4687:4704  freeMemoryPointer */\n      dup2\n        /* \"solmate/utils/SafeTransferLib.sol\":4680:4773  mstore(freeMemoryPointer, 0x095ea7b300000000000000000000000000000000000000000000000000000000) */\n      mstore\n        /* \"solmate/utils/SafeTransferLib.sol\":4820:4822  to */\n      dup4\n        /* \"solmate/utils/SafeTransferLib.sol\":4816:4817  4 */\n      0x04\n        /* \"solmate/utils/SafeTransferLib.sol\":4797:4814  freeMemoryPointer */\n      dup3\n        /* \"solmate/utils/SafeTransferLib.sol\":4793:4818  add(freeMemoryPointer, 4) */\n      add\n        /* \"solmate/utils/SafeTransferLib.sol\":4786:4823  mstore(add(freeMemoryPointer, 4), to) */\n      mstore\n        /* \"solmate/utils/SafeTransferLib.sol\":4900:4906  amount */\n      dup3\n        /* \"solmate/utils/SafeTransferLib.sol\":4895:4897  36 */\n      0x24\n        /* \"solmate/utils/SafeTransferLib.sol\":4876:4893  freeMemoryPointer */\n      dup3\n        /* \"solmate/utils/SafeTransferLib.sol\":4872:4898  add(freeMemoryPointer, 36) */\n      add\n        /* \"solmate/utils/SafeTransferLib.sol\":4865:4907  mstore(add(freeMemoryPointer, 36), amount) */\n      mstore\n        /* \"solmate/utils/SafeTransferLib.sol\":5702:5704  32 */\n      0x20\n        /* \"solmate/utils/SafeTransferLib.sol\":5699:5700  0 */\n      0x00\n        /* \"solmate/utils/SafeTransferLib.sol\":5695:5697  68 */\n      0x44\n        /* \"solmate/utils/SafeTransferLib.sol\":5676:5693  freeMemoryPointer */\n      dup4\n        /* \"solmate/utils/SafeTransferLib.sol\":5673:5674  0 */\n      0x00\n        /* \"solmate/utils/SafeTransferLib.sol\":5666:5671  token */\n      dup10\n        /* \"solmate/utils/SafeTransferLib.sol\":5659:5664  gas() */\n      gas\n        /* \"solmate/utils/SafeTransferLib.sol\":5654:5705  call(gas(), token, 0, freeMemoryPointer, 68, 0, 32) */\n      call\n        /* \"solmate/utils/SafeTransferLib.sol\":5223:5239  returndatasize() */\n      returndatasize\n        /* \"solmate/utils/SafeTransferLib.sol\":5216:5240  iszero(returndatasize()) */\n      iszero\n        /* \"solmate/utils/SafeTransferLib.sol\":5210:5212  31 */\n      0x1f\n        /* \"solmate/utils/SafeTransferLib.sol\":5192:5208  returndatasize() */\n      returndatasize\n        /* \"solmate/utils/SafeTransferLib.sol\":5189:5213  gt(returndatasize(), 31) */\n      gt\n        /* \"solmate/utils/SafeTransferLib.sol\":5185:5186  1 */\n      0x01\n        /* \"solmate/utils/SafeTransferLib.sol\":5181:5182  0 */\n      0x00\n        /* \"solmate/utils/SafeTransferLib.sol\":5175:5183  mload(0) */\n      mload\n        /* \"solmate/utils/SafeTransferLib.sol\":5172:5187  eq(mload(0), 1) */\n      eq\n        /* \"solmate/utils/SafeTransferLib.sol\":5168:5214  and(eq(mload(0), 1), gt(returndatasize(), 31)) */\n      and\n        /* \"solmate/utils/SafeTransferLib.sol\":5165:5241  or(and(eq(mload(0), 1), gt(returndatasize(), 31)), iszero(returndatasize())) */\n      or\n        /* \"solmate/utils/SafeTransferLib.sol\":4965:5719  and(... */\n      and\n        /* \"solmate/utils/SafeTransferLib.sol\":4954:5719  success := and(... */\n      swap2\n      pop\n        /* \"solmate/utils/SafeTransferLib.sol\":4469:5729  {... */\n      pop\n        /* \"solmate/utils/SafeTransferLib.sol\":5747:5754  success */\n      dup1\n        /* \"solmate/utils/SafeTransferLib.sol\":5739:5773  require(success, \"APPROVE_FAILED\") */\n      tag_416\n      jumpi\n      mload(0x40)\n      0x08c379a000000000000000000000000000000000000000000000000000000000\n      dup2\n      mstore\n      0x04\n      add\n      tag_417\n      swap1\n      tag_418\n      jump\t// in\n    tag_417:\n      mload(0x40)\n      dup1\n      swap2\n      sub\n      swap1\n      revert\n    tag_416:\n        /* \"solmate/utils/SafeTransferLib.sol\":4427:5780  {... */\n      pop\n        /* \"solmate/utils/SafeTransferLib.sol\":4326:5780  function safeApprove(... */\n      pop\n      pop\n      pop\n      jump\t// out\n        /* \"#utility.yul\":7:84   */\n    tag_419:\n        /* \"#utility.yul\":44:51   */\n      0x00\n        /* \"#utility.yul\":73:78   */\n      dup2\n        /* \"#utility.yul\":62:78   */\n      swap1\n      pop\n        /* \"#utility.yul\":7:84   */\n      swap2\n      swap1\n      pop\n      jump\t// out\n        /* \"#utility.yul\":90:208   */\n    tag_420:\n        /* \"#utility.yul\":177:201   */\n      tag_508\n        /* \"#utility.yul\":195:200   */\n      dup2\n        /* \"#utility.yul\":177:201   */\n      tag_419\n      jump\t// in\n    tag_508:\n        /* \"#utility.yul\":172:175   */\n      dup3\n        /* \"#utility.yul\":165:202   */\n      mstore\n        /* \"#utility.yul\":90:208   */\n      pop\n      pop\n      jump\t// out\n        /* \"#utility.yul\":214:436   */\n    tag_46:\n        /* \"#utility.yul\":307:311   */\n      0x00\n        /* \"#utility.yul\":345:347   */\n      0x20\n        /* \"#utility.yul\":334:343   */\n      dup3\n        /* \"#utility.yul\":330:348   */\n      add\n        /* \"#utility.yul\":322:348   */\n      swap1\n      pop\n        /* \"#utility.yul\":358:429   */\n      tag_510\n        /* \"#utility.yul\":426:427   */\n      0x00\n        /* \"#utility.yul\":415:424   */\n      dup4\n        /* \"#utility.yul\":411:428   */\n      add\n        /* \"#utility.yul\":402:408   */\n      dup5\n        /* \"#utility.yul\":358:429   */\n      tag_420\n      jump\t// in\n    tag_510:\n        /* \"#utility.yul\":214:436   */\n      swap3\n      swap2\n      pop\n      pop\n      jump\t// out\n        /* \"#utility.yul\":442:541   */\n    tag_421:\n        /* \"#utility.yul\":494:500   */\n      0x00\n        /* \"#utility.yul\":528:533   */\n      dup2\n        /* \"#utility.yul\":522:534   */\n      mload\n        /* \"#utility.yul\":512:534   */\n      swap1\n      pop\n        /* \"#utility.yul\":442:541   */\n      swap2\n      swap1\n      pop\n      jump\t// out\n        /* \"#utility.yul\":547:716   */\n    tag_422:\n        /* \"#utility.yul\":631:642   */\n      0x00\n        /* \"#utility.yul\":665:671   */\n      dup3\n        /* \"#utility.yul\":660:663   */\n      dup3\n        /* \"#utility.yul\":653:672   */\n      mstore\n        /* \"#utility.yul\":705:709   */\n      0x20\n        /* \"#utility.yul\":700:703   */\n      dup3\n        /* \"#utility.yul\":696:710   */\n      add\n        /* \"#utility.yul\":681:710   */\n      swap1\n      pop\n        /* \"#utility.yul\":547:716   */\n      swap3\n      swap2\n      pop\n      pop\n      jump\t// out\n        /* \"#utility.yul\":722:968   */\n    tag_423:\n        /* \"#utility.yul\":803:804   */\n      0x00\n        /* \"#utility.yul\":813:926   */\n    tag_514:\n        /* \"#utility.yul\":827:833   */\n      dup4\n        /* \"#utility.yul\":824:825   */\n      dup2\n        /* \"#utility.yul\":821:834   */\n      lt\n        /* \"#utility.yul\":813:926   */\n      iszero\n      tag_516\n      jumpi\n        /* \"#utility.yul\":912:913   */\n      dup1\n        /* \"#utility.yul\":907:910   */\n      dup3\n        /* \"#utility.yul\":903:914   */\n      add\n        /* \"#utility.yul\":897:915   */\n      mload\n        /* \"#utility.yul\":893:894   */\n      dup2\n        /* \"#utility.yul\":888:891   */\n      dup5\n        /* \"#utility.yul\":884:895   */\n      add\n        /* \"#utility.yul\":877:916   */\n      mstore\n        /* \"#utility.yul\":849:851   */\n      0x20\n        /* \"#utility.yul\":846:847   */\n      dup2\n        /* \"#utility.yul\":842:852   */\n      add\n        /* \"#utility.yul\":837:852   */\n      swap1\n      pop\n        /* \"#utility.yul\":813:926   */\n      jump(tag_514)\n    tag_516:\n        /* \"#utility.yul\":960:961   */\n      0x00\n        /* \"#utility.yul\":951:957   */\n      dup5\n        /* \"#utility.yul\":946:949   */\n      dup5\n        /* \"#utility.yul\":942:958   */\n      add\n        /* \"#utility.yul\":935:962   */\n      mstore\n        /* \"#utility.yul\":784:968   */\n      pop\n        /* \"#utility.yul\":722:968   */\n      pop\n      pop\n      pop\n      jump\t// out\n        /* \"#utility.yul\":974:1076   */\n    tag_424:\n        /* \"#utility.yul\":1015:1021   */\n      0x00\n        /* \"#utility.yul\":1066:1068   */\n      0x1f\n        /* \"#utility.yul\":1062:1069   */\n      not\n        /* \"#utility.yul\":1057:1059   */\n      0x1f\n        /* \"#utility.yul\":1050:1055   */\n      dup4\n        /* \"#utility.yul\":1046:1060   */\n      add\n        /* \"#utility.yul\":1042:1070   */\n      and\n        /* \"#utility.yul\":1032:1070   */\n      swap1\n      pop\n        /* \"#utility.yul\":974:1076   */\n      swap2\n      swap1\n      pop\n      jump\t// out\n        /* \"#utility.yul\":1082:1459   */\n    tag_425:\n        /* \"#utility.yul\":1170:1173   */\n      0x00\n        /* \"#utility.yul\":1198:1237   */\n      tag_519\n        /* \"#utility.yul\":1231:1236   */\n      dup3\n        /* \"#utility.yul\":1198:1237   */\n      tag_421\n      jump\t// in\n    tag_519:\n        /* \"#utility.yul\":1253:1324   */\n      tag_520\n        /* \"#utility.yul\":1317:1323   */\n      dup2\n        /* \"#utility.yul\":1312:1315   */\n      dup6\n        /* \"#utility.yul\":1253:1324   */\n      tag_422\n      jump\t// in\n    tag_520:\n        /* \"#utility.yul\":1246:1324   */\n      swap4\n      pop\n        /* \"#utility.yul\":1333:1398   */\n      tag_521\n        /* \"#utility.yul\":1391:1397   */\n      dup2\n        /* \"#utility.yul\":1386:1389   */\n      dup6\n        /* \"#utility.yul\":1379:1383   */\n      0x20\n        /* \"#utility.yul\":1372:1377   */\n      dup7\n        /* \"#utility.yul\":1368:1384   */\n      add\n        /* \"#utility.yul\":1333:1398   */\n      tag_423\n      jump\t// in\n    tag_521:\n        /* \"#utility.yul\":1423:1452   */\n      tag_522\n        /* \"#utility.yul\":1445:1451   */\n      dup2\n        /* \"#utility.yul\":1423:1452   */\n      tag_424\n      jump\t// in\n    tag_522:\n        /* \"#utility.yul\":1418:1421   */\n      dup5\n        /* \"#utility.yul\":1414:1453   */\n      add\n        /* \"#utility.yul\":1407:1453   */\n      swap2\n      pop\n        /* \"#utility.yul\":1174:1459   */\n      pop\n        /* \"#utility.yul\":1082:1459   */\n      swap3\n      swap2\n      pop\n      pop\n      jump\t// out\n        /* \"#utility.yul\":1465:1778   */\n    tag_50:\n        /* \"#utility.yul\":1578:1582   */\n      0x00\n        /* \"#utility.yul\":1616:1618   */\n      0x20\n        /* \"#utility.yul\":1605:1614   */\n      dup3\n        /* \"#utility.yul\":1601:1619   */\n      add\n        /* \"#utility.yul\":1593:1619   */\n      swap1\n      pop\n        /* \"#utility.yul\":1665:1674   */\n      dup2\n        /* \"#utility.yul\":1659:1663   */\n      dup2\n        /* \"#utility.yul\":1655:1675   */\n      sub\n        /* \"#utility.yul\":1651:1652   */\n      0x00\n        /* \"#utility.yul\":1640:1649   */\n      dup4\n        /* \"#utility.yul\":1636:1653   */\n      add\n        /* \"#utility.yul\":1629:1676   */\n      mstore\n        /* \"#utility.yul\":1693:1771   */\n      tag_524\n        /* \"#utility.yul\":1766:1770   */\n      dup2\n        /* \"#utility.yul\":1757:1763   */\n      dup5\n        /* \"#utility.yul\":1693:1771   */\n      tag_425\n      jump\t// in\n    tag_524:\n        /* \"#utility.yul\":1685:1771   */\n      swap1\n      pop\n        /* \"#utility.yul\":1465:1778   */\n      swap3\n      swap2\n      pop\n      pop\n      jump\t// out\n        /* \"#utility.yul\":1784:1859   */\n    tag_426:\n        /* \"#utility.yul\":1817:1823   */\n      0x00\n        /* \"#utility.yul\":1850:1852   */\n      0x40\n        /* \"#utility.yul\":1844:1853   */\n      mload\n        /* \"#utility.yul\":1834:1853   */\n      swap1\n      pop\n        /* \"#utility.yul\":1784:1859   */\n      swap1\n      jump\t// out\n        /* \"#utility.yul\":1865:1982   */\n    tag_427:\n        /* \"#utility.yul\":1974:1975   */\n      0x00\n        /* \"#utility.yul\":1971:1972   */\n      dup1\n        /* \"#utility.yul\":1964:1976   */\n      revert\n        /* \"#utility.yul\":2111:2233   */\n    tag_429:\n        /* \"#utility.yul\":2184:2208   */\n      tag_529\n        /* \"#utility.yul\":2202:2207   */\n      dup2\n        /* \"#utility.yul\":2184:2208   */\n      tag_419\n      jump\t// in\n    tag_529:\n        /* \"#utility.yul\":2177:2182   */\n      dup2\n        /* \"#utility.yul\":2174:2209   */\n      eq\n        /* \"#utility.yul\":2164:2227   */\n      tag_530\n      jumpi\n        /* \"#utility.yul\":2223:2224   */\n      0x00\n        /* \"#utility.yul\":2220:2221   */\n      dup1\n        /* \"#utility.yul\":2213:2225   */\n      revert\n        /* \"#utility.yul\":2164:2227   */\n    tag_530:\n        /* \"#utility.yul\":2111:2233   */\n      pop\n      jump\t// out\n        /* \"#utility.yul\":2239:2378   */\n    tag_430:\n        /* \"#utility.yul\":2285:2290   */\n      0x00\n        /* \"#utility.yul\":2323:2329   */\n      dup2\n        /* \"#utility.yul\":2310:2330   */\n      calldataload\n        /* \"#utility.yul\":2301:2330   */\n      swap1\n      pop\n        /* \"#utility.yul\":2339:2372   */\n      tag_532\n        /* \"#utility.yul\":2366:2371   */\n      dup2\n        /* \"#utility.yul\":2339:2372   */\n      tag_429\n      jump\t// in\n    tag_532:\n        /* \"#utility.yul\":2239:2378   */\n      swap3\n      swap2\n      pop\n      pop\n      jump\t// out\n        /* \"#utility.yul\":2384:2713   */\n    tag_53:\n        /* \"#utility.yul\":2443:2449   */\n      0x00\n        /* \"#utility.yul\":2492:2494   */\n      0x20\n        /* \"#utility.yul\":2480:2489   */\n      dup3\n        /* \"#utility.yul\":2471:2478   */\n      dup5\n        /* \"#utility.yul\":2467:2490   */\n      sub\n        /* \"#utility.yul\":2463:2495   */\n      slt\n        /* \"#utility.yul\":2460:2579   */\n      iszero\n      tag_534\n      jumpi\n        /* \"#utility.yul\":2498:2577   */\n      tag_535\n      tag_427\n      jump\t// in\n    tag_535:\n        /* \"#utility.yul\":2460:2579   */\n    tag_534:\n        /* \"#utility.yul\":2618:2619   */\n      0x00\n        /* \"#utility.yul\":2643:2696   */\n      tag_536\n        /* \"#utility.yul\":2688:2695   */\n      dup5\n        /* \"#utility.yul\":2679:2685   */\n      dup3\n        /* \"#utility.yul\":2668:2677   */\n      dup6\n        /* \"#utility.yul\":2664:2686   */\n      add\n        /* \"#utility.yul\":2643:2696   */\n      tag_430\n      jump\t// in\n    tag_536:\n        /* \"#utility.yul\":2633:2696   */\n      swap2\n      pop\n        /* \"#utility.yul\":2589:2706   */\n      pop\n        /* \"#utility.yul\":2384:2713   */\n      swap3\n      swap2\n      pop\n      pop\n      jump\t// out\n        /* \"#utility.yul\":2719:2845   */\n    tag_431:\n        /* \"#utility.yul\":2756:2763   */\n      0x00\n        /* \"#utility.yul\":2796:2838   */\n      0xffffffffffffffffffffffffffffffffffffffff\n        /* \"#utility.yul\":2789:2794   */\n      dup3\n        /* \"#utility.yul\":2785:2839   */\n      and\n        /* \"#utility.yul\":2774:2839   */\n      swap1\n      pop\n        /* \"#utility.yul\":2719:2845   */\n      swap2\n      swap1\n      pop\n      jump\t// out\n        /* \"#utility.yul\":2851:2947   */\n    tag_432:\n        /* \"#utility.yul\":2888:2895   */\n      0x00\n        /* \"#utility.yul\":2917:2941   */\n      tag_539\n        /* \"#utility.yul\":2935:2940   */\n      dup3\n        /* \"#utility.yul\":2917:2941   */\n      tag_431\n      jump\t// in\n    tag_539:\n        /* \"#utility.yul\":2906:2941   */\n      swap1\n      pop\n        /* \"#utility.yul\":2851:2947   */\n      swap2\n      swap1\n      pop\n      jump\t// out\n        /* \"#utility.yul\":2953:3075   */\n    tag_433:\n        /* \"#utility.yul\":3026:3050   */\n      tag_541\n        /* \"#utility.yul\":3044:3049   */\n      dup2\n        /* \"#utility.yul\":3026:3050   */\n      tag_432\n      jump\t// in\n    tag_541:\n        /* \"#utility.yul\":3019:3024   */\n      dup2\n        /* \"#utility.yul\":3016:3051   */\n      eq\n        /* \"#utility.yul\":3006:3069   */\n      tag_542\n      jumpi\n        /* \"#utility.yul\":3065:3066   */\n      0x00\n        /* \"#utility.yul\":3062:3063   */\n      dup1\n        /* \"#utility.yul\":3055:3067   */\n      revert\n        /* \"#utility.yul\":3006:3069   */\n    tag_542:\n        /* \"#utility.yul\":2953:3075   */\n      pop\n      jump\t// out\n        /* \"#utility.yul\":3081:3220   */\n    tag_434:\n        /* \"#utility.yul\":3127:3132   */\n      0x00\n        /* \"#utility.yul\":3165:3171   */\n      dup2\n        /* \"#utility.yul\":3152:3172   */\n      calldataload\n        /* \"#utility.yul\":3143:3172   */\n      swap1\n      pop\n        /* \"#utility.yul\":3181:3214   */\n      tag_544\n        /* \"#utility.yul\":3208:3213   */\n      dup2\n        /* \"#utility.yul\":3181:3214   */\n      tag_433\n      jump\t// in\n    tag_544:\n        /* \"#utility.yul\":3081:3220   */\n      swap3\n      swap2\n      pop\n      pop\n      jump\t// out\n        /* \"#utility.yul\":3226:3700   */\n    tag_58:\n        /* \"#utility.yul\":3294:3300   */\n      0x00\n        /* \"#utility.yul\":3302:3308   */\n      dup1\n        /* \"#utility.yul\":3351:3353   */\n      0x40\n        /* \"#utility.yul\":3339:3348   */\n      dup4\n        /* \"#utility.yul\":3330:3337   */\n      dup6\n        /* \"#utility.yul\":3326:3349   */\n      sub\n        /* \"#utility.yul\":3322:3354   */\n      slt\n        /* \"#utility.yul\":3319:3438   */\n      iszero\n      tag_546\n      jumpi\n        /* \"#utility.yul\":3357:3436   */\n      tag_547\n      tag_427\n      jump\t// in\n    tag_547:\n        /* \"#utility.yul\":3319:3438   */\n    tag_546:\n        /* \"#utility.yul\":3477:3478   */\n      0x00\n        /* \"#utility.yul\":3502:3555   */\n      tag_548\n        /* \"#utility.yul\":3547:3554   */\n      dup6\n        /* \"#utility.yul\":3538:3544   */\n      dup3\n        /* \"#utility.yul\":3527:3536   */\n      dup7\n        /* \"#utility.yul\":3523:3545   */\n      add\n        /* \"#utility.yul\":3502:3555   */\n      tag_434\n      jump\t// in\n    tag_548:\n        /* \"#utility.yul\":3492:3555   */\n      swap3\n      pop\n        /* \"#utility.yul\":3448:3565   */\n      pop\n        /* \"#utility.yul\":3604:3606   */\n      0x20\n        /* \"#utility.yul\":3630:3683   */\n      tag_549\n        /* \"#utility.yul\":3675:3682   */\n      dup6\n        /* \"#utility.yul\":3666:3672   */\n      dup3\n        /* \"#utility.yul\":3655:3664   */\n      dup7\n        /* \"#utility.yul\":3651:3673   */\n      add\n        /* \"#utility.yul\":3630:3683   */\n      tag_430\n      jump\t// in\n    tag_549:\n        /* \"#utility.yul\":3620:3683   */\n      swap2\n      pop\n        /* \"#utility.yul\":3575:3693   */\n      pop\n        /* \"#utility.yul\":3226:3700   */\n      swap3\n      pop\n      swap3\n      swap1\n      pop\n      jump\t// out\n        /* \"#utility.yul\":3706:3796   */\n    tag_435:\n        /* \"#utility.yul\":3740:3747   */\n      0x00\n        /* \"#utility.yul\":3783:3788   */\n      dup2\n        /* \"#utility.yul\":3776:3789   */\n      iszero\n        /* \"#utility.yul\":3769:3790   */\n      iszero\n        /* \"#utility.yul\":3758:3790   */\n      swap1\n      pop\n        /* \"#utility.yul\":3706:3796   */\n      swap2\n      swap1\n      pop\n      jump\t// out\n        /* \"#utility.yul\":3802:3911   */\n    tag_436:\n        /* \"#utility.yul\":3883:3904   */\n      tag_552\n        /* \"#utility.yul\":3898:3903   */\n      dup2\n        /* \"#utility.yul\":3883:3904   */\n      tag_435\n      jump\t// in\n    tag_552:\n        /* \"#utility.yul\":3878:3881   */\n      dup3\n        /* \"#utility.yul\":3871:3905   */\n      mstore\n        /* \"#utility.yul\":3802:3911   */\n      pop\n      pop\n      jump\t// out\n        /* \"#utility.yul\":3917:4127   */\n    tag_61:\n        /* \"#utility.yul\":4004:4008   */\n      0x00\n        /* \"#utility.yul\":4042:4044   */\n      0x20\n        /* \"#utility.yul\":4031:4040   */\n      dup3\n        /* \"#utility.yul\":4027:4045   */\n      add\n        /* \"#utility.yul\":4019:4045   */\n      swap1\n      pop\n        /* \"#utility.yul\":4055:4120   */\n      tag_554\n        /* \"#utility.yul\":4117:4118   */\n      0x00\n        /* \"#utility.yul\":4106:4115   */\n      dup4\n        /* \"#utility.yul\":4102:4119   */\n      add\n        /* \"#utility.yul\":4093:4099   */\n      dup5\n        /* \"#utility.yul\":4055:4120   */\n      tag_436\n      jump\t// in\n    tag_554:\n        /* \"#utility.yul\":3917:4127   */\n      swap3\n      swap2\n      pop\n      pop\n      jump\t// out\n        /* \"#utility.yul\":4133:4251   */\n    tag_437:\n        /* \"#utility.yul\":4220:4244   */\n      tag_556\n        /* \"#utility.yul\":4238:4243   */\n      dup2\n        /* \"#utility.yul\":4220:4244   */\n      tag_432\n      jump\t// in\n    tag_556:\n        /* \"#utility.yul\":4215:4218   */\n      dup3\n        /* \"#utility.yul\":4208:4245   */\n      mstore\n        /* \"#utility.yul\":4133:4251   */\n      pop\n      pop\n      jump\t// out\n        /* \"#utility.yul\":4257:4479   */\n    tag_69:\n        /* \"#utility.yul\":4350:4354   */\n      0x00\n        /* \"#utility.yul\":4388:4390   */\n      0x20\n        /* \"#utility.yul\":4377:4386   */\n      dup3\n        /* \"#utility.yul\":4373:4391   */\n      add\n        /* \"#utility.yul\":4365:4391   */\n      swap1\n      pop\n        /* \"#utility.yul\":4401:4472   */\n      tag_558\n        /* \"#utility.yul\":4469:4470   */\n      0x00\n        /* \"#utility.yul\":4458:4467   */\n      dup4\n        /* \"#utility.yul\":4454:4471   */\n      add\n        /* \"#utility.yul\":4445:4451   */\n      dup5\n        /* \"#utility.yul\":4401:4472   */\n      tag_437\n      jump\t// in\n    tag_558:\n        /* \"#utility.yul\":4257:4479   */\n      swap3\n      swap2\n      pop\n      pop\n      jump\t// out\n        /* \"#utility.yul\":4485:5104   */\n    tag_75:\n        /* \"#utility.yul\":4562:4568   */\n      0x00\n        /* \"#utility.yul\":4570:4576   */\n      dup1\n        /* \"#utility.yul\":4578:4584   */\n      0x00\n        /* \"#utility.yul\":4627:4629   */\n      0x60\n        /* \"#utility.yul\":4615:4624   */\n      dup5\n        /* \"#utility.yul\":4606:4613   */\n      dup7\n        /* \"#utility.yul\":4602:4625   */\n      sub\n        /* \"#utility.yul\":4598:4630   */\n      slt\n        /* \"#utility.yul\":4595:4714   */\n      iszero\n      tag_560\n      jumpi\n        /* \"#utility.yul\":4633:4712   */\n      tag_561\n      tag_427\n      jump\t// in\n    tag_561:\n        /* \"#utility.yul\":4595:4714   */\n    tag_560:\n        /* \"#utility.yul\":4753:4754   */\n      0x00\n        /* \"#utility.yul\":4778:4831   */\n      tag_562\n        /* \"#utility.yul\":4823:4830   */\n      dup7\n        /* \"#utility.yul\":4814:4820   */\n      dup3\n        /* \"#utility.yul\":4803:4812   */\n      dup8\n        /* \"#utility.yul\":4799:4821   */\n      add\n        /* \"#utility.yul\":4778:4831   */\n      tag_434\n      jump\t// in\n    tag_562:\n        /* \"#utility.yul\":4768:4831   */\n      swap4\n      pop\n        /* \"#utility.yul\":4724:4841   */\n      pop\n        /* \"#utility.yul\":4880:4882   */\n      0x20\n        /* \"#utility.yul\":4906:4959   */\n      tag_563\n        /* \"#utility.yul\":4951:4958   */\n      dup7\n        /* \"#utility.yul\":4942:4948   */\n      dup3\n        /* \"#utility.yul\":4931:4940   */\n      dup8\n        /* \"#utility.yul\":4927:4949   */\n      add\n        /* \"#utility.yul\":4906:4959   */\n      tag_434\n      jump\t// in\n    tag_563:\n        /* \"#utility.yul\":4896:4959   */\n      swap3\n      pop\n        /* \"#utility.yul\":4851:4969   */\n      pop\n        /* \"#utility.yul\":5008:5010   */\n      0x40\n        /* \"#utility.yul\":5034:5087   */\n      tag_564\n        /* \"#utility.yul\":5079:5086   */\n      dup7\n        /* \"#utility.yul\":5070:5076   */\n      dup3\n        /* \"#utility.yul\":5059:5068   */\n      dup8\n        /* \"#utility.yul\":5055:5077   */\n      add\n        /* \"#utility.yul\":5034:5087   */\n      tag_430\n      jump\t// in\n    tag_564:\n        /* \"#utility.yul\":5024:5087   */\n      swap2\n      pop\n        /* \"#utility.yul\":4979:5097   */\n      pop\n        /* \"#utility.yul\":4485:5104   */\n      swap3\n      pop\n      swap3\n      pop\n      swap3\n      jump\t// out\n        /* \"#utility.yul\":5110:5196   */\n    tag_438:\n        /* \"#utility.yul\":5145:5152   */\n      0x00\n        /* \"#utility.yul\":5185:5189   */\n      0xff\n        /* \"#utility.yul\":5178:5183   */\n      dup3\n        /* \"#utility.yul\":5174:5190   */\n      and\n        /* \"#utility.yul\":5163:5190   */\n      swap1\n      pop\n        /* \"#utility.yul\":5110:5196   */\n      swap2\n      swap1\n      pop\n      jump\t// out\n        /* \"#utility.yul\":5202:5314   */\n    tag_439:\n        /* \"#utility.yul\":5285:5307   */\n      tag_567\n        /* \"#utility.yul\":5301:5306   */\n      dup2\n        /* \"#utility.yul\":5285:5307   */\n      tag_438\n      jump\t// in\n    tag_567:\n        /* \"#utility.yul\":5280:5283   */\n      dup3\n        /* \"#utility.yul\":5273:5308   */\n      mstore\n        /* \"#utility.yul\":5202:5314   */\n      pop\n      pop\n      jump\t// out\n        /* \"#utility.yul\":5320:5534   */\n    tag_81:\n        /* \"#utility.yul\":5409:5413   */\n      0x00\n        /* \"#utility.yul\":5447:5449   */\n      0x20\n        /* \"#utility.yul\":5436:5445   */\n      dup3\n        /* \"#utility.yul\":5432:5450   */\n      add\n        /* \"#utility.yul\":5424:5450   */\n      swap1\n      pop\n        /* \"#utility.yul\":5460:5527   */\n      tag_569\n        /* \"#utility.yul\":5524:5525   */\n      0x00\n        /* \"#utility.yul\":5513:5522   */\n      dup4\n        /* \"#utility.yul\":5509:5526   */\n      add\n        /* \"#utility.yul\":5500:5506   */\n      dup5\n        /* \"#utility.yul\":5460:5527   */\n      tag_439\n      jump\t// in\n    tag_569:\n        /* \"#utility.yul\":5320:5534   */\n      swap3\n      swap2\n      pop\n      pop\n      jump\t// out\n        /* \"#utility.yul\":5540:5617   */\n    tag_440:\n        /* \"#utility.yul\":5577:5584   */\n      0x00\n        /* \"#utility.yul\":5606:5611   */\n      dup2\n        /* \"#utility.yul\":5595:5611   */\n      swap1\n      pop\n        /* \"#utility.yul\":5540:5617   */\n      swap2\n      swap1\n      pop\n      jump\t// out\n        /* \"#utility.yul\":5623:5741   */\n    tag_441:\n        /* \"#utility.yul\":5710:5734   */\n      tag_572\n        /* \"#utility.yul\":5728:5733   */\n      dup2\n        /* \"#utility.yul\":5710:5734   */\n      tag_440\n      jump\t// in\n    tag_572:\n        /* \"#utility.yul\":5705:5708   */\n      dup3\n        /* \"#utility.yul\":5698:5735   */\n      mstore\n        /* \"#utility.yul\":5623:5741   */\n      pop\n      pop\n      jump\t// out\n        /* \"#utility.yul\":5747:5969   */\n    tag_85:\n        /* \"#utility.yul\":5840:5844   */\n      0x00\n        /* \"#utility.yul\":5878:5880   */\n      0x20\n        /* \"#utility.yul\":5867:5876   */\n      dup3\n        /* \"#utility.yul\":5863:5881   */\n      add\n        /* \"#utility.yul\":5855:5881   */\n      swap1\n      pop\n        /* \"#utility.yul\":5891:5962   */\n      tag_574\n        /* \"#utility.yul\":5959:5960   */\n      0x00\n        /* \"#utility.yul\":5948:5957   */\n      dup4\n        /* \"#utility.yul\":5944:5961   */\n      add\n        /* \"#utility.yul\":5935:5941   */\n      dup5\n        /* \"#utility.yul\":5891:5962   */\n      tag_441\n      jump\t// in\n    tag_574:\n        /* \"#utility.yul\":5747:5969   */\n      swap3\n      swap2\n      pop\n      pop\n      jump\t// out\n        /* \"#utility.yul\":5975:6035   */\n    tag_442:\n        /* \"#utility.yul\":6003:6006   */\n      0x00\n        /* \"#utility.yul\":6024:6029   */\n      dup2\n        /* \"#utility.yul\":6017:6029   */\n      swap1\n      pop\n        /* \"#utility.yul\":5975:6035   */\n      swap2\n      swap1\n      pop\n      jump\t// out\n        /* \"#utility.yul\":6041:6183   */\n    tag_443:\n        /* \"#utility.yul\":6091:6100   */\n      0x00\n        /* \"#utility.yul\":6124:6177   */\n      tag_577\n        /* \"#utility.yul\":6142:6176   */\n      tag_578\n        /* \"#utility.yul\":6151:6175   */\n      tag_579\n        /* \"#utility.yul\":6169:6174   */\n      dup5\n        /* \"#utility.yul\":6151:6175   */\n      tag_431\n      jump\t// in\n    tag_579:\n        /* \"#utility.yul\":6142:6176   */\n      tag_442\n      jump\t// in\n    tag_578:\n        /* \"#utility.yul\":6124:6177   */\n      tag_431\n      jump\t// in\n    tag_577:\n        /* \"#utility.yul\":6111:6177   */\n      swap1\n      pop\n        /* \"#utility.yul\":6041:6183   */\n      swap2\n      swap1\n      pop\n      jump\t// out\n        /* \"#utility.yul\":6189:6315   */\n    tag_444:\n        /* \"#utility.yul\":6239:6248   */\n      0x00\n        /* \"#utility.yul\":6272:6309   */\n      tag_581\n        /* \"#utility.yul\":6303:6308   */\n      dup3\n        /* \"#utility.yul\":6272:6309   */\n      tag_443\n      jump\t// in\n    tag_581:\n        /* \"#utility.yul\":6259:6309   */\n      swap1\n      pop\n        /* \"#utility.yul\":6189:6315   */\n      swap2\n      swap1\n      pop\n      jump\t// out\n        /* \"#utility.yul\":6321:6461   */\n    tag_445:\n        /* \"#utility.yul\":6385:6394   */\n      0x00\n        /* \"#utility.yul\":6418:6455   */\n      tag_583\n        /* \"#utility.yul\":6449:6454   */\n      dup3\n        /* \"#utility.yul\":6418:6455   */\n      tag_444\n      jump\t// in\n    tag_583:\n        /* \"#utility.yul\":6405:6455   */\n      swap1\n      pop\n        /* \"#utility.yul\":6321:6461   */\n      swap2\n      swap1\n      pop\n      jump\t// out\n        /* \"#utility.yul\":6467:6626   */\n    tag_446:\n        /* \"#utility.yul\":6568:6619   */\n      tag_585\n        /* \"#utility.yul\":6613:6618   */\n      dup2\n        /* \"#utility.yul\":6568:6619   */\n      tag_445\n      jump\t// in\n    tag_585:\n        /* \"#utility.yul\":6563:6566   */\n      dup3\n        /* \"#utility.yul\":6556:6620   */\n      mstore\n        /* \"#utility.yul\":6467:6626   */\n      pop\n      pop\n      jump\t// out\n        /* \"#utility.yul\":6632:6882   */\n    tag_91:\n        /* \"#utility.yul\":6739:6743   */\n      0x00\n        /* \"#utility.yul\":6777:6779   */\n      0x20\n        /* \"#utility.yul\":6766:6775   */\n      dup3\n        /* \"#utility.yul\":6762:6780   */\n      add\n        /* \"#utility.yul\":6754:6780   */\n      swap1\n      pop\n        /* \"#utility.yul\":6790:6875   */\n      tag_587\n        /* \"#utility.yul\":6872:6873   */\n      0x00\n        /* \"#utility.yul\":6861:6870   */\n      dup4\n        /* \"#utility.yul\":6857:6874   */\n      add\n        /* \"#utility.yul\":6848:6854   */\n      dup5\n        /* \"#utility.yul\":6790:6875   */\n      tag_446\n      jump\t// in\n    tag_587:\n        /* \"#utility.yul\":6632:6882   */\n      swap3\n      swap2\n      pop\n      pop\n      jump\t// out\n        /* \"#utility.yul\":6888:7217   */\n    tag_94:\n        /* \"#utility.yul\":6947:6953   */\n      0x00\n        /* \"#utility.yul\":6996:6998   */\n      0x20\n        /* \"#utility.yul\":6984:6993   */\n      dup3\n        /* \"#utility.yul\":6975:6982   */\n      dup5\n        /* \"#utility.yul\":6971:6994   */\n      sub\n        /* \"#utility.yul\":6967:6999   */\n      slt\n        /* \"#utility.yul\":6964:7083   */\n      iszero\n      tag_589\n      jumpi\n        /* \"#utility.yul\":7002:7081   */\n      tag_590\n      tag_427\n      jump\t// in\n    tag_590:\n        /* \"#utility.yul\":6964:7083   */\n    tag_589:\n        /* \"#utility.yul\":7122:7123   */\n      0x00\n        /* \"#utility.yul\":7147:7200   */\n      tag_591\n        /* \"#utility.yul\":7192:7199   */\n      dup5\n        /* \"#utility.yul\":7183:7189   */\n      dup3\n        /* \"#utility.yul\":7172:7181   */\n      dup6\n        /* \"#utility.yul\":7168:7190   */\n      add\n        /* \"#utility.yul\":7147:7200   */\n      tag_434\n      jump\t// in\n    tag_591:\n        /* \"#utility.yul\":7137:7200   */\n      swap2\n      pop\n        /* \"#utility.yul\":7093:7210   */\n      pop\n        /* \"#utility.yul\":6888:7217   */\n      swap3\n      swap2\n      pop\n      pop\n      jump\t// out\n        /* \"#utility.yul\":7223:7697   */\n    tag_103:\n        /* \"#utility.yul\":7291:7297   */\n      0x00\n        /* \"#utility.yul\":7299:7305   */\n      dup1\n        /* \"#utility.yul\":7348:7350   */\n      0x40\n        /* \"#utility.yul\":7336:7345   */\n      dup4\n        /* \"#utility.yul\":7327:7334   */\n      dup6\n        /* \"#utility.yul\":7323:7346   */\n      sub\n        /* \"#utility.yul\":7319:7351   */\n      slt\n        /* \"#utility.yul\":7316:7435   */\n      iszero\n      tag_593\n      jumpi\n        /* \"#utility.yul\":7354:7433   */\n      tag_594\n      tag_427\n      jump\t// in\n    tag_594:\n        /* \"#utility.yul\":7316:7435   */\n    tag_593:\n        /* \"#utility.yul\":7474:7475   */\n      0x00\n        /* \"#utility.yul\":7499:7552   */\n      tag_595\n        /* \"#utility.yul\":7544:7551   */\n      dup6\n        /* \"#utility.yul\":7535:7541   */\n      dup3\n        /* \"#utility.yul\":7524:7533   */\n      dup7\n        /* \"#utility.yul\":7520:7542   */\n      add\n        /* \"#utility.yul\":7499:7552   */\n      tag_430\n      jump\t// in\n    tag_595:\n        /* \"#utility.yul\":7489:7552   */\n      swap3\n      pop\n        /* \"#utility.yul\":7445:7562   */\n      pop\n        /* \"#utility.yul\":7601:7603   */\n      0x20\n        /* \"#utility.yul\":7627:7680   */\n      tag_596\n        /* \"#utility.yul\":7672:7679   */\n      dup6\n        /* \"#utility.yul\":7663:7669   */\n      dup3\n        /* \"#utility.yul\":7652:7661   */\n      dup7\n        /* \"#utility.yul\":7648:7670   */\n      add\n        /* \"#utility.yul\":7627:7680   */\n      tag_434\n      jump\t// in\n    tag_596:\n        /* \"#utility.yul\":7617:7680   */\n      swap2\n      pop\n        /* \"#utility.yul\":7572:7690   */\n      pop\n        /* \"#utility.yul\":7223:7697   */\n      swap3\n      pop\n      swap3\n      swap1\n      pop\n      jump\t// out\n        /* \"#utility.yul\":7703:7849   */\n    tag_447:\n        /* \"#utility.yul\":7773:7782   */\n      0x00\n        /* \"#utility.yul\":7806:7843   */\n      tag_598\n        /* \"#utility.yul\":7837:7842   */\n      dup3\n        /* \"#utility.yul\":7806:7843   */\n      tag_444\n      jump\t// in\n    tag_598:\n        /* \"#utility.yul\":7793:7843   */\n      swap1\n      pop\n        /* \"#utility.yul\":7703:7849   */\n      swap2\n      swap1\n      pop\n      jump\t// out\n        /* \"#utility.yul\":7855:8026   */\n    tag_448:\n        /* \"#utility.yul\":7962:8019   */\n      tag_600\n        /* \"#utility.yul\":8013:8018   */\n      dup2\n        /* \"#utility.yul\":7962:8019   */\n      tag_447\n      jump\t// in\n    tag_600:\n        /* \"#utility.yul\":7957:7960   */\n      dup3\n        /* \"#utility.yul\":7950:8020   */\n      mstore\n        /* \"#utility.yul\":7855:8026   */\n      pop\n      pop\n      jump\t// out\n        /* \"#utility.yul\":8032:8294   */\n    tag_127:\n        /* \"#utility.yul\":8145:8149   */\n      0x00\n        /* \"#utility.yul\":8183:8185   */\n      0x20\n        /* \"#utility.yul\":8172:8181   */\n      dup3\n        /* \"#utility.yul\":8168:8186   */\n      add\n        /* \"#utility.yul\":8160:8186   */\n      swap1\n      pop\n        /* \"#utility.yul\":8196:8287   */\n      tag_602\n        /* \"#utility.yul\":8284:8285   */\n      0x00\n        /* \"#utility.yul\":8273:8282   */\n      dup4\n        /* \"#utility.yul\":8269:8286   */\n      add\n        /* \"#utility.yul\":8260:8266   */\n      dup5\n        /* \"#utility.yul\":8196:8287   */\n      tag_448\n      jump\t// in\n    tag_602:\n        /* \"#utility.yul\":8032:8294   */\n      swap3\n      swap2\n      pop\n      pop\n      jump\t// out\n        /* \"#utility.yul\":8300:8919   */\n    tag_138:\n        /* \"#utility.yul\":8377:8383   */\n      0x00\n        /* \"#utility.yul\":8385:8391   */\n      dup1\n        /* \"#utility.yul\":8393:8399   */\n      0x00\n        /* \"#utility.yul\":8442:8444   */\n      0x60\n        /* \"#utility.yul\":8430:8439   */\n      dup5\n        /* \"#utility.yul\":8421:8428   */\n      dup7\n        /* \"#utility.yul\":8417:8440   */\n      sub\n        /* \"#utility.yul\":8413:8445   */\n      slt\n        /* \"#utility.yul\":8410:8529   */\n      iszero\n      tag_604\n      jumpi\n        /* \"#utility.yul\":8448:8527   */\n      tag_605\n      tag_427\n      jump\t// in\n    tag_605:\n        /* \"#utility.yul\":8410:8529   */\n    tag_604:\n        /* \"#utility.yul\":8568:8569   */\n      0x00\n        /* \"#utility.yul\":8593:8646   */\n      tag_606\n        /* \"#utility.yul\":8638:8645   */\n      dup7\n        /* \"#utility.yul\":8629:8635   */\n      dup3\n        /* \"#utility.yul\":8618:8627   */\n      dup8\n        /* \"#utility.yul\":8614:8636   */\n      add\n        /* \"#utility.yul\":8593:8646   */\n      tag_430\n      jump\t// in\n    tag_606:\n        /* \"#utility.yul\":8583:8646   */\n      swap4\n      pop\n        /* \"#utility.yul\":8539:8656   */\n      pop\n        /* \"#utility.yul\":8695:8697   */\n      0x20\n        /* \"#utility.yul\":8721:8774   */\n      tag_607\n        /* \"#utility.yul\":8766:8773   */\n      dup7\n        /* \"#utility.yul\":8757:8763   */\n      dup3\n        /* \"#utility.yul\":8746:8755   */\n      dup8\n        /* \"#utility.yul\":8742:8764   */\n      add\n        /* \"#utility.yul\":8721:8774   */\n      tag_434\n      jump\t// in\n    tag_607:\n        /* \"#utility.yul\":8711:8774   */\n      swap3\n      pop\n        /* \"#utility.yul\":8666:8784   */\n      pop\n        /* \"#utility.yul\":8823:8825   */\n      0x40\n        /* \"#utility.yul\":8849:8902   */\n      tag_608\n        /* \"#utility.yul\":8894:8901   */\n      dup7\n        /* \"#utility.yul\":8885:8891   */\n      dup3\n        /* \"#utility.yul\":8874:8883   */\n      dup8\n        /* \"#utility.yul\":8870:8892   */\n      add\n        /* \"#utility.yul\":8849:8902   */\n      tag_434\n      jump\t// in\n    tag_608:\n        /* \"#utility.yul\":8839:8902   */\n      swap2\n      pop\n        /* \"#utility.yul\":8794:8912   */\n      pop\n        /* \"#utility.yul\":8300:8919   */\n      swap3\n      pop\n      swap3\n      pop\n      swap3\n      jump\t// out\n        /* \"#utility.yul\":8925:9043   */\n    tag_449:\n        /* \"#utility.yul\":8996:9018   */\n      tag_610\n        /* \"#utility.yul\":9012:9017   */\n      dup2\n        /* \"#utility.yul\":8996:9018   */\n      tag_438\n      jump\t// in\n    tag_610:\n        /* \"#utility.yul\":8989:8994   */\n      dup2\n        /* \"#utility.yul\":8986:9019   */\n      eq\n        /* \"#utility.yul\":8976:9037   */\n      tag_611\n      jumpi\n        /* \"#utility.yul\":9033:9034   */\n      0x00\n        /* \"#utility.yul\":9030:9031   */\n      dup1\n        /* \"#utility.yul\":9023:9035   */\n      revert\n        /* \"#utility.yul\":8976:9037   */\n    tag_611:\n        /* \"#utility.yul\":8925:9043   */\n      pop\n      jump\t// out\n        /* \"#utility.yul\":9049:9184   */\n    tag_450:\n        /* \"#utility.yul\":9093:9098   */\n      0x00\n        /* \"#utility.yul\":9131:9137   */\n      dup2\n        /* \"#utility.yul\":9118:9138   */\n      calldataload\n        /* \"#utility.yul\":9109:9138   */\n      swap1\n      pop\n        /* \"#utility.yul\":9147:9178   */\n      tag_613\n        /* \"#utility.yul\":9172:9177   */\n      dup2\n        /* \"#utility.yul\":9147:9178   */\n      tag_449\n      jump\t// in\n    tag_613:\n        /* \"#utility.yul\":9049:9184   */\n      swap3\n      swap2\n      pop\n      pop\n      jump\t// out\n        /* \"#utility.yul\":9190:9312   */\n    tag_451:\n        /* \"#utility.yul\":9263:9287   */\n      tag_615\n        /* \"#utility.yul\":9281:9286   */\n      dup2\n        /* \"#utility.yul\":9263:9287   */\n      tag_440\n      jump\t// in\n    tag_615:\n        /* \"#utility.yul\":9256:9261   */\n      dup2\n        /* \"#utility.yul\":9253:9288   */\n      eq\n        /* \"#utility.yul\":9243:9306   */\n      tag_616\n      jumpi\n        /* \"#utility.yul\":9302:9303   */\n      0x00\n        /* \"#utility.yul\":9299:9300   */\n      dup1\n        /* \"#utility.yul\":9292:9304   */\n      revert\n        /* \"#utility.yul\":9243:9306   */\n    tag_616:\n        /* \"#utility.yul\":9190:9312   */\n      pop\n      jump\t// out\n        /* \"#utility.yul\":9318:9457   */\n    tag_452:\n        /* \"#utility.yul\":9364:9369   */\n      0x00\n        /* \"#utility.yul\":9402:9408   */\n      dup2\n        /* \"#utility.yul\":9389:9409   */\n      calldataload\n        /* \"#utility.yul\":9380:9409   */\n      swap1\n      pop\n        /* \"#utility.yul\":9418:9451   */\n      tag_618\n        /* \"#utility.yul\":9445:9450   */\n      dup2\n        /* \"#utility.yul\":9418:9451   */\n      tag_451\n      jump\t// in\n    tag_618:\n        /* \"#utility.yul\":9318:9457   */\n      swap3\n      swap2\n      pop\n      pop\n      jump\t// out\n        /* \"#utility.yul\":9463:10662   */\n    tag_159:\n        /* \"#utility.yul\":9574:9580   */\n      0x00\n        /* \"#utility.yul\":9582:9588   */\n      dup1\n        /* \"#utility.yul\":9590:9596   */\n      0x00\n        /* \"#utility.yul\":9598:9604   */\n      dup1\n        /* \"#utility.yul\":9606:9612   */\n      0x00\n        /* \"#utility.yul\":9614:9620   */\n      dup1\n        /* \"#utility.yul\":9622:9628   */\n      0x00\n        /* \"#utility.yul\":9671:9674   */\n      0xe0\n        /* \"#utility.yul\":9659:9668   */\n      dup9\n        /* \"#utility.yul\":9650:9657   */\n      dup11\n        /* \"#utility.yul\":9646:9669   */\n      sub\n        /* \"#utility.yul\":9642:9675   */\n      slt\n        /* \"#utility.yul\":9639:9759   */\n      iszero\n      tag_620\n      jumpi\n        /* \"#utility.yul\":9678:9757   */\n      tag_621\n      tag_427\n      jump\t// in\n    tag_621:\n        /* \"#utility.yul\":9639:9759   */\n    tag_620:\n        /* \"#utility.yul\":9798:9799   */\n      0x00\n        /* \"#utility.yul\":9823:9876   */\n      tag_622\n        /* \"#utility.yul\":9868:9875   */\n      dup11\n        /* \"#utility.yul\":9859:9865   */\n      dup3\n        /* \"#utility.yul\":9848:9857   */\n      dup12\n        /* \"#utility.yul\":9844:9866   */\n      add\n        /* \"#utility.yul\":9823:9876   */\n      tag_434\n      jump\t// in\n    tag_622:\n        /* \"#utility.yul\":9813:9876   */\n      swap8\n      pop\n        /* \"#utility.yul\":9769:9886   */\n      pop\n        /* \"#utility.yul\":9925:9927   */\n      0x20\n        /* \"#utility.yul\":9951:10004   */\n      tag_623\n        /* \"#utility.yul\":9996:10003   */\n      dup11\n        /* \"#utility.yul\":9987:9993   */\n      dup3\n        /* \"#utility.yul\":9976:9985   */\n      dup12\n        /* \"#utility.yul\":9972:9994   */\n      add\n        /* \"#utility.yul\":9951:10004   */\n      tag_434\n      jump\t// in\n    tag_623:\n        /* \"#utility.yul\":9941:10004   */\n      swap7\n      pop\n        /* \"#utility.yul\":9896:10014   */\n      pop\n        /* \"#utility.yul\":10053:10055   */\n      0x40\n        /* \"#utility.yul\":10079:10132   */\n      tag_624\n        /* \"#utility.yul\":10124:10131   */\n      dup11\n        /* \"#utility.yul\":10115:10121   */\n      dup3\n        /* \"#utility.yul\":10104:10113   */\n      dup12\n        /* \"#utility.yul\":10100:10122   */\n      add\n        /* \"#utility.yul\":10079:10132   */\n      tag_430\n      jump\t// in\n    tag_624:\n        /* \"#utility.yul\":10069:10132   */\n      swap6\n      pop\n        /* \"#utility.yul\":10024:10142   */\n      pop\n        /* \"#utility.yul\":10181:10183   */\n      0x60\n        /* \"#utility.yul\":10207:10260   */\n      tag_625\n        /* \"#utility.yul\":10252:10259   */\n      dup11\n        /* \"#utility.yul\":10243:10249   */\n      dup3\n        /* \"#utility.yul\":10232:10241   */\n      dup12\n        /* \"#utility.yul\":10228:10250   */\n      add\n        /* \"#utility.yul\":10207:10260   */\n      tag_430\n      jump\t// in\n    tag_625:\n        /* \"#utility.yul\":10197:10260   */\n      swap5\n      pop\n        /* \"#utility.yul\":10152:10270   */\n      pop\n        /* \"#utility.yul\":10309:10312   */\n      0x80\n        /* \"#utility.yul\":10336:10387   */\n      tag_626\n        /* \"#utility.yul\":10379:10386   */\n      dup11\n        /* \"#utility.yul\":10370:10376   */\n      dup3\n        /* \"#utility.yul\":10359:10368   */\n      dup12\n        /* \"#utility.yul\":10355:10377   */\n      add\n        /* \"#utility.yul\":10336:10387   */\n      tag_450\n      jump\t// in\n    tag_626:\n        /* \"#utility.yul\":10326:10387   */\n      swap4\n      pop\n        /* \"#utility.yul\":10280:10397   */\n      pop\n        /* \"#utility.yul\":10436:10439   */\n      0xa0\n        /* \"#utility.yul\":10463:10516   */\n      tag_627\n        /* \"#utility.yul\":10508:10515   */\n      dup11\n        /* \"#utility.yul\":10499:10505   */\n      dup3\n        /* \"#utility.yul\":10488:10497   */\n      dup12\n        /* \"#utility.yul\":10484:10506   */\n      add\n        /* \"#utility.yul\":10463:10516   */\n      tag_452\n      jump\t// in\n    tag_627:\n        /* \"#utility.yul\":10453:10516   */\n      swap3\n      pop\n        /* \"#utility.yul\":10407:10526   */\n      pop\n        /* \"#utility.yul\":10565:10568   */\n      0xc0\n        /* \"#utility.yul\":10592:10645   */\n      tag_628\n        /* \"#utility.yul\":10637:10644   */\n      dup11\n        /* \"#utility.yul\":10628:10634   */\n      dup3\n        /* \"#utility.yul\":10617:10626   */\n      dup12\n        /* \"#utility.yul\":10613:10635   */\n      add\n        /* \"#utility.yul\":10592:10645   */\n      tag_452\n      jump\t// in\n    tag_628:\n        /* \"#utility.yul\":10582:10645   */\n      swap2\n      pop\n        /* \"#utility.yul\":10536:10655   */\n      pop\n        /* \"#utility.yul\":9463:10662   */\n      swap3\n      swap6\n      swap9\n      swap2\n      swap5\n      swap8\n      pop\n      swap3\n      swap6\n      pop\n      jump\t// out\n        /* \"#utility.yul\":10668:11142   */\n    tag_167:\n        /* \"#utility.yul\":10736:10742   */\n      0x00\n        /* \"#utility.yul\":10744:10750   */\n      dup1\n        /* \"#utility.yul\":10793:10795   */\n      0x40\n        /* \"#utility.yul\":10781:10790   */\n      dup4\n        /* \"#utility.yul\":10772:10779   */\n      dup6\n        /* \"#utility.yul\":10768:10791   */\n      sub\n        /* \"#utility.yul\":10764:10796   */\n      slt\n        /* \"#utility.yul\":10761:10880   */\n      iszero\n      tag_630\n      jumpi\n        /* \"#utility.yul\":10799:10878   */\n      tag_631\n      tag_427\n      jump\t// in\n    tag_631:\n        /* \"#utility.yul\":10761:10880   */\n    tag_630:\n        /* \"#utility.yul\":10919:10920   */\n      0x00\n        /* \"#utility.yul\":10944:10997   */\n      tag_632\n        /* \"#utility.yul\":10989:10996   */\n      dup6\n        /* \"#utility.yul\":10980:10986   */\n      dup3\n        /* \"#utility.yul\":10969:10978   */\n      dup7\n        /* \"#utility.yul\":10965:10987   */\n      add\n        /* \"#utility.yul\":10944:10997   */\n      tag_434\n      jump\t// in\n    tag_632:\n        /* \"#utility.yul\":10934:10997   */\n      swap3\n      pop\n        /* \"#utility.yul\":10890:11007   */\n      pop\n        /* \"#utility.yul\":11046:11048   */\n      0x20\n        /* \"#utility.yul\":11072:11125   */\n      tag_633\n        /* \"#utility.yul\":11117:11124   */\n      dup6\n        /* \"#utility.yul\":11108:11114   */\n      dup3\n        /* \"#utility.yul\":11097:11106   */\n      dup7\n        /* \"#utility.yul\":11093:11115   */\n      add\n        /* \"#utility.yul\":11072:11125   */\n      tag_434\n      jump\t// in\n    tag_633:\n        /* \"#utility.yul\":11062:11125   */\n      swap2\n      pop\n        /* \"#utility.yul\":11017:11135   */\n      pop\n        /* \"#utility.yul\":10668:11142   */\n      swap3\n      pop\n      swap3\n      swap1\n      pop\n      jump\t// out\n        /* \"#utility.yul\":11148:11293   */\n    tag_453:\n        /* \"#utility.yul\":11217:11226   */\n      0x00\n        /* \"#utility.yul\":11250:11287   */\n      tag_635\n        /* \"#utility.yul\":11281:11286   */\n      dup3\n        /* \"#utility.yul\":11250:11287   */\n      tag_444\n      jump\t// in\n    tag_635:\n        /* \"#utility.yul\":11237:11287   */\n      swap1\n      pop\n        /* \"#utility.yul\":11148:11293   */\n      swap2\n      swap1\n      pop\n      jump\t// out\n        /* \"#utility.yul\":11299:11468   */\n    tag_454:\n        /* \"#utility.yul\":11405:11461   */\n      tag_637\n        /* \"#utility.yul\":11455:11460   */\n      dup2\n        /* \"#utility.yul\":11405:11461   */\n      tag_453\n      jump\t// in\n    tag_637:\n        /* \"#utility.yul\":11400:11403   */\n      dup3\n        /* \"#utility.yul\":11393:11462   */\n      mstore\n        /* \"#utility.yul\":11299:11468   */\n      pop\n      pop\n      jump\t// out\n        /* \"#utility.yul\":11474:11734   */\n    tag_177:\n        /* \"#utility.yul\":11586:11590   */\n      0x00\n        /* \"#utility.yul\":11624:11626   */\n      0x20\n        /* \"#utility.yul\":11613:11622   */\n      dup3\n        /* \"#utility.yul\":11609:11627   */\n      add\n        /* \"#utility.yul\":11601:11627   */\n      swap1\n      pop\n        /* \"#utility.yul\":11637:11727   */\n      tag_639\n        /* \"#utility.yul\":11724:11725   */\n      0x00\n        /* \"#utility.yul\":11713:11722   */\n      dup4\n        /* \"#utility.yul\":11709:11726   */\n      add\n        /* \"#utility.yul\":11700:11706   */\n      dup5\n        /* \"#utility.yul\":11637:11727   */\n      tag_454\n      jump\t// in\n    tag_639:\n        /* \"#utility.yul\":11474:11734   */\n      swap3\n      swap2\n      pop\n      pop\n      jump\t// out\n        /* \"#utility.yul\":11740:11883   */\n    tag_455:\n        /* \"#utility.yul\":11797:11802   */\n      0x00\n        /* \"#utility.yul\":11828:11834   */\n      dup2\n        /* \"#utility.yul\":11822:11835   */\n      mload\n        /* \"#utility.yul\":11813:11835   */\n      swap1\n      pop\n        /* \"#utility.yul\":11844:11877   */\n      tag_641\n        /* \"#utility.yul\":11871:11876   */\n      dup2\n        /* \"#utility.yul\":11844:11877   */\n      tag_429\n      jump\t// in\n    tag_641:\n        /* \"#utility.yul\":11740:11883   */\n      swap3\n      swap2\n      pop\n      pop\n      jump\t// out\n        /* \"#utility.yul\":11889:12240   */\n    tag_183:\n        /* \"#utility.yul\":11959:11965   */\n      0x00\n        /* \"#utility.yul\":12008:12010   */\n      0x20\n        /* \"#utility.yul\":11996:12005   */\n      dup3\n        /* \"#utility.yul\":11987:11994   */\n      dup5\n        /* \"#utility.yul\":11983:12006   */\n      sub\n        /* \"#utility.yul\":11979:12011   */\n      slt\n        /* \"#utility.yul\":11976:12095   */\n      iszero\n      tag_643\n      jumpi\n        /* \"#utility.yul\":12014:12093   */\n      tag_644\n      tag_427\n      jump\t// in\n    tag_644:\n        /* \"#utility.yul\":11976:12095   */\n    tag_643:\n        /* \"#utility.yul\":12134:12135   */\n      0x00\n        /* \"#utility.yul\":12159:12223   */\n      tag_645\n        /* \"#utility.yul\":12215:12222   */\n      dup5\n        /* \"#utility.yul\":12206:12212   */\n      dup3\n        /* \"#utility.yul\":12195:12204   */\n      dup6\n        /* \"#utility.yul\":12191:12213   */\n      add\n        /* \"#utility.yul\":12159:12223   */\n      tag_455\n      jump\t// in\n    tag_645:\n        /* \"#utility.yul\":12149:12223   */\n      swap2\n      pop\n        /* \"#utility.yul\":12105:12233   */\n      pop\n        /* \"#utility.yul\":11889:12240   */\n      swap3\n      swap2\n      pop\n      pop\n      jump\t// out\n        /* \"#utility.yul\":12246:12426   */\n    tag_456:\n        /* \"#utility.yul\":12294:12371   */\n      0x4e487b7100000000000000000000000000000000000000000000000000000000\n        /* \"#utility.yul\":12291:12292   */\n      0x00\n        /* \"#utility.yul\":12284:12372   */\n      mstore\n        /* \"#utility.yul\":12391:12395   */\n      0x22\n        /* \"#utility.yul\":12388:12389   */\n      0x04\n        /* \"#utility.yul\":12381:12396   */\n      mstore\n        /* \"#utility.yul\":12415:12419   */\n      0x24\n        /* \"#utility.yul\":12412:12413   */\n      0x00\n        /* \"#utility.yul\":12405:12420   */\n      revert\n        /* \"#utility.yul\":12432:12752   */\n    tag_185:\n        /* \"#utility.yul\":12476:12482   */\n      0x00\n        /* \"#utility.yul\":12513:12514   */\n      0x02\n        /* \"#utility.yul\":12507:12511   */\n      dup3\n        /* \"#utility.yul\":12503:12515   */\n      div\n        /* \"#utility.yul\":12493:12515   */\n      swap1\n      pop\n        /* \"#utility.yul\":12560:12561   */\n      0x01\n        /* \"#utility.yul\":12554:12558   */\n      dup3\n        /* \"#utility.yul\":12550:12562   */\n      and\n        /* \"#utility.yul\":12581:12599   */\n      dup1\n        /* \"#utility.yul\":12571:12652   */\n      tag_648\n      jumpi\n        /* \"#utility.yul\":12637:12641   */\n      0x7f\n        /* \"#utility.yul\":12629:12635   */\n      dup3\n        /* \"#utility.yul\":12625:12642   */\n      and\n        /* \"#utility.yul\":12615:12642   */\n      swap2\n      pop\n        /* \"#utility.yul\":12571:12652   */\n    tag_648:\n        /* \"#utility.yul\":12699:12701   */\n      0x20\n        /* \"#utility.yul\":12691:12697   */\n      dup3\n        /* \"#utility.yul\":12688:12702   */\n      lt\n        /* \"#utility.yul\":12668:12686   */\n      dup2\n        /* \"#utility.yul\":12665:12703   */\n      sub\n        /* \"#utility.yul\":12662:12746   */\n      tag_649\n      jumpi\n        /* \"#utility.yul\":12718:12736   */\n      tag_650\n      tag_456\n      jump\t// in\n    tag_650:\n        /* \"#utility.yul\":12662:12746   */\n    tag_649:\n        /* \"#utility.yul\":12483:12752   */\n      pop\n        /* \"#utility.yul\":12432:12752   */\n      swap2\n      swap1\n      pop\n      jump\t// out\n        /* \"#utility.yul\":12758:12938   */\n    tag_457:\n        /* \"#utility.yul\":12806:12883   */\n      0x4e487b7100000000000000000000000000000000000000000000000000000000\n        /* \"#utility.yul\":12803:12804   */\n      0x00\n        /* \"#utility.yul\":12796:12884   */\n      mstore\n        /* \"#utility.yul\":12903:12907   */\n      0x11\n        /* \"#utility.yul\":12900:12901   */\n      0x04\n        /* \"#utility.yul\":12893:12908   */\n      mstore\n        /* \"#utility.yul\":12927:12931   */\n      0x24\n        /* \"#utility.yul\":12924:12925   */\n      0x00\n        /* \"#utility.yul\":12917:12932   */\n      revert\n        /* \"#utility.yul\":12944:13138   */\n    tag_207:\n        /* \"#utility.yul\":12984:12988   */\n      0x00\n        /* \"#utility.yul\":13004:13024   */\n      tag_653\n        /* \"#utility.yul\":13022:13023   */\n      dup3\n        /* \"#utility.yul\":13004:13024   */\n      tag_419\n      jump\t// in\n    tag_653:\n        /* \"#utility.yul\":12999:13024   */\n      swap2\n      pop\n        /* \"#utility.yul\":13038:13058   */\n      tag_654\n        /* \"#utility.yul\":13056:13057   */\n      dup4\n        /* \"#utility.yul\":13038:13058   */\n      tag_419\n      jump\t// in\n    tag_654:\n        /* \"#utility.yul\":13033:13058   */\n      swap3\n      pop\n        /* \"#utility.yul\":13082:13083   */\n      dup3\n        /* \"#utility.yul\":13079:13080   */\n      dup3\n        /* \"#utility.yul\":13075:13084   */\n      sub\n        /* \"#utility.yul\":13067:13084   */\n      swap1\n      pop\n        /* \"#utility.yul\":13106:13107   */\n      dup2\n        /* \"#utility.yul\":13100:13104   */\n      dup2\n        /* \"#utility.yul\":13097:13108   */\n      gt\n        /* \"#utility.yul\":13094:13131   */\n      iszero\n      tag_655\n      jumpi\n        /* \"#utility.yul\":13111:13129   */\n      tag_656\n      tag_457\n      jump\t// in\n    tag_656:\n        /* \"#utility.yul\":13094:13131   */\n    tag_655:\n        /* \"#utility.yul\":12944:13138   */\n      swap3\n      swap2\n      pop\n      pop\n      jump\t// out\n        /* \"#utility.yul\":13144:13324   */\n    tag_218:\n        /* \"#utility.yul\":13192:13269   */\n      0x4e487b7100000000000000000000000000000000000000000000000000000000\n        /* \"#utility.yul\":13189:13190   */\n      0x00\n        /* \"#utility.yul\":13182:13270   */\n      mstore\n        /* \"#utility.yul\":13289:13293   */\n      0x41\n        /* \"#utility.yul\":13286:13287   */\n      0x04\n        /* \"#utility.yul\":13279:13294   */\n      mstore\n        /* \"#utility.yul\":13313:13317   */\n      0x24\n        /* \"#utility.yul\":13310:13311   */\n      0x00\n        /* \"#utility.yul\":13303:13318   */\n      revert\n        /* \"#utility.yul\":13330:13510   */\n    tag_222:\n        /* \"#utility.yul\":13378:13455   */\n      0x4e487b7100000000000000000000000000000000000000000000000000000000\n        /* \"#utility.yul\":13375:13376   */\n      0x00\n        /* \"#utility.yul\":13368:13456   */\n      mstore\n        /* \"#utility.yul\":13475:13479   */\n      0x32\n        /* \"#utility.yul\":13472:13473   */\n      0x04\n        /* \"#utility.yul\":13465:13480   */\n      mstore\n        /* \"#utility.yul\":13499:13503   */\n      0x24\n        /* \"#utility.yul\":13496:13497   */\n      0x00\n        /* \"#utility.yul\":13489:13504   */\n      revert\n        /* \"#utility.yul\":13516:13630   */\n    tag_458:\n        /* \"#utility.yul\":13583:13589   */\n      0x00\n        /* \"#utility.yul\":13617:13622   */\n      dup2\n        /* \"#utility.yul\":13611:13623   */\n      mload\n        /* \"#utility.yul\":13601:13623   */\n      swap1\n      pop\n        /* \"#utility.yul\":13516:13630   */\n      swap2\n      swap1\n      pop\n      jump\t// out\n        /* \"#utility.yul\":13636:13820   */\n    tag_459:\n        /* \"#utility.yul\":13735:13746   */\n      0x00\n        /* \"#utility.yul\":13769:13775   */\n      dup3\n        /* \"#utility.yul\":13764:13767   */\n      dup3\n        /* \"#utility.yul\":13757:13776   */\n      mstore\n        /* \"#utility.yul\":13809:13813   */\n      0x20\n        /* \"#utility.yul\":13804:13807   */\n      dup3\n        /* \"#utility.yul\":13800:13814   */\n      add\n        /* \"#utility.yul\":13785:13814   */\n      swap1\n      pop\n        /* \"#utility.yul\":13636:13820   */\n      swap3\n      swap2\n      pop\n      pop\n      jump\t// out\n        /* \"#utility.yul\":13826:13958   */\n    tag_460:\n        /* \"#utility.yul\":13893:13897   */\n      0x00\n        /* \"#utility.yul\":13916:13919   */\n      dup2\n        /* \"#utility.yul\":13908:13919   */\n      swap1\n      pop\n        /* \"#utility.yul\":13946:13950   */\n      0x20\n        /* \"#utility.yul\":13941:13944   */\n      dup3\n        /* \"#utility.yul\":13937:13951   */\n      add\n        /* \"#utility.yul\":13929:13951   */\n      swap1\n      pop\n        /* \"#utility.yul\":13826:13958   */\n      swap2\n      swap1\n      pop\n      jump\t// out\n        /* \"#utility.yul\":13964:14072   */\n    tag_461:\n        /* \"#utility.yul\":14041:14065   */\n      tag_663\n        /* \"#utility.yul\":14059:14064   */\n      dup2\n        /* \"#utility.yul\":14041:14065   */\n      tag_432\n      jump\t// in\n    tag_663:\n        /* \"#utility.yul\":14036:14039   */\n      dup3\n        /* \"#utility.yul\":14029:14066   */\n      mstore\n        /* \"#utility.yul\":13964:14072   */\n      pop\n      pop\n      jump\t// out\n        /* \"#utility.yul\":14078:14257   */\n    tag_462:\n        /* \"#utility.yul\":14147:14157   */\n      0x00\n        /* \"#utility.yul\":14168:14214   */\n      tag_665\n        /* \"#utility.yul\":14210:14213   */\n      dup4\n        /* \"#utility.yul\":14202:14208   */\n      dup4\n        /* \"#utility.yul\":14168:14214   */\n      tag_461\n      jump\t// in\n    tag_665:\n        /* \"#utility.yul\":14246:14250   */\n      0x20\n        /* \"#utility.yul\":14241:14244   */\n      dup4\n        /* \"#utility.yul\":14237:14251   */\n      add\n        /* \"#utility.yul\":14223:14251   */\n      swap1\n      pop\n        /* \"#utility.yul\":14078:14257   */\n      swap3\n      swap2\n      pop\n      pop\n      jump\t// out\n        /* \"#utility.yul\":14263:14376   */\n    tag_463:\n        /* \"#utility.yul\":14333:14337   */\n      0x00\n        /* \"#utility.yul\":14365:14369   */\n      0x20\n        /* \"#utility.yul\":14360:14363   */\n      dup3\n        /* \"#utility.yul\":14356:14370   */\n      add\n        /* \"#utility.yul\":14348:14370   */\n      swap1\n      pop\n        /* \"#utility.yul\":14263:14376   */\n      swap2\n      swap1\n      pop\n      jump\t// out\n        /* \"#utility.yul\":14412:15144   */\n    tag_464:\n        /* \"#utility.yul\":14531:14534   */\n      0x00\n        /* \"#utility.yul\":14560:14614   */\n      tag_668\n        /* \"#utility.yul\":14608:14613   */\n      dup3\n        /* \"#utility.yul\":14560:14614   */\n      tag_458\n      jump\t// in\n    tag_668:\n        /* \"#utility.yul\":14630:14716   */\n      tag_669\n        /* \"#utility.yul\":14709:14715   */\n      dup2\n        /* \"#utility.yul\":14704:14707   */\n      dup6\n        /* \"#utility.yul\":14630:14716   */\n      tag_459\n      jump\t// in\n    tag_669:\n        /* \"#utility.yul\":14623:14716   */\n      swap4\n      pop\n        /* \"#utility.yul\":14740:14796   */\n      tag_670\n        /* \"#utility.yul\":14790:14795   */\n      dup4\n        /* \"#utility.yul\":14740:14796   */\n      tag_460\n      jump\t// in\n    tag_670:\n        /* \"#utility.yul\":14819:14826   */\n      dup1\n        /* \"#utility.yul\":14850:14851   */\n      0x00\n        /* \"#utility.yul\":14835:15119   */\n    tag_671:\n        /* \"#utility.yul\":14860:14866   */\n      dup4\n        /* \"#utility.yul\":14857:14858   */\n      dup2\n        /* \"#utility.yul\":14854:14867   */\n      lt\n        /* \"#utility.yul\":14835:15119   */\n      iszero\n      tag_673\n      jumpi\n        /* \"#utility.yul\":14936:14942   */\n      dup2\n        /* \"#utility.yul\":14930:14943   */\n      mload\n        /* \"#utility.yul\":14963:15026   */\n      tag_674\n        /* \"#utility.yul\":15022:15025   */\n      dup9\n        /* \"#utility.yul\":15007:15020   */\n      dup3\n        /* \"#utility.yul\":14963:15026   */\n      tag_462\n      jump\t// in\n    tag_674:\n        /* \"#utility.yul\":14956:15026   */\n      swap8\n      pop\n        /* \"#utility.yul\":15049:15109   */\n      tag_675\n        /* \"#utility.yul\":15102:15108   */\n      dup4\n        /* \"#utility.yul\":15049:15109   */\n      tag_463\n      jump\t// in\n    tag_675:\n        /* \"#utility.yul\":15039:15109   */\n      swap3\n      pop\n        /* \"#utility.yul\":14895:15119   */\n      pop\n        /* \"#utility.yul\":14882:14883   */\n      0x01\n        /* \"#utility.yul\":14879:14880   */\n      dup2\n        /* \"#utility.yul\":14875:14884   */\n      add\n        /* \"#utility.yul\":14870:14884   */\n      swap1\n      pop\n        /* \"#utility.yul\":14835:15119   */\n      jump(tag_671)\n    tag_673:\n        /* \"#utility.yul\":14839:14853   */\n      pop\n        /* \"#utility.yul\":15135:15138   */\n      dup6\n        /* \"#utility.yul\":15128:15138   */\n      swap4\n      pop\n        /* \"#utility.yul\":14536:15144   */\n      pop\n      pop\n      pop\n        /* \"#utility.yul\":14412:15144   */\n      swap3\n      swap2\n      pop\n      pop\n      jump\t// out\n        /* \"#utility.yul\":15150:15743   */\n    tag_224:\n        /* \"#utility.yul\":15349:15353   */\n      0x00\n        /* \"#utility.yul\":15387:15389   */\n      0x60\n        /* \"#utility.yul\":15376:15385   */\n      dup3\n        /* \"#utility.yul\":15372:15390   */\n      add\n        /* \"#utility.yul\":15364:15390   */\n      swap1\n      pop\n        /* \"#utility.yul\":15436:15445   */\n      dup2\n        /* \"#utility.yul\":15430:15434   */\n      dup2\n        /* \"#utility.yul\":15426:15446   */\n      sub\n        /* \"#utility.yul\":15422:15423   */\n      0x00\n        /* \"#utility.yul\":15411:15420   */\n      dup4\n        /* \"#utility.yul\":15407:15424   */\n      add\n        /* \"#utility.yul\":15400:15447   */\n      mstore\n        /* \"#utility.yul\":15464:15572   */\n      tag_677\n        /* \"#utility.yul\":15567:15571   */\n      dup2\n        /* \"#utility.yul\":15558:15564   */\n      dup7\n        /* \"#utility.yul\":15464:15572   */\n      tag_464\n      jump\t// in\n    tag_677:\n        /* \"#utility.yul\":15456:15572   */\n      swap1\n      pop\n        /* \"#utility.yul\":15582:15654   */\n      tag_678\n        /* \"#utility.yul\":15650:15652   */\n      0x20\n        /* \"#utility.yul\":15639:15648   */\n      dup4\n        /* \"#utility.yul\":15635:15653   */\n      add\n        /* \"#utility.yul\":15626:15632   */\n      dup6\n        /* \"#utility.yul\":15582:15654   */\n      tag_420\n      jump\t// in\n    tag_678:\n        /* \"#utility.yul\":15664:15736   */\n      tag_679\n        /* \"#utility.yul\":15732:15734   */\n      0x40\n        /* \"#utility.yul\":15721:15730   */\n      dup4\n        /* \"#utility.yul\":15717:15735   */\n      add\n        /* \"#utility.yul\":15708:15714   */\n      dup5\n        /* \"#utility.yul\":15664:15736   */\n      tag_437\n      jump\t// in\n    tag_679:\n        /* \"#utility.yul\":15150:15743   */\n      swap5\n      swap4\n      pop\n      pop\n      pop\n      pop\n      jump\t// out\n        /* \"#utility.yul\":15749:15865   */\n    tag_465:\n        /* \"#utility.yul\":15819:15840   */\n      tag_681\n        /* \"#utility.yul\":15834:15839   */\n      dup2\n        /* \"#utility.yul\":15819:15840   */\n      tag_435\n      jump\t// in\n    tag_681:\n        /* \"#utility.yul\":15812:15817   */\n      dup2\n        /* \"#utility.yul\":15809:15841   */\n      eq\n        /* \"#utility.yul\":15799:15859   */\n      tag_682\n      jumpi\n        /* \"#utility.yul\":15855:15856   */\n      0x00\n        /* \"#utility.yul\":15852:15853   */\n      dup1\n        /* \"#utility.yul\":15845:15857   */\n      revert\n        /* \"#utility.yul\":15799:15859   */\n    tag_682:\n        /* \"#utility.yul\":15749:15865   */\n      pop\n      jump\t// out\n        /* \"#utility.yul\":15871:16008   */\n    tag_466:\n        /* \"#utility.yul\":15925:15930   */\n      0x00\n        /* \"#utility.yul\":15956:15962   */\n      dup2\n        /* \"#utility.yul\":15950:15963   */\n      mload\n        /* \"#utility.yul\":15941:15963   */\n      swap1\n      pop\n        /* \"#utility.yul\":15972:16002   */\n      tag_684\n        /* \"#utility.yul\":15996:16001   */\n      dup2\n        /* \"#utility.yul\":15972:16002   */\n      tag_465\n      jump\t// in\n    tag_684:\n        /* \"#utility.yul\":15871:16008   */\n      swap3\n      swap2\n      pop\n      pop\n      jump\t// out\n        /* \"#utility.yul\":16014:16359   */\n    tag_233:\n        /* \"#utility.yul\":16081:16087   */\n      0x00\n        /* \"#utility.yul\":16130:16132   */\n      0x20\n        /* \"#utility.yul\":16118:16127   */\n      dup3\n        /* \"#utility.yul\":16109:16116   */\n      dup5\n        /* \"#utility.yul\":16105:16128   */\n      sub\n        /* \"#utility.yul\":16101:16133   */\n      slt\n        /* \"#utility.yul\":16098:16217   */\n      iszero\n      tag_686\n      jumpi\n        /* \"#utility.yul\":16136:16215   */\n      tag_687\n      tag_427\n      jump\t// in\n    tag_687:\n        /* \"#utility.yul\":16098:16217   */\n    tag_686:\n        /* \"#utility.yul\":16256:16257   */\n      0x00\n        /* \"#utility.yul\":16281:16342   */\n      tag_688\n        /* \"#utility.yul\":16334:16341   */\n      dup5\n        /* \"#utility.yul\":16325:16331   */\n      dup3\n        /* \"#utility.yul\":16314:16323   */\n      dup6\n        /* \"#utility.yul\":16310:16332   */\n      add\n        /* \"#utility.yul\":16281:16342   */\n      tag_466\n      jump\t// in\n    tag_688:\n        /* \"#utility.yul\":16271:16342   */\n      swap2\n      pop\n        /* \"#utility.yul\":16227:16352   */\n      pop\n        /* \"#utility.yul\":16014:16359   */\n      swap3\n      swap2\n      pop\n      pop\n      jump\t// out\n        /* \"#utility.yul\":16365:16482   */\n    tag_467:\n        /* \"#utility.yul\":16474:16475   */\n      0x00\n        /* \"#utility.yul\":16471:16472   */\n      dup1\n        /* \"#utility.yul\":16464:16476   */\n      revert\n        /* \"#utility.yul\":16488:16769   */\n    tag_468:\n        /* \"#utility.yul\":16571:16598   */\n      tag_691\n        /* \"#utility.yul\":16593:16597   */\n      dup3\n        /* \"#utility.yul\":16571:16598   */\n      tag_424\n      jump\t// in\n    tag_691:\n        /* \"#utility.yul\":16563:16569   */\n      dup2\n        /* \"#utility.yul\":16559:16599   */\n      add\n        /* \"#utility.yul\":16701:16707   */\n      dup2\n        /* \"#utility.yul\":16689:16699   */\n      dup2\n        /* \"#utility.yul\":16686:16708   */\n      lt\n        /* \"#utility.yul\":16665:16683   */\n      0xffffffffffffffff\n        /* \"#utility.yul\":16653:16663   */\n      dup3\n        /* \"#utility.yul\":16650:16684   */\n      gt\n        /* \"#utility.yul\":16647:16709   */\n      or\n        /* \"#utility.yul\":16644:16732   */\n      iszero\n      tag_692\n      jumpi\n        /* \"#utility.yul\":16712:16730   */\n      tag_693\n      tag_218\n      jump\t// in\n    tag_693:\n        /* \"#utility.yul\":16644:16732   */\n    tag_692:\n        /* \"#utility.yul\":16752:16762   */\n      dup1\n        /* \"#utility.yul\":16748:16750   */\n      0x40\n        /* \"#utility.yul\":16741:16763   */\n      mstore\n        /* \"#utility.yul\":16531:16769   */\n      pop\n        /* \"#utility.yul\":16488:16769   */\n      pop\n      pop\n      jump\t// out\n        /* \"#utility.yul\":16775:16904   */\n    tag_469:\n        /* \"#utility.yul\":16809:16815   */\n      0x00\n        /* \"#utility.yul\":16836:16856   */\n      tag_695\n      tag_426\n      jump\t// in\n    tag_695:\n        /* \"#utility.yul\":16826:16856   */\n      swap1\n      pop\n        /* \"#utility.yul\":16865:16898   */\n      tag_696\n        /* \"#utility.yul\":16893:16897   */\n      dup3\n        /* \"#utility.yul\":16885:16891   */\n      dup3\n        /* \"#utility.yul\":16865:16898   */\n      tag_468\n      jump\t// in\n    tag_696:\n        /* \"#utility.yul\":16775:16904   */\n      swap2\n      swap1\n      pop\n      jump\t// out\n        /* \"#utility.yul\":17084:17534   */\n    tag_471:\n        /* \"#utility.yul\":17184:17189   */\n      0x00\n        /* \"#utility.yul\":17228:17232   */\n      0x20\n        /* \"#utility.yul\":17216:17225   */\n      dup3\n        /* \"#utility.yul\":17211:17214   */\n      dup5\n        /* \"#utility.yul\":17207:17226   */\n      sub\n        /* \"#utility.yul\":17203:17233   */\n      slt\n        /* \"#utility.yul\":17200:17317   */\n      iszero\n      tag_699\n      jumpi\n        /* \"#utility.yul\":17236:17315   */\n      tag_700\n      tag_467\n      jump\t// in\n    tag_700:\n        /* \"#utility.yul\":17200:17317   */\n    tag_699:\n        /* \"#utility.yul\":17335:17356   */\n      tag_701\n        /* \"#utility.yul\":17351:17355   */\n      0x20\n        /* \"#utility.yul\":17335:17356   */\n      tag_469\n      jump\t// in\n    tag_701:\n        /* \"#utility.yul\":17326:17356   */\n      swap1\n      pop\n        /* \"#utility.yul\":17415:17416   */\n      0x00\n        /* \"#utility.yul\":17455:17515   */\n      tag_702\n        /* \"#utility.yul\":17511:17514   */\n      dup5\n        /* \"#utility.yul\":17502:17508   */\n      dup3\n        /* \"#utility.yul\":17491:17500   */\n      dup6\n        /* \"#utility.yul\":17487:17509   */\n      add\n        /* \"#utility.yul\":17455:17515   */\n      tag_455\n      jump\t// in\n    tag_702:\n        /* \"#utility.yul\":17448:17452   */\n      0x00\n        /* \"#utility.yul\":17441:17446   */\n      dup4\n        /* \"#utility.yul\":17437:17453   */\n      add\n        /* \"#utility.yul\":17430:17516   */\n      mstore\n        /* \"#utility.yul\":17366:17527   */\n      pop\n        /* \"#utility.yul\":17084:17534   */\n      swap3\n      swap2\n      pop\n      pop\n      jump\t// out\n        /* \"#utility.yul\":17540:17658   */\n    tag_472:\n        /* \"#utility.yul\":17577:17584   */\n      0x00\n        /* \"#utility.yul\":17617:17651   */\n      0xffffffffffffffffffffffffffffffff\n        /* \"#utility.yul\":17610:17615   */\n      dup3\n        /* \"#utility.yul\":17606:17652   */\n      and\n        /* \"#utility.yul\":17595:17652   */\n      swap1\n      pop\n        /* \"#utility.yul\":17540:17658   */\n      swap2\n      swap1\n      pop\n      jump\t// out\n        /* \"#utility.yul\":17664:17786   */\n    tag_473:\n        /* \"#utility.yul\":17737:17761   */\n      tag_705\n        /* \"#utility.yul\":17755:17760   */\n      dup2\n        /* \"#utility.yul\":17737:17761   */\n      tag_472\n      jump\t// in\n    tag_705:\n        /* \"#utility.yul\":17730:17735   */\n      dup2\n        /* \"#utility.yul\":17727:17762   */\n      eq\n        /* \"#utility.yul\":17717:17780   */\n      tag_706\n      jumpi\n        /* \"#utility.yul\":17776:17777   */\n      0x00\n        /* \"#utility.yul\":17773:17774   */\n      dup1\n        /* \"#utility.yul\":17766:17778   */\n      revert\n        /* \"#utility.yul\":17717:17780   */\n    tag_706:\n        /* \"#utility.yul\":17664:17786   */\n      pop\n      jump\t// out\n        /* \"#utility.yul\":17792:17935   */\n    tag_474:\n        /* \"#utility.yul\":17849:17854   */\n      0x00\n        /* \"#utility.yul\":17880:17886   */\n      dup2\n        /* \"#utility.yul\":17874:17887   */\n      mload\n        /* \"#utility.yul\":17865:17887   */\n      swap1\n      pop\n        /* \"#utility.yul\":17896:17929   */\n      tag_708\n        /* \"#utility.yul\":17923:17928   */\n      dup2\n        /* \"#utility.yul\":17896:17929   */\n      tag_473\n      jump\t// in\n    tag_708:\n        /* \"#utility.yul\":17792:17935   */\n      swap3\n      swap2\n      pop\n      pop\n      jump\t// out\n        /* \"#utility.yul\":17941:18036   */\n    tag_475:\n        /* \"#utility.yul\":17977:17984   */\n      0x00\n        /* \"#utility.yul\":18017:18029   */\n      0xffffffffff\n        /* \"#utility.yul\":18010:18015   */\n      dup3\n        /* \"#utility.yul\":18006:18030   */\n      and\n        /* \"#utility.yul\":17995:18030   */\n      swap1\n      pop\n        /* \"#utility.yul\":17941:18036   */\n      swap2\n      swap1\n      pop\n      jump\t// out\n        /* \"#utility.yul\":18042:18162   */\n    tag_476:\n        /* \"#utility.yul\":18114:18137   */\n      tag_711\n        /* \"#utility.yul\":18131:18136   */\n      dup2\n        /* \"#utility.yul\":18114:18137   */\n      tag_475\n      jump\t// in\n    tag_711:\n        /* \"#utility.yul\":18107:18112   */\n      dup2\n        /* \"#utility.yul\":18104:18138   */\n      eq\n        /* \"#utility.yul\":18094:18156   */\n      tag_712\n      jumpi\n        /* \"#utility.yul\":18152:18153   */\n      0x00\n        /* \"#utility.yul\":18149:18150   */\n      dup1\n        /* \"#utility.yul\":18142:18154   */\n      revert\n        /* \"#utility.yul\":18094:18156   */\n    tag_712:\n        /* \"#utility.yul\":18042:18162   */\n      pop\n      jump\t// out\n        /* \"#utility.yul\":18168:18309   */\n    tag_477:\n        /* \"#utility.yul\":18224:18229   */\n      0x00\n        /* \"#utility.yul\":18255:18261   */\n      dup2\n        /* \"#utility.yul\":18249:18262   */\n      mload\n        /* \"#utility.yul\":18240:18262   */\n      swap1\n      pop\n        /* \"#utility.yul\":18271:18303   */\n      tag_714\n        /* \"#utility.yul\":18297:18302   */\n      dup2\n        /* \"#utility.yul\":18271:18303   */\n      tag_476\n      jump\t// in\n    tag_714:\n        /* \"#utility.yul\":18168:18309   */\n      swap3\n      swap2\n      pop\n      pop\n      jump\t// out\n        /* \"#utility.yul\":18315:18458   */\n    tag_478:\n        /* \"#utility.yul\":18372:18377   */\n      0x00\n        /* \"#utility.yul\":18403:18409   */\n      dup2\n        /* \"#utility.yul\":18397:18410   */\n      mload\n        /* \"#utility.yul\":18388:18410   */\n      swap1\n      pop\n        /* \"#utility.yul\":18419:18452   */\n      tag_716\n        /* \"#utility.yul\":18446:18451   */\n      dup2\n        /* \"#utility.yul\":18419:18452   */\n      tag_433\n      jump\t// in\n    tag_716:\n        /* \"#utility.yul\":18315:18458   */\n      swap3\n      swap2\n      pop\n      pop\n      jump\t// out\n        /* \"#utility.yul\":18464:18603   */\n    tag_479:\n        /* \"#utility.yul\":18519:18524   */\n      0x00\n        /* \"#utility.yul\":18550:18556   */\n      dup2\n        /* \"#utility.yul\":18544:18557   */\n      mload\n        /* \"#utility.yul\":18535:18557   */\n      swap1\n      pop\n        /* \"#utility.yul\":18566:18597   */\n      tag_718\n        /* \"#utility.yul\":18591:18596   */\n      dup2\n        /* \"#utility.yul\":18566:18597   */\n      tag_449\n      jump\t// in\n    tag_718:\n        /* \"#utility.yul\":18464:18603   */\n      swap3\n      swap2\n      pop\n      pop\n      jump\t// out\n        /* \"#utility.yul\":18648:21208   */\n    tag_480:\n        /* \"#utility.yul\":18736:18741   */\n      0x00\n        /* \"#utility.yul\":18780:18786   */\n      0x0180\n        /* \"#utility.yul\":18768:18777   */\n      dup3\n        /* \"#utility.yul\":18763:18766   */\n      dup5\n        /* \"#utility.yul\":18759:18778   */\n      sub\n        /* \"#utility.yul\":18755:18787   */\n      slt\n        /* \"#utility.yul\":18752:18871   */\n      iszero\n      tag_720\n      jumpi\n        /* \"#utility.yul\":18790:18869   */\n      tag_721\n      tag_467\n      jump\t// in\n    tag_721:\n        /* \"#utility.yul\":18752:18871   */\n    tag_720:\n        /* \"#utility.yul\":18889:18912   */\n      tag_722\n        /* \"#utility.yul\":18905:18911   */\n      0x0180\n        /* \"#utility.yul\":18889:18912   */\n      tag_469\n      jump\t// in\n    tag_722:\n        /* \"#utility.yul\":18880:18912   */\n      swap1\n      pop\n        /* \"#utility.yul\":18980:18981   */\n      0x00\n        /* \"#utility.yul\":19020:19120   */\n      tag_723\n        /* \"#utility.yul\":19116:19119   */\n      dup5\n        /* \"#utility.yul\":19107:19113   */\n      dup3\n        /* \"#utility.yul\":19096:19105   */\n      dup6\n        /* \"#utility.yul\":19092:19114   */\n      add\n        /* \"#utility.yul\":19020:19120   */\n      tag_471\n      jump\t// in\n    tag_723:\n        /* \"#utility.yul\":19013:19017   */\n      0x00\n        /* \"#utility.yul\":19006:19011   */\n      dup4\n        /* \"#utility.yul\":19002:19018   */\n      add\n        /* \"#utility.yul\":18995:19121   */\n      mstore\n        /* \"#utility.yul\":18922:19132   */\n      pop\n        /* \"#utility.yul\":19201:19203   */\n      0x20\n        /* \"#utility.yul\":19242:19302   */\n      tag_724\n        /* \"#utility.yul\":19298:19301   */\n      dup5\n        /* \"#utility.yul\":19289:19295   */\n      dup3\n        /* \"#utility.yul\":19278:19287   */\n      dup6\n        /* \"#utility.yul\":19274:19296   */\n      add\n        /* \"#utility.yul\":19242:19302   */\n      tag_474\n      jump\t// in\n    tag_724:\n        /* \"#utility.yul\":19235:19239   */\n      0x20\n        /* \"#utility.yul\":19228:19233   */\n      dup4\n        /* \"#utility.yul\":19224:19240   */\n      add\n        /* \"#utility.yul\":19217:19303   */\n      mstore\n        /* \"#utility.yul\":19142:19314   */\n      pop\n        /* \"#utility.yul\":19388:19390   */\n      0x40\n        /* \"#utility.yul\":19429:19489   */\n      tag_725\n        /* \"#utility.yul\":19485:19488   */\n      dup5\n        /* \"#utility.yul\":19476:19482   */\n      dup3\n        /* \"#utility.yul\":19465:19474   */\n      dup6\n        /* \"#utility.yul\":19461:19483   */\n      add\n        /* \"#utility.yul\":19429:19489   */\n      tag_474\n      jump\t// in\n    tag_725:\n        /* \"#utility.yul\":19422:19426   */\n      0x40\n        /* \"#utility.yul\":19415:19420   */\n      dup4\n        /* \"#utility.yul\":19411:19427   */\n      add\n        /* \"#utility.yul\":19404:19490   */\n      mstore\n        /* \"#utility.yul\":19324:19501   */\n      pop\n        /* \"#utility.yul\":19576:19578   */\n      0x60\n        /* \"#utility.yul\":19617:19677   */\n      tag_726\n        /* \"#utility.yul\":19673:19676   */\n      dup5\n        /* \"#utility.yul\":19664:19670   */\n      dup3\n        /* \"#utility.yul\":19653:19662   */\n      dup6\n        /* \"#utility.yul\":19649:19671   */\n      add\n        /* \"#utility.yul\":19617:19677   */\n      tag_474\n      jump\t// in\n    tag_726:\n        /* \"#utility.yul\":19610:19614   */\n      0x60\n        /* \"#utility.yul\":19603:19608   */\n      dup4\n        /* \"#utility.yul\":19599:19615   */\n      add\n        /* \"#utility.yul\":19592:19678   */\n      mstore\n        /* \"#utility.yul\":19511:19689   */\n      pop\n        /* \"#utility.yul\":19769:19772   */\n      0x80\n        /* \"#utility.yul\":19811:19871   */\n      tag_727\n        /* \"#utility.yul\":19867:19870   */\n      dup5\n        /* \"#utility.yul\":19858:19864   */\n      dup3\n        /* \"#utility.yul\":19847:19856   */\n      dup6\n        /* \"#utility.yul\":19843:19865   */\n      add\n        /* \"#utility.yul\":19811:19871   */\n      tag_474\n      jump\t// in\n    tag_727:\n        /* \"#utility.yul\":19804:19808   */\n      0x80\n        /* \"#utility.yul\":19797:19802   */\n      dup4\n        /* \"#utility.yul\":19793:19809   */\n      add\n        /* \"#utility.yul\":19786:19872   */\n      mstore\n        /* \"#utility.yul\":19699:19883   */\n      pop\n        /* \"#utility.yul\":19961:19964   */\n      0xa0\n        /* \"#utility.yul\":20003:20063   */\n      tag_728\n        /* \"#utility.yul\":20059:20062   */\n      dup5\n        /* \"#utility.yul\":20050:20056   */\n      dup3\n        /* \"#utility.yul\":20039:20048   */\n      dup6\n        /* \"#utility.yul\":20035:20057   */\n      add\n        /* \"#utility.yul\":20003:20063   */\n      tag_474\n      jump\t// in\n    tag_728:\n        /* \"#utility.yul\":19996:20000   */\n      0xa0\n        /* \"#utility.yul\":19989:19994   */\n      dup4\n        /* \"#utility.yul\":19985:20001   */\n      add\n        /* \"#utility.yul\":19978:20064   */\n      mstore\n        /* \"#utility.yul\":19893:20075   */\n      pop\n        /* \"#utility.yul\":20149:20152   */\n      0xc0\n        /* \"#utility.yul\":20191:20250   */\n      tag_729\n        /* \"#utility.yul\":20246:20249   */\n      dup5\n        /* \"#utility.yul\":20237:20243   */\n      dup3\n        /* \"#utility.yul\":20226:20235   */\n      dup6\n        /* \"#utility.yul\":20222:20244   */\n      add\n        /* \"#utility.yul\":20191:20250   */\n      tag_477\n      jump\t// in\n    tag_729:\n        /* \"#utility.yul\":20184:20188   */\n      0xc0\n        /* \"#utility.yul\":20177:20182   */\n      dup4\n        /* \"#utility.yul\":20173:20189   */\n      add\n        /* \"#utility.yul\":20166:20251   */\n      mstore\n        /* \"#utility.yul\":20085:20262   */\n      pop\n        /* \"#utility.yul\":20330:20333   */\n      0xe0\n        /* \"#utility.yul\":20372:20432   */\n      tag_730\n        /* \"#utility.yul\":20428:20431   */\n      dup5\n        /* \"#utility.yul\":20419:20425   */\n      dup3\n        /* \"#utility.yul\":20408:20417   */\n      dup6\n        /* \"#utility.yul\":20404:20426   */\n      add\n        /* \"#utility.yul\":20372:20432   */\n      tag_478\n      jump\t// in\n    tag_730:\n        /* \"#utility.yul\":20365:20369   */\n      0xe0\n        /* \"#utility.yul\":20358:20363   */\n      dup4\n        /* \"#utility.yul\":20354:20370   */\n      add\n        /* \"#utility.yul\":20347:20433   */\n      mstore\n        /* \"#utility.yul\":20272:20444   */\n      pop\n        /* \"#utility.yul\":20521:20524   */\n      0x0100\n        /* \"#utility.yul\":20565:20625   */\n      tag_731\n        /* \"#utility.yul\":20621:20624   */\n      dup5\n        /* \"#utility.yul\":20612:20618   */\n      dup3\n        /* \"#utility.yul\":20601:20610   */\n      dup6\n        /* \"#utility.yul\":20597:20619   */\n      add\n        /* \"#utility.yul\":20565:20625   */\n      tag_478\n      jump\t// in\n    tag_731:\n        /* \"#utility.yul\":20556:20562   */\n      0x0100\n        /* \"#utility.yul\":20549:20554   */\n      dup4\n        /* \"#utility.yul\":20545:20563   */\n      add\n        /* \"#utility.yul\":20538:20626   */\n      mstore\n        /* \"#utility.yul\":20454:20637   */\n      pop\n        /* \"#utility.yul\":20716:20719   */\n      0x0120\n        /* \"#utility.yul\":20760:20820   */\n      tag_732\n        /* \"#utility.yul\":20816:20819   */\n      dup5\n        /* \"#utility.yul\":20807:20813   */\n      dup3\n        /* \"#utility.yul\":20796:20805   */\n      dup6\n        /* \"#utility.yul\":20792:20814   */\n      add\n        /* \"#utility.yul\":20760:20820   */\n      tag_478\n      jump\t// in\n    tag_732:\n        /* \"#utility.yul\":20751:20757   */\n      0x0120\n        /* \"#utility.yul\":20744:20749   */\n      dup4\n        /* \"#utility.yul\":20740:20758   */\n      add\n        /* \"#utility.yul\":20733:20821   */\n      mstore\n        /* \"#utility.yul\":20647:20832   */\n      pop\n        /* \"#utility.yul\":20914:20917   */\n      0x0140\n        /* \"#utility.yul\":20958:21018   */\n      tag_733\n        /* \"#utility.yul\":21014:21017   */\n      dup5\n        /* \"#utility.yul\":21005:21011   */\n      dup3\n        /* \"#utility.yul\":20994:21003   */\n      dup6\n        /* \"#utility.yul\":20990:21012   */\n      add\n        /* \"#utility.yul\":20958:21018   */\n      tag_478\n      jump\t// in\n    tag_733:\n        /* \"#utility.yul\":20949:20955   */\n      0x0140\n        /* \"#utility.yul\":20942:20947   */\n      dup4\n        /* \"#utility.yul\":20938:20956   */\n      add\n        /* \"#utility.yul\":20931:21019   */\n      mstore\n        /* \"#utility.yul\":20842:21030   */\n      pop\n        /* \"#utility.yul\":21087:21090   */\n      0x0160\n        /* \"#utility.yul\":21131:21189   */\n      tag_734\n        /* \"#utility.yul\":21185:21188   */\n      dup5\n        /* \"#utility.yul\":21176:21182   */\n      dup3\n        /* \"#utility.yul\":21165:21174   */\n      dup6\n        /* \"#utility.yul\":21161:21183   */\n      add\n        /* \"#utility.yul\":21131:21189   */\n      tag_479\n      jump\t// in\n    tag_734:\n        /* \"#utility.yul\":21122:21128   */\n      0x0160\n        /* \"#utility.yul\":21115:21120   */\n      dup4\n        /* \"#utility.yul\":21111:21129   */\n      add\n        /* \"#utility.yul\":21104:21190   */\n      mstore\n        /* \"#utility.yul\":21040:21201   */\n      pop\n        /* \"#utility.yul\":18648:21208   */\n      swap3\n      swap2\n      pop\n      pop\n      jump\t// out\n        /* \"#utility.yul\":21214:21622   */\n    tag_239:\n        /* \"#utility.yul\":21312:21318   */\n      0x00\n        /* \"#utility.yul\":21361:21364   */\n      0x0180\n        /* \"#utility.yul\":21349:21358   */\n      dup3\n        /* \"#utility.yul\":21340:21347   */\n      dup5\n        /* \"#utility.yul\":21336:21359   */\n      sub\n        /* \"#utility.yul\":21332:21365   */\n      slt\n        /* \"#utility.yul\":21329:21449   */\n      iszero\n      tag_736\n      jumpi\n        /* \"#utility.yul\":21368:21447   */\n      tag_737\n      tag_427\n      jump\t// in\n    tag_737:\n        /* \"#utility.yul\":21329:21449   */\n    tag_736:\n        /* \"#utility.yul\":21488:21489   */\n      0x00\n        /* \"#utility.yul\":21513:21605   */\n      tag_738\n        /* \"#utility.yul\":21597:21604   */\n      dup5\n        /* \"#utility.yul\":21588:21594   */\n      dup3\n        /* \"#utility.yul\":21577:21586   */\n      dup6\n        /* \"#utility.yul\":21573:21595   */\n      add\n        /* \"#utility.yul\":21513:21605   */\n      tag_480\n      jump\t// in\n    tag_738:\n        /* \"#utility.yul\":21503:21605   */\n      swap2\n      pop\n        /* \"#utility.yul\":21459:21615   */\n      pop\n        /* \"#utility.yul\":21214:21622   */\n      swap3\n      swap2\n      pop\n      pop\n      jump\t// out\n        /* \"#utility.yul\":21628:21789   */\n    tag_481:\n        /* \"#utility.yul\":21768:21781   */\n      0x5a45524f5f534841524553000000000000000000000000000000000000000000\n        /* \"#utility.yul\":21764:21765   */\n      0x00\n        /* \"#utility.yul\":21756:21762   */\n      dup3\n        /* \"#utility.yul\":21752:21766   */\n      add\n        /* \"#utility.yul\":21745:21782   */\n      mstore\n        /* \"#utility.yul\":21628:21789   */\n      pop\n      jump\t// out\n        /* \"#utility.yul\":21795:22161   */\n    tag_482:\n        /* \"#utility.yul\":21937:21940   */\n      0x00\n        /* \"#utility.yul\":21958:22025   */\n      tag_741\n        /* \"#utility.yul\":22022:22024   */\n      0x0b\n        /* \"#utility.yul\":22017:22020   */\n      dup4\n        /* \"#utility.yul\":21958:22025   */\n      tag_422\n      jump\t// in\n    tag_741:\n        /* \"#utility.yul\":21951:22025   */\n      swap2\n      pop\n        /* \"#utility.yul\":22034:22127   */\n      tag_742\n        /* \"#utility.yul\":22123:22126   */\n      dup3\n        /* \"#utility.yul\":22034:22127   */\n      tag_481\n      jump\t// in\n    tag_742:\n        /* \"#utility.yul\":22152:22154   */\n      0x20\n        /* \"#utility.yul\":22147:22150   */\n      dup3\n        /* \"#utility.yul\":22143:22155   */\n      add\n        /* \"#utility.yul\":22136:22155   */\n      swap1\n      pop\n        /* \"#utility.yul\":21795:22161   */\n      swap2\n      swap1\n      pop\n      jump\t// out\n        /* \"#utility.yul\":22167:22586   */\n    tag_252:\n        /* \"#utility.yul\":22333:22337   */\n      0x00\n        /* \"#utility.yul\":22371:22373   */\n      0x20\n        /* \"#utility.yul\":22360:22369   */\n      dup3\n        /* \"#utility.yul\":22356:22374   */\n      add\n        /* \"#utility.yul\":22348:22374   */\n      swap1\n      pop\n        /* \"#utility.yul\":22420:22429   */\n      dup2\n        /* \"#utility.yul\":22414:22418   */\n      dup2\n        /* \"#utility.yul\":22410:22430   */\n      sub\n        /* \"#utility.yul\":22406:22407   */\n      0x00\n        /* \"#utility.yul\":22395:22404   */\n      dup4\n        /* \"#utility.yul\":22391:22408   */\n      add\n        /* \"#utility.yul\":22384:22431   */\n      mstore\n        /* \"#utility.yul\":22448:22579   */\n      tag_744\n        /* \"#utility.yul\":22574:22578   */\n      dup2\n        /* \"#utility.yul\":22448:22579   */\n      tag_482\n      jump\t// in\n    tag_744:\n        /* \"#utility.yul\":22440:22579   */\n      swap1\n      pop\n        /* \"#utility.yul\":22167:22586   */\n      swap2\n      swap1\n      pop\n      jump\t// out\n        /* \"#utility.yul\":22592:22924   */\n    tag_258:\n        /* \"#utility.yul\":22713:22717   */\n      0x00\n        /* \"#utility.yul\":22751:22753   */\n      0x40\n        /* \"#utility.yul\":22740:22749   */\n      dup3\n        /* \"#utility.yul\":22736:22754   */\n      add\n        /* \"#utility.yul\":22728:22754   */\n      swap1\n      pop\n        /* \"#utility.yul\":22764:22835   */\n      tag_746\n        /* \"#utility.yul\":22832:22833   */\n      0x00\n        /* \"#utility.yul\":22821:22830   */\n      dup4\n        /* \"#utility.yul\":22817:22834   */\n      add\n        /* \"#utility.yul\":22808:22814   */\n      dup6\n        /* \"#utility.yul\":22764:22835   */\n      tag_420\n      jump\t// in\n    tag_746:\n        /* \"#utility.yul\":22845:22917   */\n      tag_747\n        /* \"#utility.yul\":22913:22915   */\n      0x20\n        /* \"#utility.yul\":22902:22911   */\n      dup4\n        /* \"#utility.yul\":22898:22916   */\n      add\n        /* \"#utility.yul\":22889:22895   */\n      dup5\n        /* \"#utility.yul\":22845:22917   */\n      tag_420\n      jump\t// in\n    tag_747:\n        /* \"#utility.yul\":22592:22924   */\n      swap4\n      swap3\n      pop\n      pop\n      pop\n      jump\t// out\n        /* \"#utility.yul\":22930:23372   */\n    tag_291:\n        /* \"#utility.yul\":23079:23083   */\n      0x00\n        /* \"#utility.yul\":23117:23119   */\n      0x60\n        /* \"#utility.yul\":23106:23115   */\n      dup3\n        /* \"#utility.yul\":23102:23120   */\n      add\n        /* \"#utility.yul\":23094:23120   */\n      swap1\n      pop\n        /* \"#utility.yul\":23130:23201   */\n      tag_749\n        /* \"#utility.yul\":23198:23199   */\n      0x00\n        /* \"#utility.yul\":23187:23196   */\n      dup4\n        /* \"#utility.yul\":23183:23200   */\n      add\n        /* \"#utility.yul\":23174:23180   */\n      dup7\n        /* \"#utility.yul\":23130:23201   */\n      tag_437\n      jump\t// in\n    tag_749:\n        /* \"#utility.yul\":23211:23283   */\n      tag_750\n        /* \"#utility.yul\":23279:23281   */\n      0x20\n        /* \"#utility.yul\":23268:23277   */\n      dup4\n        /* \"#utility.yul\":23264:23282   */\n      add\n        /* \"#utility.yul\":23255:23261   */\n      dup6\n        /* \"#utility.yul\":23211:23283   */\n      tag_420\n      jump\t// in\n    tag_750:\n        /* \"#utility.yul\":23293:23365   */\n      tag_751\n        /* \"#utility.yul\":23361:23363   */\n      0x40\n        /* \"#utility.yul\":23350:23359   */\n      dup4\n        /* \"#utility.yul\":23346:23364   */\n      add\n        /* \"#utility.yul\":23337:23343   */\n      dup5\n        /* \"#utility.yul\":23293:23365   */\n      tag_437\n      jump\t// in\n    tag_751:\n        /* \"#utility.yul\":22930:23372   */\n      swap5\n      swap4\n      pop\n      pop\n      pop\n      pop\n      jump\t// out\n        /* \"#utility.yul\":23378:23539   */\n    tag_483:\n        /* \"#utility.yul\":23518:23531   */\n      0x5a45524f5f415353455453000000000000000000000000000000000000000000\n        /* \"#utility.yul\":23514:23515   */\n      0x00\n        /* \"#utility.yul\":23506:23512   */\n      dup3\n        /* \"#utility.yul\":23502:23516   */\n      add\n        /* \"#utility.yul\":23495:23532   */\n      mstore\n        /* \"#utility.yul\":23378:23539   */\n      pop\n      jump\t// out\n        /* \"#utility.yul\":23545:23911   */\n    tag_484:\n        /* \"#utility.yul\":23687:23690   */\n      0x00\n        /* \"#utility.yul\":23708:23775   */\n      tag_754\n        /* \"#utility.yul\":23772:23774   */\n      0x0b\n        /* \"#utility.yul\":23767:23770   */\n      dup4\n        /* \"#utility.yul\":23708:23775   */\n      tag_422\n      jump\t// in\n    tag_754:\n        /* \"#utility.yul\":23701:23775   */\n      swap2\n      pop\n        /* \"#utility.yul\":23784:23877   */\n      tag_755\n        /* \"#utility.yul\":23873:23876   */\n      dup3\n        /* \"#utility.yul\":23784:23877   */\n      tag_483\n      jump\t// in\n    tag_755:\n        /* \"#utility.yul\":23902:23904   */\n      0x20\n        /* \"#utility.yul\":23897:23900   */\n      dup3\n        /* \"#utility.yul\":23893:23905   */\n      add\n        /* \"#utility.yul\":23886:23905   */\n      swap1\n      pop\n        /* \"#utility.yul\":23545:23911   */\n      swap2\n      swap1\n      pop\n      jump\t// out\n        /* \"#utility.yul\":23917:24336   */\n    tag_302:\n        /* \"#utility.yul\":24083:24087   */\n      0x00\n        /* \"#utility.yul\":24121:24123   */\n      0x20\n        /* \"#utility.yul\":24110:24119   */\n      dup3\n        /* \"#utility.yul\":24106:24124   */\n      add\n        /* \"#utility.yul\":24098:24124   */\n      swap1\n      pop\n        /* \"#utility.yul\":24170:24179   */\n      dup2\n        /* \"#utility.yul\":24164:24168   */\n      dup2\n        /* \"#utility.yul\":24160:24180   */\n      sub\n        /* \"#utility.yul\":24156:24157   */\n      0x00\n        /* \"#utility.yul\":24145:24154   */\n      dup4\n        /* \"#utility.yul\":24141:24158   */\n      add\n        /* \"#utility.yul\":24134:24181   */\n      mstore\n        /* \"#utility.yul\":24198:24329   */\n      tag_757\n        /* \"#utility.yul\":24324:24328   */\n      dup2\n        /* \"#utility.yul\":24198:24329   */\n      tag_484\n      jump\t// in\n    tag_757:\n        /* \"#utility.yul\":24190:24329   */\n      swap1\n      pop\n        /* \"#utility.yul\":23917:24336   */\n      swap2\n      swap1\n      pop\n      jump\t// out\n        /* \"#utility.yul\":24342:24515   */\n    tag_485:\n        /* \"#utility.yul\":24482:24507   */\n      0x5045524d49545f444541444c494e455f45585049524544000000000000000000\n        /* \"#utility.yul\":24478:24479   */\n      0x00\n        /* \"#utility.yul\":24470:24476   */\n      dup3\n        /* \"#utility.yul\":24466:24480   */\n      add\n        /* \"#utility.yul\":24459:24508   */\n      mstore\n        /* \"#utility.yul\":24342:24515   */\n      pop\n      jump\t// out\n        /* \"#utility.yul\":24521:24887   */\n    tag_486:\n        /* \"#utility.yul\":24663:24666   */\n      0x00\n        /* \"#utility.yul\":24684:24751   */\n      tag_760\n        /* \"#utility.yul\":24748:24750   */\n      0x17\n        /* \"#utility.yul\":24743:24746   */\n      dup4\n        /* \"#utility.yul\":24684:24751   */\n      tag_422\n      jump\t// in\n    tag_760:\n        /* \"#utility.yul\":24677:24751   */\n      swap2\n      pop\n        /* \"#utility.yul\":24760:24853   */\n      tag_761\n        /* \"#utility.yul\":24849:24852   */\n      dup3\n        /* \"#utility.yul\":24760:24853   */\n      tag_485\n      jump\t// in\n    tag_761:\n        /* \"#utility.yul\":24878:24880   */\n      0x20\n        /* \"#utility.yul\":24873:24876   */\n      dup3\n        /* \"#utility.yul\":24869:24881   */\n      add\n        /* \"#utility.yul\":24862:24881   */\n      swap1\n      pop\n        /* \"#utility.yul\":24521:24887   */\n      swap2\n      swap1\n      pop\n      jump\t// out\n        /* \"#utility.yul\":24893:25312   */\n    tag_349:\n        /* \"#utility.yul\":25059:25063   */\n      0x00\n        /* \"#utility.yul\":25097:25099   */\n      0x20\n        /* \"#utility.yul\":25086:25095   */\n      dup3\n        /* \"#utility.yul\":25082:25100   */\n      add\n        /* \"#utility.yul\":25074:25100   */\n      swap1\n      pop\n        /* \"#utility.yul\":25146:25155   */\n      dup2\n        /* \"#utility.yul\":25140:25144   */\n      dup2\n        /* \"#utility.yul\":25136:25156   */\n      sub\n        /* \"#utility.yul\":25132:25133   */\n      0x00\n        /* \"#utility.yul\":25121:25130   */\n      dup4\n        /* \"#utility.yul\":25117:25134   */\n      add\n        /* \"#utility.yul\":25110:25157   */\n      mstore\n        /* \"#utility.yul\":25174:25305   */\n      tag_763\n        /* \"#utility.yul\":25300:25304   */\n      dup2\n        /* \"#utility.yul\":25174:25305   */\n      tag_486\n      jump\t// in\n    tag_763:\n        /* \"#utility.yul\":25166:25305   */\n      swap1\n      pop\n        /* \"#utility.yul\":24893:25312   */\n      swap2\n      swap1\n      pop\n      jump\t// out\n        /* \"#utility.yul\":25318:26093   */\n    tag_352:\n        /* \"#utility.yul\":25551:25555   */\n      0x00\n        /* \"#utility.yul\":25589:25592   */\n      0xc0\n        /* \"#utility.yul\":25578:25587   */\n      dup3\n        /* \"#utility.yul\":25574:25593   */\n      add\n        /* \"#utility.yul\":25566:25593   */\n      swap1\n      pop\n        /* \"#utility.yul\":25603:25674   */\n      tag_765\n        /* \"#utility.yul\":25671:25672   */\n      0x00\n        /* \"#utility.yul\":25660:25669   */\n      dup4\n        /* \"#utility.yul\":25656:25673   */\n      add\n        /* \"#utility.yul\":25647:25653   */\n      dup10\n        /* \"#utility.yul\":25603:25674   */\n      tag_441\n      jump\t// in\n    tag_765:\n        /* \"#utility.yul\":25684:25756   */\n      tag_766\n        /* \"#utility.yul\":25752:25754   */\n      0x20\n        /* \"#utility.yul\":25741:25750   */\n      dup4\n        /* \"#utility.yul\":25737:25755   */\n      add\n        /* \"#utility.yul\":25728:25734   */\n      dup9\n        /* \"#utility.yul\":25684:25756   */\n      tag_437\n      jump\t// in\n    tag_766:\n        /* \"#utility.yul\":25766:25838   */\n      tag_767\n        /* \"#utility.yul\":25834:25836   */\n      0x40\n        /* \"#utility.yul\":25823:25832   */\n      dup4\n        /* \"#utility.yul\":25819:25837   */\n      add\n        /* \"#utility.yul\":25810:25816   */\n      dup8\n        /* \"#utility.yul\":25766:25838   */\n      tag_437\n      jump\t// in\n    tag_767:\n        /* \"#utility.yul\":25848:25920   */\n      tag_768\n        /* \"#utility.yul\":25916:25918   */\n      0x60\n        /* \"#utility.yul\":25905:25914   */\n      dup4\n        /* \"#utility.yul\":25901:25919   */\n      add\n        /* \"#utility.yul\":25892:25898   */\n      dup7\n        /* \"#utility.yul\":25848:25920   */\n      tag_420\n      jump\t// in\n    tag_768:\n        /* \"#utility.yul\":25930:26003   */\n      tag_769\n        /* \"#utility.yul\":25998:26001   */\n      0x80\n        /* \"#utility.yul\":25987:25996   */\n      dup4\n        /* \"#utility.yul\":25983:26002   */\n      add\n        /* \"#utility.yul\":25974:25980   */\n      dup6\n        /* \"#utility.yul\":25930:26003   */\n      tag_420\n      jump\t// in\n    tag_769:\n        /* \"#utility.yul\":26013:26086   */\n      tag_770\n        /* \"#utility.yul\":26081:26084   */\n      0xa0\n        /* \"#utility.yul\":26070:26079   */\n      dup4\n        /* \"#utility.yul\":26066:26085   */\n      add\n        /* \"#utility.yul\":26057:26063   */\n      dup5\n        /* \"#utility.yul\":26013:26086   */\n      tag_420\n      jump\t// in\n    tag_770:\n        /* \"#utility.yul\":25318:26093   */\n      swap8\n      swap7\n      pop\n      pop\n      pop\n      pop\n      pop\n      pop\n      pop\n      jump\t// out\n        /* \"#utility.yul\":26099:26247   */\n    tag_487:\n        /* \"#utility.yul\":26201:26212   */\n      0x00\n        /* \"#utility.yul\":26238:26241   */\n      dup2\n        /* \"#utility.yul\":26223:26241   */\n      swap1\n      pop\n        /* \"#utility.yul\":26099:26247   */\n      swap3\n      swap2\n      pop\n      pop\n      jump\t// out\n        /* \"#utility.yul\":26253:26467   */\n    tag_488:\n        /* \"#utility.yul\":26393:26459   */\n      0x1901000000000000000000000000000000000000000000000000000000000000\n        /* \"#utility.yul\":26389:26390   */\n      0x00\n        /* \"#utility.yul\":26381:26387   */\n      dup3\n        /* \"#utility.yul\":26377:26391   */\n      add\n        /* \"#utility.yul\":26370:26460   */\n      mstore\n        /* \"#utility.yul\":26253:26467   */\n      pop\n      jump\t// out\n        /* \"#utility.yul\":26473:26873   */\n    tag_489:\n        /* \"#utility.yul\":26633:26636   */\n      0x00\n        /* \"#utility.yul\":26654:26738   */\n      tag_774\n        /* \"#utility.yul\":26736:26737   */\n      0x02\n        /* \"#utility.yul\":26731:26734   */\n      dup4\n        /* \"#utility.yul\":26654:26738   */\n      tag_487\n      jump\t// in\n    tag_774:\n        /* \"#utility.yul\":26647:26738   */\n      swap2\n      pop\n        /* \"#utility.yul\":26747:26840   */\n      tag_775\n        /* \"#utility.yul\":26836:26839   */\n      dup3\n        /* \"#utility.yul\":26747:26840   */\n      tag_488\n      jump\t// in\n    tag_775:\n        /* \"#utility.yul\":26865:26866   */\n      0x02\n        /* \"#utility.yul\":26860:26863   */\n      dup3\n        /* \"#utility.yul\":26856:26867   */\n      add\n        /* \"#utility.yul\":26849:26867   */\n      swap1\n      pop\n        /* \"#utility.yul\":26473:26873   */\n      swap2\n      swap1\n      pop\n      jump\t// out\n        /* \"#utility.yul\":26879:26958   */\n    tag_490:\n        /* \"#utility.yul\":26918:26925   */\n      0x00\n        /* \"#utility.yul\":26947:26952   */\n      dup2\n        /* \"#utility.yul\":26936:26952   */\n      swap1\n      pop\n        /* \"#utility.yul\":26879:26958   */\n      swap2\n      swap1\n      pop\n      jump\t// out\n        /* \"#utility.yul\":26964:27121   */\n    tag_491:\n        /* \"#utility.yul\":27069:27114   */\n      tag_778\n        /* \"#utility.yul\":27089:27113   */\n      tag_779\n        /* \"#utility.yul\":27107:27112   */\n      dup3\n        /* \"#utility.yul\":27089:27113   */\n      tag_440\n      jump\t// in\n    tag_779:\n        /* \"#utility.yul\":27069:27114   */\n      tag_490\n      jump\t// in\n    tag_778:\n        /* \"#utility.yul\":27064:27067   */\n      dup3\n        /* \"#utility.yul\":27057:27115   */\n      mstore\n        /* \"#utility.yul\":26964:27121   */\n      pop\n      pop\n      jump\t// out\n        /* \"#utility.yul\":27127:27790   */\n    tag_354:\n        /* \"#utility.yul\":27368:27371   */\n      0x00\n        /* \"#utility.yul\":27390:27538   */\n      tag_781\n        /* \"#utility.yul\":27534:27537   */\n      dup3\n        /* \"#utility.yul\":27390:27538   */\n      tag_489\n      jump\t// in\n    tag_781:\n        /* \"#utility.yul\":27383:27538   */\n      swap2\n      pop\n        /* \"#utility.yul\":27548:27623   */\n      tag_782\n        /* \"#utility.yul\":27619:27622   */\n      dup3\n        /* \"#utility.yul\":27610:27616   */\n      dup6\n        /* \"#utility.yul\":27548:27623   */\n      tag_491\n      jump\t// in\n    tag_782:\n        /* \"#utility.yul\":27648:27650   */\n      0x20\n        /* \"#utility.yul\":27643:27646   */\n      dup3\n        /* \"#utility.yul\":27639:27651   */\n      add\n        /* \"#utility.yul\":27632:27651   */\n      swap2\n      pop\n        /* \"#utility.yul\":27661:27736   */\n      tag_783\n        /* \"#utility.yul\":27732:27735   */\n      dup3\n        /* \"#utility.yul\":27723:27729   */\n      dup5\n        /* \"#utility.yul\":27661:27736   */\n      tag_491\n      jump\t// in\n    tag_783:\n        /* \"#utility.yul\":27761:27763   */\n      0x20\n        /* \"#utility.yul\":27756:27759   */\n      dup3\n        /* \"#utility.yul\":27752:27764   */\n      add\n        /* \"#utility.yul\":27745:27764   */\n      swap2\n      pop\n        /* \"#utility.yul\":27781:27784   */\n      dup2\n        /* \"#utility.yul\":27774:27784   */\n      swap1\n      pop\n        /* \"#utility.yul\":27127:27790   */\n      swap4\n      swap3\n      pop\n      pop\n      pop\n      jump\t// out\n        /* \"#utility.yul\":27796:28341   */\n    tag_356:\n        /* \"#utility.yul\":27969:27973   */\n      0x00\n        /* \"#utility.yul\":28007:28010   */\n      0x80\n        /* \"#utility.yul\":27996:28005   */\n      dup3\n        /* \"#utility.yul\":27992:28011   */\n      add\n        /* \"#utility.yul\":27984:28011   */\n      swap1\n      pop\n        /* \"#utility.yul\":28021:28092   */\n      tag_785\n        /* \"#utility.yul\":28089:28090   */\n      0x00\n        /* \"#utility.yul\":28078:28087   */\n      dup4\n        /* \"#utility.yul\":28074:28091   */\n      add\n        /* \"#utility.yul\":28065:28071   */\n      dup8\n        /* \"#utility.yul\":28021:28092   */\n      tag_441\n      jump\t// in\n    tag_785:\n        /* \"#utility.yul\":28102:28170   */\n      tag_786\n        /* \"#utility.yul\":28166:28168   */\n      0x20\n        /* \"#utility.yul\":28155:28164   */\n      dup4\n        /* \"#utility.yul\":28151:28169   */\n      add\n        /* \"#utility.yul\":28142:28148   */\n      dup7\n        /* \"#utility.yul\":28102:28170   */\n      tag_439\n      jump\t// in\n    tag_786:\n        /* \"#utility.yul\":28180:28252   */\n      tag_787\n        /* \"#utility.yul\":28248:28250   */\n      0x40\n        /* \"#utility.yul\":28237:28246   */\n      dup4\n        /* \"#utility.yul\":28233:28251   */\n      add\n        /* \"#utility.yul\":28224:28230   */\n      dup6\n        /* \"#utility.yul\":28180:28252   */\n      tag_441\n      jump\t// in\n    tag_787:\n        /* \"#utility.yul\":28262:28334   */\n      tag_788\n        /* \"#utility.yul\":28330:28332   */\n      0x60\n        /* \"#utility.yul\":28319:28328   */\n      dup4\n        /* \"#utility.yul\":28315:28333   */\n      add\n        /* \"#utility.yul\":28306:28312   */\n      dup5\n        /* \"#utility.yul\":28262:28334   */\n      tag_441\n      jump\t// in\n    tag_788:\n        /* \"#utility.yul\":27796:28341   */\n      swap6\n      swap5\n      pop\n      pop\n      pop\n      pop\n      pop\n      jump\t// out\n        /* \"#utility.yul\":28347:28511   */\n    tag_492:\n        /* \"#utility.yul\":28487:28503   */\n      0x494e56414c49445f5349474e4552000000000000000000000000000000000000\n        /* \"#utility.yul\":28483:28484   */\n      0x00\n        /* \"#utility.yul\":28475:28481   */\n      dup3\n        /* \"#utility.yul\":28471:28485   */\n      add\n        /* \"#utility.yul\":28464:28504   */\n      mstore\n        /* \"#utility.yul\":28347:28511   */\n      pop\n      jump\t// out\n        /* \"#utility.yul\":28517:28883   */\n    tag_493:\n        /* \"#utility.yul\":28659:28662   */\n      0x00\n        /* \"#utility.yul\":28680:28747   */\n      tag_791\n        /* \"#utility.yul\":28744:28746   */\n      0x0e\n        /* \"#utility.yul\":28739:28742   */\n      dup4\n        /* \"#utility.yul\":28680:28747   */\n      tag_422\n      jump\t// in\n    tag_791:\n        /* \"#utility.yul\":28673:28747   */\n      swap2\n      pop\n        /* \"#utility.yul\":28756:28849   */\n      tag_792\n        /* \"#utility.yul\":28845:28848   */\n      dup3\n        /* \"#utility.yul\":28756:28849   */\n      tag_492\n      jump\t// in\n    tag_792:\n        /* \"#utility.yul\":28874:28876   */\n      0x20\n        /* \"#utility.yul\":28869:28872   */\n      dup3\n        /* \"#utility.yul\":28865:28877   */\n      add\n        /* \"#utility.yul\":28858:28877   */\n      swap1\n      pop\n        /* \"#utility.yul\":28517:28883   */\n      swap2\n      swap1\n      pop\n      jump\t// out\n        /* \"#utility.yul\":28889:29308   */\n    tag_362:\n        /* \"#utility.yul\":29055:29059   */\n      0x00\n        /* \"#utility.yul\":29093:29095   */\n      0x20\n        /* \"#utility.yul\":29082:29091   */\n      dup3\n        /* \"#utility.yul\":29078:29096   */\n      add\n        /* \"#utility.yul\":29070:29096   */\n      swap1\n      pop\n        /* \"#utility.yul\":29142:29151   */\n      dup2\n        /* \"#utility.yul\":29136:29140   */\n      dup2\n        /* \"#utility.yul\":29132:29152   */\n      sub\n        /* \"#utility.yul\":29128:29129   */\n      0x00\n        /* \"#utility.yul\":29117:29126   */\n      dup4\n        /* \"#utility.yul\":29113:29130   */\n      add\n        /* \"#utility.yul\":29106:29153   */\n      mstore\n        /* \"#utility.yul\":29170:29301   */\n      tag_794\n        /* \"#utility.yul\":29296:29300   */\n      dup2\n        /* \"#utility.yul\":29170:29301   */\n      tag_493\n      jump\t// in\n    tag_794:\n        /* \"#utility.yul\":29162:29301   */\n      swap1\n      pop\n        /* \"#utility.yul\":28889:29308   */\n      swap2\n      swap1\n      pop\n      jump\t// out\n        /* \"#utility.yul\":29314:29461   */\n    tag_494:\n        /* \"#utility.yul\":29415:29426   */\n      0x00\n        /* \"#utility.yul\":29452:29455   */\n      dup2\n        /* \"#utility.yul\":29437:29455   */\n      swap1\n      pop\n        /* \"#utility.yul\":29314:29461   */\n      swap3\n      swap2\n      pop\n      pop\n      jump\t// out\n        /* \"#utility.yul\":29467:29611   */\n    tag_495:\n        /* \"#utility.yul\":29519:29523   */\n      0x00\n        /* \"#utility.yul\":29542:29545   */\n      dup2\n        /* \"#utility.yul\":29534:29545   */\n      swap1\n      pop\n        /* \"#utility.yul\":29565:29568   */\n      dup2\n        /* \"#utility.yul\":29562:29563   */\n      0x00\n        /* \"#utility.yul\":29555:29569   */\n      mstore\n        /* \"#utility.yul\":29599:29603   */\n      0x20\n        /* \"#utility.yul\":29596:29597   */\n      0x00\n        /* \"#utility.yul\":29586:29604   */\n      keccak256\n        /* \"#utility.yul\":29578:29604   */\n      swap1\n      pop\n        /* \"#utility.yul\":29467:29611   */\n      swap2\n      swap1\n      pop\n      jump\t// out\n        /* \"#utility.yul\":29639:30517   */\n    tag_496:\n        /* \"#utility.yul\":29744:29747   */\n      0x00\n        /* \"#utility.yul\":29781:29786   */\n      dup2\n        /* \"#utility.yul\":29775:29787   */\n      sload\n        /* \"#utility.yul\":29810:29846   */\n      tag_798\n        /* \"#utility.yul\":29836:29845   */\n      dup2\n        /* \"#utility.yul\":29810:29846   */\n      tag_185\n      jump\t// in\n    tag_798:\n        /* \"#utility.yul\":29862:29950   */\n      tag_799\n        /* \"#utility.yul\":29943:29949   */\n      dup2\n        /* \"#utility.yul\":29938:29941   */\n      dup7\n        /* \"#utility.yul\":29862:29950   */\n      tag_494\n      jump\t// in\n    tag_799:\n        /* \"#utility.yul\":29855:29950   */\n      swap5\n      pop\n        /* \"#utility.yul\":29981:29982   */\n      0x01\n        /* \"#utility.yul\":29970:29979   */\n      dup3\n        /* \"#utility.yul\":29966:29983   */\n      and\n        /* \"#utility.yul\":29997:29998   */\n      0x00\n        /* \"#utility.yul\":29992:30158   */\n      dup2\n      eq\n      tag_801\n      jumpi\n        /* \"#utility.yul\":30172:30173   */\n      0x01\n        /* \"#utility.yul\":30167:30511   */\n      dup2\n      eq\n      tag_802\n      jumpi\n        /* \"#utility.yul\":29959:30511   */\n      jump(tag_800)\n        /* \"#utility.yul\":29992:30158   */\n    tag_801:\n        /* \"#utility.yul\":30076:30080   */\n      0xff\n        /* \"#utility.yul\":30072:30081   */\n      not\n        /* \"#utility.yul\":30061:30070   */\n      dup4\n        /* \"#utility.yul\":30057:30082   */\n      and\n        /* \"#utility.yul\":30052:30055   */\n      dup7\n        /* \"#utility.yul\":30045:30083   */\n      mstore\n        /* \"#utility.yul\":30138:30144   */\n      dup2\n        /* \"#utility.yul\":30131:30145   */\n      iszero\n        /* \"#utility.yul\":30124:30146   */\n      iszero\n        /* \"#utility.yul\":30116:30122   */\n      dup3\n        /* \"#utility.yul\":30112:30147   */\n      mul\n        /* \"#utility.yul\":30107:30110   */\n      dup7\n        /* \"#utility.yul\":30103:30148   */\n      add\n        /* \"#utility.yul\":30096:30148   */\n      swap4\n      pop\n        /* \"#utility.yul\":29992:30158   */\n      jump(tag_800)\n        /* \"#utility.yul\":30167:30511   */\n    tag_802:\n        /* \"#utility.yul\":30234:30275   */\n      tag_803\n        /* \"#utility.yul\":30269:30274   */\n      dup6\n        /* \"#utility.yul\":30234:30275   */\n      tag_495\n      jump\t// in\n    tag_803:\n        /* \"#utility.yul\":30297:30298   */\n      0x00\n        /* \"#utility.yul\":30311:30465   */\n    tag_804:\n        /* \"#utility.yul\":30325:30331   */\n      dup4\n        /* \"#utility.yul\":30322:30323   */\n      dup2\n        /* \"#utility.yul\":30319:30332   */\n      lt\n        /* \"#utility.yul\":30311:30465   */\n      iszero\n      tag_806\n      jumpi\n        /* \"#utility.yul\":30399:30406   */\n      dup2\n        /* \"#utility.yul\":30393:30407   */\n      sload\n        /* \"#utility.yul\":30389:30390   */\n      dup2\n        /* \"#utility.yul\":30384:30387   */\n      dup10\n        /* \"#utility.yul\":30380:30391   */\n      add\n        /* \"#utility.yul\":30373:30408   */\n      mstore\n        /* \"#utility.yul\":30449:30450   */\n      0x01\n        /* \"#utility.yul\":30440:30447   */\n      dup3\n        /* \"#utility.yul\":30436:30451   */\n      add\n        /* \"#utility.yul\":30425:30451   */\n      swap2\n      pop\n        /* \"#utility.yul\":30347:30351   */\n      0x20\n        /* \"#utility.yul\":30344:30345   */\n      dup2\n        /* \"#utility.yul\":30340:30352   */\n      add\n        /* \"#utility.yul\":30335:30352   */\n      swap1\n      pop\n        /* \"#utility.yul\":30311:30465   */\n      jump(tag_804)\n    tag_806:\n        /* \"#utility.yul\":30494:30500   */\n      dup4\n        /* \"#utility.yul\":30489:30492   */\n      dup9\n        /* \"#utility.yul\":30485:30501   */\n      add\n        /* \"#utility.yul\":30478:30501   */\n      swap6\n      pop\n        /* \"#utility.yul\":30174:30511   */\n      pop\n      pop\n        /* \"#utility.yul\":29959:30511   */\n    tag_800:\n      pop\n        /* \"#utility.yul\":29748:30517   */\n      pop\n      pop\n        /* \"#utility.yul\":29639:30517   */\n      swap3\n      swap2\n      pop\n      pop\n      jump\t// out\n        /* \"#utility.yul\":30523:30796   */\n    tag_390:\n        /* \"#utility.yul\":30654:30657   */\n      0x00\n        /* \"#utility.yul\":30676:30770   */\n      tag_808\n        /* \"#utility.yul\":30766:30769   */\n      dup3\n        /* \"#utility.yul\":30757:30763   */\n      dup5\n        /* \"#utility.yul\":30676:30770   */\n      tag_496\n      jump\t// in\n    tag_808:\n        /* \"#utility.yul\":30669:30770   */\n      swap2\n      pop\n        /* \"#utility.yul\":30787:30790   */\n      dup2\n        /* \"#utility.yul\":30780:30790   */\n      swap1\n      pop\n        /* \"#utility.yul\":30523:30796   */\n      swap3\n      swap2\n      pop\n      pop\n      jump\t// out\n        /* \"#utility.yul\":30802:31466   */\n    tag_392:\n        /* \"#utility.yul\":31007:31011   */\n      0x00\n        /* \"#utility.yul\":31045:31048   */\n      0xa0\n        /* \"#utility.yul\":31034:31043   */\n      dup3\n        /* \"#utility.yul\":31030:31049   */\n      add\n        /* \"#utility.yul\":31022:31049   */\n      swap1\n      pop\n        /* \"#utility.yul\":31059:31130   */\n      tag_810\n        /* \"#utility.yul\":31127:31128   */\n      0x00\n        /* \"#utility.yul\":31116:31125   */\n      dup4\n        /* \"#utility.yul\":31112:31129   */\n      add\n        /* \"#utility.yul\":31103:31109   */\n      dup9\n        /* \"#utility.yul\":31059:31130   */\n      tag_441\n      jump\t// in\n    tag_810:\n        /* \"#utility.yul\":31140:31212   */\n      tag_811\n        /* \"#utility.yul\":31208:31210   */\n      0x20\n        /* \"#utility.yul\":31197:31206   */\n      dup4\n        /* \"#utility.yul\":31193:31211   */\n      add\n        /* \"#utility.yul\":31184:31190   */\n      dup8\n        /* \"#utility.yul\":31140:31212   */\n      tag_441\n      jump\t// in\n    tag_811:\n        /* \"#utility.yul\":31222:31294   */\n      tag_812\n        /* \"#utility.yul\":31290:31292   */\n      0x40\n        /* \"#utility.yul\":31279:31288   */\n      dup4\n        /* \"#utility.yul\":31275:31293   */\n      add\n        /* \"#utility.yul\":31266:31272   */\n      dup7\n        /* \"#utility.yul\":31222:31294   */\n      tag_441\n      jump\t// in\n    tag_812:\n        /* \"#utility.yul\":31304:31376   */\n      tag_813\n        /* \"#utility.yul\":31372:31374   */\n      0x60\n        /* \"#utility.yul\":31361:31370   */\n      dup4\n        /* \"#utility.yul\":31357:31375   */\n      add\n        /* \"#utility.yul\":31348:31354   */\n      dup6\n        /* \"#utility.yul\":31304:31376   */\n      tag_420\n      jump\t// in\n    tag_813:\n        /* \"#utility.yul\":31386:31459   */\n      tag_814\n        /* \"#utility.yul\":31454:31457   */\n      0x80\n        /* \"#utility.yul\":31443:31452   */\n      dup4\n        /* \"#utility.yul\":31439:31458   */\n      add\n        /* \"#utility.yul\":31430:31436   */\n      dup5\n        /* \"#utility.yul\":31386:31459   */\n      tag_437\n      jump\t// in\n    tag_814:\n        /* \"#utility.yul\":30802:31466   */\n      swap7\n      swap6\n      pop\n      pop\n      pop\n      pop\n      pop\n      pop\n      jump\t// out\n        /* \"#utility.yul\":31472:31642   */\n    tag_497:\n        /* \"#utility.yul\":31612:31634   */\n      0x5452414e534645525f46524f4d5f4641494c4544000000000000000000000000\n        /* \"#utility.yul\":31608:31609   */\n      0x00\n        /* \"#utility.yul\":31600:31606   */\n      dup3\n        /* \"#utility.yul\":31596:31610   */\n      add\n        /* \"#utility.yul\":31589:31635   */\n      mstore\n        /* \"#utility.yul\":31472:31642   */\n      pop\n      jump\t// out\n        /* \"#utility.yul\":31648:32014   */\n    tag_498:\n        /* \"#utility.yul\":31790:31793   */\n      0x00\n        /* \"#utility.yul\":31811:31878   */\n      tag_817\n        /* \"#utility.yul\":31875:31877   */\n      0x14\n        /* \"#utility.yul\":31870:31873   */\n      dup4\n        /* \"#utility.yul\":31811:31878   */\n      tag_422\n      jump\t// in\n    tag_817:\n        /* \"#utility.yul\":31804:31878   */\n      swap2\n      pop\n        /* \"#utility.yul\":31887:31980   */\n      tag_818\n        /* \"#utility.yul\":31976:31979   */\n      dup3\n        /* \"#utility.yul\":31887:31980   */\n      tag_497\n      jump\t// in\n    tag_818:\n        /* \"#utility.yul\":32005:32007   */\n      0x20\n        /* \"#utility.yul\":32000:32003   */\n      dup3\n        /* \"#utility.yul\":31996:32008   */\n      add\n        /* \"#utility.yul\":31989:32008   */\n      swap1\n      pop\n        /* \"#utility.yul\":31648:32014   */\n      swap2\n      swap1\n      pop\n      jump\t// out\n        /* \"#utility.yul\":32020:32439   */\n    tag_398:\n        /* \"#utility.yul\":32186:32190   */\n      0x00\n        /* \"#utility.yul\":32224:32226   */\n      0x20\n        /* \"#utility.yul\":32213:32222   */\n      dup3\n        /* \"#utility.yul\":32209:32227   */\n      add\n        /* \"#utility.yul\":32201:32227   */\n      swap1\n      pop\n        /* \"#utility.yul\":32273:32282   */\n      dup2\n        /* \"#utility.yul\":32267:32271   */\n      dup2\n        /* \"#utility.yul\":32263:32283   */\n      sub\n        /* \"#utility.yul\":32259:32260   */\n      0x00\n        /* \"#utility.yul\":32248:32257   */\n      dup4\n        /* \"#utility.yul\":32244:32261   */\n      add\n        /* \"#utility.yul\":32237:32284   */\n      mstore\n        /* \"#utility.yul\":32301:32432   */\n      tag_820\n        /* \"#utility.yul\":32427:32431   */\n      dup2\n        /* \"#utility.yul\":32301:32432   */\n      tag_498\n      jump\t// in\n    tag_820:\n        /* \"#utility.yul\":32293:32432   */\n      swap1\n      pop\n        /* \"#utility.yul\":32020:32439   */\n      swap2\n      swap1\n      pop\n      jump\t// out\n        /* \"#utility.yul\":32445:32636   */\n    tag_401:\n        /* \"#utility.yul\":32485:32488   */\n      0x00\n        /* \"#utility.yul\":32504:32524   */\n      tag_822\n        /* \"#utility.yul\":32522:32523   */\n      dup3\n        /* \"#utility.yul\":32504:32524   */\n      tag_419\n      jump\t// in\n    tag_822:\n        /* \"#utility.yul\":32499:32524   */\n      swap2\n      pop\n        /* \"#utility.yul\":32538:32558   */\n      tag_823\n        /* \"#utility.yul\":32556:32557   */\n      dup4\n        /* \"#utility.yul\":32538:32558   */\n      tag_419\n      jump\t// in\n    tag_823:\n        /* \"#utility.yul\":32533:32558   */\n      swap3\n      pop\n        /* \"#utility.yul\":32581:32582   */\n      dup3\n        /* \"#utility.yul\":32578:32579   */\n      dup3\n        /* \"#utility.yul\":32574:32583   */\n      add\n        /* \"#utility.yul\":32567:32583   */\n      swap1\n      pop\n        /* \"#utility.yul\":32602:32605   */\n      dup1\n        /* \"#utility.yul\":32599:32600   */\n      dup3\n        /* \"#utility.yul\":32596:32606   */\n      gt\n        /* \"#utility.yul\":32593:32629   */\n      iszero\n      tag_824\n      jumpi\n        /* \"#utility.yul\":32609:32627   */\n      tag_825\n      tag_457\n      jump\t// in\n    tag_825:\n        /* \"#utility.yul\":32593:32629   */\n    tag_824:\n        /* \"#utility.yul\":32445:32636   */\n      swap3\n      swap2\n      pop\n      pop\n      jump\t// out\n        /* \"#utility.yul\":32642:32727   */\n    tag_499:\n        /* \"#utility.yul\":32687:32694   */\n      0x00\n        /* \"#utility.yul\":32716:32721   */\n      dup2\n        /* \"#utility.yul\":32705:32721   */\n      swap1\n      pop\n        /* \"#utility.yul\":32642:32727   */\n      swap2\n      swap1\n      pop\n      jump\t// out\n        /* \"#utility.yul\":32733:32822   */\n    tag_500:\n        /* \"#utility.yul\":32769:32776   */\n      0x00\n        /* \"#utility.yul\":32809:32815   */\n      0xffff\n        /* \"#utility.yul\":32802:32807   */\n      dup3\n        /* \"#utility.yul\":32798:32816   */\n      and\n        /* \"#utility.yul\":32787:32816   */\n      swap1\n      pop\n        /* \"#utility.yul\":32733:32822   */\n      swap2\n      swap1\n      pop\n      jump\t// out\n        /* \"#utility.yul\":32828:32984   */\n    tag_501:\n        /* \"#utility.yul\":32885:32894   */\n      0x00\n        /* \"#utility.yul\":32918:32978   */\n      tag_829\n        /* \"#utility.yul\":32935:32977   */\n      tag_830\n        /* \"#utility.yul\":32944:32976   */\n      tag_831\n        /* \"#utility.yul\":32970:32975   */\n      dup5\n        /* \"#utility.yul\":32944:32976   */\n      tag_499\n      jump\t// in\n    tag_831:\n        /* \"#utility.yul\":32935:32977   */\n      tag_442\n      jump\t// in\n    tag_830:\n        /* \"#utility.yul\":32918:32978   */\n      tag_500\n      jump\t// in\n    tag_829:\n        /* \"#utility.yul\":32905:32978   */\n      swap1\n      pop\n        /* \"#utility.yul\":32828:32984   */\n      swap2\n      swap1\n      pop\n      jump\t// out\n        /* \"#utility.yul\":32990:33135   */\n    tag_502:\n        /* \"#utility.yul\":33084:33128   */\n      tag_833\n        /* \"#utility.yul\":33122:33127   */\n      dup2\n        /* \"#utility.yul\":33084:33128   */\n      tag_501\n      jump\t// in\n    tag_833:\n        /* \"#utility.yul\":33079:33082   */\n      dup3\n        /* \"#utility.yul\":33072:33129   */\n      mstore\n        /* \"#utility.yul\":32990:33135   */\n      pop\n      pop\n      jump\t// out\n        /* \"#utility.yul\":33141:33708   */\n    tag_407:\n        /* \"#utility.yul\":33325:33329   */\n      0x00\n        /* \"#utility.yul\":33363:33366   */\n      0x80\n        /* \"#utility.yul\":33352:33361   */\n      dup3\n        /* \"#utility.yul\":33348:33367   */\n      add\n        /* \"#utility.yul\":33340:33367   */\n      swap1\n      pop\n        /* \"#utility.yul\":33377:33448   */\n      tag_835\n        /* \"#utility.yul\":33445:33446   */\n      0x00\n        /* \"#utility.yul\":33434:33443   */\n      dup4\n        /* \"#utility.yul\":33430:33447   */\n      add\n        /* \"#utility.yul\":33421:33427   */\n      dup8\n        /* \"#utility.yul\":33377:33448   */\n      tag_437\n      jump\t// in\n    tag_835:\n        /* \"#utility.yul\":33458:33530   */\n      tag_836\n        /* \"#utility.yul\":33526:33528   */\n      0x20\n        /* \"#utility.yul\":33515:33524   */\n      dup4\n        /* \"#utility.yul\":33511:33529   */\n      add\n        /* \"#utility.yul\":33502:33508   */\n      dup7\n        /* \"#utility.yul\":33458:33530   */\n      tag_420\n      jump\t// in\n    tag_836:\n        /* \"#utility.yul\":33540:33612   */\n      tag_837\n        /* \"#utility.yul\":33608:33610   */\n      0x40\n        /* \"#utility.yul\":33597:33606   */\n      dup4\n        /* \"#utility.yul\":33593:33611   */\n      add\n        /* \"#utility.yul\":33584:33590   */\n      dup6\n        /* \"#utility.yul\":33540:33612   */\n      tag_437\n      jump\t// in\n    tag_837:\n        /* \"#utility.yul\":33622:33701   */\n      tag_838\n        /* \"#utility.yul\":33697:33699   */\n      0x60\n        /* \"#utility.yul\":33686:33695   */\n      dup4\n        /* \"#utility.yul\":33682:33700   */\n      add\n        /* \"#utility.yul\":33673:33679   */\n      dup5\n        /* \"#utility.yul\":33622:33701   */\n      tag_502\n      jump\t// in\n    tag_838:\n        /* \"#utility.yul\":33141:33708   */\n      swap6\n      swap5\n      pop\n      pop\n      pop\n      pop\n      pop\n      jump\t// out\n        /* \"#utility.yul\":33714:33878   */\n    tag_503:\n        /* \"#utility.yul\":33854:33870   */\n      0x415050524f56455f4641494c4544000000000000000000000000000000000000\n        /* \"#utility.yul\":33850:33851   */\n      0x00\n        /* \"#utility.yul\":33842:33848   */\n      dup3\n        /* \"#utility.yul\":33838:33852   */\n      add\n        /* \"#utility.yul\":33831:33871   */\n      mstore\n        /* \"#utility.yul\":33714:33878   */\n      pop\n      jump\t// out\n        /* \"#utility.yul\":33884:34250   */\n    tag_504:\n        /* \"#utility.yul\":34026:34029   */\n      0x00\n        /* \"#utility.yul\":34047:34114   */\n      tag_841\n        /* \"#utility.yul\":34111:34113   */\n      0x0e\n        /* \"#utility.yul\":34106:34109   */\n      dup4\n        /* \"#utility.yul\":34047:34114   */\n      tag_422\n      jump\t// in\n    tag_841:\n        /* \"#utility.yul\":34040:34114   */\n      swap2\n      pop\n        /* \"#utility.yul\":34123:34216   */\n      tag_842\n        /* \"#utility.yul\":34212:34215   */\n      dup3\n        /* \"#utility.yul\":34123:34216   */\n      tag_503\n      jump\t// in\n    tag_842:\n        /* \"#utility.yul\":34241:34243   */\n      0x20\n        /* \"#utility.yul\":34236:34239   */\n      dup3\n        /* \"#utility.yul\":34232:34244   */\n      add\n        /* \"#utility.yul\":34225:34244   */\n      swap1\n      pop\n        /* \"#utility.yul\":33884:34250   */\n      swap2\n      swap1\n      pop\n      jump\t// out\n        /* \"#utility.yul\":34256:34675   */\n    tag_418:\n        /* \"#utility.yul\":34422:34426   */\n      0x00\n        /* \"#utility.yul\":34460:34462   */\n      0x20\n        /* \"#utility.yul\":34449:34458   */\n      dup3\n        /* \"#utility.yul\":34445:34463   */\n      add\n        /* \"#utility.yul\":34437:34463   */\n      swap1\n      pop\n        /* \"#utility.yul\":34509:34518   */\n      dup2\n        /* \"#utility.yul\":34503:34507   */\n      dup2\n        /* \"#utility.yul\":34499:34519   */\n      sub\n        /* \"#utility.yul\":34495:34496   */\n      0x00\n        /* \"#utility.yul\":34484:34493   */\n      dup4\n        /* \"#utility.yul\":34480:34497   */\n      add\n        /* \"#utility.yul\":34473:34520   */\n      mstore\n        /* \"#utility.yul\":34537:34668   */\n      tag_844\n        /* \"#utility.yul\":34663:34667   */\n      dup2\n        /* \"#utility.yul\":34537:34668   */\n      tag_504\n      jump\t// in\n    tag_844:\n        /* \"#utility.yul\":34529:34668   */\n      swap1\n      pop\n        /* \"#utility.yul\":34256:34675   */\n      swap2\n      swap1\n      pop\n      jump\t// out\n\n    auxdata: 0xa2646970667358221220291bbe347e1ef59ed18d83e953afa1d2c099bdb09bb2cd14811158015bd4bd1a64736f6c63430008100033\n}\n",
				"bytecode": {
					"linkReferences": {},
					"object": "6101806040523480156200001257600080fd5b5060405162004a9e38038062004a9e833981810160405281019062000038919062000553565b846200004a866200023960201b60201c565b6200005b87620002da60201b60201c565b81818473ffffffffffffffffffffffffffffffffffffffff1663313ce5676040518163ffffffff1660e01b8152600401602060405180830381865afa158015620000a9573d6000803e3d6000fd5b505050506040513d601f19601f82011682018060405250810190620000cf919062000619565b8260009081620000e09190620008c5565b508160019081620000f29190620008c5565b508060ff1660808160ff16815250504660a08181525050620001196200037b60201b60201c565b60c081815250505050508273ffffffffffffffffffffffffffffffffffffffff1660e08173ffffffffffffffffffffffffffffffffffffffff16815250505050508373ffffffffffffffffffffffffffffffffffffffff166101008173ffffffffffffffffffffffffffffffffffffffff16815250508273ffffffffffffffffffffffffffffffffffffffff166101208173ffffffffffffffffffffffffffffffffffffffff16815250508073ffffffffffffffffffffffffffffffffffffffff166101608173ffffffffffffffffffffffffffffffffffffffff16815250508173ffffffffffffffffffffffffffffffffffffffff166101408173ffffffffffffffffffffffffffffffffffffffff1681525050505050505062000d91565b60608173ffffffffffffffffffffffffffffffffffffffff166395d89b416040518163ffffffff1660e01b8152600401600060405180830381865afa15801562000287573d6000803e3d6000fd5b505050506040513d6000823e3d601f19601f82011682018060405250810190620002b2919062000afc565b604051602001620002c4919062000bb5565b6040516020818303038152906040529050919050565b60608173ffffffffffffffffffffffffffffffffffffffff166395d89b416040518163ffffffff1660e01b8152600401600060405180830381865afa15801562000328573d6000803e3d6000fd5b505050506040513d6000823e3d601f19601f8201168201806040525081019062000353919062000afc565b60405160200162000365919062000c05565b6040516020818303038152906040529050919050565b60007f8b73c3c69bb8fe3d512ecc4cf759cc79239f7b179b0ffacaa9a75d522b39400f6000604051620003af919062000cde565b60405180910390207fc89efdaa54c0f20c7adf612882df0950f5a951637e0307cdcb4c672f298b8bc64630604051602001620003f095949392919062000d34565b60405160208183030381529060405280519060200120905090565b6000604051905090565b600080fd5b600080fd5b600073ffffffffffffffffffffffffffffffffffffffff82169050919050565b60006200044c826200041f565b9050919050565b600062000460826200043f565b9050919050565b620004728162000453565b81146200047e57600080fd5b50565b600081519050620004928162000467565b92915050565b6000620004a5826200043f565b9050919050565b620004b78162000498565b8114620004c357600080fd5b50565b600081519050620004d781620004ac565b92915050565b620004e8816200043f565b8114620004f457600080fd5b50565b6000815190506200050881620004dd565b92915050565b60006200051b826200043f565b9050919050565b6200052d816200050e565b81146200053957600080fd5b50565b6000815190506200054d8162000522565b92915050565b600080600080600060a0868803121562000572576200057162000415565b5b6000620005828882890162000481565b9550506020620005958882890162000481565b9450506040620005a888828901620004c6565b9350506060620005bb88828901620004f7565b9250506080620005ce888289016200053c565b9150509295509295909350565b600060ff82169050919050565b620005f381620005db565b8114620005ff57600080fd5b50565b6000815190506200061381620005e8565b92915050565b60006020828403121562000632576200063162000415565b5b6000620006428482850162000602565b91505092915050565b600081519050919050565b7f4e487b7100000000000000000000000000000000000000000000000000000000600052604160045260246000fd5b7f4e487b7100000000000000000000000000000000000000000000000000000000600052602260045260246000fd5b60006002820490506001821680620006cd57607f821691505b602082108103620006e357620006e262000685565b5b50919050565b60008190508160005260206000209050919050565b60006020601f8301049050919050565b600082821b905092915050565b6000600883026200074d7fffffffffffffffffffffffffffffffffffffffffffffffffffffffffffffffff826200070e565b6200075986836200070e565b95508019841693508086168417925050509392505050565b6000819050919050565b6000819050919050565b6000620007a6620007a06200079a8462000771565b6200077b565b62000771565b9050919050565b6000819050919050565b620007c28362000785565b620007da620007d182620007ad565b8484546200071b565b825550505050565b600090565b620007f1620007e2565b620007fe818484620007b7565b505050565b5b8181101562000826576200081a600082620007e7565b60018101905062000804565b5050565b601f82111562000875576200083f81620006e9565b6200084a84620006fe565b810160208510156200085a578190505b620008726200086985620006fe565b83018262000803565b50505b505050565b600082821c905092915050565b60006200089a600019846008026200087a565b1980831691505092915050565b6000620008b5838362000887565b9150826002028217905092915050565b620008d0826200064b565b67ffffffffffffffff811115620008ec57620008eb62000656565b5b620008f88254620006b4565b620009058282856200082a565b600060209050601f8311600181146200093d576000841562000928578287015190505b620009348582620008a7565b865550620009a4565b601f1984166200094d86620006e9565b60005b82811015620009775784890151825560018201915060208501945060208101905062000950565b8683101562000997578489015162000993601f89168262000887565b8355505b6001600288020188555050505b505050505050565b600080fd5b600080fd5b6000601f19601f8301169050919050565b620009d282620009b6565b810181811067ffffffffffffffff82111715620009f457620009f362000656565b5b80604052505050565b600062000a096200040b565b905062000a178282620009c7565b919050565b600067ffffffffffffffff82111562000a3a5762000a3962000656565b5b62000a4582620009b6565b9050602081019050919050565b60005b8381101562000a7257808201518184015260208101905062000a55565b60008484015250505050565b600062000a9562000a8f8462000a1c565b620009fd565b90508281526020810184848401111562000ab45762000ab3620009b1565b5b62000ac184828562000a52565b509392505050565b600082601f83011262000ae15762000ae0620009ac565b5b815162000af384826020860162000a7e565b91505092915050565b60006020828403121562000b155762000b1462000415565b5b600082015167ffffffffffffffff81111562000b365762000b356200041a565b5b62000b448482850162000ac9565b91505092915050565b7f455243343632362d577261707065642041617665207632200000000000000000815250565b600081905092915050565b600062000b8b826200064b565b62000b97818562000b73565b935062000ba981856020860162000a52565b80840191505092915050565b600062000bc28262000b4d565b60188201915062000bd4828462000b7e565b915081905092915050565b7f7761320000000000000000000000000000000000000000000000000000000000815250565b600062000c128262000bdf565b60038201915062000c24828462000b7e565b915081905092915050565b600081905092915050565b60008190508160005260206000209050919050565b6000815462000c5e81620006b4565b62000c6a818662000c2f565b9450600182166000811462000c88576001811462000c9e5762000cd5565b60ff198316865281151582028601935062000cd5565b62000ca98562000c3a565b60005b8381101562000ccd5781548189015260018201915060208101905062000cac565b838801955050505b50505092915050565b600062000cec828462000c4f565b915081905092915050565b6000819050919050565b62000d0c8162000cf7565b82525050565b62000d1d8162000771565b82525050565b62000d2e816200043f565b82525050565b600060a08201905062000d4b600083018862000d01565b62000d5a602083018762000d01565b62000d69604083018662000d01565b62000d78606083018562000d12565b62000d87608083018462000d23565b9695505050505050565b60805160a05160c05160e05161010051610120516101405161016051613bd562000ec960003960008181610ec001528181610f5f01528181611363015281816116df015281816119f301528181611abd01528181611b5c01528181611cb101528181611d500152818161224b015281816122ea015281816127d101526128390152600081816109c90152610ddb015260008181610d7d015261252701526000818161073401528181610d0c0152818161133f01528181611e6a0152612404015260008181610e9a01528181610f9b015281816110de015281816111e90152818161171b01528181611a2f01528181611b9801528181611d8c01528181611e2e01528181612326015281816123c8015281816127f3015261287501526000610c9701526000610c6301526000610c3d0152613bd56000f3fe608060405234801561001057600080fd5b50600436106101fb5760003560e01c80637ecebe001161011a578063ba087652116100ad578063d505accf1161007c578063d505accf14610666578063d905777e14610682578063dd62ed3e146106b2578063ef8b30f7146106e2578063f71b865d14610712576101fb565b8063ba087652146105a6578063c63d75b6146105d6578063c6e6f59214610606578063ce96cb7714610636576101fb565b8063a59a9973116100e9578063a59a9973146104f8578063a9059cbb14610516578063b3d7f6b914610546578063b460af9414610576576101fb565b80637ecebe001461045c57806394bf804d1461048c57806395d89b41146104bc578063a0c1f15e146104da576101fb565b8063313ce56711610192578063402d267d11610161578063402d267d1461039c5780634cdad506146103cc5780636e553f65146103fc57806370a082311461042c576101fb565b8063313ce567146103385780633644e51514610356578063372500ab1461037457806338d52e0f1461037e576101fb565b80630a28a477116101ce5780630a28a4771461029c57806317f33340146102cc57806318160ddd146102ea57806323b872dd14610308576101fb565b806301e1d1141461020057806306fdde031461021e57806307a2d13a1461023c578063095ea7b31461026c575b600080fd5b610208610730565b6040516102159190612a72565b60405180910390f35b6102266107d1565b6040516102339190612b1d565b60405180910390f35b61025660048036038101906102519190612b7a565b61085f565b6040516102639190612a72565b60405180910390f35b61028660048036038101906102819190612c05565b61089a565b6040516102939190612c60565b60405180910390f35b6102b660048036038101906102b19190612b7a565b61098c565b6040516102c39190612a72565b60405180910390f35b6102d46109c7565b6040516102e19190612c8a565b60405180910390f35b6102f26109eb565b6040516102ff9190612a72565b60405180910390f35b610322600480360381019061031d9190612ca5565b6109f1565b60405161032f9190612c60565b60405180910390f35b610340610c3b565b60405161034d9190612d14565b60405180910390f35b61035e610c5f565b60405161036b9190612d48565b60405180910390f35b61037c610cbc565b005b610386610e98565b6040516103939190612dc2565b60405180910390f35b6103b660048036038101906103b19190612ddd565b610ebc565b6040516103c39190612a72565b60405180910390f35b6103e660048036038101906103e19190612b7a565b611075565b6040516103f39190612a72565b60405180910390f35b61041660048036038101906104119190612e0a565b611087565b6040516104239190612a72565b60405180910390f35b61044660048036038101906104419190612ddd565b6111a4565b6040516104539190612a72565b60405180910390f35b61047660048036038101906104719190612ddd565b6111bc565b6040516104839190612a72565b60405180910390f35b6104a660048036038101906104a19190612e0a565b6111d4565b6040516104b39190612a72565b60405180910390f35b6104c46112af565b6040516104d19190612b1d565b60405180910390f35b6104e261133d565b6040516104ef9190612dc2565b60405180910390f35b610500611361565b60405161050d9190612e6b565b60405180910390f35b610530600480360381019061052b9190612c05565b611385565b60405161053d9190612c60565b60405180910390f35b610560600480360381019061055b9190612b7a565b611499565b60405161056d9190612a72565b60405180910390f35b610590600480360381019061058b9190612e86565b6114d4565b60405161059d9190612a72565b60405180910390f35b6105c060048036038101906105bb9190612e86565b6117a5565b6040516105cd9190612a72565b60405180910390f35b6105f060048036038101906105eb9190612ddd565b611ab9565b6040516105fd9190612a72565b60405180910390f35b610620600480360381019061061b9190612b7a565b611c72565b60405161062d9190612a72565b60405180910390f35b610650600480360381019061064b9190612ddd565b611cad565b60405161065d9190612a72565b60405180910390f35b610680600480360381019061067b9190612f31565b611f4e565b005b61069c60048036038101906106979190612ddd565b612247565b6040516106a99190612a72565b60405180910390f35b6106cc60048036038101906106c79190612fd3565b6124ee565b6040516106d99190612a72565b60405180910390f35b6106fc60048036038101906106f79190612b7a565b612513565b6040516107099190612a72565b60405180910390f35b61071a612525565b6040516107279190613034565b60405180910390f35b60007f000000000000000000000000000000000000000000000000000000000000000073ffffffffffffffffffffffffffffffffffffffff166370a08231306040518263ffffffff1660e01b815260040161078b9190612c8a565b602060405180830381865afa1580156107a8573d6000803e3d6000fd5b505050506040513d601f19601f820116820180604052508101906107cc9190613064565b905090565b600080546107de906130c0565b80601f016020809104026020016040519081016040528092919081815260200182805461080a906130c0565b80156108575780601f1061082c57610100808354040283529160200191610857565b820191906000526020600020905b81548152906001019060200180831161083a57829003601f168201915b505050505081565b6000806002549050600081146108905761088b61087a610730565b82856125499092919063ffffffff16565b610892565b825b915050919050565b600081600460003373ffffffffffffffffffffffffffffffffffffffff1673ffffffffffffffffffffffffffffffffffffffff16815260200190815260200160002060008573ffffffffffffffffffffffffffffffffffffffff1673ffffffffffffffffffffffffffffffffffffffff168152602001908152602001600020819055508273ffffffffffffffffffffffffffffffffffffffff163373ffffffffffffffffffffffffffffffffffffffff167f8c5be1e5ebec7d5bd14f71427d1e84f3dd0314c0f7b2291e5b200ac8c7c3b9258460405161097a9190612a72565b60405180910390a36001905092915050565b6000806002549050600081146109bd576109b8816109a8610730565b856125719092919063ffffffff16565b6109bf565b825b915050919050565b7f000000000000000000000000000000000000000000000000000000000000000081565b60025481565b600080600460008673ffffffffffffffffffffffffffffffffffffffff1673ffffffffffffffffffffffffffffffffffffffff16815260200190815260200160002060003373ffffffffffffffffffffffffffffffffffffffff1673ffffffffffffffffffffffffffffffffffffffff1681526020019081526020016000205490507fffffffffffffffffffffffffffffffffffffffffffffffffffffffffffffffff8114610b27578281610aa69190613120565b600460008773ffffffffffffffffffffffffffffffffffffffff1673ffffffffffffffffffffffffffffffffffffffff16815260200190815260200160002060003373ffffffffffffffffffffffffffffffffffffffff1673ffffffffffffffffffffffffffffffffffffffff168152602001908152602001600020819055505b82600360008773ffffffffffffffffffffffffffffffffffffffff1673ffffffffffffffffffffffffffffffffffffffff1681526020019081526020016000206000828254610b769190613120565b9250508190555082600360008673ffffffffffffffffffffffffffffffffffffffff1673ffffffffffffffffffffffffffffffffffffffff168152602001908152602001600020600082825401925050819055508373ffffffffffffffffffffffffffffffffffffffff168573ffffffffffffffffffffffffffffffffffffffff167fddf252ad1be2c89b69c2b068fc378daa952ba7f163c4a11628f55a4df523b3ef85604051610c279190612a72565b60405180910390a360019150509392505050565b7f000000000000000000000000000000000000000000000000000000000000000081565b60007f00000000000000000000000000000000000000000000000000000000000000004614610c9557610c906125a3565b610cb7565b7f00000000000000000000000000000000000000000000000000000000000000005b905090565b6000600167ffffffffffffffff811115610cd957610cd8613154565b5b604051908082528060200260200182016040528015610d075781602001602082028036833780820191505090505b5090507f000000000000000000000000000000000000000000000000000000000000000081600081518110610d3f57610d3e613183565b5b602002602001019073ffffffffffffffffffffffffffffffffffffffff16908173ffffffffffffffffffffffffffffffffffffffff168152505060007f000000000000000000000000000000000000000000000000000000000000000073ffffffffffffffffffffffffffffffffffffffff16633111e7b3837fffffffffffffffffffffffffffffffffffffffffffffffffffffffffffffffff7f00000000000000000000000000000000000000000000000000000000000000006040518463ffffffff1660e01b8152600401610e1893929190613270565b6020604051808303816000875af1158015610e37573d6000803e3d6000fd5b505050506040513d601f19601f82011682018060405250810190610e5b9190613064565b90507fbacfa9662d479c707dae707c358323f0c7711ef382007957dc9935e629da36b281604051610e8c9190612a72565b60405180910390a15050565b7f000000000000000000000000000000000000000000000000000000000000000081565b60007f000000000000000000000000000000000000000000000000000000000000000073ffffffffffffffffffffffffffffffffffffffff16635c975abb6040518163ffffffff1660e01b8152600401602060405180830381865afa158015610f29573d6000803e3d6000fd5b505050506040513d601f19601f82011682018060405250810190610f4d91906132da565b15610f5b5760009050611070565b60007f000000000000000000000000000000000000000000000000000000000000000073ffffffffffffffffffffffffffffffffffffffff166335ea6a757f00000000000000000000000000000000000000000000000000000000000000006040518263ffffffff1660e01b8152600401610fd69190612c8a565b61018060405180830381865afa158015610ff4573d6000803e3d6000fd5b505050506040513d601f19601f820116820180604052508101906110189190613565565b6000015160000151905061102b8161262f565b801561103d575061103b81612646565b155b61104b576000915050611070565b7fffffffffffffffffffffffffffffffffffffffffffffffffffffffffffffffff9150505b919050565b60006110808261085f565b9050919050565b60008061109384612513565b915081036110d6576040517f08c379a00000000000000000000000000000000000000000000000000000000081526004016110cd906135df565b60405180910390fd5b6111233330857f000000000000000000000000000000000000000000000000000000000000000073ffffffffffffffffffffffffffffffffffffffff1661265d909392919063ffffffff16565b61112d82826126fc565b8173ffffffffffffffffffffffffffffffffffffffff163373ffffffffffffffffffffffffffffffffffffffff167fdcbc1c05240f31ff3ad067ef1ee35ce4997762752e3a095284754544f4c709d7858460405161118c9291906135ff565b60405180910390a361119e83826127cc565b92915050565b60036020528060005260406000206000915090505481565b60056020528060005260406000206000915090505481565b60006111df83611499565b905061122e3330837f000000000000000000000000000000000000000000000000000000000000000073ffffffffffffffffffffffffffffffffffffffff1661265d909392919063ffffffff16565b61123882846126fc565b8173ffffffffffffffffffffffffffffffffffffffff163373ffffffffffffffffffffffffffffffffffffffff167fdcbc1c05240f31ff3ad067ef1ee35ce4997762752e3a095284754544f4c709d783866040516112979291906135ff565b60405180910390a36112a981846127cc565b92915050565b600180546112bc906130c0565b80601f01602080910402602001604051908101604052809291908181526020018280546112e8906130c0565b80156113355780601f1061130a57610100808354040283529160200191611335565b820191906000526020600020905b81548152906001019060200180831161131857829003601f168201915b505050505081565b7f000000000000000000000000000000000000000000000000000000000000000081565b7f000000000000000000000000000000000000000000000000000000000000000081565b600081600360003373ffffffffffffffffffffffffffffffffffffffff1673ffffffffffffffffffffffffffffffffffffffff16815260200190815260200160002060008282546113d69190613120565b9250508190555081600360008573ffffffffffffffffffffffffffffffffffffffff1673ffffffffffffffffffffffffffffffffffffffff168152602001908152602001600020600082825401925050819055508273ffffffffffffffffffffffffffffffffffffffff163373ffffffffffffffffffffffffffffffffffffffff167fddf252ad1be2c89b69c2b068fc378daa952ba7f163c4a11628f55a4df523b3ef846040516114879190612a72565b60405180910390a36001905092915050565b6000806002549050600081146114ca576114c56114b4610730565b82856125719092919063ffffffff16565b6114cc565b825b915050919050565b60006114df8461098c565b90508173ffffffffffffffffffffffffffffffffffffffff163373ffffffffffffffffffffffffffffffffffffffff161461164b576000600460008473ffffffffffffffffffffffffffffffffffffffff1673ffffffffffffffffffffffffffffffffffffffff16815260200190815260200160002060003373ffffffffffffffffffffffffffffffffffffffff1673ffffffffffffffffffffffffffffffffffffffff1681526020019081526020016000205490507fffffffffffffffffffffffffffffffffffffffffffffffffffffffffffffffff81146116495781816115c89190613120565b600460008573ffffffffffffffffffffffffffffffffffffffff1673ffffffffffffffffffffffffffffffffffffffff16815260200190815260200160002060003373ffffffffffffffffffffffffffffffffffffffff1673ffffffffffffffffffffffffffffffffffffffff168152602001908152602001600020819055505b505b61165584826128ed565b61165f82826128f1565b8173ffffffffffffffffffffffffffffffffffffffff168373ffffffffffffffffffffffffffffffffffffffff163373ffffffffffffffffffffffffffffffffffffffff167ffbde797d201c681b91056529119e0b02407c7bb96a4a2c75c01fc9667232c8db87856040516116d59291906135ff565b60405180910390a47f000000000000000000000000000000000000000000000000000000000000000073ffffffffffffffffffffffffffffffffffffffff166369328dec7f000000000000000000000000000000000000000000000000000000000000000086866040518463ffffffff1660e01b815260040161175a93929190613628565b6020604051808303816000875af1158015611779573d6000803e3d6000fd5b505050506040513d601f19601f8201168201806040525081019061179d9190613064565b509392505050565b60008173ffffffffffffffffffffffffffffffffffffffff163373ffffffffffffffffffffffffffffffffffffffff1614611911576000600460008473ffffffffffffffffffffffffffffffffffffffff1673ffffffffffffffffffffffffffffffffffffffff16815260200190815260200160002060003373ffffffffffffffffffffffffffffffffffffffff1673ffffffffffffffffffffffffffffffffffffffff1681526020019081526020016000205490507fffffffffffffffffffffffffffffffffffffffffffffffffffffffffffffffff811461190f57848161188e9190613120565b600460008573ffffffffffffffffffffffffffffffffffffffff1673ffffffffffffffffffffffffffffffffffffffff16815260200190815260200160002060003373ffffffffffffffffffffffffffffffffffffffff1673ffffffffffffffffffffffffffffffffffffffff168152602001908152602001600020819055505b505b600061191c85611075565b9150810361195f576040517f08c379a0000000000000000000000000000000000000000000000000000000008152600401611956906136ab565b60405180910390fd5b61196981856128ed565b61197382856128f1565b8173ffffffffffffffffffffffffffffffffffffffff168373ffffffffffffffffffffffffffffffffffffffff163373ffffffffffffffffffffffffffffffffffffffff167ffbde797d201c681b91056529119e0b02407c7bb96a4a2c75c01fc9667232c8db84886040516119e99291906135ff565b60405180910390a47f000000000000000000000000000000000000000000000000000000000000000073ffffffffffffffffffffffffffffffffffffffff166369328dec7f000000000000000000000000000000000000000000000000000000000000000083866040518463ffffffff1660e01b8152600401611a6e93929190613628565b6020604051808303816000875af1158015611a8d573d6000803e3d6000fd5b505050506040513d601f19601f82011682018060405250810190611ab19190613064565b509392505050565b60007f000000000000000000000000000000000000000000000000000000000000000073ffffffffffffffffffffffffffffffffffffffff16635c975abb6040518163ffffffff1660e01b8152600401602060405180830381865afa158015611b26573d6000803e3d6000fd5b505050506040513d601f19601f82011682018060405250810190611b4a91906132da565b15611b585760009050611c6d565b60007f000000000000000000000000000000000000000000000000000000000000000073ffffffffffffffffffffffffffffffffffffffff166335ea6a757f00000000000000000000000000000000000000000000000000000000000000006040518263ffffffff1660e01b8152600401611bd39190612c8a565b61018060405180830381865afa158015611bf1573d6000803e3d6000fd5b505050506040513d601f19601f82011682018060405250810190611c159190613565565b60000151600001519050611c288161262f565b8015611c3a5750611c3881612646565b155b611c48576000915050611c6d565b7fffffffffffffffffffffffffffffffffffffffffffffffffffffffffffffffff9150505b919050565b600080600254905060008114611ca357611c9e81611c8e610730565b856125499092919063ffffffff16565b611ca5565b825b915050919050565b60007f000000000000000000000000000000000000000000000000000000000000000073ffffffffffffffffffffffffffffffffffffffff16635c975abb6040518163ffffffff1660e01b8152600401602060405180830381865afa158015611d1a573d6000803e3d6000fd5b505050506040513d601f19601f82011682018060405250810190611d3e91906132da565b15611d4c5760009050611f49565b60007f000000000000000000000000000000000000000000000000000000000000000073ffffffffffffffffffffffffffffffffffffffff166335ea6a757f00000000000000000000000000000000000000000000000000000000000000006040518263ffffffff1660e01b8152600401611dc79190612c8a565b61018060405180830381865afa158015611de5573d6000803e3d6000fd5b505050506040513d601f19601f82011682018060405250810190611e099190613565565b60000151600001519050611e1c8161262f565b611e2a576000915050611f49565b60007f000000000000000000000000000000000000000000000000000000000000000073ffffffffffffffffffffffffffffffffffffffff166370a082317f00000000000000000000000000000000000000000000000000000000000000006040518263ffffffff1660e01b8152600401611ea59190612c8a565b602060405180830381865afa158015611ec2573d6000803e3d6000fd5b505050506040513d601f19601f82011682018060405250810190611ee69190613064565b90506000611f32600360008773ffffffffffffffffffffffffffffffffffffffff1673ffffffffffffffffffffffffffffffffffffffff1681526020019081526020016000205461085f565b9050808210611f415780611f43565b815b93505050505b919050565b42841015611f91576040517f08c379a0000000000000000000000000000000000000000000000000000000008152600401611f8890613717565b60405180910390fd5b60006001611f9d610c5f565b7f6e71edae12b1b97f4d1f60370fef10105fa2faae0126114a169c64845d6126c98a8a8a600560008f73ffffffffffffffffffffffffffffffffffffffff1673ffffffffffffffffffffffffffffffffffffffff1681526020019081526020016000206000815480929190600101919050558b60405160200161202596959493929190613737565b6040516020818303038152906040528051906020012060405160200161204c929190613810565b60405160208183030381529060405280519060200120858585604051600081526020016040526040516120829493929190613847565b6020604051602081039080840390855afa1580156120a4573d6000803e3d6000fd5b505050602060405103519050600073ffffffffffffffffffffffffffffffffffffffff168173ffffffffffffffffffffffffffffffffffffffff161415801561211857508773ffffffffffffffffffffffffffffffffffffffff168173ffffffffffffffffffffffffffffffffffffffff16145b612157576040517f08c379a000000000000000000000000000000000000000000000000000000000815260040161214e906138d8565b60405180910390fd5b85600460008373ffffffffffffffffffffffffffffffffffffffff1673ffffffffffffffffffffffffffffffffffffffff16815260200190815260200160002060008973ffffffffffffffffffffffffffffffffffffffff1673ffffffffffffffffffffffffffffffffffffffff16815260200190815260200160002081905550508573ffffffffffffffffffffffffffffffffffffffff168773ffffffffffffffffffffffffffffffffffffffff167f8c5be1e5ebec7d5bd14f71427d1e84f3dd0314c0f7b2291e5b200ac8c7c3b925876040516122369190612a72565b60405180910390a350505050505050565b60007f000000000000000000000000000000000000000000000000000000000000000073ffffffffffffffffffffffffffffffffffffffff16635c975abb6040518163ffffffff1660e01b8152600401602060405180830381865afa1580156122b4573d6000803e3d6000fd5b505050506040513d601f19601f820116820180604052508101906122d891906132da565b156122e657600090506124e9565b60007f000000000000000000000000000000000000000000000000000000000000000073ffffffffffffffffffffffffffffffffffffffff166335ea6a757f00000000000000000000000000000000000000000000000000000000000000006040518263ffffffff1660e01b81526004016123619190612c8a565b61018060405180830381865afa15801561237f573d6000803e3d6000fd5b505050506040513d601f19601f820116820180604052508101906123a39190613565565b600001516000015190506123b68161262f565b6123c45760009150506124e9565b60007f000000000000000000000000000000000000000000000000000000000000000073ffffffffffffffffffffffffffffffffffffffff166370a082317f00000000000000000000000000000000000000000000000000000000000000006040518263ffffffff1660e01b815260040161243f9190612c8a565b602060405180830381865afa15801561245c573d6000803e3d6000fd5b505050506040513d601f19601f820116820180604052508101906124809190613064565b9050600061248d82611c72565b90506000600360008773ffffffffffffffffffffffffffffffffffffffff1673ffffffffffffffffffffffffffffffffffffffff1681526020019081526020016000205490508082106124e057806124e2565b815b9450505050505b919050565b6004602052816000526040600020602052806000526040600020600091509150505481565b600061251e82611c72565b9050919050565b7f000000000000000000000000000000000000000000000000000000000000000081565b6000828402905082848204148415178215151661256557600080fd5b81810490509392505050565b6000828402905082848204148415178215151661258d57600080fd5b6001826001830304018115150290509392505050565b60007f8b73c3c69bb8fe3d512ecc4cf759cc79239f7b179b0ffacaa9a75d522b39400f60006040516125d5919061399b565b60405180910390207fc89efdaa54c0f20c7adf612882df0950f5a951637e0307cdcb4c672f298b8bc646306040516020016126149594939291906139b2565b60405160208183030381529060405280519060200120905090565b600080670100000000000000831614159050919050565b600080670200000000000000831614159050919050565b60006040517f23b872dd0000000000000000000000000000000000000000000000000000000081528460048201528360248201528260448201526020600060648360008a5af13d15601f3d11600160005114161716915050806126f5576040517f08c379a00000000000000000000000000000000000000000000000000000000081526004016126ec90613a51565b60405180910390fd5b5050505050565b806002600082825461270e9190613a71565b9250508190555080600360008473ffffffffffffffffffffffffffffffffffffffff1673ffffffffffffffffffffffffffffffffffffffff168152602001908152602001600020600082825401925050819055508173ffffffffffffffffffffffffffffffffffffffff16600073ffffffffffffffffffffffffffffffffffffffff167fddf252ad1be2c89b69c2b068fc378daa952ba7f163c4a11628f55a4df523b3ef836040516127c09190612a72565b60405180910390a35050565b6128377f0000000000000000000000000000000000000000000000000000000000000000837f000000000000000000000000000000000000000000000000000000000000000073ffffffffffffffffffffffffffffffffffffffff166129c19092919063ffffffff16565b7f000000000000000000000000000000000000000000000000000000000000000073ffffffffffffffffffffffffffffffffffffffff1663e8eda9df7f0000000000000000000000000000000000000000000000000000000000000000843060006040518563ffffffff1660e01b81526004016128b79493929190613aee565b600060405180830381600087803b1580156128d157600080fd5b505af11580156128e5573d6000803e3d6000fd5b505050505050565b5050565b80600360008473ffffffffffffffffffffffffffffffffffffffff1673ffffffffffffffffffffffffffffffffffffffff16815260200190815260200160002060008282546129409190613120565b9250508190555080600260008282540392505081905550600073ffffffffffffffffffffffffffffffffffffffff168273ffffffffffffffffffffffffffffffffffffffff167fddf252ad1be2c89b69c2b068fc378daa952ba7f163c4a11628f55a4df523b3ef836040516129b59190612a72565b60405180910390a35050565b60006040517f095ea7b3000000000000000000000000000000000000000000000000000000008152836004820152826024820152602060006044836000895af13d15601f3d1160016000511416171691505080612a53576040517f08c379a0000000000000000000000000000000000000000000000000000000008152600401612a4a90613b7f565b60405180910390fd5b50505050565b6000819050919050565b612a6c81612a59565b82525050565b6000602082019050612a876000830184612a63565b92915050565b600081519050919050565b600082825260208201905092915050565b60005b83811015612ac7578082015181840152602081019050612aac565b60008484015250505050565b6000601f19601f8301169050919050565b6000612aef82612a8d565b612af98185612a98565b9350612b09818560208601612aa9565b612b1281612ad3565b840191505092915050565b60006020820190508181036000830152612b378184612ae4565b905092915050565b6000604051905090565b600080fd5b612b5781612a59565b8114612b6257600080fd5b50565b600081359050612b7481612b4e565b92915050565b600060208284031215612b9057612b8f612b49565b5b6000612b9e84828501612b65565b91505092915050565b600073ffffffffffffffffffffffffffffffffffffffff82169050919050565b6000612bd282612ba7565b9050919050565b612be281612bc7565b8114612bed57600080fd5b50565b600081359050612bff81612bd9565b92915050565b60008060408385031215612c1c57612c1b612b49565b5b6000612c2a85828601612bf0565b9250506020612c3b85828601612b65565b9150509250929050565b60008115159050919050565b612c5a81612c45565b82525050565b6000602082019050612c756000830184612c51565b92915050565b612c8481612bc7565b82525050565b6000602082019050612c9f6000830184612c7b565b92915050565b600080600060608486031215612cbe57612cbd612b49565b5b6000612ccc86828701612bf0565b9350506020612cdd86828701612bf0565b9250506040612cee86828701612b65565b9150509250925092565b600060ff82169050919050565b612d0e81612cf8565b82525050565b6000602082019050612d296000830184612d05565b92915050565b6000819050919050565b612d4281612d2f565b82525050565b6000602082019050612d5d6000830184612d39565b92915050565b6000819050919050565b6000612d88612d83612d7e84612ba7565b612d63565b612ba7565b9050919050565b6000612d9a82612d6d565b9050919050565b6000612dac82612d8f565b9050919050565b612dbc81612da1565b82525050565b6000602082019050612dd76000830184612db3565b92915050565b600060208284031215612df357612df2612b49565b5b6000612e0184828501612bf0565b91505092915050565b60008060408385031215612e2157612e20612b49565b5b6000612e2f85828601612b65565b9250506020612e4085828601612bf0565b9150509250929050565b6000612e5582612d8f565b9050919050565b612e6581612e4a565b82525050565b6000602082019050612e806000830184612e5c565b92915050565b600080600060608486031215612e9f57612e9e612b49565b5b6000612ead86828701612b65565b9350506020612ebe86828701612bf0565b9250506040612ecf86828701612bf0565b9150509250925092565b612ee281612cf8565b8114612eed57600080fd5b50565b600081359050612eff81612ed9565b92915050565b612f0e81612d2f565b8114612f1957600080fd5b50565b600081359050612f2b81612f05565b92915050565b600080600080600080600060e0888a031215612f5057612f4f612b49565b5b6000612f5e8a828b01612bf0565b9750506020612f6f8a828b01612bf0565b9650506040612f808a828b01612b65565b9550506060612f918a828b01612b65565b9450506080612fa28a828b01612ef0565b93505060a0612fb38a828b01612f1c565b92505060c0612fc48a828b01612f1c565b91505092959891949750929550565b60008060408385031215612fea57612fe9612b49565b5b6000612ff885828601612bf0565b925050602061300985828601612bf0565b9150509250929050565b600061301e82612d8f565b9050919050565b61302e81613013565b82525050565b60006020820190506130496000830184613025565b92915050565b60008151905061305e81612b4e565b92915050565b60006020828403121561307a57613079612b49565b5b60006130888482850161304f565b91505092915050565b7f4e487b7100000000000000000000000000000000000000000000000000000000600052602260045260246000fd5b600060028204905060018216806130d857607f821691505b6020821081036130eb576130ea613091565b5b50919050565b7f4e487b7100000000000000000000000000000000000000000000000000000000600052601160045260246000fd5b600061312b82612a59565b915061313683612a59565b925082820390508181111561314e5761314d6130f1565b5b92915050565b7f4e487b7100000000000000000000000000000000000000000000000000000000600052604160045260246000fd5b7f4e487b7100000000000000000000000000000000000000000000000000000000600052603260045260246000fd5b600081519050919050565b600082825260208201905092915050565b6000819050602082019050919050565b6131e781612bc7565b82525050565b60006131f983836131de565b60208301905092915050565b6000602082019050919050565b600061321d826131b2565b61322781856131bd565b9350613232836131ce565b8060005b8381101561326357815161324a88826131ed565b975061325583613205565b925050600181019050613236565b5085935050505092915050565b6000606082019050818103600083015261328a8186613212565b90506132996020830185612a63565b6132a66040830184612c7b565b949350505050565b6132b781612c45565b81146132c257600080fd5b50565b6000815190506132d4816132ae565b92915050565b6000602082840312156132f0576132ef612b49565b5b60006132fe848285016132c5565b91505092915050565b600080fd5b61331582612ad3565b810181811067ffffffffffffffff8211171561333457613333613154565b5b80604052505050565b6000613347612b3f565b9050613353828261330c565b919050565b60006020828403121561336e5761336d613307565b5b613378602061333d565b905060006133888482850161304f565b60008301525092915050565b60006fffffffffffffffffffffffffffffffff82169050919050565b6133b981613394565b81146133c457600080fd5b50565b6000815190506133d6816133b0565b92915050565b600064ffffffffff82169050919050565b6133f6816133dc565b811461340157600080fd5b50565b600081519050613413816133ed565b92915050565b60008151905061342881612bd9565b92915050565b60008151905061343d81612ed9565b92915050565b6000610180828403121561345a57613459613307565b5b61346561018061333d565b9050600061347584828501613358565b6000830152506020613489848285016133c7565b602083015250604061349d848285016133c7565b60408301525060606134b1848285016133c7565b60608301525060806134c5848285016133c7565b60808301525060a06134d9848285016133c7565b60a08301525060c06134ed84828501613404565b60c08301525060e061350184828501613419565b60e08301525061010061351684828501613419565b6101008301525061012061352c84828501613419565b6101208301525061014061354284828501613419565b610140830152506101606135588482850161342e565b6101608301525092915050565b6000610180828403121561357c5761357b612b49565b5b600061358a84828501613443565b91505092915050565b7f5a45524f5f534841524553000000000000000000000000000000000000000000600082015250565b60006135c9600b83612a98565b91506135d482613593565b602082019050919050565b600060208201905081810360008301526135f8816135bc565b9050919050565b60006040820190506136146000830185612a63565b6136216020830184612a63565b9392505050565b600060608201905061363d6000830186612c7b565b61364a6020830185612a63565b6136576040830184612c7b565b949350505050565b7f5a45524f5f415353455453000000000000000000000000000000000000000000600082015250565b6000613695600b83612a98565b91506136a08261365f565b602082019050919050565b600060208201905081810360008301526136c481613688565b9050919050565b7f5045524d49545f444541444c494e455f45585049524544000000000000000000600082015250565b6000613701601783612a98565b915061370c826136cb565b602082019050919050565b60006020820190508181036000830152613730816136f4565b9050919050565b600060c08201905061374c6000830189612d39565b6137596020830188612c7b565b6137666040830187612c7b565b6137736060830186612a63565b6137806080830185612a63565b61378d60a0830184612a63565b979650505050505050565b600081905092915050565b7f1901000000000000000000000000000000000000000000000000000000000000600082015250565b60006137d9600283613798565b91506137e4826137a3565b600282019050919050565b6000819050919050565b61380a61380582612d2f565b6137ef565b82525050565b600061381b826137cc565b915061382782856137f9565b60208201915061383782846137f9565b6020820191508190509392505050565b600060808201905061385c6000830187612d39565b6138696020830186612d05565b6138766040830185612d39565b6138836060830184612d39565b95945050505050565b7f494e56414c49445f5349474e4552000000000000000000000000000000000000600082015250565b60006138c2600e83612a98565b91506138cd8261388c565b602082019050919050565b600060208201905081810360008301526138f1816138b5565b9050919050565b600081905092915050565b60008190508160005260206000209050919050565b60008154613925816130c0565b61392f81866138f8565b9450600182166000811461394a576001811461395f57613992565b60ff1983168652811515820286019350613992565b61396885613903565b60005b8381101561398a5781548189015260018201915060208101905061396b565b838801955050505b50505092915050565b60006139a78284613918565b915081905092915050565b600060a0820190506139c76000830188612d39565b6139d46020830187612d39565b6139e16040830186612d39565b6139ee6060830185612a63565b6139fb6080830184612c7b565b9695505050505050565b7f5452414e534645525f46524f4d5f4641494c4544000000000000000000000000600082015250565b6000613a3b601483612a98565b9150613a4682613a05565b602082019050919050565b60006020820190508181036000830152613a6a81613a2e565b9050919050565b6000613a7c82612a59565b9150613a8783612a59565b9250828201905080821115613a9f57613a9e6130f1565b5b92915050565b6000819050919050565b600061ffff82169050919050565b6000613ad8613ad3613ace84613aa5565b612d63565b613aaf565b9050919050565b613ae881613abd565b82525050565b6000608082019050613b036000830187612c7b565b613b106020830186612a63565b613b1d6040830185612c7b565b613b2a6060830184613adf565b95945050505050565b7f415050524f56455f4641494c4544000000000000000000000000000000000000600082015250565b6000613b69600e83612a98565b9150613b7482613b33565b602082019050919050565b60006020820190508181036000830152613b9881613b5c565b905091905056fea2646970667358221220291bbe347e1ef59ed18d83e953afa1d2c099bdb09bb2cd14811158015bd4bd1a64736f6c63430008100033",
					"opcodes": "PUSH2 0x180 PUSH1 0x40 MSTORE CALLVALUE DUP1 ISZERO PUSH3 0x12 JUMPI PUSH1 0x0 DUP1 REVERT JUMPDEST POP PUSH1 0x40 MLOAD PUSH3 0x4A9E CODESIZE SUB DUP1 PUSH3 0x4A9E DUP4 CODECOPY DUP2 DUP2 ADD PUSH1 0x40 MSTORE DUP2 ADD SWAP1 PUSH3 0x38 SWAP2 SWAP1 PUSH3 0x553 JUMP JUMPDEST DUP5 PUSH3 0x4A DUP7 PUSH3 0x239 PUSH1 0x20 SHL PUSH1 0x20 SHR JUMP JUMPDEST PUSH3 0x5B DUP8 PUSH3 0x2DA PUSH1 0x20 SHL PUSH1 0x20 SHR JUMP JUMPDEST DUP2 DUP2 DUP5 PUSH20 0xFFFFFFFFFFFFFFFFFFFFFFFFFFFFFFFFFFFFFFFF AND PUSH4 0x313CE567 PUSH1 0x40 MLOAD DUP2 PUSH4 0xFFFFFFFF AND PUSH1 0xE0 SHL DUP2 MSTORE PUSH1 0x4 ADD PUSH1 0x20 PUSH1 0x40 MLOAD DUP1 DUP4 SUB DUP2 DUP7 GAS STATICCALL ISZERO DUP1 ISZERO PUSH3 0xA9 JUMPI RETURNDATASIZE PUSH1 0x0 DUP1 RETURNDATACOPY RETURNDATASIZE PUSH1 0x0 REVERT JUMPDEST POP POP POP POP PUSH1 0x40 MLOAD RETURNDATASIZE PUSH1 0x1F NOT PUSH1 0x1F DUP3 ADD AND DUP3 ADD DUP1 PUSH1 0x40 MSTORE POP DUP2 ADD SWAP1 PUSH3 0xCF SWAP2 SWAP1 PUSH3 0x619 JUMP JUMPDEST DUP3 PUSH1 0x0 SWAP1 DUP2 PUSH3 0xE0 SWAP2 SWAP1 PUSH3 0x8C5 JUMP JUMPDEST POP DUP2 PUSH1 0x1 SWAP1 DUP2 PUSH3 0xF2 SWAP2 SWAP1 PUSH3 0x8C5 JUMP JUMPDEST POP DUP1 PUSH1 0xFF AND PUSH1 0x80 DUP2 PUSH1 0xFF AND DUP2 MSTORE POP POP CHAINID PUSH1 0xA0 DUP2 DUP2 MSTORE POP POP PUSH3 0x119 PUSH3 0x37B PUSH1 0x20 SHL PUSH1 0x20 SHR JUMP JUMPDEST PUSH1 0xC0 DUP2 DUP2 MSTORE POP POP POP POP POP DUP3 PUSH20 0xFFFFFFFFFFFFFFFFFFFFFFFFFFFFFFFFFFFFFFFF AND PUSH1 0xE0 DUP2 PUSH20 0xFFFFFFFFFFFFFFFFFFFFFFFFFFFFFFFFFFFFFFFF AND DUP2 MSTORE POP POP POP POP POP DUP4 PUSH20 0xFFFFFFFFFFFFFFFFFFFFFFFFFFFFFFFFFFFFFFFF AND PUSH2 0x100 DUP2 PUSH20 0xFFFFFFFFFFFFFFFFFFFFFFFFFFFFFFFFFFFFFFFF AND DUP2 MSTORE POP POP DUP3 PUSH20 0xFFFFFFFFFFFFFFFFFFFFFFFFFFFFFFFFFFFFFFFF AND PUSH2 0x120 DUP2 PUSH20 0xFFFFFFFFFFFFFFFFFFFFFFFFFFFFFFFFFFFFFFFF AND DUP2 MSTORE POP POP DUP1 PUSH20 0xFFFFFFFFFFFFFFFFFFFFFFFFFFFFFFFFFFFFFFFF AND PUSH2 0x160 DUP2 PUSH20 0xFFFFFFFFFFFFFFFFFFFFFFFFFFFFFFFFFFFFFFFF AND DUP2 MSTORE POP POP DUP2 PUSH20 0xFFFFFFFFFFFFFFFFFFFFFFFFFFFFFFFFFFFFFFFF AND PUSH2 0x140 DUP2 PUSH20 0xFFFFFFFFFFFFFFFFFFFFFFFFFFFFFFFFFFFFFFFF AND DUP2 MSTORE POP POP POP POP POP POP POP PUSH3 0xD91 JUMP JUMPDEST PUSH1 0x60 DUP2 PUSH20 0xFFFFFFFFFFFFFFFFFFFFFFFFFFFFFFFFFFFFFFFF AND PUSH4 0x95D89B41 PUSH1 0x40 MLOAD DUP2 PUSH4 0xFFFFFFFF AND PUSH1 0xE0 SHL DUP2 MSTORE PUSH1 0x4 ADD PUSH1 0x0 PUSH1 0x40 MLOAD DUP1 DUP4 SUB DUP2 DUP7 GAS STATICCALL ISZERO DUP1 ISZERO PUSH3 0x287 JUMPI RETURNDATASIZE PUSH1 0x0 DUP1 RETURNDATACOPY RETURNDATASIZE PUSH1 0x0 REVERT JUMPDEST POP POP POP POP PUSH1 0x40 MLOAD RETURNDATASIZE PUSH1 0x0 DUP3 RETURNDATACOPY RETURNDATASIZE PUSH1 0x1F NOT PUSH1 0x1F DUP3 ADD AND DUP3 ADD DUP1 PUSH1 0x40 MSTORE POP DUP2 ADD SWAP1 PUSH3 0x2B2 SWAP2 SWAP1 PUSH3 0xAFC JUMP JUMPDEST PUSH1 0x40 MLOAD PUSH1 0x20 ADD PUSH3 0x2C4 SWAP2 SWAP1 PUSH3 0xBB5 JUMP JUMPDEST PUSH1 0x40 MLOAD PUSH1 0x20 DUP2 DUP4 SUB SUB DUP2 MSTORE SWAP1 PUSH1 0x40 MSTORE SWAP1 POP SWAP2 SWAP1 POP JUMP JUMPDEST PUSH1 0x60 DUP2 PUSH20 0xFFFFFFFFFFFFFFFFFFFFFFFFFFFFFFFFFFFFFFFF AND PUSH4 0x95D89B41 PUSH1 0x40 MLOAD DUP2 PUSH4 0xFFFFFFFF AND PUSH1 0xE0 SHL DUP2 MSTORE PUSH1 0x4 ADD PUSH1 0x0 PUSH1 0x40 MLOAD DUP1 DUP4 SUB DUP2 DUP7 GAS STATICCALL ISZERO DUP1 ISZERO PUSH3 0x328 JUMPI RETURNDATASIZE PUSH1 0x0 DUP1 RETURNDATACOPY RETURNDATASIZE PUSH1 0x0 REVERT JUMPDEST POP POP POP POP PUSH1 0x40 MLOAD RETURNDATASIZE PUSH1 0x0 DUP3 RETURNDATACOPY RETURNDATASIZE PUSH1 0x1F NOT PUSH1 0x1F DUP3 ADD AND DUP3 ADD DUP1 PUSH1 0x40 MSTORE POP DUP2 ADD SWAP1 PUSH3 0x353 SWAP2 SWAP1 PUSH3 0xAFC JUMP JUMPDEST PUSH1 0x40 MLOAD PUSH1 0x20 ADD PUSH3 0x365 SWAP2 SWAP1 PUSH3 0xC05 JUMP JUMPDEST PUSH1 0x40 MLOAD PUSH1 0x20 DUP2 DUP4 SUB SUB DUP2 MSTORE SWAP1 PUSH1 0x40 MSTORE SWAP1 POP SWAP2 SWAP1 POP JUMP JUMPDEST PUSH1 0x0 PUSH32 0x8B73C3C69BB8FE3D512ECC4CF759CC79239F7B179B0FFACAA9A75D522B39400F PUSH1 0x0 PUSH1 0x40 MLOAD PUSH3 0x3AF SWAP2 SWAP1 PUSH3 0xCDE JUMP JUMPDEST PUSH1 0x40 MLOAD DUP1 SWAP2 SUB SWAP1 KECCAK256 PUSH32 0xC89EFDAA54C0F20C7ADF612882DF0950F5A951637E0307CDCB4C672F298B8BC6 CHAINID ADDRESS PUSH1 0x40 MLOAD PUSH1 0x20 ADD PUSH3 0x3F0 SWAP6 SWAP5 SWAP4 SWAP3 SWAP2 SWAP1 PUSH3 0xD34 JUMP JUMPDEST PUSH1 0x40 MLOAD PUSH1 0x20 DUP2 DUP4 SUB SUB DUP2 MSTORE SWAP1 PUSH1 0x40 MSTORE DUP1 MLOAD SWAP1 PUSH1 0x20 ADD KECCAK256 SWAP1 POP SWAP1 JUMP JUMPDEST PUSH1 0x0 PUSH1 0x40 MLOAD SWAP1 POP SWAP1 JUMP JUMPDEST PUSH1 0x0 DUP1 REVERT JUMPDEST PUSH1 0x0 DUP1 REVERT JUMPDEST PUSH1 0x0 PUSH20 0xFFFFFFFFFFFFFFFFFFFFFFFFFFFFFFFFFFFFFFFF DUP3 AND SWAP1 POP SWAP2 SWAP1 POP JUMP JUMPDEST PUSH1 0x0 PUSH3 0x44C DUP3 PUSH3 0x41F JUMP JUMPDEST SWAP1 POP SWAP2 SWAP1 POP JUMP JUMPDEST PUSH1 0x0 PUSH3 0x460 DUP3 PUSH3 0x43F JUMP JUMPDEST SWAP1 POP SWAP2 SWAP1 POP JUMP JUMPDEST PUSH3 0x472 DUP2 PUSH3 0x453 JUMP JUMPDEST DUP2 EQ PUSH3 0x47E JUMPI PUSH1 0x0 DUP1 REVERT JUMPDEST POP JUMP JUMPDEST PUSH1 0x0 DUP2 MLOAD SWAP1 POP PUSH3 0x492 DUP2 PUSH3 0x467 JUMP JUMPDEST SWAP3 SWAP2 POP POP JUMP JUMPDEST PUSH1 0x0 PUSH3 0x4A5 DUP3 PUSH3 0x43F JUMP JUMPDEST SWAP1 POP SWAP2 SWAP1 POP JUMP JUMPDEST PUSH3 0x4B7 DUP2 PUSH3 0x498 JUMP JUMPDEST DUP2 EQ PUSH3 0x4C3 JUMPI PUSH1 0x0 DUP1 REVERT JUMPDEST POP JUMP JUMPDEST PUSH1 0x0 DUP2 MLOAD SWAP1 POP PUSH3 0x4D7 DUP2 PUSH3 0x4AC JUMP JUMPDEST SWAP3 SWAP2 POP POP JUMP JUMPDEST PUSH3 0x4E8 DUP2 PUSH3 0x43F JUMP JUMPDEST DUP2 EQ PUSH3 0x4F4 JUMPI PUSH1 0x0 DUP1 REVERT JUMPDEST POP JUMP JUMPDEST PUSH1 0x0 DUP2 MLOAD SWAP1 POP PUSH3 0x508 DUP2 PUSH3 0x4DD JUMP JUMPDEST SWAP3 SWAP2 POP POP JUMP JUMPDEST PUSH1 0x0 PUSH3 0x51B DUP3 PUSH3 0x43F JUMP JUMPDEST SWAP1 POP SWAP2 SWAP1 POP JUMP JUMPDEST PUSH3 0x52D DUP2 PUSH3 0x50E JUMP JUMPDEST DUP2 EQ PUSH3 0x539 JUMPI PUSH1 0x0 DUP1 REVERT JUMPDEST POP JUMP JUMPDEST PUSH1 0x0 DUP2 MLOAD SWAP1 POP PUSH3 0x54D DUP2 PUSH3 0x522 JUMP JUMPDEST SWAP3 SWAP2 POP POP JUMP JUMPDEST PUSH1 0x0 DUP1 PUSH1 0x0 DUP1 PUSH1 0x0 PUSH1 0xA0 DUP7 DUP9 SUB SLT ISZERO PUSH3 0x572 JUMPI PUSH3 0x571 PUSH3 0x415 JUMP JUMPDEST JUMPDEST PUSH1 0x0 PUSH3 0x582 DUP9 DUP3 DUP10 ADD PUSH3 0x481 JUMP JUMPDEST SWAP6 POP POP PUSH1 0x20 PUSH3 0x595 DUP9 DUP3 DUP10 ADD PUSH3 0x481 JUMP JUMPDEST SWAP5 POP POP PUSH1 0x40 PUSH3 0x5A8 DUP9 DUP3 DUP10 ADD PUSH3 0x4C6 JUMP JUMPDEST SWAP4 POP POP PUSH1 0x60 PUSH3 0x5BB DUP9 DUP3 DUP10 ADD PUSH3 0x4F7 JUMP JUMPDEST SWAP3 POP POP PUSH1 0x80 PUSH3 0x5CE DUP9 DUP3 DUP10 ADD PUSH3 0x53C JUMP JUMPDEST SWAP2 POP POP SWAP3 SWAP6 POP SWAP3 SWAP6 SWAP1 SWAP4 POP JUMP JUMPDEST PUSH1 0x0 PUSH1 0xFF DUP3 AND SWAP1 POP SWAP2 SWAP1 POP JUMP JUMPDEST PUSH3 0x5F3 DUP2 PUSH3 0x5DB JUMP JUMPDEST DUP2 EQ PUSH3 0x5FF JUMPI PUSH1 0x0 DUP1 REVERT JUMPDEST POP JUMP JUMPDEST PUSH1 0x0 DUP2 MLOAD SWAP1 POP PUSH3 0x613 DUP2 PUSH3 0x5E8 JUMP JUMPDEST SWAP3 SWAP2 POP POP JUMP JUMPDEST PUSH1 0x0 PUSH1 0x20 DUP3 DUP5 SUB SLT ISZERO PUSH3 0x632 JUMPI PUSH3 0x631 PUSH3 0x415 JUMP JUMPDEST JUMPDEST PUSH1 0x0 PUSH3 0x642 DUP5 DUP3 DUP6 ADD PUSH3 0x602 JUMP JUMPDEST SWAP2 POP POP SWAP3 SWAP2 POP POP JUMP JUMPDEST PUSH1 0x0 DUP2 MLOAD SWAP1 POP SWAP2 SWAP1 POP JUMP JUMPDEST PUSH32 0x4E487B7100000000000000000000000000000000000000000000000000000000 PUSH1 0x0 MSTORE PUSH1 0x41 PUSH1 0x4 MSTORE PUSH1 0x24 PUSH1 0x0 REVERT JUMPDEST PUSH32 0x4E487B7100000000000000000000000000000000000000000000000000000000 PUSH1 0x0 MSTORE PUSH1 0x22 PUSH1 0x4 MSTORE PUSH1 0x24 PUSH1 0x0 REVERT JUMPDEST PUSH1 0x0 PUSH1 0x2 DUP3 DIV SWAP1 POP PUSH1 0x1 DUP3 AND DUP1 PUSH3 0x6CD JUMPI PUSH1 0x7F DUP3 AND SWAP2 POP JUMPDEST PUSH1 0x20 DUP3 LT DUP2 SUB PUSH3 0x6E3 JUMPI PUSH3 0x6E2 PUSH3 0x685 JUMP JUMPDEST JUMPDEST POP SWAP2 SWAP1 POP JUMP JUMPDEST PUSH1 0x0 DUP2 SWAP1 POP DUP2 PUSH1 0x0 MSTORE PUSH1 0x20 PUSH1 0x0 KECCAK256 SWAP1 POP SWAP2 SWAP1 POP JUMP JUMPDEST PUSH1 0x0 PUSH1 0x20 PUSH1 0x1F DUP4 ADD DIV SWAP1 POP SWAP2 SWAP1 POP JUMP JUMPDEST PUSH1 0x0 DUP3 DUP3 SHL SWAP1 POP SWAP3 SWAP2 POP POP JUMP JUMPDEST PUSH1 0x0 PUSH1 0x8 DUP4 MUL PUSH3 0x74D PUSH32 0xFFFFFFFFFFFFFFFFFFFFFFFFFFFFFFFFFFFFFFFFFFFFFFFFFFFFFFFFFFFFFFFF DUP3 PUSH3 0x70E JUMP JUMPDEST PUSH3 0x759 DUP7 DUP4 PUSH3 0x70E JUMP JUMPDEST SWAP6 POP DUP1 NOT DUP5 AND SWAP4 POP DUP1 DUP7 AND DUP5 OR SWAP3 POP POP POP SWAP4 SWAP3 POP POP POP JUMP JUMPDEST PUSH1 0x0 DUP2 SWAP1 POP SWAP2 SWAP1 POP JUMP JUMPDEST PUSH1 0x0 DUP2 SWAP1 POP SWAP2 SWAP1 POP JUMP JUMPDEST PUSH1 0x0 PUSH3 0x7A6 PUSH3 0x7A0 PUSH3 0x79A DUP5 PUSH3 0x771 JUMP JUMPDEST PUSH3 0x77B JUMP JUMPDEST PUSH3 0x771 JUMP JUMPDEST SWAP1 POP SWAP2 SWAP1 POP JUMP JUMPDEST PUSH1 0x0 DUP2 SWAP1 POP SWAP2 SWAP1 POP JUMP JUMPDEST PUSH3 0x7C2 DUP4 PUSH3 0x785 JUMP JUMPDEST PUSH3 0x7DA PUSH3 0x7D1 DUP3 PUSH3 0x7AD JUMP JUMPDEST DUP5 DUP5 SLOAD PUSH3 0x71B JUMP JUMPDEST DUP3 SSTORE POP POP POP POP JUMP JUMPDEST PUSH1 0x0 SWAP1 JUMP JUMPDEST PUSH3 0x7F1 PUSH3 0x7E2 JUMP JUMPDEST PUSH3 0x7FE DUP2 DUP5 DUP5 PUSH3 0x7B7 JUMP JUMPDEST POP POP POP JUMP JUMPDEST JUMPDEST DUP2 DUP2 LT ISZERO PUSH3 0x826 JUMPI PUSH3 0x81A PUSH1 0x0 DUP3 PUSH3 0x7E7 JUMP JUMPDEST PUSH1 0x1 DUP2 ADD SWAP1 POP PUSH3 0x804 JUMP JUMPDEST POP POP JUMP JUMPDEST PUSH1 0x1F DUP3 GT ISZERO PUSH3 0x875 JUMPI PUSH3 0x83F DUP2 PUSH3 0x6E9 JUMP JUMPDEST PUSH3 0x84A DUP5 PUSH3 0x6FE JUMP JUMPDEST DUP2 ADD PUSH1 0x20 DUP6 LT ISZERO PUSH3 0x85A JUMPI DUP2 SWAP1 POP JUMPDEST PUSH3 0x872 PUSH3 0x869 DUP6 PUSH3 0x6FE JUMP JUMPDEST DUP4 ADD DUP3 PUSH3 0x803 JUMP JUMPDEST POP POP JUMPDEST POP POP POP JUMP JUMPDEST PUSH1 0x0 DUP3 DUP3 SHR SWAP1 POP SWAP3 SWAP2 POP POP JUMP JUMPDEST PUSH1 0x0 PUSH3 0x89A PUSH1 0x0 NOT DUP5 PUSH1 0x8 MUL PUSH3 0x87A JUMP JUMPDEST NOT DUP1 DUP4 AND SWAP2 POP POP SWAP3 SWAP2 POP POP JUMP JUMPDEST PUSH1 0x0 PUSH3 0x8B5 DUP4 DUP4 PUSH3 0x887 JUMP JUMPDEST SWAP2 POP DUP3 PUSH1 0x2 MUL DUP3 OR SWAP1 POP SWAP3 SWAP2 POP POP JUMP JUMPDEST PUSH3 0x8D0 DUP3 PUSH3 0x64B JUMP JUMPDEST PUSH8 0xFFFFFFFFFFFFFFFF DUP2 GT ISZERO PUSH3 0x8EC JUMPI PUSH3 0x8EB PUSH3 0x656 JUMP JUMPDEST JUMPDEST PUSH3 0x8F8 DUP3 SLOAD PUSH3 0x6B4 JUMP JUMPDEST PUSH3 0x905 DUP3 DUP3 DUP6 PUSH3 0x82A JUMP JUMPDEST PUSH1 0x0 PUSH1 0x20 SWAP1 POP PUSH1 0x1F DUP4 GT PUSH1 0x1 DUP2 EQ PUSH3 0x93D JUMPI PUSH1 0x0 DUP5 ISZERO PUSH3 0x928 JUMPI DUP3 DUP8 ADD MLOAD SWAP1 POP JUMPDEST PUSH3 0x934 DUP6 DUP3 PUSH3 0x8A7 JUMP JUMPDEST DUP7 SSTORE POP PUSH3 0x9A4 JUMP JUMPDEST PUSH1 0x1F NOT DUP5 AND PUSH3 0x94D DUP7 PUSH3 0x6E9 JUMP JUMPDEST PUSH1 0x0 JUMPDEST DUP3 DUP2 LT ISZERO PUSH3 0x977 JUMPI DUP5 DUP10 ADD MLOAD DUP3 SSTORE PUSH1 0x1 DUP3 ADD SWAP2 POP PUSH1 0x20 DUP6 ADD SWAP5 POP PUSH1 0x20 DUP2 ADD SWAP1 POP PUSH3 0x950 JUMP JUMPDEST DUP7 DUP4 LT ISZERO PUSH3 0x997 JUMPI DUP5 DUP10 ADD MLOAD PUSH3 0x993 PUSH1 0x1F DUP10 AND DUP3 PUSH3 0x887 JUMP JUMPDEST DUP4 SSTORE POP JUMPDEST PUSH1 0x1 PUSH1 0x2 DUP9 MUL ADD DUP9 SSTORE POP POP POP JUMPDEST POP POP POP POP POP POP JUMP JUMPDEST PUSH1 0x0 DUP1 REVERT JUMPDEST PUSH1 0x0 DUP1 REVERT JUMPDEST PUSH1 0x0 PUSH1 0x1F NOT PUSH1 0x1F DUP4 ADD AND SWAP1 POP SWAP2 SWAP1 POP JUMP JUMPDEST PUSH3 0x9D2 DUP3 PUSH3 0x9B6 JUMP JUMPDEST DUP2 ADD DUP2 DUP2 LT PUSH8 0xFFFFFFFFFFFFFFFF DUP3 GT OR ISZERO PUSH3 0x9F4 JUMPI PUSH3 0x9F3 PUSH3 0x656 JUMP JUMPDEST JUMPDEST DUP1 PUSH1 0x40 MSTORE POP POP POP JUMP JUMPDEST PUSH1 0x0 PUSH3 0xA09 PUSH3 0x40B JUMP JUMPDEST SWAP1 POP PUSH3 0xA17 DUP3 DUP3 PUSH3 0x9C7 JUMP JUMPDEST SWAP2 SWAP1 POP JUMP JUMPDEST PUSH1 0x0 PUSH8 0xFFFFFFFFFFFFFFFF DUP3 GT ISZERO PUSH3 0xA3A JUMPI PUSH3 0xA39 PUSH3 0x656 JUMP JUMPDEST JUMPDEST PUSH3 0xA45 DUP3 PUSH3 0x9B6 JUMP JUMPDEST SWAP1 POP PUSH1 0x20 DUP2 ADD SWAP1 POP SWAP2 SWAP1 POP JUMP JUMPDEST PUSH1 0x0 JUMPDEST DUP4 DUP2 LT ISZERO PUSH3 0xA72 JUMPI DUP1 DUP3 ADD MLOAD DUP2 DUP5 ADD MSTORE PUSH1 0x20 DUP2 ADD SWAP1 POP PUSH3 0xA55 JUMP JUMPDEST PUSH1 0x0 DUP5 DUP5 ADD MSTORE POP POP POP POP JUMP JUMPDEST PUSH1 0x0 PUSH3 0xA95 PUSH3 0xA8F DUP5 PUSH3 0xA1C JUMP JUMPDEST PUSH3 0x9FD JUMP JUMPDEST SWAP1 POP DUP3 DUP2 MSTORE PUSH1 0x20 DUP2 ADD DUP5 DUP5 DUP5 ADD GT ISZERO PUSH3 0xAB4 JUMPI PUSH3 0xAB3 PUSH3 0x9B1 JUMP JUMPDEST JUMPDEST PUSH3 0xAC1 DUP5 DUP3 DUP6 PUSH3 0xA52 JUMP JUMPDEST POP SWAP4 SWAP3 POP POP POP JUMP JUMPDEST PUSH1 0x0 DUP3 PUSH1 0x1F DUP4 ADD SLT PUSH3 0xAE1 JUMPI PUSH3 0xAE0 PUSH3 0x9AC JUMP JUMPDEST JUMPDEST DUP2 MLOAD PUSH3 0xAF3 DUP5 DUP3 PUSH1 0x20 DUP7 ADD PUSH3 0xA7E JUMP JUMPDEST SWAP2 POP POP SWAP3 SWAP2 POP POP JUMP JUMPDEST PUSH1 0x0 PUSH1 0x20 DUP3 DUP5 SUB SLT ISZERO PUSH3 0xB15 JUMPI PUSH3 0xB14 PUSH3 0x415 JUMP JUMPDEST JUMPDEST PUSH1 0x0 DUP3 ADD MLOAD PUSH8 0xFFFFFFFFFFFFFFFF DUP2 GT ISZERO PUSH3 0xB36 JUMPI PUSH3 0xB35 PUSH3 0x41A JUMP JUMPDEST JUMPDEST PUSH3 0xB44 DUP5 DUP3 DUP6 ADD PUSH3 0xAC9 JUMP JUMPDEST SWAP2 POP POP SWAP3 SWAP2 POP POP JUMP JUMPDEST PUSH32 0x455243343632362D577261707065642041617665207632200000000000000000 DUP2 MSTORE POP JUMP JUMPDEST PUSH1 0x0 DUP2 SWAP1 POP SWAP3 SWAP2 POP POP JUMP JUMPDEST PUSH1 0x0 PUSH3 0xB8B DUP3 PUSH3 0x64B JUMP JUMPDEST PUSH3 0xB97 DUP2 DUP6 PUSH3 0xB73 JUMP JUMPDEST SWAP4 POP PUSH3 0xBA9 DUP2 DUP6 PUSH1 0x20 DUP7 ADD PUSH3 0xA52 JUMP JUMPDEST DUP1 DUP5 ADD SWAP2 POP POP SWAP3 SWAP2 POP POP JUMP JUMPDEST PUSH1 0x0 PUSH3 0xBC2 DUP3 PUSH3 0xB4D JUMP JUMPDEST PUSH1 0x18 DUP3 ADD SWAP2 POP PUSH3 0xBD4 DUP3 DUP5 PUSH3 0xB7E JUMP JUMPDEST SWAP2 POP DUP2 SWAP1 POP SWAP3 SWAP2 POP POP JUMP JUMPDEST PUSH32 0x7761320000000000000000000000000000000000000000000000000000000000 DUP2 MSTORE POP JUMP JUMPDEST PUSH1 0x0 PUSH3 0xC12 DUP3 PUSH3 0xBDF JUMP JUMPDEST PUSH1 0x3 DUP3 ADD SWAP2 POP PUSH3 0xC24 DUP3 DUP5 PUSH3 0xB7E JUMP JUMPDEST SWAP2 POP DUP2 SWAP1 POP SWAP3 SWAP2 POP POP JUMP JUMPDEST PUSH1 0x0 DUP2 SWAP1 POP SWAP3 SWAP2 POP POP JUMP JUMPDEST PUSH1 0x0 DUP2 SWAP1 POP DUP2 PUSH1 0x0 MSTORE PUSH1 0x20 PUSH1 0x0 KECCAK256 SWAP1 POP SWAP2 SWAP1 POP JUMP JUMPDEST PUSH1 0x0 DUP2 SLOAD PUSH3 0xC5E DUP2 PUSH3 0x6B4 JUMP JUMPDEST PUSH3 0xC6A DUP2 DUP7 PUSH3 0xC2F JUMP JUMPDEST SWAP5 POP PUSH1 0x1 DUP3 AND PUSH1 0x0 DUP2 EQ PUSH3 0xC88 JUMPI PUSH1 0x1 DUP2 EQ PUSH3 0xC9E JUMPI PUSH3 0xCD5 JUMP JUMPDEST PUSH1 0xFF NOT DUP4 AND DUP7 MSTORE DUP2 ISZERO ISZERO DUP3 MUL DUP7 ADD SWAP4 POP PUSH3 0xCD5 JUMP JUMPDEST PUSH3 0xCA9 DUP6 PUSH3 0xC3A JUMP JUMPDEST PUSH1 0x0 JUMPDEST DUP4 DUP2 LT ISZERO PUSH3 0xCCD JUMPI DUP2 SLOAD DUP2 DUP10 ADD MSTORE PUSH1 0x1 DUP3 ADD SWAP2 POP PUSH1 0x20 DUP2 ADD SWAP1 POP PUSH3 0xCAC JUMP JUMPDEST DUP4 DUP9 ADD SWAP6 POP POP POP JUMPDEST POP POP POP SWAP3 SWAP2 POP POP JUMP JUMPDEST PUSH1 0x0 PUSH3 0xCEC DUP3 DUP5 PUSH3 0xC4F JUMP JUMPDEST SWAP2 POP DUP2 SWAP1 POP SWAP3 SWAP2 POP POP JUMP JUMPDEST PUSH1 0x0 DUP2 SWAP1 POP SWAP2 SWAP1 POP JUMP JUMPDEST PUSH3 0xD0C DUP2 PUSH3 0xCF7 JUMP JUMPDEST DUP3 MSTORE POP POP JUMP JUMPDEST PUSH3 0xD1D DUP2 PUSH3 0x771 JUMP JUMPDEST DUP3 MSTORE POP POP JUMP JUMPDEST PUSH3 0xD2E DUP2 PUSH3 0x43F JUMP JUMPDEST DUP3 MSTORE POP POP JUMP JUMPDEST PUSH1 0x0 PUSH1 0xA0 DUP3 ADD SWAP1 POP PUSH3 0xD4B PUSH1 0x0 DUP4 ADD DUP9 PUSH3 0xD01 JUMP JUMPDEST PUSH3 0xD5A PUSH1 0x20 DUP4 ADD DUP8 PUSH3 0xD01 JUMP JUMPDEST PUSH3 0xD69 PUSH1 0x40 DUP4 ADD DUP7 PUSH3 0xD01 JUMP JUMPDEST PUSH3 0xD78 PUSH1 0x60 DUP4 ADD DUP6 PUSH3 0xD12 JUMP JUMPDEST PUSH3 0xD87 PUSH1 0x80 DUP4 ADD DUP5 PUSH3 0xD23 JUMP JUMPDEST SWAP7 SWAP6 POP POP POP POP POP POP JUMP JUMPDEST PUSH1 0x80 MLOAD PUSH1 0xA0 MLOAD PUSH1 0xC0 MLOAD PUSH1 0xE0 MLOAD PUSH2 0x100 MLOAD PUSH2 0x120 MLOAD PUSH2 0x140 MLOAD PUSH2 0x160 MLOAD PUSH2 0x3BD5 PUSH3 0xEC9 PUSH1 0x0 CODECOPY PUSH1 0x0 DUP2 DUP2 PUSH2 0xEC0 ADD MSTORE DUP2 DUP2 PUSH2 0xF5F ADD MSTORE DUP2 DUP2 PUSH2 0x1363 ADD MSTORE DUP2 DUP2 PUSH2 0x16DF ADD MSTORE DUP2 DUP2 PUSH2 0x19F3 ADD MSTORE DUP2 DUP2 PUSH2 0x1ABD ADD MSTORE DUP2 DUP2 PUSH2 0x1B5C ADD MSTORE DUP2 DUP2 PUSH2 0x1CB1 ADD MSTORE DUP2 DUP2 PUSH2 0x1D50 ADD MSTORE DUP2 DUP2 PUSH2 0x224B ADD MSTORE DUP2 DUP2 PUSH2 0x22EA ADD MSTORE DUP2 DUP2 PUSH2 0x27D1 ADD MSTORE PUSH2 0x2839 ADD MSTORE PUSH1 0x0 DUP2 DUP2 PUSH2 0x9C9 ADD MSTORE PUSH2 0xDDB ADD MSTORE PUSH1 0x0 DUP2 DUP2 PUSH2 0xD7D ADD MSTORE PUSH2 0x2527 ADD MSTORE PUSH1 0x0 DUP2 DUP2 PUSH2 0x734 ADD MSTORE DUP2 DUP2 PUSH2 0xD0C ADD MSTORE DUP2 DUP2 PUSH2 0x133F ADD MSTORE DUP2 DUP2 PUSH2 0x1E6A ADD MSTORE PUSH2 0x2404 ADD MSTORE PUSH1 0x0 DUP2 DUP2 PUSH2 0xE9A ADD MSTORE DUP2 DUP2 PUSH2 0xF9B ADD MSTORE DUP2 DUP2 PUSH2 0x10DE ADD MSTORE DUP2 DUP2 PUSH2 0x11E9 ADD MSTORE DUP2 DUP2 PUSH2 0x171B ADD MSTORE DUP2 DUP2 PUSH2 0x1A2F ADD MSTORE DUP2 DUP2 PUSH2 0x1B98 ADD MSTORE DUP2 DUP2 PUSH2 0x1D8C ADD MSTORE DUP2 DUP2 PUSH2 0x1E2E ADD MSTORE DUP2 DUP2 PUSH2 0x2326 ADD MSTORE DUP2 DUP2 PUSH2 0x23C8 ADD MSTORE DUP2 DUP2 PUSH2 0x27F3 ADD MSTORE PUSH2 0x2875 ADD MSTORE PUSH1 0x0 PUSH2 0xC97 ADD MSTORE PUSH1 0x0 PUSH2 0xC63 ADD MSTORE PUSH1 0x0 PUSH2 0xC3D ADD MSTORE PUSH2 0x3BD5 PUSH1 0x0 RETURN INVALID PUSH1 0x80 PUSH1 0x40 MSTORE CALLVALUE DUP1 ISZERO PUSH2 0x10 JUMPI PUSH1 0x0 DUP1 REVERT JUMPDEST POP PUSH1 0x4 CALLDATASIZE LT PUSH2 0x1FB JUMPI PUSH1 0x0 CALLDATALOAD PUSH1 0xE0 SHR DUP1 PUSH4 0x7ECEBE00 GT PUSH2 0x11A JUMPI DUP1 PUSH4 0xBA087652 GT PUSH2 0xAD JUMPI DUP1 PUSH4 0xD505ACCF GT PUSH2 0x7C JUMPI DUP1 PUSH4 0xD505ACCF EQ PUSH2 0x666 JUMPI DUP1 PUSH4 0xD905777E EQ PUSH2 0x682 JUMPI DUP1 PUSH4 0xDD62ED3E EQ PUSH2 0x6B2 JUMPI DUP1 PUSH4 0xEF8B30F7 EQ PUSH2 0x6E2 JUMPI DUP1 PUSH4 0xF71B865D EQ PUSH2 0x712 JUMPI PUSH2 0x1FB JUMP JUMPDEST DUP1 PUSH4 0xBA087652 EQ PUSH2 0x5A6 JUMPI DUP1 PUSH4 0xC63D75B6 EQ PUSH2 0x5D6 JUMPI DUP1 PUSH4 0xC6E6F592 EQ PUSH2 0x606 JUMPI DUP1 PUSH4 0xCE96CB77 EQ PUSH2 0x636 JUMPI PUSH2 0x1FB JUMP JUMPDEST DUP1 PUSH4 0xA59A9973 GT PUSH2 0xE9 JUMPI DUP1 PUSH4 0xA59A9973 EQ PUSH2 0x4F8 JUMPI DUP1 PUSH4 0xA9059CBB EQ PUSH2 0x516 JUMPI DUP1 PUSH4 0xB3D7F6B9 EQ PUSH2 0x546 JUMPI DUP1 PUSH4 0xB460AF94 EQ PUSH2 0x576 JUMPI PUSH2 0x1FB JUMP JUMPDEST DUP1 PUSH4 0x7ECEBE00 EQ PUSH2 0x45C JUMPI DUP1 PUSH4 0x94BF804D EQ PUSH2 0x48C JUMPI DUP1 PUSH4 0x95D89B41 EQ PUSH2 0x4BC JUMPI DUP1 PUSH4 0xA0C1F15E EQ PUSH2 0x4DA JUMPI PUSH2 0x1FB JUMP JUMPDEST DUP1 PUSH4 0x313CE567 GT PUSH2 0x192 JUMPI DUP1 PUSH4 0x402D267D GT PUSH2 0x161 JUMPI DUP1 PUSH4 0x402D267D EQ PUSH2 0x39C JUMPI DUP1 PUSH4 0x4CDAD506 EQ PUSH2 0x3CC JUMPI DUP1 PUSH4 0x6E553F65 EQ PUSH2 0x3FC JUMPI DUP1 PUSH4 0x70A08231 EQ PUSH2 0x42C JUMPI PUSH2 0x1FB JUMP JUMPDEST DUP1 PUSH4 0x313CE567 EQ PUSH2 0x338 JUMPI DUP1 PUSH4 0x3644E515 EQ PUSH2 0x356 JUMPI DUP1 PUSH4 0x372500AB EQ PUSH2 0x374 JUMPI DUP1 PUSH4 0x38D52E0F EQ PUSH2 0x37E JUMPI PUSH2 0x1FB JUMP JUMPDEST DUP1 PUSH4 0xA28A477 GT PUSH2 0x1CE JUMPI DUP1 PUSH4 0xA28A477 EQ PUSH2 0x29C JUMPI DUP1 PUSH4 0x17F33340 EQ PUSH2 0x2CC JUMPI DUP1 PUSH4 0x18160DDD EQ PUSH2 0x2EA JUMPI DUP1 PUSH4 0x23B872DD EQ PUSH2 0x308 JUMPI PUSH2 0x1FB JUMP JUMPDEST DUP1 PUSH4 0x1E1D114 EQ PUSH2 0x200 JUMPI DUP1 PUSH4 0x6FDDE03 EQ PUSH2 0x21E JUMPI DUP1 PUSH4 0x7A2D13A EQ PUSH2 0x23C JUMPI DUP1 PUSH4 0x95EA7B3 EQ PUSH2 0x26C JUMPI JUMPDEST PUSH1 0x0 DUP1 REVERT JUMPDEST PUSH2 0x208 PUSH2 0x730 JUMP JUMPDEST PUSH1 0x40 MLOAD PUSH2 0x215 SWAP2 SWAP1 PUSH2 0x2A72 JUMP JUMPDEST PUSH1 0x40 MLOAD DUP1 SWAP2 SUB SWAP1 RETURN JUMPDEST PUSH2 0x226 PUSH2 0x7D1 JUMP JUMPDEST PUSH1 0x40 MLOAD PUSH2 0x233 SWAP2 SWAP1 PUSH2 0x2B1D JUMP JUMPDEST PUSH1 0x40 MLOAD DUP1 SWAP2 SUB SWAP1 RETURN JUMPDEST PUSH2 0x256 PUSH1 0x4 DUP1 CALLDATASIZE SUB DUP2 ADD SWAP1 PUSH2 0x251 SWAP2 SWAP1 PUSH2 0x2B7A JUMP JUMPDEST PUSH2 0x85F JUMP JUMPDEST PUSH1 0x40 MLOAD PUSH2 0x263 SWAP2 SWAP1 PUSH2 0x2A72 JUMP JUMPDEST PUSH1 0x40 MLOAD DUP1 SWAP2 SUB SWAP1 RETURN JUMPDEST PUSH2 0x286 PUSH1 0x4 DUP1 CALLDATASIZE SUB DUP2 ADD SWAP1 PUSH2 0x281 SWAP2 SWAP1 PUSH2 0x2C05 JUMP JUMPDEST PUSH2 0x89A JUMP JUMPDEST PUSH1 0x40 MLOAD PUSH2 0x293 SWAP2 SWAP1 PUSH2 0x2C60 JUMP JUMPDEST PUSH1 0x40 MLOAD DUP1 SWAP2 SUB SWAP1 RETURN JUMPDEST PUSH2 0x2B6 PUSH1 0x4 DUP1 CALLDATASIZE SUB DUP2 ADD SWAP1 PUSH2 0x2B1 SWAP2 SWAP1 PUSH2 0x2B7A JUMP JUMPDEST PUSH2 0x98C JUMP JUMPDEST PUSH1 0x40 MLOAD PUSH2 0x2C3 SWAP2 SWAP1 PUSH2 0x2A72 JUMP JUMPDEST PUSH1 0x40 MLOAD DUP1 SWAP2 SUB SWAP1 RETURN JUMPDEST PUSH2 0x2D4 PUSH2 0x9C7 JUMP JUMPDEST PUSH1 0x40 MLOAD PUSH2 0x2E1 SWAP2 SWAP1 PUSH2 0x2C8A JUMP JUMPDEST PUSH1 0x40 MLOAD DUP1 SWAP2 SUB SWAP1 RETURN JUMPDEST PUSH2 0x2F2 PUSH2 0x9EB JUMP JUMPDEST PUSH1 0x40 MLOAD PUSH2 0x2FF SWAP2 SWAP1 PUSH2 0x2A72 JUMP JUMPDEST PUSH1 0x40 MLOAD DUP1 SWAP2 SUB SWAP1 RETURN JUMPDEST PUSH2 0x322 PUSH1 0x4 DUP1 CALLDATASIZE SUB DUP2 ADD SWAP1 PUSH2 0x31D SWAP2 SWAP1 PUSH2 0x2CA5 JUMP JUMPDEST PUSH2 0x9F1 JUMP JUMPDEST PUSH1 0x40 MLOAD PUSH2 0x32F SWAP2 SWAP1 PUSH2 0x2C60 JUMP JUMPDEST PUSH1 0x40 MLOAD DUP1 SWAP2 SUB SWAP1 RETURN JUMPDEST PUSH2 0x340 PUSH2 0xC3B JUMP JUMPDEST PUSH1 0x40 MLOAD PUSH2 0x34D SWAP2 SWAP1 PUSH2 0x2D14 JUMP JUMPDEST PUSH1 0x40 MLOAD DUP1 SWAP2 SUB SWAP1 RETURN JUMPDEST PUSH2 0x35E PUSH2 0xC5F JUMP JUMPDEST PUSH1 0x40 MLOAD PUSH2 0x36B SWAP2 SWAP1 PUSH2 0x2D48 JUMP JUMPDEST PUSH1 0x40 MLOAD DUP1 SWAP2 SUB SWAP1 RETURN JUMPDEST PUSH2 0x37C PUSH2 0xCBC JUMP JUMPDEST STOP JUMPDEST PUSH2 0x386 PUSH2 0xE98 JUMP JUMPDEST PUSH1 0x40 MLOAD PUSH2 0x393 SWAP2 SWAP1 PUSH2 0x2DC2 JUMP JUMPDEST PUSH1 0x40 MLOAD DUP1 SWAP2 SUB SWAP1 RETURN JUMPDEST PUSH2 0x3B6 PUSH1 0x4 DUP1 CALLDATASIZE SUB DUP2 ADD SWAP1 PUSH2 0x3B1 SWAP2 SWAP1 PUSH2 0x2DDD JUMP JUMPDEST PUSH2 0xEBC JUMP JUMPDEST PUSH1 0x40 MLOAD PUSH2 0x3C3 SWAP2 SWAP1 PUSH2 0x2A72 JUMP JUMPDEST PUSH1 0x40 MLOAD DUP1 SWAP2 SUB SWAP1 RETURN JUMPDEST PUSH2 0x3E6 PUSH1 0x4 DUP1 CALLDATASIZE SUB DUP2 ADD SWAP1 PUSH2 0x3E1 SWAP2 SWAP1 PUSH2 0x2B7A JUMP JUMPDEST PUSH2 0x1075 JUMP JUMPDEST PUSH1 0x40 MLOAD PUSH2 0x3F3 SWAP2 SWAP1 PUSH2 0x2A72 JUMP JUMPDEST PUSH1 0x40 MLOAD DUP1 SWAP2 SUB SWAP1 RETURN JUMPDEST PUSH2 0x416 PUSH1 0x4 DUP1 CALLDATASIZE SUB DUP2 ADD SWAP1 PUSH2 0x411 SWAP2 SWAP1 PUSH2 0x2E0A JUMP JUMPDEST PUSH2 0x1087 JUMP JUMPDEST PUSH1 0x40 MLOAD PUSH2 0x423 SWAP2 SWAP1 PUSH2 0x2A72 JUMP JUMPDEST PUSH1 0x40 MLOAD DUP1 SWAP2 SUB SWAP1 RETURN JUMPDEST PUSH2 0x446 PUSH1 0x4 DUP1 CALLDATASIZE SUB DUP2 ADD SWAP1 PUSH2 0x441 SWAP2 SWAP1 PUSH2 0x2DDD JUMP JUMPDEST PUSH2 0x11A4 JUMP JUMPDEST PUSH1 0x40 MLOAD PUSH2 0x453 SWAP2 SWAP1 PUSH2 0x2A72 JUMP JUMPDEST PUSH1 0x40 MLOAD DUP1 SWAP2 SUB SWAP1 RETURN JUMPDEST PUSH2 0x476 PUSH1 0x4 DUP1 CALLDATASIZE SUB DUP2 ADD SWAP1 PUSH2 0x471 SWAP2 SWAP1 PUSH2 0x2DDD JUMP JUMPDEST PUSH2 0x11BC JUMP JUMPDEST PUSH1 0x40 MLOAD PUSH2 0x483 SWAP2 SWAP1 PUSH2 0x2A72 JUMP JUMPDEST PUSH1 0x40 MLOAD DUP1 SWAP2 SUB SWAP1 RETURN JUMPDEST PUSH2 0x4A6 PUSH1 0x4 DUP1 CALLDATASIZE SUB DUP2 ADD SWAP1 PUSH2 0x4A1 SWAP2 SWAP1 PUSH2 0x2E0A JUMP JUMPDEST PUSH2 0x11D4 JUMP JUMPDEST PUSH1 0x40 MLOAD PUSH2 0x4B3 SWAP2 SWAP1 PUSH2 0x2A72 JUMP JUMPDEST PUSH1 0x40 MLOAD DUP1 SWAP2 SUB SWAP1 RETURN JUMPDEST PUSH2 0x4C4 PUSH2 0x12AF JUMP JUMPDEST PUSH1 0x40 MLOAD PUSH2 0x4D1 SWAP2 SWAP1 PUSH2 0x2B1D JUMP JUMPDEST PUSH1 0x40 MLOAD DUP1 SWAP2 SUB SWAP1 RETURN JUMPDEST PUSH2 0x4E2 PUSH2 0x133D JUMP JUMPDEST PUSH1 0x40 MLOAD PUSH2 0x4EF SWAP2 SWAP1 PUSH2 0x2DC2 JUMP JUMPDEST PUSH1 0x40 MLOAD DUP1 SWAP2 SUB SWAP1 RETURN JUMPDEST PUSH2 0x500 PUSH2 0x1361 JUMP JUMPDEST PUSH1 0x40 MLOAD PUSH2 0x50D SWAP2 SWAP1 PUSH2 0x2E6B JUMP JUMPDEST PUSH1 0x40 MLOAD DUP1 SWAP2 SUB SWAP1 RETURN JUMPDEST PUSH2 0x530 PUSH1 0x4 DUP1 CALLDATASIZE SUB DUP2 ADD SWAP1 PUSH2 0x52B SWAP2 SWAP1 PUSH2 0x2C05 JUMP JUMPDEST PUSH2 0x1385 JUMP JUMPDEST PUSH1 0x40 MLOAD PUSH2 0x53D SWAP2 SWAP1 PUSH2 0x2C60 JUMP JUMPDEST PUSH1 0x40 MLOAD DUP1 SWAP2 SUB SWAP1 RETURN JUMPDEST PUSH2 0x560 PUSH1 0x4 DUP1 CALLDATASIZE SUB DUP2 ADD SWAP1 PUSH2 0x55B SWAP2 SWAP1 PUSH2 0x2B7A JUMP JUMPDEST PUSH2 0x1499 JUMP JUMPDEST PUSH1 0x40 MLOAD PUSH2 0x56D SWAP2 SWAP1 PUSH2 0x2A72 JUMP JUMPDEST PUSH1 0x40 MLOAD DUP1 SWAP2 SUB SWAP1 RETURN JUMPDEST PUSH2 0x590 PUSH1 0x4 DUP1 CALLDATASIZE SUB DUP2 ADD SWAP1 PUSH2 0x58B SWAP2 SWAP1 PUSH2 0x2E86 JUMP JUMPDEST PUSH2 0x14D4 JUMP JUMPDEST PUSH1 0x40 MLOAD PUSH2 0x59D SWAP2 SWAP1 PUSH2 0x2A72 JUMP JUMPDEST PUSH1 0x40 MLOAD DUP1 SWAP2 SUB SWAP1 RETURN JUMPDEST PUSH2 0x5C0 PUSH1 0x4 DUP1 CALLDATASIZE SUB DUP2 ADD SWAP1 PUSH2 0x5BB SWAP2 SWAP1 PUSH2 0x2E86 JUMP JUMPDEST PUSH2 0x17A5 JUMP JUMPDEST PUSH1 0x40 MLOAD PUSH2 0x5CD SWAP2 SWAP1 PUSH2 0x2A72 JUMP JUMPDEST PUSH1 0x40 MLOAD DUP1 SWAP2 SUB SWAP1 RETURN JUMPDEST PUSH2 0x5F0 PUSH1 0x4 DUP1 CALLDATASIZE SUB DUP2 ADD SWAP1 PUSH2 0x5EB SWAP2 SWAP1 PUSH2 0x2DDD JUMP JUMPDEST PUSH2 0x1AB9 JUMP JUMPDEST PUSH1 0x40 MLOAD PUSH2 0x5FD SWAP2 SWAP1 PUSH2 0x2A72 JUMP JUMPDEST PUSH1 0x40 MLOAD DUP1 SWAP2 SUB SWAP1 RETURN JUMPDEST PUSH2 0x620 PUSH1 0x4 DUP1 CALLDATASIZE SUB DUP2 ADD SWAP1 PUSH2 0x61B SWAP2 SWAP1 PUSH2 0x2B7A JUMP JUMPDEST PUSH2 0x1C72 JUMP JUMPDEST PUSH1 0x40 MLOAD PUSH2 0x62D SWAP2 SWAP1 PUSH2 0x2A72 JUMP JUMPDEST PUSH1 0x40 MLOAD DUP1 SWAP2 SUB SWAP1 RETURN JUMPDEST PUSH2 0x650 PUSH1 0x4 DUP1 CALLDATASIZE SUB DUP2 ADD SWAP1 PUSH2 0x64B SWAP2 SWAP1 PUSH2 0x2DDD JUMP JUMPDEST PUSH2 0x1CAD JUMP JUMPDEST PUSH1 0x40 MLOAD PUSH2 0x65D SWAP2 SWAP1 PUSH2 0x2A72 JUMP JUMPDEST PUSH1 0x40 MLOAD DUP1 SWAP2 SUB SWAP1 RETURN JUMPDEST PUSH2 0x680 PUSH1 0x4 DUP1 CALLDATASIZE SUB DUP2 ADD SWAP1 PUSH2 0x67B SWAP2 SWAP1 PUSH2 0x2F31 JUMP JUMPDEST PUSH2 0x1F4E JUMP JUMPDEST STOP JUMPDEST PUSH2 0x69C PUSH1 0x4 DUP1 CALLDATASIZE SUB DUP2 ADD SWAP1 PUSH2 0x697 SWAP2 SWAP1 PUSH2 0x2DDD JUMP JUMPDEST PUSH2 0x2247 JUMP JUMPDEST PUSH1 0x40 MLOAD PUSH2 0x6A9 SWAP2 SWAP1 PUSH2 0x2A72 JUMP JUMPDEST PUSH1 0x40 MLOAD DUP1 SWAP2 SUB SWAP1 RETURN JUMPDEST PUSH2 0x6CC PUSH1 0x4 DUP1 CALLDATASIZE SUB DUP2 ADD SWAP1 PUSH2 0x6C7 SWAP2 SWAP1 PUSH2 0x2FD3 JUMP JUMPDEST PUSH2 0x24EE JUMP JUMPDEST PUSH1 0x40 MLOAD PUSH2 0x6D9 SWAP2 SWAP1 PUSH2 0x2A72 JUMP JUMPDEST PUSH1 0x40 MLOAD DUP1 SWAP2 SUB SWAP1 RETURN JUMPDEST PUSH2 0x6FC PUSH1 0x4 DUP1 CALLDATASIZE SUB DUP2 ADD SWAP1 PUSH2 0x6F7 SWAP2 SWAP1 PUSH2 0x2B7A JUMP JUMPDEST PUSH2 0x2513 JUMP JUMPDEST PUSH1 0x40 MLOAD PUSH2 0x709 SWAP2 SWAP1 PUSH2 0x2A72 JUMP JUMPDEST PUSH1 0x40 MLOAD DUP1 SWAP2 SUB SWAP1 RETURN JUMPDEST PUSH2 0x71A PUSH2 0x2525 JUMP JUMPDEST PUSH1 0x40 MLOAD PUSH2 0x727 SWAP2 SWAP1 PUSH2 0x3034 JUMP JUMPDEST PUSH1 0x40 MLOAD DUP1 SWAP2 SUB SWAP1 RETURN JUMPDEST PUSH1 0x0 PUSH32 0x0 PUSH20 0xFFFFFFFFFFFFFFFFFFFFFFFFFFFFFFFFFFFFFFFF AND PUSH4 0x70A08231 ADDRESS PUSH1 0x40 MLOAD DUP3 PUSH4 0xFFFFFFFF AND PUSH1 0xE0 SHL DUP2 MSTORE PUSH1 0x4 ADD PUSH2 0x78B SWAP2 SWAP1 PUSH2 0x2C8A JUMP JUMPDEST PUSH1 0x20 PUSH1 0x40 MLOAD DUP1 DUP4 SUB DUP2 DUP7 GAS STATICCALL ISZERO DUP1 ISZERO PUSH2 0x7A8 JUMPI RETURNDATASIZE PUSH1 0x0 DUP1 RETURNDATACOPY RETURNDATASIZE PUSH1 0x0 REVERT JUMPDEST POP POP POP POP PUSH1 0x40 MLOAD RETURNDATASIZE PUSH1 0x1F NOT PUSH1 0x1F DUP3 ADD AND DUP3 ADD DUP1 PUSH1 0x40 MSTORE POP DUP2 ADD SWAP1 PUSH2 0x7CC SWAP2 SWAP1 PUSH2 0x3064 JUMP JUMPDEST SWAP1 POP SWAP1 JUMP JUMPDEST PUSH1 0x0 DUP1 SLOAD PUSH2 0x7DE SWAP1 PUSH2 0x30C0 JUMP JUMPDEST DUP1 PUSH1 0x1F ADD PUSH1 0x20 DUP1 SWAP2 DIV MUL PUSH1 0x20 ADD PUSH1 0x40 MLOAD SWAP1 DUP2 ADD PUSH1 0x40 MSTORE DUP1 SWAP3 SWAP2 SWAP1 DUP2 DUP2 MSTORE PUSH1 0x20 ADD DUP3 DUP1 SLOAD PUSH2 0x80A SWAP1 PUSH2 0x30C0 JUMP JUMPDEST DUP1 ISZERO PUSH2 0x857 JUMPI DUP1 PUSH1 0x1F LT PUSH2 0x82C JUMPI PUSH2 0x100 DUP1 DUP4 SLOAD DIV MUL DUP4 MSTORE SWAP2 PUSH1 0x20 ADD SWAP2 PUSH2 0x857 JUMP JUMPDEST DUP3 ADD SWAP2 SWAP1 PUSH1 0x0 MSTORE PUSH1 0x20 PUSH1 0x0 KECCAK256 SWAP1 JUMPDEST DUP2 SLOAD DUP2 MSTORE SWAP1 PUSH1 0x1 ADD SWAP1 PUSH1 0x20 ADD DUP1 DUP4 GT PUSH2 0x83A JUMPI DUP3 SWAP1 SUB PUSH1 0x1F AND DUP3 ADD SWAP2 JUMPDEST POP POP POP POP POP DUP2 JUMP JUMPDEST PUSH1 0x0 DUP1 PUSH1 0x2 SLOAD SWAP1 POP PUSH1 0x0 DUP2 EQ PUSH2 0x890 JUMPI PUSH2 0x88B PUSH2 0x87A PUSH2 0x730 JUMP JUMPDEST DUP3 DUP6 PUSH2 0x2549 SWAP1 SWAP3 SWAP2 SWAP1 PUSH4 0xFFFFFFFF AND JUMP JUMPDEST PUSH2 0x892 JUMP JUMPDEST DUP3 JUMPDEST SWAP2 POP POP SWAP2 SWAP1 POP JUMP JUMPDEST PUSH1 0x0 DUP2 PUSH1 0x4 PUSH1 0x0 CALLER PUSH20 0xFFFFFFFFFFFFFFFFFFFFFFFFFFFFFFFFFFFFFFFF AND PUSH20 0xFFFFFFFFFFFFFFFFFFFFFFFFFFFFFFFFFFFFFFFF AND DUP2 MSTORE PUSH1 0x20 ADD SWAP1 DUP2 MSTORE PUSH1 0x20 ADD PUSH1 0x0 KECCAK256 PUSH1 0x0 DUP6 PUSH20 0xFFFFFFFFFFFFFFFFFFFFFFFFFFFFFFFFFFFFFFFF AND PUSH20 0xFFFFFFFFFFFFFFFFFFFFFFFFFFFFFFFFFFFFFFFF AND DUP2 MSTORE PUSH1 0x20 ADD SWAP1 DUP2 MSTORE PUSH1 0x20 ADD PUSH1 0x0 KECCAK256 DUP2 SWAP1 SSTORE POP DUP3 PUSH20 0xFFFFFFFFFFFFFFFFFFFFFFFFFFFFFFFFFFFFFFFF AND CALLER PUSH20 0xFFFFFFFFFFFFFFFFFFFFFFFFFFFFFFFFFFFFFFFF AND PUSH32 0x8C5BE1E5EBEC7D5BD14F71427D1E84F3DD0314C0F7B2291E5B200AC8C7C3B925 DUP5 PUSH1 0x40 MLOAD PUSH2 0x97A SWAP2 SWAP1 PUSH2 0x2A72 JUMP JUMPDEST PUSH1 0x40 MLOAD DUP1 SWAP2 SUB SWAP1 LOG3 PUSH1 0x1 SWAP1 POP SWAP3 SWAP2 POP POP JUMP JUMPDEST PUSH1 0x0 DUP1 PUSH1 0x2 SLOAD SWAP1 POP PUSH1 0x0 DUP2 EQ PUSH2 0x9BD JUMPI PUSH2 0x9B8 DUP2 PUSH2 0x9A8 PUSH2 0x730 JUMP JUMPDEST DUP6 PUSH2 0x2571 SWAP1 SWAP3 SWAP2 SWAP1 PUSH4 0xFFFFFFFF AND JUMP JUMPDEST PUSH2 0x9BF JUMP JUMPDEST DUP3 JUMPDEST SWAP2 POP POP SWAP2 SWAP1 POP JUMP JUMPDEST PUSH32 0x0 DUP2 JUMP JUMPDEST PUSH1 0x2 SLOAD DUP2 JUMP JUMPDEST PUSH1 0x0 DUP1 PUSH1 0x4 PUSH1 0x0 DUP7 PUSH20 0xFFFFFFFFFFFFFFFFFFFFFFFFFFFFFFFFFFFFFFFF AND PUSH20 0xFFFFFFFFFFFFFFFFFFFFFFFFFFFFFFFFFFFFFFFF AND DUP2 MSTORE PUSH1 0x20 ADD SWAP1 DUP2 MSTORE PUSH1 0x20 ADD PUSH1 0x0 KECCAK256 PUSH1 0x0 CALLER PUSH20 0xFFFFFFFFFFFFFFFFFFFFFFFFFFFFFFFFFFFFFFFF AND PUSH20 0xFFFFFFFFFFFFFFFFFFFFFFFFFFFFFFFFFFFFFFFF AND DUP2 MSTORE PUSH1 0x20 ADD SWAP1 DUP2 MSTORE PUSH1 0x20 ADD PUSH1 0x0 KECCAK256 SLOAD SWAP1 POP PUSH32 0xFFFFFFFFFFFFFFFFFFFFFFFFFFFFFFFFFFFFFFFFFFFFFFFFFFFFFFFFFFFFFFFF DUP2 EQ PUSH2 0xB27 JUMPI DUP3 DUP2 PUSH2 0xAA6 SWAP2 SWAP1 PUSH2 0x3120 JUMP JUMPDEST PUSH1 0x4 PUSH1 0x0 DUP8 PUSH20 0xFFFFFFFFFFFFFFFFFFFFFFFFFFFFFFFFFFFFFFFF AND PUSH20 0xFFFFFFFFFFFFFFFFFFFFFFFFFFFFFFFFFFFFFFFF AND DUP2 MSTORE PUSH1 0x20 ADD SWAP1 DUP2 MSTORE PUSH1 0x20 ADD PUSH1 0x0 KECCAK256 PUSH1 0x0 CALLER PUSH20 0xFFFFFFFFFFFFFFFFFFFFFFFFFFFFFFFFFFFFFFFF AND PUSH20 0xFFFFFFFFFFFFFFFFFFFFFFFFFFFFFFFFFFFFFFFF AND DUP2 MSTORE PUSH1 0x20 ADD SWAP1 DUP2 MSTORE PUSH1 0x20 ADD PUSH1 0x0 KECCAK256 DUP2 SWAP1 SSTORE POP JUMPDEST DUP3 PUSH1 0x3 PUSH1 0x0 DUP8 PUSH20 0xFFFFFFFFFFFFFFFFFFFFFFFFFFFFFFFFFFFFFFFF AND PUSH20 0xFFFFFFFFFFFFFFFFFFFFFFFFFFFFFFFFFFFFFFFF AND DUP2 MSTORE PUSH1 0x20 ADD SWAP1 DUP2 MSTORE PUSH1 0x20 ADD PUSH1 0x0 KECCAK256 PUSH1 0x0 DUP3 DUP3 SLOAD PUSH2 0xB76 SWAP2 SWAP1 PUSH2 0x3120 JUMP JUMPDEST SWAP3 POP POP DUP2 SWAP1 SSTORE POP DUP3 PUSH1 0x3 PUSH1 0x0 DUP7 PUSH20 0xFFFFFFFFFFFFFFFFFFFFFFFFFFFFFFFFFFFFFFFF AND PUSH20 0xFFFFFFFFFFFFFFFFFFFFFFFFFFFFFFFFFFFFFFFF AND DUP2 MSTORE PUSH1 0x20 ADD SWAP1 DUP2 MSTORE PUSH1 0x20 ADD PUSH1 0x0 KECCAK256 PUSH1 0x0 DUP3 DUP3 SLOAD ADD SWAP3 POP POP DUP2 SWAP1 SSTORE POP DUP4 PUSH20 0xFFFFFFFFFFFFFFFFFFFFFFFFFFFFFFFFFFFFFFFF AND DUP6 PUSH20 0xFFFFFFFFFFFFFFFFFFFFFFFFFFFFFFFFFFFFFFFF AND PUSH32 0xDDF252AD1BE2C89B69C2B068FC378DAA952BA7F163C4A11628F55A4DF523B3EF DUP6 PUSH1 0x40 MLOAD PUSH2 0xC27 SWAP2 SWAP1 PUSH2 0x2A72 JUMP JUMPDEST PUSH1 0x40 MLOAD DUP1 SWAP2 SUB SWAP1 LOG3 PUSH1 0x1 SWAP2 POP POP SWAP4 SWAP3 POP POP POP JUMP JUMPDEST PUSH32 0x0 DUP2 JUMP JUMPDEST PUSH1 0x0 PUSH32 0x0 CHAINID EQ PUSH2 0xC95 JUMPI PUSH2 0xC90 PUSH2 0x25A3 JUMP JUMPDEST PUSH2 0xCB7 JUMP JUMPDEST PUSH32 0x0 JUMPDEST SWAP1 POP SWAP1 JUMP JUMPDEST PUSH1 0x0 PUSH1 0x1 PUSH8 0xFFFFFFFFFFFFFFFF DUP2 GT ISZERO PUSH2 0xCD9 JUMPI PUSH2 0xCD8 PUSH2 0x3154 JUMP JUMPDEST JUMPDEST PUSH1 0x40 MLOAD SWAP1 DUP1 DUP3 MSTORE DUP1 PUSH1 0x20 MUL PUSH1 0x20 ADD DUP3 ADD PUSH1 0x40 MSTORE DUP1 ISZERO PUSH2 0xD07 JUMPI DUP2 PUSH1 0x20 ADD PUSH1 0x20 DUP3 MUL DUP1 CALLDATASIZE DUP4 CALLDATACOPY DUP1 DUP3 ADD SWAP2 POP POP SWAP1 POP JUMPDEST POP SWAP1 POP PUSH32 0x0 DUP2 PUSH1 0x0 DUP2 MLOAD DUP2 LT PUSH2 0xD3F JUMPI PUSH2 0xD3E PUSH2 0x3183 JUMP JUMPDEST JUMPDEST PUSH1 0x20 MUL PUSH1 0x20 ADD ADD SWAP1 PUSH20 0xFFFFFFFFFFFFFFFFFFFFFFFFFFFFFFFFFFFFFFFF AND SWAP1 DUP2 PUSH20 0xFFFFFFFFFFFFFFFFFFFFFFFFFFFFFFFFFFFFFFFF AND DUP2 MSTORE POP POP PUSH1 0x0 PUSH32 0x0 PUSH20 0xFFFFFFFFFFFFFFFFFFFFFFFFFFFFFFFFFFFFFFFF AND PUSH4 0x3111E7B3 DUP4 PUSH32 0xFFFFFFFFFFFFFFFFFFFFFFFFFFFFFFFFFFFFFFFFFFFFFFFFFFFFFFFFFFFFFFFF PUSH32 0x0 PUSH1 0x40 MLOAD DUP5 PUSH4 0xFFFFFFFF AND PUSH1 0xE0 SHL DUP2 MSTORE PUSH1 0x4 ADD PUSH2 0xE18 SWAP4 SWAP3 SWAP2 SWAP1 PUSH2 0x3270 JUMP JUMPDEST PUSH1 0x20 PUSH1 0x40 MLOAD DUP1 DUP4 SUB DUP2 PUSH1 0x0 DUP8 GAS CALL ISZERO DUP1 ISZERO PUSH2 0xE37 JUMPI RETURNDATASIZE PUSH1 0x0 DUP1 RETURNDATACOPY RETURNDATASIZE PUSH1 0x0 REVERT JUMPDEST POP POP POP POP PUSH1 0x40 MLOAD RETURNDATASIZE PUSH1 0x1F NOT PUSH1 0x1F DUP3 ADD AND DUP3 ADD DUP1 PUSH1 0x40 MSTORE POP DUP2 ADD SWAP1 PUSH2 0xE5B SWAP2 SWAP1 PUSH2 0x3064 JUMP JUMPDEST SWAP1 POP PUSH32 0xBACFA9662D479C707DAE707C358323F0C7711EF382007957DC9935E629DA36B2 DUP2 PUSH1 0x40 MLOAD PUSH2 0xE8C SWAP2 SWAP1 PUSH2 0x2A72 JUMP JUMPDEST PUSH1 0x40 MLOAD DUP1 SWAP2 SUB SWAP1 LOG1 POP POP JUMP JUMPDEST PUSH32 0x0 DUP2 JUMP JUMPDEST PUSH1 0x0 PUSH32 0x0 PUSH20 0xFFFFFFFFFFFFFFFFFFFFFFFFFFFFFFFFFFFFFFFF AND PUSH4 0x5C975ABB PUSH1 0x40 MLOAD DUP2 PUSH4 0xFFFFFFFF AND PUSH1 0xE0 SHL DUP2 MSTORE PUSH1 0x4 ADD PUSH1 0x20 PUSH1 0x40 MLOAD DUP1 DUP4 SUB DUP2 DUP7 GAS STATICCALL ISZERO DUP1 ISZERO PUSH2 0xF29 JUMPI RETURNDATASIZE PUSH1 0x0 DUP1 RETURNDATACOPY RETURNDATASIZE PUSH1 0x0 REVERT JUMPDEST POP POP POP POP PUSH1 0x40 MLOAD RETURNDATASIZE PUSH1 0x1F NOT PUSH1 0x1F DUP3 ADD AND DUP3 ADD DUP1 PUSH1 0x40 MSTORE POP DUP2 ADD SWAP1 PUSH2 0xF4D SWAP2 SWAP1 PUSH2 0x32DA JUMP JUMPDEST ISZERO PUSH2 0xF5B JUMPI PUSH1 0x0 SWAP1 POP PUSH2 0x1070 JUMP JUMPDEST PUSH1 0x0 PUSH32 0x0 PUSH20 0xFFFFFFFFFFFFFFFFFFFFFFFFFFFFFFFFFFFFFFFF AND PUSH4 0x35EA6A75 PUSH32 0x0 PUSH1 0x40 MLOAD DUP3 PUSH4 0xFFFFFFFF AND PUSH1 0xE0 SHL DUP2 MSTORE PUSH1 0x4 ADD PUSH2 0xFD6 SWAP2 SWAP1 PUSH2 0x2C8A JUMP JUMPDEST PUSH2 0x180 PUSH1 0x40 MLOAD DUP1 DUP4 SUB DUP2 DUP7 GAS STATICCALL ISZERO DUP1 ISZERO PUSH2 0xFF4 JUMPI RETURNDATASIZE PUSH1 0x0 DUP1 RETURNDATACOPY RETURNDATASIZE PUSH1 0x0 REVERT JUMPDEST POP POP POP POP PUSH1 0x40 MLOAD RETURNDATASIZE PUSH1 0x1F NOT PUSH1 0x1F DUP3 ADD AND DUP3 ADD DUP1 PUSH1 0x40 MSTORE POP DUP2 ADD SWAP1 PUSH2 0x1018 SWAP2 SWAP1 PUSH2 0x3565 JUMP JUMPDEST PUSH1 0x0 ADD MLOAD PUSH1 0x0 ADD MLOAD SWAP1 POP PUSH2 0x102B DUP2 PUSH2 0x262F JUMP JUMPDEST DUP1 ISZERO PUSH2 0x103D JUMPI POP PUSH2 0x103B DUP2 PUSH2 0x2646 JUMP JUMPDEST ISZERO JUMPDEST PUSH2 0x104B JUMPI PUSH1 0x0 SWAP2 POP POP PUSH2 0x1070 JUMP JUMPDEST PUSH32 0xFFFFFFFFFFFFFFFFFFFFFFFFFFFFFFFFFFFFFFFFFFFFFFFFFFFFFFFFFFFFFFFF SWAP2 POP POP JUMPDEST SWAP2 SWAP1 POP JUMP JUMPDEST PUSH1 0x0 PUSH2 0x1080 DUP3 PUSH2 0x85F JUMP JUMPDEST SWAP1 POP SWAP2 SWAP1 POP JUMP JUMPDEST PUSH1 0x0 DUP1 PUSH2 0x1093 DUP5 PUSH2 0x2513 JUMP JUMPDEST SWAP2 POP DUP2 SUB PUSH2 0x10D6 JUMPI PUSH1 0x40 MLOAD PUSH32 0x8C379A000000000000000000000000000000000000000000000000000000000 DUP2 MSTORE PUSH1 0x4 ADD PUSH2 0x10CD SWAP1 PUSH2 0x35DF JUMP JUMPDEST PUSH1 0x40 MLOAD DUP1 SWAP2 SUB SWAP1 REVERT JUMPDEST PUSH2 0x1123 CALLER ADDRESS DUP6 PUSH32 0x0 PUSH20 0xFFFFFFFFFFFFFFFFFFFFFFFFFFFFFFFFFFFFFFFF AND PUSH2 0x265D SWAP1 SWAP4 SWAP3 SWAP2 SWAP1 PUSH4 0xFFFFFFFF AND JUMP JUMPDEST PUSH2 0x112D DUP3 DUP3 PUSH2 0x26FC JUMP JUMPDEST DUP2 PUSH20 0xFFFFFFFFFFFFFFFFFFFFFFFFFFFFFFFFFFFFFFFF AND CALLER PUSH20 0xFFFFFFFFFFFFFFFFFFFFFFFFFFFFFFFFFFFFFFFF AND PUSH32 0xDCBC1C05240F31FF3AD067EF1EE35CE4997762752E3A095284754544F4C709D7 DUP6 DUP5 PUSH1 0x40 MLOAD PUSH2 0x118C SWAP3 SWAP2 SWAP1 PUSH2 0x35FF JUMP JUMPDEST PUSH1 0x40 MLOAD DUP1 SWAP2 SUB SWAP1 LOG3 PUSH2 0x119E DUP4 DUP3 PUSH2 0x27CC JUMP JUMPDEST SWAP3 SWAP2 POP POP JUMP JUMPDEST PUSH1 0x3 PUSH1 0x20 MSTORE DUP1 PUSH1 0x0 MSTORE PUSH1 0x40 PUSH1 0x0 KECCAK256 PUSH1 0x0 SWAP2 POP SWAP1 POP SLOAD DUP2 JUMP JUMPDEST PUSH1 0x5 PUSH1 0x20 MSTORE DUP1 PUSH1 0x0 MSTORE PUSH1 0x40 PUSH1 0x0 KECCAK256 PUSH1 0x0 SWAP2 POP SWAP1 POP SLOAD DUP2 JUMP JUMPDEST PUSH1 0x0 PUSH2 0x11DF DUP4 PUSH2 0x1499 JUMP JUMPDEST SWAP1 POP PUSH2 0x122E CALLER ADDRESS DUP4 PUSH32 0x0 PUSH20 0xFFFFFFFFFFFFFFFFFFFFFFFFFFFFFFFFFFFFFFFF AND PUSH2 0x265D SWAP1 SWAP4 SWAP3 SWAP2 SWAP1 PUSH4 0xFFFFFFFF AND JUMP JUMPDEST PUSH2 0x1238 DUP3 DUP5 PUSH2 0x26FC JUMP JUMPDEST DUP2 PUSH20 0xFFFFFFFFFFFFFFFFFFFFFFFFFFFFFFFFFFFFFFFF AND CALLER PUSH20 0xFFFFFFFFFFFFFFFFFFFFFFFFFFFFFFFFFFFFFFFF AND PUSH32 0xDCBC1C05240F31FF3AD067EF1EE35CE4997762752E3A095284754544F4C709D7 DUP4 DUP7 PUSH1 0x40 MLOAD PUSH2 0x1297 SWAP3 SWAP2 SWAP1 PUSH2 0x35FF JUMP JUMPDEST PUSH1 0x40 MLOAD DUP1 SWAP2 SUB SWAP1 LOG3 PUSH2 0x12A9 DUP2 DUP5 PUSH2 0x27CC JUMP JUMPDEST SWAP3 SWAP2 POP POP JUMP JUMPDEST PUSH1 0x1 DUP1 SLOAD PUSH2 0x12BC SWAP1 PUSH2 0x30C0 JUMP JUMPDEST DUP1 PUSH1 0x1F ADD PUSH1 0x20 DUP1 SWAP2 DIV MUL PUSH1 0x20 ADD PUSH1 0x40 MLOAD SWAP1 DUP2 ADD PUSH1 0x40 MSTORE DUP1 SWAP3 SWAP2 SWAP1 DUP2 DUP2 MSTORE PUSH1 0x20 ADD DUP3 DUP1 SLOAD PUSH2 0x12E8 SWAP1 PUSH2 0x30C0 JUMP JUMPDEST DUP1 ISZERO PUSH2 0x1335 JUMPI DUP1 PUSH1 0x1F LT PUSH2 0x130A JUMPI PUSH2 0x100 DUP1 DUP4 SLOAD DIV MUL DUP4 MSTORE SWAP2 PUSH1 0x20 ADD SWAP2 PUSH2 0x1335 JUMP JUMPDEST DUP3 ADD SWAP2 SWAP1 PUSH1 0x0 MSTORE PUSH1 0x20 PUSH1 0x0 KECCAK256 SWAP1 JUMPDEST DUP2 SLOAD DUP2 MSTORE SWAP1 PUSH1 0x1 ADD SWAP1 PUSH1 0x20 ADD DUP1 DUP4 GT PUSH2 0x1318 JUMPI DUP3 SWAP1 SUB PUSH1 0x1F AND DUP3 ADD SWAP2 JUMPDEST POP POP POP POP POP DUP2 JUMP JUMPDEST PUSH32 0x0 DUP2 JUMP JUMPDEST PUSH32 0x0 DUP2 JUMP JUMPDEST PUSH1 0x0 DUP2 PUSH1 0x3 PUSH1 0x0 CALLER PUSH20 0xFFFFFFFFFFFFFFFFFFFFFFFFFFFFFFFFFFFFFFFF AND PUSH20 0xFFFFFFFFFFFFFFFFFFFFFFFFFFFFFFFFFFFFFFFF AND DUP2 MSTORE PUSH1 0x20 ADD SWAP1 DUP2 MSTORE PUSH1 0x20 ADD PUSH1 0x0 KECCAK256 PUSH1 0x0 DUP3 DUP3 SLOAD PUSH2 0x13D6 SWAP2 SWAP1 PUSH2 0x3120 JUMP JUMPDEST SWAP3 POP POP DUP2 SWAP1 SSTORE POP DUP2 PUSH1 0x3 PUSH1 0x0 DUP6 PUSH20 0xFFFFFFFFFFFFFFFFFFFFFFFFFFFFFFFFFFFFFFFF AND PUSH20 0xFFFFFFFFFFFFFFFFFFFFFFFFFFFFFFFFFFFFFFFF AND DUP2 MSTORE PUSH1 0x20 ADD SWAP1 DUP2 MSTORE PUSH1 0x20 ADD PUSH1 0x0 KECCAK256 PUSH1 0x0 DUP3 DUP3 SLOAD ADD SWAP3 POP POP DUP2 SWAP1 SSTORE POP DUP3 PUSH20 0xFFFFFFFFFFFFFFFFFFFFFFFFFFFFFFFFFFFFFFFF AND CALLER PUSH20 0xFFFFFFFFFFFFFFFFFFFFFFFFFFFFFFFFFFFFFFFF AND PUSH32 0xDDF252AD1BE2C89B69C2B068FC378DAA952BA7F163C4A11628F55A4DF523B3EF DUP5 PUSH1 0x40 MLOAD PUSH2 0x1487 SWAP2 SWAP1 PUSH2 0x2A72 JUMP JUMPDEST PUSH1 0x40 MLOAD DUP1 SWAP2 SUB SWAP1 LOG3 PUSH1 0x1 SWAP1 POP SWAP3 SWAP2 POP POP JUMP JUMPDEST PUSH1 0x0 DUP1 PUSH1 0x2 SLOAD SWAP1 POP PUSH1 0x0 DUP2 EQ PUSH2 0x14CA JUMPI PUSH2 0x14C5 PUSH2 0x14B4 PUSH2 0x730 JUMP JUMPDEST DUP3 DUP6 PUSH2 0x2571 SWAP1 SWAP3 SWAP2 SWAP1 PUSH4 0xFFFFFFFF AND JUMP JUMPDEST PUSH2 0x14CC JUMP JUMPDEST DUP3 JUMPDEST SWAP2 POP POP SWAP2 SWAP1 POP JUMP JUMPDEST PUSH1 0x0 PUSH2 0x14DF DUP5 PUSH2 0x98C JUMP JUMPDEST SWAP1 POP DUP2 PUSH20 0xFFFFFFFFFFFFFFFFFFFFFFFFFFFFFFFFFFFFFFFF AND CALLER PUSH20 0xFFFFFFFFFFFFFFFFFFFFFFFFFFFFFFFFFFFFFFFF AND EQ PUSH2 0x164B JUMPI PUSH1 0x0 PUSH1 0x4 PUSH1 0x0 DUP5 PUSH20 0xFFFFFFFFFFFFFFFFFFFFFFFFFFFFFFFFFFFFFFFF AND PUSH20 0xFFFFFFFFFFFFFFFFFFFFFFFFFFFFFFFFFFFFFFFF AND DUP2 MSTORE PUSH1 0x20 ADD SWAP1 DUP2 MSTORE PUSH1 0x20 ADD PUSH1 0x0 KECCAK256 PUSH1 0x0 CALLER PUSH20 0xFFFFFFFFFFFFFFFFFFFFFFFFFFFFFFFFFFFFFFFF AND PUSH20 0xFFFFFFFFFFFFFFFFFFFFFFFFFFFFFFFFFFFFFFFF AND DUP2 MSTORE PUSH1 0x20 ADD SWAP1 DUP2 MSTORE PUSH1 0x20 ADD PUSH1 0x0 KECCAK256 SLOAD SWAP1 POP PUSH32 0xFFFFFFFFFFFFFFFFFFFFFFFFFFFFFFFFFFFFFFFFFFFFFFFFFFFFFFFFFFFFFFFF DUP2 EQ PUSH2 0x1649 JUMPI DUP2 DUP2 PUSH2 0x15C8 SWAP2 SWAP1 PUSH2 0x3120 JUMP JUMPDEST PUSH1 0x4 PUSH1 0x0 DUP6 PUSH20 0xFFFFFFFFFFFFFFFFFFFFFFFFFFFFFFFFFFFFFFFF AND PUSH20 0xFFFFFFFFFFFFFFFFFFFFFFFFFFFFFFFFFFFFFFFF AND DUP2 MSTORE PUSH1 0x20 ADD SWAP1 DUP2 MSTORE PUSH1 0x20 ADD PUSH1 0x0 KECCAK256 PUSH1 0x0 CALLER PUSH20 0xFFFFFFFFFFFFFFFFFFFFFFFFFFFFFFFFFFFFFFFF AND PUSH20 0xFFFFFFFFFFFFFFFFFFFFFFFFFFFFFFFFFFFFFFFF AND DUP2 MSTORE PUSH1 0x20 ADD SWAP1 DUP2 MSTORE PUSH1 0x20 ADD PUSH1 0x0 KECCAK256 DUP2 SWAP1 SSTORE POP JUMPDEST POP JUMPDEST PUSH2 0x1655 DUP5 DUP3 PUSH2 0x28ED JUMP JUMPDEST PUSH2 0x165F DUP3 DUP3 PUSH2 0x28F1 JUMP JUMPDEST DUP2 PUSH20 0xFFFFFFFFFFFFFFFFFFFFFFFFFFFFFFFFFFFFFFFF AND DUP4 PUSH20 0xFFFFFFFFFFFFFFFFFFFFFFFFFFFFFFFFFFFFFFFF AND CALLER PUSH20 0xFFFFFFFFFFFFFFFFFFFFFFFFFFFFFFFFFFFFFFFF AND PUSH32 0xFBDE797D201C681B91056529119E0B02407C7BB96A4A2C75C01FC9667232C8DB DUP8 DUP6 PUSH1 0x40 MLOAD PUSH2 0x16D5 SWAP3 SWAP2 SWAP1 PUSH2 0x35FF JUMP JUMPDEST PUSH1 0x40 MLOAD DUP1 SWAP2 SUB SWAP1 LOG4 PUSH32 0x0 PUSH20 0xFFFFFFFFFFFFFFFFFFFFFFFFFFFFFFFFFFFFFFFF AND PUSH4 0x69328DEC PUSH32 0x0 DUP7 DUP7 PUSH1 0x40 MLOAD DUP5 PUSH4 0xFFFFFFFF AND PUSH1 0xE0 SHL DUP2 MSTORE PUSH1 0x4 ADD PUSH2 0x175A SWAP4 SWAP3 SWAP2 SWAP1 PUSH2 0x3628 JUMP JUMPDEST PUSH1 0x20 PUSH1 0x40 MLOAD DUP1 DUP4 SUB DUP2 PUSH1 0x0 DUP8 GAS CALL ISZERO DUP1 ISZERO PUSH2 0x1779 JUMPI RETURNDATASIZE PUSH1 0x0 DUP1 RETURNDATACOPY RETURNDATASIZE PUSH1 0x0 REVERT JUMPDEST POP POP POP POP PUSH1 0x40 MLOAD RETURNDATASIZE PUSH1 0x1F NOT PUSH1 0x1F DUP3 ADD AND DUP3 ADD DUP1 PUSH1 0x40 MSTORE POP DUP2 ADD SWAP1 PUSH2 0x179D SWAP2 SWAP1 PUSH2 0x3064 JUMP JUMPDEST POP SWAP4 SWAP3 POP POP POP JUMP JUMPDEST PUSH1 0x0 DUP2 PUSH20 0xFFFFFFFFFFFFFFFFFFFFFFFFFFFFFFFFFFFFFFFF AND CALLER PUSH20 0xFFFFFFFFFFFFFFFFFFFFFFFFFFFFFFFFFFFFFFFF AND EQ PUSH2 0x1911 JUMPI PUSH1 0x0 PUSH1 0x4 PUSH1 0x0 DUP5 PUSH20 0xFFFFFFFFFFFFFFFFFFFFFFFFFFFFFFFFFFFFFFFF AND PUSH20 0xFFFFFFFFFFFFFFFFFFFFFFFFFFFFFFFFFFFFFFFF AND DUP2 MSTORE PUSH1 0x20 ADD SWAP1 DUP2 MSTORE PUSH1 0x20 ADD PUSH1 0x0 KECCAK256 PUSH1 0x0 CALLER PUSH20 0xFFFFFFFFFFFFFFFFFFFFFFFFFFFFFFFFFFFFFFFF AND PUSH20 0xFFFFFFFFFFFFFFFFFFFFFFFFFFFFFFFFFFFFFFFF AND DUP2 MSTORE PUSH1 0x20 ADD SWAP1 DUP2 MSTORE PUSH1 0x20 ADD PUSH1 0x0 KECCAK256 SLOAD SWAP1 POP PUSH32 0xFFFFFFFFFFFFFFFFFFFFFFFFFFFFFFFFFFFFFFFFFFFFFFFFFFFFFFFFFFFFFFFF DUP2 EQ PUSH2 0x190F JUMPI DUP5 DUP2 PUSH2 0x188E SWAP2 SWAP1 PUSH2 0x3120 JUMP JUMPDEST PUSH1 0x4 PUSH1 0x0 DUP6 PUSH20 0xFFFFFFFFFFFFFFFFFFFFFFFFFFFFFFFFFFFFFFFF AND PUSH20 0xFFFFFFFFFFFFFFFFFFFFFFFFFFFFFFFFFFFFFFFF AND DUP2 MSTORE PUSH1 0x20 ADD SWAP1 DUP2 MSTORE PUSH1 0x20 ADD PUSH1 0x0 KECCAK256 PUSH1 0x0 CALLER PUSH20 0xFFFFFFFFFFFFFFFFFFFFFFFFFFFFFFFFFFFFFFFF AND PUSH20 0xFFFFFFFFFFFFFFFFFFFFFFFFFFFFFFFFFFFFFFFF AND DUP2 MSTORE PUSH1 0x20 ADD SWAP1 DUP2 MSTORE PUSH1 0x20 ADD PUSH1 0x0 KECCAK256 DUP2 SWAP1 SSTORE POP JUMPDEST POP JUMPDEST PUSH1 0x0 PUSH2 0x191C DUP6 PUSH2 0x1075 JUMP JUMPDEST SWAP2 POP DUP2 SUB PUSH2 0x195F JUMPI PUSH1 0x40 MLOAD PUSH32 0x8C379A000000000000000000000000000000000000000000000000000000000 DUP2 MSTORE PUSH1 0x4 ADD PUSH2 0x1956 SWAP1 PUSH2 0x36AB JUMP JUMPDEST PUSH1 0x40 MLOAD DUP1 SWAP2 SUB SWAP1 REVERT JUMPDEST PUSH2 0x1969 DUP2 DUP6 PUSH2 0x28ED JUMP JUMPDEST PUSH2 0x1973 DUP3 DUP6 PUSH2 0x28F1 JUMP JUMPDEST DUP2 PUSH20 0xFFFFFFFFFFFFFFFFFFFFFFFFFFFFFFFFFFFFFFFF AND DUP4 PUSH20 0xFFFFFFFFFFFFFFFFFFFFFFFFFFFFFFFFFFFFFFFF AND CALLER PUSH20 0xFFFFFFFFFFFFFFFFFFFFFFFFFFFFFFFFFFFFFFFF AND PUSH32 0xFBDE797D201C681B91056529119E0B02407C7BB96A4A2C75C01FC9667232C8DB DUP5 DUP9 PUSH1 0x40 MLOAD PUSH2 0x19E9 SWAP3 SWAP2 SWAP1 PUSH2 0x35FF JUMP JUMPDEST PUSH1 0x40 MLOAD DUP1 SWAP2 SUB SWAP1 LOG4 PUSH32 0x0 PUSH20 0xFFFFFFFFFFFFFFFFFFFFFFFFFFFFFFFFFFFFFFFF AND PUSH4 0x69328DEC PUSH32 0x0 DUP4 DUP7 PUSH1 0x40 MLOAD DUP5 PUSH4 0xFFFFFFFF AND PUSH1 0xE0 SHL DUP2 MSTORE PUSH1 0x4 ADD PUSH2 0x1A6E SWAP4 SWAP3 SWAP2 SWAP1 PUSH2 0x3628 JUMP JUMPDEST PUSH1 0x20 PUSH1 0x40 MLOAD DUP1 DUP4 SUB DUP2 PUSH1 0x0 DUP8 GAS CALL ISZERO DUP1 ISZERO PUSH2 0x1A8D JUMPI RETURNDATASIZE PUSH1 0x0 DUP1 RETURNDATACOPY RETURNDATASIZE PUSH1 0x0 REVERT JUMPDEST POP POP POP POP PUSH1 0x40 MLOAD RETURNDATASIZE PUSH1 0x1F NOT PUSH1 0x1F DUP3 ADD AND DUP3 ADD DUP1 PUSH1 0x40 MSTORE POP DUP2 ADD SWAP1 PUSH2 0x1AB1 SWAP2 SWAP1 PUSH2 0x3064 JUMP JUMPDEST POP SWAP4 SWAP3 POP POP POP JUMP JUMPDEST PUSH1 0x0 PUSH32 0x0 PUSH20 0xFFFFFFFFFFFFFFFFFFFFFFFFFFFFFFFFFFFFFFFF AND PUSH4 0x5C975ABB PUSH1 0x40 MLOAD DUP2 PUSH4 0xFFFFFFFF AND PUSH1 0xE0 SHL DUP2 MSTORE PUSH1 0x4 ADD PUSH1 0x20 PUSH1 0x40 MLOAD DUP1 DUP4 SUB DUP2 DUP7 GAS STATICCALL ISZERO DUP1 ISZERO PUSH2 0x1B26 JUMPI RETURNDATASIZE PUSH1 0x0 DUP1 RETURNDATACOPY RETURNDATASIZE PUSH1 0x0 REVERT JUMPDEST POP POP POP POP PUSH1 0x40 MLOAD RETURNDATASIZE PUSH1 0x1F NOT PUSH1 0x1F DUP3 ADD AND DUP3 ADD DUP1 PUSH1 0x40 MSTORE POP DUP2 ADD SWAP1 PUSH2 0x1B4A SWAP2 SWAP1 PUSH2 0x32DA JUMP JUMPDEST ISZERO PUSH2 0x1B58 JUMPI PUSH1 0x0 SWAP1 POP PUSH2 0x1C6D JUMP JUMPDEST PUSH1 0x0 PUSH32 0x0 PUSH20 0xFFFFFFFFFFFFFFFFFFFFFFFFFFFFFFFFFFFFFFFF AND PUSH4 0x35EA6A75 PUSH32 0x0 PUSH1 0x40 MLOAD DUP3 PUSH4 0xFFFFFFFF AND PUSH1 0xE0 SHL DUP2 MSTORE PUSH1 0x4 ADD PUSH2 0x1BD3 SWAP2 SWAP1 PUSH2 0x2C8A JUMP JUMPDEST PUSH2 0x180 PUSH1 0x40 MLOAD DUP1 DUP4 SUB DUP2 DUP7 GAS STATICCALL ISZERO DUP1 ISZERO PUSH2 0x1BF1 JUMPI RETURNDATASIZE PUSH1 0x0 DUP1 RETURNDATACOPY RETURNDATASIZE PUSH1 0x0 REVERT JUMPDEST POP POP POP POP PUSH1 0x40 MLOAD RETURNDATASIZE PUSH1 0x1F NOT PUSH1 0x1F DUP3 ADD AND DUP3 ADD DUP1 PUSH1 0x40 MSTORE POP DUP2 ADD SWAP1 PUSH2 0x1C15 SWAP2 SWAP1 PUSH2 0x3565 JUMP JUMPDEST PUSH1 0x0 ADD MLOAD PUSH1 0x0 ADD MLOAD SWAP1 POP PUSH2 0x1C28 DUP2 PUSH2 0x262F JUMP JUMPDEST DUP1 ISZERO PUSH2 0x1C3A JUMPI POP PUSH2 0x1C38 DUP2 PUSH2 0x2646 JUMP JUMPDEST ISZERO JUMPDEST PUSH2 0x1C48 JUMPI PUSH1 0x0 SWAP2 POP POP PUSH2 0x1C6D JUMP JUMPDEST PUSH32 0xFFFFFFFFFFFFFFFFFFFFFFFFFFFFFFFFFFFFFFFFFFFFFFFFFFFFFFFFFFFFFFFF SWAP2 POP POP JUMPDEST SWAP2 SWAP1 POP JUMP JUMPDEST PUSH1 0x0 DUP1 PUSH1 0x2 SLOAD SWAP1 POP PUSH1 0x0 DUP2 EQ PUSH2 0x1CA3 JUMPI PUSH2 0x1C9E DUP2 PUSH2 0x1C8E PUSH2 0x730 JUMP JUMPDEST DUP6 PUSH2 0x2549 SWAP1 SWAP3 SWAP2 SWAP1 PUSH4 0xFFFFFFFF AND JUMP JUMPDEST PUSH2 0x1CA5 JUMP JUMPDEST DUP3 JUMPDEST SWAP2 POP POP SWAP2 SWAP1 POP JUMP JUMPDEST PUSH1 0x0 PUSH32 0x0 PUSH20 0xFFFFFFFFFFFFFFFFFFFFFFFFFFFFFFFFFFFFFFFF AND PUSH4 0x5C975ABB PUSH1 0x40 MLOAD DUP2 PUSH4 0xFFFFFFFF AND PUSH1 0xE0 SHL DUP2 MSTORE PUSH1 0x4 ADD PUSH1 0x20 PUSH1 0x40 MLOAD DUP1 DUP4 SUB DUP2 DUP7 GAS STATICCALL ISZERO DUP1 ISZERO PUSH2 0x1D1A JUMPI RETURNDATASIZE PUSH1 0x0 DUP1 RETURNDATACOPY RETURNDATASIZE PUSH1 0x0 REVERT JUMPDEST POP POP POP POP PUSH1 0x40 MLOAD RETURNDATASIZE PUSH1 0x1F NOT PUSH1 0x1F DUP3 ADD AND DUP3 ADD DUP1 PUSH1 0x40 MSTORE POP DUP2 ADD SWAP1 PUSH2 0x1D3E SWAP2 SWAP1 PUSH2 0x32DA JUMP JUMPDEST ISZERO PUSH2 0x1D4C JUMPI PUSH1 0x0 SWAP1 POP PUSH2 0x1F49 JUMP JUMPDEST PUSH1 0x0 PUSH32 0x0 PUSH20 0xFFFFFFFFFFFFFFFFFFFFFFFFFFFFFFFFFFFFFFFF AND PUSH4 0x35EA6A75 PUSH32 0x0 PUSH1 0x40 MLOAD DUP3 PUSH4 0xFFFFFFFF AND PUSH1 0xE0 SHL DUP2 MSTORE PUSH1 0x4 ADD PUSH2 0x1DC7 SWAP2 SWAP1 PUSH2 0x2C8A JUMP JUMPDEST PUSH2 0x180 PUSH1 0x40 MLOAD DUP1 DUP4 SUB DUP2 DUP7 GAS STATICCALL ISZERO DUP1 ISZERO PUSH2 0x1DE5 JUMPI RETURNDATASIZE PUSH1 0x0 DUP1 RETURNDATACOPY RETURNDATASIZE PUSH1 0x0 REVERT JUMPDEST POP POP POP POP PUSH1 0x40 MLOAD RETURNDATASIZE PUSH1 0x1F NOT PUSH1 0x1F DUP3 ADD AND DUP3 ADD DUP1 PUSH1 0x40 MSTORE POP DUP2 ADD SWAP1 PUSH2 0x1E09 SWAP2 SWAP1 PUSH2 0x3565 JUMP JUMPDEST PUSH1 0x0 ADD MLOAD PUSH1 0x0 ADD MLOAD SWAP1 POP PUSH2 0x1E1C DUP2 PUSH2 0x262F JUMP JUMPDEST PUSH2 0x1E2A JUMPI PUSH1 0x0 SWAP2 POP POP PUSH2 0x1F49 JUMP JUMPDEST PUSH1 0x0 PUSH32 0x0 PUSH20 0xFFFFFFFFFFFFFFFFFFFFFFFFFFFFFFFFFFFFFFFF AND PUSH4 0x70A08231 PUSH32 0x0 PUSH1 0x40 MLOAD DUP3 PUSH4 0xFFFFFFFF AND PUSH1 0xE0 SHL DUP2 MSTORE PUSH1 0x4 ADD PUSH2 0x1EA5 SWAP2 SWAP1 PUSH2 0x2C8A JUMP JUMPDEST PUSH1 0x20 PUSH1 0x40 MLOAD DUP1 DUP4 SUB DUP2 DUP7 GAS STATICCALL ISZERO DUP1 ISZERO PUSH2 0x1EC2 JUMPI RETURNDATASIZE PUSH1 0x0 DUP1 RETURNDATACOPY RETURNDATASIZE PUSH1 0x0 REVERT JUMPDEST POP POP POP POP PUSH1 0x40 MLOAD RETURNDATASIZE PUSH1 0x1F NOT PUSH1 0x1F DUP3 ADD AND DUP3 ADD DUP1 PUSH1 0x40 MSTORE POP DUP2 ADD SWAP1 PUSH2 0x1EE6 SWAP2 SWAP1 PUSH2 0x3064 JUMP JUMPDEST SWAP1 POP PUSH1 0x0 PUSH2 0x1F32 PUSH1 0x3 PUSH1 0x0 DUP8 PUSH20 0xFFFFFFFFFFFFFFFFFFFFFFFFFFFFFFFFFFFFFFFF AND PUSH20 0xFFFFFFFFFFFFFFFFFFFFFFFFFFFFFFFFFFFFFFFF AND DUP2 MSTORE PUSH1 0x20 ADD SWAP1 DUP2 MSTORE PUSH1 0x20 ADD PUSH1 0x0 KECCAK256 SLOAD PUSH2 0x85F JUMP JUMPDEST SWAP1 POP DUP1 DUP3 LT PUSH2 0x1F41 JUMPI DUP1 PUSH2 0x1F43 JUMP JUMPDEST DUP2 JUMPDEST SWAP4 POP POP POP POP JUMPDEST SWAP2 SWAP1 POP JUMP JUMPDEST TIMESTAMP DUP5 LT ISZERO PUSH2 0x1F91 JUMPI PUSH1 0x40 MLOAD PUSH32 0x8C379A000000000000000000000000000000000000000000000000000000000 DUP2 MSTORE PUSH1 0x4 ADD PUSH2 0x1F88 SWAP1 PUSH2 0x3717 JUMP JUMPDEST PUSH1 0x40 MLOAD DUP1 SWAP2 SUB SWAP1 REVERT JUMPDEST PUSH1 0x0 PUSH1 0x1 PUSH2 0x1F9D PUSH2 0xC5F JUMP JUMPDEST PUSH32 0x6E71EDAE12B1B97F4D1F60370FEF10105FA2FAAE0126114A169C64845D6126C9 DUP11 DUP11 DUP11 PUSH1 0x5 PUSH1 0x0 DUP16 PUSH20 0xFFFFFFFFFFFFFFFFFFFFFFFFFFFFFFFFFFFFFFFF AND PUSH20 0xFFFFFFFFFFFFFFFFFFFFFFFFFFFFFFFFFFFFFFFF AND DUP2 MSTORE PUSH1 0x20 ADD SWAP1 DUP2 MSTORE PUSH1 0x20 ADD PUSH1 0x0 KECCAK256 PUSH1 0x0 DUP2 SLOAD DUP1 SWAP3 SWAP2 SWAP1 PUSH1 0x1 ADD SWAP2 SWAP1 POP SSTORE DUP12 PUSH1 0x40 MLOAD PUSH1 0x20 ADD PUSH2 0x2025 SWAP7 SWAP6 SWAP5 SWAP4 SWAP3 SWAP2 SWAP1 PUSH2 0x3737 JUMP JUMPDEST PUSH1 0x40 MLOAD PUSH1 0x20 DUP2 DUP4 SUB SUB DUP2 MSTORE SWAP1 PUSH1 0x40 MSTORE DUP1 MLOAD SWAP1 PUSH1 0x20 ADD KECCAK256 PUSH1 0x40 MLOAD PUSH1 0x20 ADD PUSH2 0x204C SWAP3 SWAP2 SWAP1 PUSH2 0x3810 JUMP JUMPDEST PUSH1 0x40 MLOAD PUSH1 0x20 DUP2 DUP4 SUB SUB DUP2 MSTORE SWAP1 PUSH1 0x40 MSTORE DUP1 MLOAD SWAP1 PUSH1 0x20 ADD KECCAK256 DUP6 DUP6 DUP6 PUSH1 0x40 MLOAD PUSH1 0x0 DUP2 MSTORE PUSH1 0x20 ADD PUSH1 0x40 MSTORE PUSH1 0x40 MLOAD PUSH2 0x2082 SWAP5 SWAP4 SWAP3 SWAP2 SWAP1 PUSH2 0x3847 JUMP JUMPDEST PUSH1 0x20 PUSH1 0x40 MLOAD PUSH1 0x20 DUP2 SUB SWAP1 DUP1 DUP5 SUB SWAP1 DUP6 GAS STATICCALL ISZERO DUP1 ISZERO PUSH2 0x20A4 JUMPI RETURNDATASIZE PUSH1 0x0 DUP1 RETURNDATACOPY RETURNDATASIZE PUSH1 0x0 REVERT JUMPDEST POP POP POP PUSH1 0x20 PUSH1 0x40 MLOAD SUB MLOAD SWAP1 POP PUSH1 0x0 PUSH20 0xFFFFFFFFFFFFFFFFFFFFFFFFFFFFFFFFFFFFFFFF AND DUP2 PUSH20 0xFFFFFFFFFFFFFFFFFFFFFFFFFFFFFFFFFFFFFFFF AND EQ ISZERO DUP1 ISZERO PUSH2 0x2118 JUMPI POP DUP8 PUSH20 0xFFFFFFFFFFFFFFFFFFFFFFFFFFFFFFFFFFFFFFFF AND DUP2 PUSH20 0xFFFFFFFFFFFFFFFFFFFFFFFFFFFFFFFFFFFFFFFF AND EQ JUMPDEST PUSH2 0x2157 JUMPI PUSH1 0x40 MLOAD PUSH32 0x8C379A000000000000000000000000000000000000000000000000000000000 DUP2 MSTORE PUSH1 0x4 ADD PUSH2 0x214E SWAP1 PUSH2 0x38D8 JUMP JUMPDEST PUSH1 0x40 MLOAD DUP1 SWAP2 SUB SWAP1 REVERT JUMPDEST DUP6 PUSH1 0x4 PUSH1 0x0 DUP4 PUSH20 0xFFFFFFFFFFFFFFFFFFFFFFFFFFFFFFFFFFFFFFFF AND PUSH20 0xFFFFFFFFFFFFFFFFFFFFFFFFFFFFFFFFFFFFFFFF AND DUP2 MSTORE PUSH1 0x20 ADD SWAP1 DUP2 MSTORE PUSH1 0x20 ADD PUSH1 0x0 KECCAK256 PUSH1 0x0 DUP10 PUSH20 0xFFFFFFFFFFFFFFFFFFFFFFFFFFFFFFFFFFFFFFFF AND PUSH20 0xFFFFFFFFFFFFFFFFFFFFFFFFFFFFFFFFFFFFFFFF AND DUP2 MSTORE PUSH1 0x20 ADD SWAP1 DUP2 MSTORE PUSH1 0x20 ADD PUSH1 0x0 KECCAK256 DUP2 SWAP1 SSTORE POP POP DUP6 PUSH20 0xFFFFFFFFFFFFFFFFFFFFFFFFFFFFFFFFFFFFFFFF AND DUP8 PUSH20 0xFFFFFFFFFFFFFFFFFFFFFFFFFFFFFFFFFFFFFFFF AND PUSH32 0x8C5BE1E5EBEC7D5BD14F71427D1E84F3DD0314C0F7B2291E5B200AC8C7C3B925 DUP8 PUSH1 0x40 MLOAD PUSH2 0x2236 SWAP2 SWAP1 PUSH2 0x2A72 JUMP JUMPDEST PUSH1 0x40 MLOAD DUP1 SWAP2 SUB SWAP1 LOG3 POP POP POP POP POP POP POP JUMP JUMPDEST PUSH1 0x0 PUSH32 0x0 PUSH20 0xFFFFFFFFFFFFFFFFFFFFFFFFFFFFFFFFFFFFFFFF AND PUSH4 0x5C975ABB PUSH1 0x40 MLOAD DUP2 PUSH4 0xFFFFFFFF AND PUSH1 0xE0 SHL DUP2 MSTORE PUSH1 0x4 ADD PUSH1 0x20 PUSH1 0x40 MLOAD DUP1 DUP4 SUB DUP2 DUP7 GAS STATICCALL ISZERO DUP1 ISZERO PUSH2 0x22B4 JUMPI RETURNDATASIZE PUSH1 0x0 DUP1 RETURNDATACOPY RETURNDATASIZE PUSH1 0x0 REVERT JUMPDEST POP POP POP POP PUSH1 0x40 MLOAD RETURNDATASIZE PUSH1 0x1F NOT PUSH1 0x1F DUP3 ADD AND DUP3 ADD DUP1 PUSH1 0x40 MSTORE POP DUP2 ADD SWAP1 PUSH2 0x22D8 SWAP2 SWAP1 PUSH2 0x32DA JUMP JUMPDEST ISZERO PUSH2 0x22E6 JUMPI PUSH1 0x0 SWAP1 POP PUSH2 0x24E9 JUMP JUMPDEST PUSH1 0x0 PUSH32 0x0 PUSH20 0xFFFFFFFFFFFFFFFFFFFFFFFFFFFFFFFFFFFFFFFF AND PUSH4 0x35EA6A75 PUSH32 0x0 PUSH1 0x40 MLOAD DUP3 PUSH4 0xFFFFFFFF AND PUSH1 0xE0 SHL DUP2 MSTORE PUSH1 0x4 ADD PUSH2 0x2361 SWAP2 SWAP1 PUSH2 0x2C8A JUMP JUMPDEST PUSH2 0x180 PUSH1 0x40 MLOAD DUP1 DUP4 SUB DUP2 DUP7 GAS STATICCALL ISZERO DUP1 ISZERO PUSH2 0x237F JUMPI RETURNDATASIZE PUSH1 0x0 DUP1 RETURNDATACOPY RETURNDATASIZE PUSH1 0x0 REVERT JUMPDEST POP POP POP POP PUSH1 0x40 MLOAD RETURNDATASIZE PUSH1 0x1F NOT PUSH1 0x1F DUP3 ADD AND DUP3 ADD DUP1 PUSH1 0x40 MSTORE POP DUP2 ADD SWAP1 PUSH2 0x23A3 SWAP2 SWAP1 PUSH2 0x3565 JUMP JUMPDEST PUSH1 0x0 ADD MLOAD PUSH1 0x0 ADD MLOAD SWAP1 POP PUSH2 0x23B6 DUP2 PUSH2 0x262F JUMP JUMPDEST PUSH2 0x23C4 JUMPI PUSH1 0x0 SWAP2 POP POP PUSH2 0x24E9 JUMP JUMPDEST PUSH1 0x0 PUSH32 0x0 PUSH20 0xFFFFFFFFFFFFFFFFFFFFFFFFFFFFFFFFFFFFFFFF AND PUSH4 0x70A08231 PUSH32 0x0 PUSH1 0x40 MLOAD DUP3 PUSH4 0xFFFFFFFF AND PUSH1 0xE0 SHL DUP2 MSTORE PUSH1 0x4 ADD PUSH2 0x243F SWAP2 SWAP1 PUSH2 0x2C8A JUMP JUMPDEST PUSH1 0x20 PUSH1 0x40 MLOAD DUP1 DUP4 SUB DUP2 DUP7 GAS STATICCALL ISZERO DUP1 ISZERO PUSH2 0x245C JUMPI RETURNDATASIZE PUSH1 0x0 DUP1 RETURNDATACOPY RETURNDATASIZE PUSH1 0x0 REVERT JUMPDEST POP POP POP POP PUSH1 0x40 MLOAD RETURNDATASIZE PUSH1 0x1F NOT PUSH1 0x1F DUP3 ADD AND DUP3 ADD DUP1 PUSH1 0x40 MSTORE POP DUP2 ADD SWAP1 PUSH2 0x2480 SWAP2 SWAP1 PUSH2 0x3064 JUMP JUMPDEST SWAP1 POP PUSH1 0x0 PUSH2 0x248D DUP3 PUSH2 0x1C72 JUMP JUMPDEST SWAP1 POP PUSH1 0x0 PUSH1 0x3 PUSH1 0x0 DUP8 PUSH20 0xFFFFFFFFFFFFFFFFFFFFFFFFFFFFFFFFFFFFFFFF AND PUSH20 0xFFFFFFFFFFFFFFFFFFFFFFFFFFFFFFFFFFFFFFFF AND DUP2 MSTORE PUSH1 0x20 ADD SWAP1 DUP2 MSTORE PUSH1 0x20 ADD PUSH1 0x0 KECCAK256 SLOAD SWAP1 POP DUP1 DUP3 LT PUSH2 0x24E0 JUMPI DUP1 PUSH2 0x24E2 JUMP JUMPDEST DUP2 JUMPDEST SWAP5 POP POP POP POP POP JUMPDEST SWAP2 SWAP1 POP JUMP JUMPDEST PUSH1 0x4 PUSH1 0x20 MSTORE DUP2 PUSH1 0x0 MSTORE PUSH1 0x40 PUSH1 0x0 KECCAK256 PUSH1 0x20 MSTORE DUP1 PUSH1 0x0 MSTORE PUSH1 0x40 PUSH1 0x0 KECCAK256 PUSH1 0x0 SWAP2 POP SWAP2 POP POP SLOAD DUP2 JUMP JUMPDEST PUSH1 0x0 PUSH2 0x251E DUP3 PUSH2 0x1C72 JUMP JUMPDEST SWAP1 POP SWAP2 SWAP1 POP JUMP JUMPDEST PUSH32 0x0 DUP2 JUMP JUMPDEST PUSH1 0x0 DUP3 DUP5 MUL SWAP1 POP DUP3 DUP5 DUP3 DIV EQ DUP5 ISZERO OR DUP3 ISZERO ISZERO AND PUSH2 0x2565 JUMPI PUSH1 0x0 DUP1 REVERT JUMPDEST DUP2 DUP2 DIV SWAP1 POP SWAP4 SWAP3 POP POP POP JUMP JUMPDEST PUSH1 0x0 DUP3 DUP5 MUL SWAP1 POP DUP3 DUP5 DUP3 DIV EQ DUP5 ISZERO OR DUP3 ISZERO ISZERO AND PUSH2 0x258D JUMPI PUSH1 0x0 DUP1 REVERT JUMPDEST PUSH1 0x1 DUP3 PUSH1 0x1 DUP4 SUB DIV ADD DUP2 ISZERO ISZERO MUL SWAP1 POP SWAP4 SWAP3 POP POP POP JUMP JUMPDEST PUSH1 0x0 PUSH32 0x8B73C3C69BB8FE3D512ECC4CF759CC79239F7B179B0FFACAA9A75D522B39400F PUSH1 0x0 PUSH1 0x40 MLOAD PUSH2 0x25D5 SWAP2 SWAP1 PUSH2 0x399B JUMP JUMPDEST PUSH1 0x40 MLOAD DUP1 SWAP2 SUB SWAP1 KECCAK256 PUSH32 0xC89EFDAA54C0F20C7ADF612882DF0950F5A951637E0307CDCB4C672F298B8BC6 CHAINID ADDRESS PUSH1 0x40 MLOAD PUSH1 0x20 ADD PUSH2 0x2614 SWAP6 SWAP5 SWAP4 SWAP3 SWAP2 SWAP1 PUSH2 0x39B2 JUMP JUMPDEST PUSH1 0x40 MLOAD PUSH1 0x20 DUP2 DUP4 SUB SUB DUP2 MSTORE SWAP1 PUSH1 0x40 MSTORE DUP1 MLOAD SWAP1 PUSH1 0x20 ADD KECCAK256 SWAP1 POP SWAP1 JUMP JUMPDEST PUSH1 0x0 DUP1 PUSH8 0x100000000000000 DUP4 AND EQ ISZERO SWAP1 POP SWAP2 SWAP1 POP JUMP JUMPDEST PUSH1 0x0 DUP1 PUSH8 0x200000000000000 DUP4 AND EQ ISZERO SWAP1 POP SWAP2 SWAP1 POP JUMP JUMPDEST PUSH1 0x0 PUSH1 0x40 MLOAD PUSH32 0x23B872DD00000000000000000000000000000000000000000000000000000000 DUP2 MSTORE DUP5 PUSH1 0x4 DUP3 ADD MSTORE DUP4 PUSH1 0x24 DUP3 ADD MSTORE DUP3 PUSH1 0x44 DUP3 ADD MSTORE PUSH1 0x20 PUSH1 0x0 PUSH1 0x64 DUP4 PUSH1 0x0 DUP11 GAS CALL RETURNDATASIZE ISZERO PUSH1 0x1F RETURNDATASIZE GT PUSH1 0x1 PUSH1 0x0 MLOAD EQ AND OR AND SWAP2 POP POP DUP1 PUSH2 0x26F5 JUMPI PUSH1 0x40 MLOAD PUSH32 0x8C379A000000000000000000000000000000000000000000000000000000000 DUP2 MSTORE PUSH1 0x4 ADD PUSH2 0x26EC SWAP1 PUSH2 0x3A51 JUMP JUMPDEST PUSH1 0x40 MLOAD DUP1 SWAP2 SUB SWAP1 REVERT JUMPDEST POP POP POP POP POP JUMP JUMPDEST DUP1 PUSH1 0x2 PUSH1 0x0 DUP3 DUP3 SLOAD PUSH2 0x270E SWAP2 SWAP1 PUSH2 0x3A71 JUMP JUMPDEST SWAP3 POP POP DUP2 SWAP1 SSTORE POP DUP1 PUSH1 0x3 PUSH1 0x0 DUP5 PUSH20 0xFFFFFFFFFFFFFFFFFFFFFFFFFFFFFFFFFFFFFFFF AND PUSH20 0xFFFFFFFFFFFFFFFFFFFFFFFFFFFFFFFFFFFFFFFF AND DUP2 MSTORE PUSH1 0x20 ADD SWAP1 DUP2 MSTORE PUSH1 0x20 ADD PUSH1 0x0 KECCAK256 PUSH1 0x0 DUP3 DUP3 SLOAD ADD SWAP3 POP POP DUP2 SWAP1 SSTORE POP DUP2 PUSH20 0xFFFFFFFFFFFFFFFFFFFFFFFFFFFFFFFFFFFFFFFF AND PUSH1 0x0 PUSH20 0xFFFFFFFFFFFFFFFFFFFFFFFFFFFFFFFFFFFFFFFF AND PUSH32 0xDDF252AD1BE2C89B69C2B068FC378DAA952BA7F163C4A11628F55A4DF523B3EF DUP4 PUSH1 0x40 MLOAD PUSH2 0x27C0 SWAP2 SWAP1 PUSH2 0x2A72 JUMP JUMPDEST PUSH1 0x40 MLOAD DUP1 SWAP2 SUB SWAP1 LOG3 POP POP JUMP JUMPDEST PUSH2 0x2837 PUSH32 0x0 DUP4 PUSH32 0x0 PUSH20 0xFFFFFFFFFFFFFFFFFFFFFFFFFFFFFFFFFFFFFFFF AND PUSH2 0x29C1 SWAP1 SWAP3 SWAP2 SWAP1 PUSH4 0xFFFFFFFF AND JUMP JUMPDEST PUSH32 0x0 PUSH20 0xFFFFFFFFFFFFFFFFFFFFFFFFFFFFFFFFFFFFFFFF AND PUSH4 0xE8EDA9DF PUSH32 0x0 DUP5 ADDRESS PUSH1 0x0 PUSH1 0x40 MLOAD DUP6 PUSH4 0xFFFFFFFF AND PUSH1 0xE0 SHL DUP2 MSTORE PUSH1 0x4 ADD PUSH2 0x28B7 SWAP5 SWAP4 SWAP3 SWAP2 SWAP1 PUSH2 0x3AEE JUMP JUMPDEST PUSH1 0x0 PUSH1 0x40 MLOAD DUP1 DUP4 SUB DUP2 PUSH1 0x0 DUP8 DUP1 EXTCODESIZE ISZERO DUP1 ISZERO PUSH2 0x28D1 JUMPI PUSH1 0x0 DUP1 REVERT JUMPDEST POP GAS CALL ISZERO DUP1 ISZERO PUSH2 0x28E5 JUMPI RETURNDATASIZE PUSH1 0x0 DUP1 RETURNDATACOPY RETURNDATASIZE PUSH1 0x0 REVERT JUMPDEST POP POP POP POP POP POP JUMP JUMPDEST POP POP JUMP JUMPDEST DUP1 PUSH1 0x3 PUSH1 0x0 DUP5 PUSH20 0xFFFFFFFFFFFFFFFFFFFFFFFFFFFFFFFFFFFFFFFF AND PUSH20 0xFFFFFFFFFFFFFFFFFFFFFFFFFFFFFFFFFFFFFFFF AND DUP2 MSTORE PUSH1 0x20 ADD SWAP1 DUP2 MSTORE PUSH1 0x20 ADD PUSH1 0x0 KECCAK256 PUSH1 0x0 DUP3 DUP3 SLOAD PUSH2 0x2940 SWAP2 SWAP1 PUSH2 0x3120 JUMP JUMPDEST SWAP3 POP POP DUP2 SWAP1 SSTORE POP DUP1 PUSH1 0x2 PUSH1 0x0 DUP3 DUP3 SLOAD SUB SWAP3 POP POP DUP2 SWAP1 SSTORE POP PUSH1 0x0 PUSH20 0xFFFFFFFFFFFFFFFFFFFFFFFFFFFFFFFFFFFFFFFF AND DUP3 PUSH20 0xFFFFFFFFFFFFFFFFFFFFFFFFFFFFFFFFFFFFFFFF AND PUSH32 0xDDF252AD1BE2C89B69C2B068FC378DAA952BA7F163C4A11628F55A4DF523B3EF DUP4 PUSH1 0x40 MLOAD PUSH2 0x29B5 SWAP2 SWAP1 PUSH2 0x2A72 JUMP JUMPDEST PUSH1 0x40 MLOAD DUP1 SWAP2 SUB SWAP1 LOG3 POP POP JUMP JUMPDEST PUSH1 0x0 PUSH1 0x40 MLOAD PUSH32 0x95EA7B300000000000000000000000000000000000000000000000000000000 DUP2 MSTORE DUP4 PUSH1 0x4 DUP3 ADD MSTORE DUP3 PUSH1 0x24 DUP3 ADD MSTORE PUSH1 0x20 PUSH1 0x0 PUSH1 0x44 DUP4 PUSH1 0x0 DUP10 GAS CALL RETURNDATASIZE ISZERO PUSH1 0x1F RETURNDATASIZE GT PUSH1 0x1 PUSH1 0x0 MLOAD EQ AND OR AND SWAP2 POP POP DUP1 PUSH2 0x2A53 JUMPI PUSH1 0x40 MLOAD PUSH32 0x8C379A000000000000000000000000000000000000000000000000000000000 DUP2 MSTORE PUSH1 0x4 ADD PUSH2 0x2A4A SWAP1 PUSH2 0x3B7F JUMP JUMPDEST PUSH1 0x40 MLOAD DUP1 SWAP2 SUB SWAP1 REVERT JUMPDEST POP POP POP POP JUMP JUMPDEST PUSH1 0x0 DUP2 SWAP1 POP SWAP2 SWAP1 POP JUMP JUMPDEST PUSH2 0x2A6C DUP2 PUSH2 0x2A59 JUMP JUMPDEST DUP3 MSTORE POP POP JUMP JUMPDEST PUSH1 0x0 PUSH1 0x20 DUP3 ADD SWAP1 POP PUSH2 0x2A87 PUSH1 0x0 DUP4 ADD DUP5 PUSH2 0x2A63 JUMP JUMPDEST SWAP3 SWAP2 POP POP JUMP JUMPDEST PUSH1 0x0 DUP2 MLOAD SWAP1 POP SWAP2 SWAP1 POP JUMP JUMPDEST PUSH1 0x0 DUP3 DUP3 MSTORE PUSH1 0x20 DUP3 ADD SWAP1 POP SWAP3 SWAP2 POP POP JUMP JUMPDEST PUSH1 0x0 JUMPDEST DUP4 DUP2 LT ISZERO PUSH2 0x2AC7 JUMPI DUP1 DUP3 ADD MLOAD DUP2 DUP5 ADD MSTORE PUSH1 0x20 DUP2 ADD SWAP1 POP PUSH2 0x2AAC JUMP JUMPDEST PUSH1 0x0 DUP5 DUP5 ADD MSTORE POP POP POP POP JUMP JUMPDEST PUSH1 0x0 PUSH1 0x1F NOT PUSH1 0x1F DUP4 ADD AND SWAP1 POP SWAP2 SWAP1 POP JUMP JUMPDEST PUSH1 0x0 PUSH2 0x2AEF DUP3 PUSH2 0x2A8D JUMP JUMPDEST PUSH2 0x2AF9 DUP2 DUP6 PUSH2 0x2A98 JUMP JUMPDEST SWAP4 POP PUSH2 0x2B09 DUP2 DUP6 PUSH1 0x20 DUP7 ADD PUSH2 0x2AA9 JUMP JUMPDEST PUSH2 0x2B12 DUP2 PUSH2 0x2AD3 JUMP JUMPDEST DUP5 ADD SWAP2 POP POP SWAP3 SWAP2 POP POP JUMP JUMPDEST PUSH1 0x0 PUSH1 0x20 DUP3 ADD SWAP1 POP DUP2 DUP2 SUB PUSH1 0x0 DUP4 ADD MSTORE PUSH2 0x2B37 DUP2 DUP5 PUSH2 0x2AE4 JUMP JUMPDEST SWAP1 POP SWAP3 SWAP2 POP POP JUMP JUMPDEST PUSH1 0x0 PUSH1 0x40 MLOAD SWAP1 POP SWAP1 JUMP JUMPDEST PUSH1 0x0 DUP1 REVERT JUMPDEST PUSH2 0x2B57 DUP2 PUSH2 0x2A59 JUMP JUMPDEST DUP2 EQ PUSH2 0x2B62 JUMPI PUSH1 0x0 DUP1 REVERT JUMPDEST POP JUMP JUMPDEST PUSH1 0x0 DUP2 CALLDATALOAD SWAP1 POP PUSH2 0x2B74 DUP2 PUSH2 0x2B4E JUMP JUMPDEST SWAP3 SWAP2 POP POP JUMP JUMPDEST PUSH1 0x0 PUSH1 0x20 DUP3 DUP5 SUB SLT ISZERO PUSH2 0x2B90 JUMPI PUSH2 0x2B8F PUSH2 0x2B49 JUMP JUMPDEST JUMPDEST PUSH1 0x0 PUSH2 0x2B9E DUP5 DUP3 DUP6 ADD PUSH2 0x2B65 JUMP JUMPDEST SWAP2 POP POP SWAP3 SWAP2 POP POP JUMP JUMPDEST PUSH1 0x0 PUSH20 0xFFFFFFFFFFFFFFFFFFFFFFFFFFFFFFFFFFFFFFFF DUP3 AND SWAP1 POP SWAP2 SWAP1 POP JUMP JUMPDEST PUSH1 0x0 PUSH2 0x2BD2 DUP3 PUSH2 0x2BA7 JUMP JUMPDEST SWAP1 POP SWAP2 SWAP1 POP JUMP JUMPDEST PUSH2 0x2BE2 DUP2 PUSH2 0x2BC7 JUMP JUMPDEST DUP2 EQ PUSH2 0x2BED JUMPI PUSH1 0x0 DUP1 REVERT JUMPDEST POP JUMP JUMPDEST PUSH1 0x0 DUP2 CALLDATALOAD SWAP1 POP PUSH2 0x2BFF DUP2 PUSH2 0x2BD9 JUMP JUMPDEST SWAP3 SWAP2 POP POP JUMP JUMPDEST PUSH1 0x0 DUP1 PUSH1 0x40 DUP4 DUP6 SUB SLT ISZERO PUSH2 0x2C1C JUMPI PUSH2 0x2C1B PUSH2 0x2B49 JUMP JUMPDEST JUMPDEST PUSH1 0x0 PUSH2 0x2C2A DUP6 DUP3 DUP7 ADD PUSH2 0x2BF0 JUMP JUMPDEST SWAP3 POP POP PUSH1 0x20 PUSH2 0x2C3B DUP6 DUP3 DUP7 ADD PUSH2 0x2B65 JUMP JUMPDEST SWAP2 POP POP SWAP3 POP SWAP3 SWAP1 POP JUMP JUMPDEST PUSH1 0x0 DUP2 ISZERO ISZERO SWAP1 POP SWAP2 SWAP1 POP JUMP JUMPDEST PUSH2 0x2C5A DUP2 PUSH2 0x2C45 JUMP JUMPDEST DUP3 MSTORE POP POP JUMP JUMPDEST PUSH1 0x0 PUSH1 0x20 DUP3 ADD SWAP1 POP PUSH2 0x2C75 PUSH1 0x0 DUP4 ADD DUP5 PUSH2 0x2C51 JUMP JUMPDEST SWAP3 SWAP2 POP POP JUMP JUMPDEST PUSH2 0x2C84 DUP2 PUSH2 0x2BC7 JUMP JUMPDEST DUP3 MSTORE POP POP JUMP JUMPDEST PUSH1 0x0 PUSH1 0x20 DUP3 ADD SWAP1 POP PUSH2 0x2C9F PUSH1 0x0 DUP4 ADD DUP5 PUSH2 0x2C7B JUMP JUMPDEST SWAP3 SWAP2 POP POP JUMP JUMPDEST PUSH1 0x0 DUP1 PUSH1 0x0 PUSH1 0x60 DUP5 DUP7 SUB SLT ISZERO PUSH2 0x2CBE JUMPI PUSH2 0x2CBD PUSH2 0x2B49 JUMP JUMPDEST JUMPDEST PUSH1 0x0 PUSH2 0x2CCC DUP7 DUP3 DUP8 ADD PUSH2 0x2BF0 JUMP JUMPDEST SWAP4 POP POP PUSH1 0x20 PUSH2 0x2CDD DUP7 DUP3 DUP8 ADD PUSH2 0x2BF0 JUMP JUMPDEST SWAP3 POP POP PUSH1 0x40 PUSH2 0x2CEE DUP7 DUP3 DUP8 ADD PUSH2 0x2B65 JUMP JUMPDEST SWAP2 POP POP SWAP3 POP SWAP3 POP SWAP3 JUMP JUMPDEST PUSH1 0x0 PUSH1 0xFF DUP3 AND SWAP1 POP SWAP2 SWAP1 POP JUMP JUMPDEST PUSH2 0x2D0E DUP2 PUSH2 0x2CF8 JUMP JUMPDEST DUP3 MSTORE POP POP JUMP JUMPDEST PUSH1 0x0 PUSH1 0x20 DUP3 ADD SWAP1 POP PUSH2 0x2D29 PUSH1 0x0 DUP4 ADD DUP5 PUSH2 0x2D05 JUMP JUMPDEST SWAP3 SWAP2 POP POP JUMP JUMPDEST PUSH1 0x0 DUP2 SWAP1 POP SWAP2 SWAP1 POP JUMP JUMPDEST PUSH2 0x2D42 DUP2 PUSH2 0x2D2F JUMP JUMPDEST DUP3 MSTORE POP POP JUMP JUMPDEST PUSH1 0x0 PUSH1 0x20 DUP3 ADD SWAP1 POP PUSH2 0x2D5D PUSH1 0x0 DUP4 ADD DUP5 PUSH2 0x2D39 JUMP JUMPDEST SWAP3 SWAP2 POP POP JUMP JUMPDEST PUSH1 0x0 DUP2 SWAP1 POP SWAP2 SWAP1 POP JUMP JUMPDEST PUSH1 0x0 PUSH2 0x2D88 PUSH2 0x2D83 PUSH2 0x2D7E DUP5 PUSH2 0x2BA7 JUMP JUMPDEST PUSH2 0x2D63 JUMP JUMPDEST PUSH2 0x2BA7 JUMP JUMPDEST SWAP1 POP SWAP2 SWAP1 POP JUMP JUMPDEST PUSH1 0x0 PUSH2 0x2D9A DUP3 PUSH2 0x2D6D JUMP JUMPDEST SWAP1 POP SWAP2 SWAP1 POP JUMP JUMPDEST PUSH1 0x0 PUSH2 0x2DAC DUP3 PUSH2 0x2D8F JUMP JUMPDEST SWAP1 POP SWAP2 SWAP1 POP JUMP JUMPDEST PUSH2 0x2DBC DUP2 PUSH2 0x2DA1 JUMP JUMPDEST DUP3 MSTORE POP POP JUMP JUMPDEST PUSH1 0x0 PUSH1 0x20 DUP3 ADD SWAP1 POP PUSH2 0x2DD7 PUSH1 0x0 DUP4 ADD DUP5 PUSH2 0x2DB3 JUMP JUMPDEST SWAP3 SWAP2 POP POP JUMP JUMPDEST PUSH1 0x0 PUSH1 0x20 DUP3 DUP5 SUB SLT ISZERO PUSH2 0x2DF3 JUMPI PUSH2 0x2DF2 PUSH2 0x2B49 JUMP JUMPDEST JUMPDEST PUSH1 0x0 PUSH2 0x2E01 DUP5 DUP3 DUP6 ADD PUSH2 0x2BF0 JUMP JUMPDEST SWAP2 POP POP SWAP3 SWAP2 POP POP JUMP JUMPDEST PUSH1 0x0 DUP1 PUSH1 0x40 DUP4 DUP6 SUB SLT ISZERO PUSH2 0x2E21 JUMPI PUSH2 0x2E20 PUSH2 0x2B49 JUMP JUMPDEST JUMPDEST PUSH1 0x0 PUSH2 0x2E2F DUP6 DUP3 DUP7 ADD PUSH2 0x2B65 JUMP JUMPDEST SWAP3 POP POP PUSH1 0x20 PUSH2 0x2E40 DUP6 DUP3 DUP7 ADD PUSH2 0x2BF0 JUMP JUMPDEST SWAP2 POP POP SWAP3 POP SWAP3 SWAP1 POP JUMP JUMPDEST PUSH1 0x0 PUSH2 0x2E55 DUP3 PUSH2 0x2D8F JUMP JUMPDEST SWAP1 POP SWAP2 SWAP1 POP JUMP JUMPDEST PUSH2 0x2E65 DUP2 PUSH2 0x2E4A JUMP JUMPDEST DUP3 MSTORE POP POP JUMP JUMPDEST PUSH1 0x0 PUSH1 0x20 DUP3 ADD SWAP1 POP PUSH2 0x2E80 PUSH1 0x0 DUP4 ADD DUP5 PUSH2 0x2E5C JUMP JUMPDEST SWAP3 SWAP2 POP POP JUMP JUMPDEST PUSH1 0x0 DUP1 PUSH1 0x0 PUSH1 0x60 DUP5 DUP7 SUB SLT ISZERO PUSH2 0x2E9F JUMPI PUSH2 0x2E9E PUSH2 0x2B49 JUMP JUMPDEST JUMPDEST PUSH1 0x0 PUSH2 0x2EAD DUP7 DUP3 DUP8 ADD PUSH2 0x2B65 JUMP JUMPDEST SWAP4 POP POP PUSH1 0x20 PUSH2 0x2EBE DUP7 DUP3 DUP8 ADD PUSH2 0x2BF0 JUMP JUMPDEST SWAP3 POP POP PUSH1 0x40 PUSH2 0x2ECF DUP7 DUP3 DUP8 ADD PUSH2 0x2BF0 JUMP JUMPDEST SWAP2 POP POP SWAP3 POP SWAP3 POP SWAP3 JUMP JUMPDEST PUSH2 0x2EE2 DUP2 PUSH2 0x2CF8 JUMP JUMPDEST DUP2 EQ PUSH2 0x2EED JUMPI PUSH1 0x0 DUP1 REVERT JUMPDEST POP JUMP JUMPDEST PUSH1 0x0 DUP2 CALLDATALOAD SWAP1 POP PUSH2 0x2EFF DUP2 PUSH2 0x2ED9 JUMP JUMPDEST SWAP3 SWAP2 POP POP JUMP JUMPDEST PUSH2 0x2F0E DUP2 PUSH2 0x2D2F JUMP JUMPDEST DUP2 EQ PUSH2 0x2F19 JUMPI PUSH1 0x0 DUP1 REVERT JUMPDEST POP JUMP JUMPDEST PUSH1 0x0 DUP2 CALLDATALOAD SWAP1 POP PUSH2 0x2F2B DUP2 PUSH2 0x2F05 JUMP JUMPDEST SWAP3 SWAP2 POP POP JUMP JUMPDEST PUSH1 0x0 DUP1 PUSH1 0x0 DUP1 PUSH1 0x0 DUP1 PUSH1 0x0 PUSH1 0xE0 DUP9 DUP11 SUB SLT ISZERO PUSH2 0x2F50 JUMPI PUSH2 0x2F4F PUSH2 0x2B49 JUMP JUMPDEST JUMPDEST PUSH1 0x0 PUSH2 0x2F5E DUP11 DUP3 DUP12 ADD PUSH2 0x2BF0 JUMP JUMPDEST SWAP8 POP POP PUSH1 0x20 PUSH2 0x2F6F DUP11 DUP3 DUP12 ADD PUSH2 0x2BF0 JUMP JUMPDEST SWAP7 POP POP PUSH1 0x40 PUSH2 0x2F80 DUP11 DUP3 DUP12 ADD PUSH2 0x2B65 JUMP JUMPDEST SWAP6 POP POP PUSH1 0x60 PUSH2 0x2F91 DUP11 DUP3 DUP12 ADD PUSH2 0x2B65 JUMP JUMPDEST SWAP5 POP POP PUSH1 0x80 PUSH2 0x2FA2 DUP11 DUP3 DUP12 ADD PUSH2 0x2EF0 JUMP JUMPDEST SWAP4 POP POP PUSH1 0xA0 PUSH2 0x2FB3 DUP11 DUP3 DUP12 ADD PUSH2 0x2F1C JUMP JUMPDEST SWAP3 POP POP PUSH1 0xC0 PUSH2 0x2FC4 DUP11 DUP3 DUP12 ADD PUSH2 0x2F1C JUMP JUMPDEST SWAP2 POP POP SWAP3 SWAP6 SWAP9 SWAP2 SWAP5 SWAP8 POP SWAP3 SWAP6 POP JUMP JUMPDEST PUSH1 0x0 DUP1 PUSH1 0x40 DUP4 DUP6 SUB SLT ISZERO PUSH2 0x2FEA JUMPI PUSH2 0x2FE9 PUSH2 0x2B49 JUMP JUMPDEST JUMPDEST PUSH1 0x0 PUSH2 0x2FF8 DUP6 DUP3 DUP7 ADD PUSH2 0x2BF0 JUMP JUMPDEST SWAP3 POP POP PUSH1 0x20 PUSH2 0x3009 DUP6 DUP3 DUP7 ADD PUSH2 0x2BF0 JUMP JUMPDEST SWAP2 POP POP SWAP3 POP SWAP3 SWAP1 POP JUMP JUMPDEST PUSH1 0x0 PUSH2 0x301E DUP3 PUSH2 0x2D8F JUMP JUMPDEST SWAP1 POP SWAP2 SWAP1 POP JUMP JUMPDEST PUSH2 0x302E DUP2 PUSH2 0x3013 JUMP JUMPDEST DUP3 MSTORE POP POP JUMP JUMPDEST PUSH1 0x0 PUSH1 0x20 DUP3 ADD SWAP1 POP PUSH2 0x3049 PUSH1 0x0 DUP4 ADD DUP5 PUSH2 0x3025 JUMP JUMPDEST SWAP3 SWAP2 POP POP JUMP JUMPDEST PUSH1 0x0 DUP2 MLOAD SWAP1 POP PUSH2 0x305E DUP2 PUSH2 0x2B4E JUMP JUMPDEST SWAP3 SWAP2 POP POP JUMP JUMPDEST PUSH1 0x0 PUSH1 0x20 DUP3 DUP5 SUB SLT ISZERO PUSH2 0x307A JUMPI PUSH2 0x3079 PUSH2 0x2B49 JUMP JUMPDEST JUMPDEST PUSH1 0x0 PUSH2 0x3088 DUP5 DUP3 DUP6 ADD PUSH2 0x304F JUMP JUMPDEST SWAP2 POP POP SWAP3 SWAP2 POP POP JUMP JUMPDEST PUSH32 0x4E487B7100000000000000000000000000000000000000000000000000000000 PUSH1 0x0 MSTORE PUSH1 0x22 PUSH1 0x4 MSTORE PUSH1 0x24 PUSH1 0x0 REVERT JUMPDEST PUSH1 0x0 PUSH1 0x2 DUP3 DIV SWAP1 POP PUSH1 0x1 DUP3 AND DUP1 PUSH2 0x30D8 JUMPI PUSH1 0x7F DUP3 AND SWAP2 POP JUMPDEST PUSH1 0x20 DUP3 LT DUP2 SUB PUSH2 0x30EB JUMPI PUSH2 0x30EA PUSH2 0x3091 JUMP JUMPDEST JUMPDEST POP SWAP2 SWAP1 POP JUMP JUMPDEST PUSH32 0x4E487B7100000000000000000000000000000000000000000000000000000000 PUSH1 0x0 MSTORE PUSH1 0x11 PUSH1 0x4 MSTORE PUSH1 0x24 PUSH1 0x0 REVERT JUMPDEST PUSH1 0x0 PUSH2 0x312B DUP3 PUSH2 0x2A59 JUMP JUMPDEST SWAP2 POP PUSH2 0x3136 DUP4 PUSH2 0x2A59 JUMP JUMPDEST SWAP3 POP DUP3 DUP3 SUB SWAP1 POP DUP2 DUP2 GT ISZERO PUSH2 0x314E JUMPI PUSH2 0x314D PUSH2 0x30F1 JUMP JUMPDEST JUMPDEST SWAP3 SWAP2 POP POP JUMP JUMPDEST PUSH32 0x4E487B7100000000000000000000000000000000000000000000000000000000 PUSH1 0x0 MSTORE PUSH1 0x41 PUSH1 0x4 MSTORE PUSH1 0x24 PUSH1 0x0 REVERT JUMPDEST PUSH32 0x4E487B7100000000000000000000000000000000000000000000000000000000 PUSH1 0x0 MSTORE PUSH1 0x32 PUSH1 0x4 MSTORE PUSH1 0x24 PUSH1 0x0 REVERT JUMPDEST PUSH1 0x0 DUP2 MLOAD SWAP1 POP SWAP2 SWAP1 POP JUMP JUMPDEST PUSH1 0x0 DUP3 DUP3 MSTORE PUSH1 0x20 DUP3 ADD SWAP1 POP SWAP3 SWAP2 POP POP JUMP JUMPDEST PUSH1 0x0 DUP2 SWAP1 POP PUSH1 0x20 DUP3 ADD SWAP1 POP SWAP2 SWAP1 POP JUMP JUMPDEST PUSH2 0x31E7 DUP2 PUSH2 0x2BC7 JUMP JUMPDEST DUP3 MSTORE POP POP JUMP JUMPDEST PUSH1 0x0 PUSH2 0x31F9 DUP4 DUP4 PUSH2 0x31DE JUMP JUMPDEST PUSH1 0x20 DUP4 ADD SWAP1 POP SWAP3 SWAP2 POP POP JUMP JUMPDEST PUSH1 0x0 PUSH1 0x20 DUP3 ADD SWAP1 POP SWAP2 SWAP1 POP JUMP JUMPDEST PUSH1 0x0 PUSH2 0x321D DUP3 PUSH2 0x31B2 JUMP JUMPDEST PUSH2 0x3227 DUP2 DUP6 PUSH2 0x31BD JUMP JUMPDEST SWAP4 POP PUSH2 0x3232 DUP4 PUSH2 0x31CE JUMP JUMPDEST DUP1 PUSH1 0x0 JUMPDEST DUP4 DUP2 LT ISZERO PUSH2 0x3263 JUMPI DUP2 MLOAD PUSH2 0x324A DUP9 DUP3 PUSH2 0x31ED JUMP JUMPDEST SWAP8 POP PUSH2 0x3255 DUP4 PUSH2 0x3205 JUMP JUMPDEST SWAP3 POP POP PUSH1 0x1 DUP2 ADD SWAP1 POP PUSH2 0x3236 JUMP JUMPDEST POP DUP6 SWAP4 POP POP POP POP SWAP3 SWAP2 POP POP JUMP JUMPDEST PUSH1 0x0 PUSH1 0x60 DUP3 ADD SWAP1 POP DUP2 DUP2 SUB PUSH1 0x0 DUP4 ADD MSTORE PUSH2 0x328A DUP2 DUP7 PUSH2 0x3212 JUMP JUMPDEST SWAP1 POP PUSH2 0x3299 PUSH1 0x20 DUP4 ADD DUP6 PUSH2 0x2A63 JUMP JUMPDEST PUSH2 0x32A6 PUSH1 0x40 DUP4 ADD DUP5 PUSH2 0x2C7B JUMP JUMPDEST SWAP5 SWAP4 POP POP POP POP JUMP JUMPDEST PUSH2 0x32B7 DUP2 PUSH2 0x2C45 JUMP JUMPDEST DUP2 EQ PUSH2 0x32C2 JUMPI PUSH1 0x0 DUP1 REVERT JUMPDEST POP JUMP JUMPDEST PUSH1 0x0 DUP2 MLOAD SWAP1 POP PUSH2 0x32D4 DUP2 PUSH2 0x32AE JUMP JUMPDEST SWAP3 SWAP2 POP POP JUMP JUMPDEST PUSH1 0x0 PUSH1 0x20 DUP3 DUP5 SUB SLT ISZERO PUSH2 0x32F0 JUMPI PUSH2 0x32EF PUSH2 0x2B49 JUMP JUMPDEST JUMPDEST PUSH1 0x0 PUSH2 0x32FE DUP5 DUP3 DUP6 ADD PUSH2 0x32C5 JUMP JUMPDEST SWAP2 POP POP SWAP3 SWAP2 POP POP JUMP JUMPDEST PUSH1 0x0 DUP1 REVERT JUMPDEST PUSH2 0x3315 DUP3 PUSH2 0x2AD3 JUMP JUMPDEST DUP2 ADD DUP2 DUP2 LT PUSH8 0xFFFFFFFFFFFFFFFF DUP3 GT OR ISZERO PUSH2 0x3334 JUMPI PUSH2 0x3333 PUSH2 0x3154 JUMP JUMPDEST JUMPDEST DUP1 PUSH1 0x40 MSTORE POP POP POP JUMP JUMPDEST PUSH1 0x0 PUSH2 0x3347 PUSH2 0x2B3F JUMP JUMPDEST SWAP1 POP PUSH2 0x3353 DUP3 DUP3 PUSH2 0x330C JUMP JUMPDEST SWAP2 SWAP1 POP JUMP JUMPDEST PUSH1 0x0 PUSH1 0x20 DUP3 DUP5 SUB SLT ISZERO PUSH2 0x336E JUMPI PUSH2 0x336D PUSH2 0x3307 JUMP JUMPDEST JUMPDEST PUSH2 0x3378 PUSH1 0x20 PUSH2 0x333D JUMP JUMPDEST SWAP1 POP PUSH1 0x0 PUSH2 0x3388 DUP5 DUP3 DUP6 ADD PUSH2 0x304F JUMP JUMPDEST PUSH1 0x0 DUP4 ADD MSTORE POP SWAP3 SWAP2 POP POP JUMP JUMPDEST PUSH1 0x0 PUSH16 0xFFFFFFFFFFFFFFFFFFFFFFFFFFFFFFFF DUP3 AND SWAP1 POP SWAP2 SWAP1 POP JUMP JUMPDEST PUSH2 0x33B9 DUP2 PUSH2 0x3394 JUMP JUMPDEST DUP2 EQ PUSH2 0x33C4 JUMPI PUSH1 0x0 DUP1 REVERT JUMPDEST POP JUMP JUMPDEST PUSH1 0x0 DUP2 MLOAD SWAP1 POP PUSH2 0x33D6 DUP2 PUSH2 0x33B0 JUMP JUMPDEST SWAP3 SWAP2 POP POP JUMP JUMPDEST PUSH1 0x0 PUSH5 0xFFFFFFFFFF DUP3 AND SWAP1 POP SWAP2 SWAP1 POP JUMP JUMPDEST PUSH2 0x33F6 DUP2 PUSH2 0x33DC JUMP JUMPDEST DUP2 EQ PUSH2 0x3401 JUMPI PUSH1 0x0 DUP1 REVERT JUMPDEST POP JUMP JUMPDEST PUSH1 0x0 DUP2 MLOAD SWAP1 POP PUSH2 0x3413 DUP2 PUSH2 0x33ED JUMP JUMPDEST SWAP3 SWAP2 POP POP JUMP JUMPDEST PUSH1 0x0 DUP2 MLOAD SWAP1 POP PUSH2 0x3428 DUP2 PUSH2 0x2BD9 JUMP JUMPDEST SWAP3 SWAP2 POP POP JUMP JUMPDEST PUSH1 0x0 DUP2 MLOAD SWAP1 POP PUSH2 0x343D DUP2 PUSH2 0x2ED9 JUMP JUMPDEST SWAP3 SWAP2 POP POP JUMP JUMPDEST PUSH1 0x0 PUSH2 0x180 DUP3 DUP5 SUB SLT ISZERO PUSH2 0x345A JUMPI PUSH2 0x3459 PUSH2 0x3307 JUMP JUMPDEST JUMPDEST PUSH2 0x3465 PUSH2 0x180 PUSH2 0x333D JUMP JUMPDEST SWAP1 POP PUSH1 0x0 PUSH2 0x3475 DUP5 DUP3 DUP6 ADD PUSH2 0x3358 JUMP JUMPDEST PUSH1 0x0 DUP4 ADD MSTORE POP PUSH1 0x20 PUSH2 0x3489 DUP5 DUP3 DUP6 ADD PUSH2 0x33C7 JUMP JUMPDEST PUSH1 0x20 DUP4 ADD MSTORE POP PUSH1 0x40 PUSH2 0x349D DUP5 DUP3 DUP6 ADD PUSH2 0x33C7 JUMP JUMPDEST PUSH1 0x40 DUP4 ADD MSTORE POP PUSH1 0x60 PUSH2 0x34B1 DUP5 DUP3 DUP6 ADD PUSH2 0x33C7 JUMP JUMPDEST PUSH1 0x60 DUP4 ADD MSTORE POP PUSH1 0x80 PUSH2 0x34C5 DUP5 DUP3 DUP6 ADD PUSH2 0x33C7 JUMP JUMPDEST PUSH1 0x80 DUP4 ADD MSTORE POP PUSH1 0xA0 PUSH2 0x34D9 DUP5 DUP3 DUP6 ADD PUSH2 0x33C7 JUMP JUMPDEST PUSH1 0xA0 DUP4 ADD MSTORE POP PUSH1 0xC0 PUSH2 0x34ED DUP5 DUP3 DUP6 ADD PUSH2 0x3404 JUMP JUMPDEST PUSH1 0xC0 DUP4 ADD MSTORE POP PUSH1 0xE0 PUSH2 0x3501 DUP5 DUP3 DUP6 ADD PUSH2 0x3419 JUMP JUMPDEST PUSH1 0xE0 DUP4 ADD MSTORE POP PUSH2 0x100 PUSH2 0x3516 DUP5 DUP3 DUP6 ADD PUSH2 0x3419 JUMP JUMPDEST PUSH2 0x100 DUP4 ADD MSTORE POP PUSH2 0x120 PUSH2 0x352C DUP5 DUP3 DUP6 ADD PUSH2 0x3419 JUMP JUMPDEST PUSH2 0x120 DUP4 ADD MSTORE POP PUSH2 0x140 PUSH2 0x3542 DUP5 DUP3 DUP6 ADD PUSH2 0x3419 JUMP JUMPDEST PUSH2 0x140 DUP4 ADD MSTORE POP PUSH2 0x160 PUSH2 0x3558 DUP5 DUP3 DUP6 ADD PUSH2 0x342E JUMP JUMPDEST PUSH2 0x160 DUP4 ADD MSTORE POP SWAP3 SWAP2 POP POP JUMP JUMPDEST PUSH1 0x0 PUSH2 0x180 DUP3 DUP5 SUB SLT ISZERO PUSH2 0x357C JUMPI PUSH2 0x357B PUSH2 0x2B49 JUMP JUMPDEST JUMPDEST PUSH1 0x0 PUSH2 0x358A DUP5 DUP3 DUP6 ADD PUSH2 0x3443 JUMP JUMPDEST SWAP2 POP POP SWAP3 SWAP2 POP POP JUMP JUMPDEST PUSH32 0x5A45524F5F534841524553000000000000000000000000000000000000000000 PUSH1 0x0 DUP3 ADD MSTORE POP JUMP JUMPDEST PUSH1 0x0 PUSH2 0x35C9 PUSH1 0xB DUP4 PUSH2 0x2A98 JUMP JUMPDEST SWAP2 POP PUSH2 0x35D4 DUP3 PUSH2 0x3593 JUMP JUMPDEST PUSH1 0x20 DUP3 ADD SWAP1 POP SWAP2 SWAP1 POP JUMP JUMPDEST PUSH1 0x0 PUSH1 0x20 DUP3 ADD SWAP1 POP DUP2 DUP2 SUB PUSH1 0x0 DUP4 ADD MSTORE PUSH2 0x35F8 DUP2 PUSH2 0x35BC JUMP JUMPDEST SWAP1 POP SWAP2 SWAP1 POP JUMP JUMPDEST PUSH1 0x0 PUSH1 0x40 DUP3 ADD SWAP1 POP PUSH2 0x3614 PUSH1 0x0 DUP4 ADD DUP6 PUSH2 0x2A63 JUMP JUMPDEST PUSH2 0x3621 PUSH1 0x20 DUP4 ADD DUP5 PUSH2 0x2A63 JUMP JUMPDEST SWAP4 SWAP3 POP POP POP JUMP JUMPDEST PUSH1 0x0 PUSH1 0x60 DUP3 ADD SWAP1 POP PUSH2 0x363D PUSH1 0x0 DUP4 ADD DUP7 PUSH2 0x2C7B JUMP JUMPDEST PUSH2 0x364A PUSH1 0x20 DUP4 ADD DUP6 PUSH2 0x2A63 JUMP JUMPDEST PUSH2 0x3657 PUSH1 0x40 DUP4 ADD DUP5 PUSH2 0x2C7B JUMP JUMPDEST SWAP5 SWAP4 POP POP POP POP JUMP JUMPDEST PUSH32 0x5A45524F5F415353455453000000000000000000000000000000000000000000 PUSH1 0x0 DUP3 ADD MSTORE POP JUMP JUMPDEST PUSH1 0x0 PUSH2 0x3695 PUSH1 0xB DUP4 PUSH2 0x2A98 JUMP JUMPDEST SWAP2 POP PUSH2 0x36A0 DUP3 PUSH2 0x365F JUMP JUMPDEST PUSH1 0x20 DUP3 ADD SWAP1 POP SWAP2 SWAP1 POP JUMP JUMPDEST PUSH1 0x0 PUSH1 0x20 DUP3 ADD SWAP1 POP DUP2 DUP2 SUB PUSH1 0x0 DUP4 ADD MSTORE PUSH2 0x36C4 DUP2 PUSH2 0x3688 JUMP JUMPDEST SWAP1 POP SWAP2 SWAP1 POP JUMP JUMPDEST PUSH32 0x5045524D49545F444541444C494E455F45585049524544000000000000000000 PUSH1 0x0 DUP3 ADD MSTORE POP JUMP JUMPDEST PUSH1 0x0 PUSH2 0x3701 PUSH1 0x17 DUP4 PUSH2 0x2A98 JUMP JUMPDEST SWAP2 POP PUSH2 0x370C DUP3 PUSH2 0x36CB JUMP JUMPDEST PUSH1 0x20 DUP3 ADD SWAP1 POP SWAP2 SWAP1 POP JUMP JUMPDEST PUSH1 0x0 PUSH1 0x20 DUP3 ADD SWAP1 POP DUP2 DUP2 SUB PUSH1 0x0 DUP4 ADD MSTORE PUSH2 0x3730 DUP2 PUSH2 0x36F4 JUMP JUMPDEST SWAP1 POP SWAP2 SWAP1 POP JUMP JUMPDEST PUSH1 0x0 PUSH1 0xC0 DUP3 ADD SWAP1 POP PUSH2 0x374C PUSH1 0x0 DUP4 ADD DUP10 PUSH2 0x2D39 JUMP JUMPDEST PUSH2 0x3759 PUSH1 0x20 DUP4 ADD DUP9 PUSH2 0x2C7B JUMP JUMPDEST PUSH2 0x3766 PUSH1 0x40 DUP4 ADD DUP8 PUSH2 0x2C7B JUMP JUMPDEST PUSH2 0x3773 PUSH1 0x60 DUP4 ADD DUP7 PUSH2 0x2A63 JUMP JUMPDEST PUSH2 0x3780 PUSH1 0x80 DUP4 ADD DUP6 PUSH2 0x2A63 JUMP JUMPDEST PUSH2 0x378D PUSH1 0xA0 DUP4 ADD DUP5 PUSH2 0x2A63 JUMP JUMPDEST SWAP8 SWAP7 POP POP POP POP POP POP POP JUMP JUMPDEST PUSH1 0x0 DUP2 SWAP1 POP SWAP3 SWAP2 POP POP JUMP JUMPDEST PUSH32 0x1901000000000000000000000000000000000000000000000000000000000000 PUSH1 0x0 DUP3 ADD MSTORE POP JUMP JUMPDEST PUSH1 0x0 PUSH2 0x37D9 PUSH1 0x2 DUP4 PUSH2 0x3798 JUMP JUMPDEST SWAP2 POP PUSH2 0x37E4 DUP3 PUSH2 0x37A3 JUMP JUMPDEST PUSH1 0x2 DUP3 ADD SWAP1 POP SWAP2 SWAP1 POP JUMP JUMPDEST PUSH1 0x0 DUP2 SWAP1 POP SWAP2 SWAP1 POP JUMP JUMPDEST PUSH2 0x380A PUSH2 0x3805 DUP3 PUSH2 0x2D2F JUMP JUMPDEST PUSH2 0x37EF JUMP JUMPDEST DUP3 MSTORE POP POP JUMP JUMPDEST PUSH1 0x0 PUSH2 0x381B DUP3 PUSH2 0x37CC JUMP JUMPDEST SWAP2 POP PUSH2 0x3827 DUP3 DUP6 PUSH2 0x37F9 JUMP JUMPDEST PUSH1 0x20 DUP3 ADD SWAP2 POP PUSH2 0x3837 DUP3 DUP5 PUSH2 0x37F9 JUMP JUMPDEST PUSH1 0x20 DUP3 ADD SWAP2 POP DUP2 SWAP1 POP SWAP4 SWAP3 POP POP POP JUMP JUMPDEST PUSH1 0x0 PUSH1 0x80 DUP3 ADD SWAP1 POP PUSH2 0x385C PUSH1 0x0 DUP4 ADD DUP8 PUSH2 0x2D39 JUMP JUMPDEST PUSH2 0x3869 PUSH1 0x20 DUP4 ADD DUP7 PUSH2 0x2D05 JUMP JUMPDEST PUSH2 0x3876 PUSH1 0x40 DUP4 ADD DUP6 PUSH2 0x2D39 JUMP JUMPDEST PUSH2 0x3883 PUSH1 0x60 DUP4 ADD DUP5 PUSH2 0x2D39 JUMP JUMPDEST SWAP6 SWAP5 POP POP POP POP POP JUMP JUMPDEST PUSH32 0x494E56414C49445F5349474E4552000000000000000000000000000000000000 PUSH1 0x0 DUP3 ADD MSTORE POP JUMP JUMPDEST PUSH1 0x0 PUSH2 0x38C2 PUSH1 0xE DUP4 PUSH2 0x2A98 JUMP JUMPDEST SWAP2 POP PUSH2 0x38CD DUP3 PUSH2 0x388C JUMP JUMPDEST PUSH1 0x20 DUP3 ADD SWAP1 POP SWAP2 SWAP1 POP JUMP JUMPDEST PUSH1 0x0 PUSH1 0x20 DUP3 ADD SWAP1 POP DUP2 DUP2 SUB PUSH1 0x0 DUP4 ADD MSTORE PUSH2 0x38F1 DUP2 PUSH2 0x38B5 JUMP JUMPDEST SWAP1 POP SWAP2 SWAP1 POP JUMP JUMPDEST PUSH1 0x0 DUP2 SWAP1 POP SWAP3 SWAP2 POP POP JUMP JUMPDEST PUSH1 0x0 DUP2 SWAP1 POP DUP2 PUSH1 0x0 MSTORE PUSH1 0x20 PUSH1 0x0 KECCAK256 SWAP1 POP SWAP2 SWAP1 POP JUMP JUMPDEST PUSH1 0x0 DUP2 SLOAD PUSH2 0x3925 DUP2 PUSH2 0x30C0 JUMP JUMPDEST PUSH2 0x392F DUP2 DUP7 PUSH2 0x38F8 JUMP JUMPDEST SWAP5 POP PUSH1 0x1 DUP3 AND PUSH1 0x0 DUP2 EQ PUSH2 0x394A JUMPI PUSH1 0x1 DUP2 EQ PUSH2 0x395F JUMPI PUSH2 0x3992 JUMP JUMPDEST PUSH1 0xFF NOT DUP4 AND DUP7 MSTORE DUP2 ISZERO ISZERO DUP3 MUL DUP7 ADD SWAP4 POP PUSH2 0x3992 JUMP JUMPDEST PUSH2 0x3968 DUP6 PUSH2 0x3903 JUMP JUMPDEST PUSH1 0x0 JUMPDEST DUP4 DUP2 LT ISZERO PUSH2 0x398A JUMPI DUP2 SLOAD DUP2 DUP10 ADD MSTORE PUSH1 0x1 DUP3 ADD SWAP2 POP PUSH1 0x20 DUP2 ADD SWAP1 POP PUSH2 0x396B JUMP JUMPDEST DUP4 DUP9 ADD SWAP6 POP POP POP JUMPDEST POP POP POP SWAP3 SWAP2 POP POP JUMP JUMPDEST PUSH1 0x0 PUSH2 0x39A7 DUP3 DUP5 PUSH2 0x3918 JUMP JUMPDEST SWAP2 POP DUP2 SWAP1 POP SWAP3 SWAP2 POP POP JUMP JUMPDEST PUSH1 0x0 PUSH1 0xA0 DUP3 ADD SWAP1 POP PUSH2 0x39C7 PUSH1 0x0 DUP4 ADD DUP9 PUSH2 0x2D39 JUMP JUMPDEST PUSH2 0x39D4 PUSH1 0x20 DUP4 ADD DUP8 PUSH2 0x2D39 JUMP JUMPDEST PUSH2 0x39E1 PUSH1 0x40 DUP4 ADD DUP7 PUSH2 0x2D39 JUMP JUMPDEST PUSH2 0x39EE PUSH1 0x60 DUP4 ADD DUP6 PUSH2 0x2A63 JUMP JUMPDEST PUSH2 0x39FB PUSH1 0x80 DUP4 ADD DUP5 PUSH2 0x2C7B JUMP JUMPDEST SWAP7 SWAP6 POP POP POP POP POP POP JUMP JUMPDEST PUSH32 0x5452414E534645525F46524F4D5F4641494C4544000000000000000000000000 PUSH1 0x0 DUP3 ADD MSTORE POP JUMP JUMPDEST PUSH1 0x0 PUSH2 0x3A3B PUSH1 0x14 DUP4 PUSH2 0x2A98 JUMP JUMPDEST SWAP2 POP PUSH2 0x3A46 DUP3 PUSH2 0x3A05 JUMP JUMPDEST PUSH1 0x20 DUP3 ADD SWAP1 POP SWAP2 SWAP1 POP JUMP JUMPDEST PUSH1 0x0 PUSH1 0x20 DUP3 ADD SWAP1 POP DUP2 DUP2 SUB PUSH1 0x0 DUP4 ADD MSTORE PUSH2 0x3A6A DUP2 PUSH2 0x3A2E JUMP JUMPDEST SWAP1 POP SWAP2 SWAP1 POP JUMP JUMPDEST PUSH1 0x0 PUSH2 0x3A7C DUP3 PUSH2 0x2A59 JUMP JUMPDEST SWAP2 POP PUSH2 0x3A87 DUP4 PUSH2 0x2A59 JUMP JUMPDEST SWAP3 POP DUP3 DUP3 ADD SWAP1 POP DUP1 DUP3 GT ISZERO PUSH2 0x3A9F JUMPI PUSH2 0x3A9E PUSH2 0x30F1 JUMP JUMPDEST JUMPDEST SWAP3 SWAP2 POP POP JUMP JUMPDEST PUSH1 0x0 DUP2 SWAP1 POP SWAP2 SWAP1 POP JUMP JUMPDEST PUSH1 0x0 PUSH2 0xFFFF DUP3 AND SWAP1 POP SWAP2 SWAP1 POP JUMP JUMPDEST PUSH1 0x0 PUSH2 0x3AD8 PUSH2 0x3AD3 PUSH2 0x3ACE DUP5 PUSH2 0x3AA5 JUMP JUMPDEST PUSH2 0x2D63 JUMP JUMPDEST PUSH2 0x3AAF JUMP JUMPDEST SWAP1 POP SWAP2 SWAP1 POP JUMP JUMPDEST PUSH2 0x3AE8 DUP2 PUSH2 0x3ABD JUMP JUMPDEST DUP3 MSTORE POP POP JUMP JUMPDEST PUSH1 0x0 PUSH1 0x80 DUP3 ADD SWAP1 POP PUSH2 0x3B03 PUSH1 0x0 DUP4 ADD DUP8 PUSH2 0x2C7B JUMP JUMPDEST PUSH2 0x3B10 PUSH1 0x20 DUP4 ADD DUP7 PUSH2 0x2A63 JUMP JUMPDEST PUSH2 0x3B1D PUSH1 0x40 DUP4 ADD DUP6 PUSH2 0x2C7B JUMP JUMPDEST PUSH2 0x3B2A PUSH1 0x60 DUP4 ADD DUP5 PUSH2 0x3ADF JUMP JUMPDEST SWAP6 SWAP5 POP POP POP POP POP JUMP JUMPDEST PUSH32 0x415050524F56455F4641494C4544000000000000000000000000000000000000 PUSH1 0x0 DUP3 ADD MSTORE POP JUMP JUMPDEST PUSH1 0x0 PUSH2 0x3B69 PUSH1 0xE DUP4 PUSH2 0x2A98 JUMP JUMPDEST SWAP2 POP PUSH2 0x3B74 DUP3 PUSH2 0x3B33 JUMP JUMPDEST PUSH1 0x20 DUP3 ADD SWAP1 POP SWAP2 SWAP1 POP JUMP JUMPDEST PUSH1 0x0 PUSH1 0x20 DUP3 ADD SWAP1 POP DUP2 DUP2 SUB PUSH1 0x0 DUP4 ADD MSTORE PUSH2 0x3B98 DUP2 PUSH2 0x3B5C JUMP JUMPDEST SWAP1 POP SWAP2 SWAP1 POP JUMP INVALID LOG2 PUSH5 0x6970667358 0x22 SLT KECCAK256 0x29 SHL 0xBE CALLVALUE PUSH31 0x1EF59ED18D83E953AFA1D2C099BDB09BB2CD14811158015BD4BD1A64736F6C PUSH4 0x43000810 STOP CALLER "
				},
				"gasEstimates": {
					"creation": {
						"codeDepositCost": "3063400",
						"executionCost": "infinite",
						"totalCost": "infinite"
					},
					"external": {
						"DOMAIN_SEPARATOR()": "infinite",
						"aToken()": "infinite",
						"aaveMining()": "infinite",
						"allowance(address,address)": "infinite",
						"approve(address,uint256)": "infinite",
						"asset()": "infinite",
						"balanceOf(address)": "2925",
						"claimRewards()": "infinite",
						"convertToAssets(uint256)": "infinite",
						"convertToShares(uint256)": "infinite",
						"decimals()": "infinite",
						"deposit(uint256,address)": "infinite",
						"lendingPool()": "infinite",
						"maxDeposit(address)": "infinite",
						"maxMint(address)": "infinite",
						"maxRedeem(address)": "infinite",
						"maxWithdraw(address)": "infinite",
						"mint(uint256,address)": "infinite",
						"name()": "infinite",
						"nonces(address)": "2860",
						"permit(address,address,uint256,uint256,uint8,bytes32,bytes32)": "infinite",
						"previewDeposit(uint256)": "infinite",
						"previewMint(uint256)": "infinite",
						"previewRedeem(uint256)": "infinite",
						"previewWithdraw(uint256)": "infinite",
						"redeem(uint256,address,address)": "infinite",
						"rewardRecipient()": "infinite",
						"symbol()": "infinite",
						"totalAssets()": "infinite",
						"totalSupply()": "2519",
						"transfer(address,uint256)": "infinite",
						"transferFrom(address,address,uint256)": "infinite",
						"withdraw(uint256,address,address)": "infinite"
					},
					"internal": {
						"_getActive(uint256)": "43",
						"_getFrozen(uint256)": "43",
						"_vaultName(contract ERC20)": "infinite",
						"_vaultSymbol(contract ERC20)": "infinite",
						"afterDeposit(uint256,uint256)": "infinite"
					}
				},
				"methodIdentifiers": {
					"DOMAIN_SEPARATOR()": "3644e515",
					"aToken()": "a0c1f15e",
					"aaveMining()": "f71b865d",
					"allowance(address,address)": "dd62ed3e",
					"approve(address,uint256)": "095ea7b3",
					"asset()": "38d52e0f",
					"balanceOf(address)": "70a08231",
					"claimRewards()": "372500ab",
					"convertToAssets(uint256)": "07a2d13a",
					"convertToShares(uint256)": "c6e6f592",
					"decimals()": "313ce567",
					"deposit(uint256,address)": "6e553f65",
					"lendingPool()": "a59a9973",
					"maxDeposit(address)": "402d267d",
					"maxMint(address)": "c63d75b6",
					"maxRedeem(address)": "d905777e",
					"maxWithdraw(address)": "ce96cb77",
					"mint(uint256,address)": "94bf804d",
					"name()": "06fdde03",
					"nonces(address)": "7ecebe00",
					"permit(address,address,uint256,uint256,uint8,bytes32,bytes32)": "d505accf",
					"previewDeposit(uint256)": "ef8b30f7",
					"previewMint(uint256)": "b3d7f6b9",
					"previewRedeem(uint256)": "4cdad506",
					"previewWithdraw(uint256)": "0a28a477",
					"redeem(uint256,address,address)": "ba087652",
					"rewardRecipient()": "17f33340",
					"symbol()": "95d89b41",
					"totalAssets()": "01e1d114",
					"totalSupply()": "18160ddd",
					"transfer(address,uint256)": "a9059cbb",
					"transferFrom(address,address,uint256)": "23b872dd",
					"withdraw(uint256,address,address)": "b460af94"
				}
			},
			"storageLayout": {
				"storage": [
					{
						"astId": 1281,
						"contract": "aave-v2/AaveV2ERC4626.sol:AaveV2ERC4626",
						"label": "name",
						"offset": 0,
						"slot": "0",
						"type": "t_string_storage"
					},
					{
						"astId": 1283,
						"contract": "aave-v2/AaveV2ERC4626.sol:AaveV2ERC4626",
						"label": "symbol",
						"offset": 0,
						"slot": "1",
						"type": "t_string_storage"
					},
					{
						"astId": 1287,
						"contract": "aave-v2/AaveV2ERC4626.sol:AaveV2ERC4626",
						"label": "totalSupply",
						"offset": 0,
						"slot": "2",
						"type": "t_uint256"
					},
					{
						"astId": 1291,
						"contract": "aave-v2/AaveV2ERC4626.sol:AaveV2ERC4626",
						"label": "balanceOf",
						"offset": 0,
						"slot": "3",
						"type": "t_mapping(t_address,t_uint256)"
					},
					{
						"astId": 1297,
						"contract": "aave-v2/AaveV2ERC4626.sol:AaveV2ERC4626",
						"label": "allowance",
						"offset": 0,
						"slot": "4",
						"type": "t_mapping(t_address,t_mapping(t_address,t_uint256))"
					},
					{
						"astId": 1305,
						"contract": "aave-v2/AaveV2ERC4626.sol:AaveV2ERC4626",
						"label": "nonces",
						"offset": 0,
						"slot": "5",
						"type": "t_mapping(t_address,t_uint256)"
					}
				],
				"types": {
					"t_address": {
						"encoding": "inplace",
						"label": "address",
						"numberOfBytes": "20"
					},
					"t_mapping(t_address,t_mapping(t_address,t_uint256))": {
						"encoding": "mapping",
						"key": "t_address",
						"label": "mapping(address => mapping(address => uint256))",
						"numberOfBytes": "32",
						"value": "t_mapping(t_address,t_uint256)"
					},
					"t_mapping(t_address,t_uint256)": {
						"encoding": "mapping",
						"key": "t_address",
						"label": "mapping(address => uint256)",
						"numberOfBytes": "32",
						"value": "t_uint256"
					},
					"t_string_storage": {
						"encoding": "bytes",
						"label": "string",
						"numberOfBytes": "32"
					},
					"t_uint256": {
						"encoding": "inplace",
						"label": "uint256",
						"numberOfBytes": "32"
					}
				}
			},
			"userdoc": {
				"events": {
					"ClaimRewards(uint256)": {
						"notice": "----------------------------------------------------------------------- Events -----------------------------------------------------------------------"
					}
				},
				"kind": "user",
				"methods": {
					"aToken()": {
						"notice": "The Aave aToken contract"
					},
					"aaveMining()": {
						"notice": "The Aave liquidity mining contract"
					},
					"claimRewards()": {
						"notice": "Claims liquidity mining rewards from Aave and sends it to rewardRecipient"
					},
					"constructor": {
						"notice": "----------------------------------------------------------------------- Constructor -----------------------------------------------------------------------"
					},
					"lendingPool()": {
						"notice": "The Aave LendingPool contract"
					},
					"rewardRecipient()": {
						"notice": "The address that will receive the liquidity mining rewards (if any)"
					},
					"withdraw(uint256,address,address)": {
						"notice": "----------------------------------------------------------------------- ERC4626 overrides -----------------------------------------------------------------------"
					}
				},
				"notice": "ERC4626 wrapper for Aave V2",
				"version": 1
			}
		}
	}
}